:020000040800F2
:1080000000000520F96C0108B1A20008B3A2000825
:10801000B5A20008B7A20008B9A20008000000003D
:10802000000000000000000000000000911E010898
:10803000BBA2000800000000311F0108951F0108C5
:10804000496D0108496D0108496D0108496D010834
:10805000496D0108496D0108496D0108496D010824
:10806000496D0108496D0108496D0108496D010814
:10807000496D0108496D0108496D0108496D010804
:10808000496D0108496D0108496D0108496D0108F4
:10809000496D0108496D0108496D0108496D0108E4
:1080A000496D0108496D0108496D0108496D0108D4
:1080B000496D0108BDA20008CDA20008496D010864
:1080C000496D0108496D0108496D0108496D0108B4
:1080D000496D0108496D0108496D0108496D0108A4
:1080E000496D0108496D0108496D0108496D010894
:1080F000496D0108496D0108496D0108496D010884
:10810000496D0108496D0108496D0108496D010873
:10811000496D0108496D0108DDA20008496D01089B
:10812000496D0108EDA20008496D0108496D01087B
:10813000496D0108496D0108496D0108496D010843
:10814000496D0108496D0108496D0108496D010833
:10815000496D0108FDA20008496D0108496D01083B
:10816000496D0108496D0108496D0108496D010813
:10817000496D0108496D0108496D010800000000C2
:10818000496D0108496D0108496D0108496D0108F3
:10819000496D0108496D0108496D0108496D0108E3
:1081A0000DA30008496D01081DA30008496D0108D1
:0881B0002DA30008EE11AA55F1
:1081C00010B5054C237833B9044B13B10448AFF311
:1081D00000800123237010BD280200200000000051
:1081E000E06C020808B5034B1BB103490348AFF329
:1081F000008008BD000000002C020020E06C020896
:10820000034613F8012B002AFBD1181A01387047D6
:1082100081F0004102E000BF83F0004330B54FEA37
:1082200041044FEA430594EA050F08BF90EA020FA4
:108230001FBF54EA000C55EA020C7FEA645C7FEA37
:10824000655C00F0E2804FEA5454D4EB5555B8BF5A
:108250006D420CDD2C4480EA020281EA030382EACB
:10826000000083EA010180EA020281EA0303362D5D
:1082700088BF30BD11F0004F4FEA01314FF4801C30
:108280004CEA113102D0404261EB410113F0004F42
:108290004FEA03334CEA133302D0524263EB4303F9
:1082A00094EA050F00F0A780A4F10104D5F1200E97
:1082B0000DDB02FA0EFC22FA05F2801841F10001F2
:1082C00003FA0EF2801843FA05F359410EE0A5F1C6
:1082D00020050EF1200E012A03FA0EFC28BF4CF0F7
:1082E000020C43FA05F3C01851EBE37101F00045AD
:1082F00007D54FF0000EDCF1000C7EEB00006EEBBA
:108300000101B1F5801F1BD3B1F5001F0CD3490843
:108310005FEA30004FEA3C0C04F101044FEA44529A
:1083200012F5800F80F09A80BCF1004F08BF5FEA21
:10833000500C50F1000041EB045141EA050130BD01
:108340005FEA4C0C404141EB010111F4801FA4F1A4
:108350000104E9D191F0000F04BF01460020B1FAF9
:1083600081F308BF2033A3F10B03B3F120020CDA31
:108370000C3208DD02F1140CC2F10C0201FA0CF00F
:1083800021FA02F10CE002F11402D8BFC2F1200C74
:1083900001FA02F120FA0CFCDCBF41EA0C0190402A
:1083A000E41AA2BF01EB0451294330BD6FEA040473
:1083B0001F3C1CDA0C340EDC04F11404C4F120025E
:1083C00020FA04F001FA02F340EA030021FA04F370
:1083D00045EA030130BDC4F10C04C4F1200220FAC7
:1083E00002F001FA04F340EA0300294630BD21FA05
:1083F00004F0294630BD94F0000F83F4801306BFCB
:1084000081F480110134013D4EE77FEA645C18BFBE
:108410007FEA655C29D094EA050F08BF90EA020F55
:1084200005D054EA000C04BF1946104630BD91EA4D
:10843000030F1EBF0021002030BD5FEA545C05D150
:108440004000494128BF41F0004130BD14F580048F
:108450003CBF01F5801130BD01F0004545F0FE4103
:1084600041F470014FF0000030BD7FEA645C1ABF38
:10847000194610467FEA655C1CBF0B46024650EA6F
:10848000013406BF52EA033591EA030F41F400219B
:1084900030BD00BF90F0000F04BF0021704730B521
:1084A0004FF4806404F132044FF000054FF00001F6
:1084B00050E700BF90F0000F04BF0021704730B5B7
:1084C0004FF4806404F1320410F0004548BF40428C
:1084D0004FF000013EE700BF42004FEAE2014FEAE1
:1084E00031014FEA02701FBF12F07F4393F07F4FBC
:1084F00081F06051704732F07F4208BF704793F0BF
:108500007F4F04BF41F40021704730B54FF46074D1
:1085100001F0004521F000411CE700BF50EA0102D4
:1085200008BF704730B54FF000050AE050EA01027D
:1085300008BF704730B511F0004502D5404261EBED
:1085400041014FF4806404F132045FEA915C3FF42E
:10855000D8AE4FF003025FEADC0C18BF03325FEACB
:10856000DC0C18BF033202EBDC02C2F1200300FA7C
:1085700003FC20FA02F001FA03FE40EA0E0021FAA1
:1085800002F11444BDE600BF70B54FF0FF0C4CF48F
:10859000E06C1CEA11541DBF1CEA135594EA0C0F41
:1085A00095EA0C0F00F0DEF82C4481EA030621EA7C
:1085B0004C5123EA4C5350EA013518BF52EA0335B7
:1085C00041F4801143F4801338D0A0FB02CE4FF069
:1085D0000005E1FB02E506F00042E0FB03E54FF099
:1085E0000006E1FB03569CF0000F18BF4EF0010E91
:1085F000A4F1FF04B6F5007F64F5407404D25FEA8D
:108600004E0E6D4146EB060642EAC62141EA55513F
:108610004FEAC52040EA5E504FEACE2EB4F1FD0C81
:1086200088BFBCF5E06F1ED8BEF1004F08BF5FEAFF
:10863000500E50F1000041EB045170BD06F00046B1
:1086400046EA010140EA020081EA0301B4EB5C045E
:10865000C2BFD4EB0C0541EA045170BD41F4801156
:108660004FF0000E013C00F3AB8014F1360FDEBF7B
:10867000002001F0004170BDC4F10004203C35DA57
:108680000C341BDC04F11404C4F1200500FA05F3DA
:1086900020FA04F001FA05F240EA020001F000427B
:1086A00021F0004110EBD37021FA04F642EB0601F1
:1086B0005EEA430E08BF20EAD37070BDC4F10C041B
:1086C000C4F1200500FA04F320FA05F001FA04F2DF
:1086D00040EA020001F0004110EBD37041F10001CB
:1086E0005EEA430E08BF20EAD37070BDC4F12005D6
:1086F00000FA05F24EEA020E20FA04F301FA05F23E
:1087000043EA020321FA04F001F0004121FA04F2E5
:1087100020EA020000EBD3705EEA430E08BF20EAB5
:10872000D37070BD94F0000F0FD101F000464000EF
:1087300041EB010111F4801F08BF013CF7D041EA71
:10874000060195F0000F18BF704703F00046520075
:1087500043EB030313F4801F08BF013DF7D043EA46
:108760000603704794EA0C0F0CEA135518BF95EAFC
:108770000C0F0CD050EA410618BF52EA4306D1D183
:1087800081EA030101F000414FF0000070BD50EAA2
:10879000410606BF1046194652EA430619D094EA2C
:1087A0000C0F02D150EA013613D195EA0C0F05D116
:1087B00052EA03361CBF104619460AD181EA03016A
:1087C00001F0004141F0FE4141F470014FF0000022
:1087D00070BD41F0FE4141F4780170BD70B54FF0BD
:1087E000FF0C4CF4E06C1CEA11541DBF1CEA13553D
:1087F00094EA0C0F95EA0C0F00F0A7F8A4EB05041F
:1088000081EA030E52EA03354FEA013100F0888015
:108810004FEA03334FF0805545EA131343EA1263DE
:108820004FEA022245EA111545EA10654FEA002693
:108830000EF000419D4208BF964244F1FD0404F54C
:10884000407402D25B084FEA3202B61A65EB0305A8
:108850005B084FEA32024FF480104FF4002CB6EB65
:10886000020E75EB030E22BFB61A754640EA0C00E5
:108870005B084FEA3202B6EB020E75EB030E22BF25
:10888000B61A754640EA5C005B084FEA3202B6EB66
:10889000020E75EB030E22BFB61A754640EA9C0025
:1088A0005B084FEA3202B6EB020E75EB030E22BFF5
:1088B000B61A754640EADC0055EA060E18D04FEAB3
:1088C000051545EA16754FEA06164FEAC30343EA53
:1088D00052734FEAC2025FEA1C1CC0D111F4801F20
:1088E0000BD141EA00014FF000004FF0004CB6E719
:1088F00011F4801F04BF01430020B4F1FD0C88BFB8
:10890000BCF5E06F3FF6AFAEB5EB030C04BFB6EBC2
:10891000020C5FEA500C50F1000041EB045170BDB5
:108920000EF0004E4EEA113114EB5C04C2BFD4EBE2
:108930000C0541EA045170BD41F480114FF0000E66
:10894000013C90E645EA060E8DE60CEA135594EAE2
:108950000C0F08BF95EA0C0F3FF43BAF94EA0C0FE5
:108960000AD150EA01347FF434AF95EA0C0F7FF45A
:1089700025AF104619462CE795EA0C0F06D152EAAE
:1089800003353FF4FDAE1046194622E750EA410692
:1089900018BF52EA43067FF4C5AE50EA41047FF4A3
:1089A0000DAF52EA43057FF4EBAE12E74FF0FF3C08
:1089B00006E000BF4FF0010C02E000BF4FF0010CD9
:1089C0004DF804CD4FEA410C7FEA6C5C4FEA430C52
:1089D00018BF7FEA6C5C1BD001B050EA410C0CBFA1
:1089E00052EA430C91EA030F02BF90EA020F002003
:1089F000704710F1000F91EA030F58BF994208BF6A
:108A000090422CBFD8176FEAE37040F00100704726
:108A10004FEA410C7FEA6C5C02D150EA013C07D17D
:108A20004FEA430C7FEA6C5CD6D152EA033CD3D0C8
:108A30005DF8040B704700BF8446104662468C46C2
:108A40001946634600E000BF01B5FFF7B7FF0028F5
:108A500048BF10F1000F01BD4DF808EDFFF7F4FF1E
:108A60000CBF012000205DF808FB00BF4DF808EDA9
:108A7000FFF7EAFF34BF012000205DF808FB00BFCC
:108A80004DF808EDFFF7E0FF94BF012000205DF8EE
:108A900008FB00BF4DF808EDFFF7CEFF94BF0120A3
:108AA00000205DF808FB00BF4DF808EDFFF7C4FF9C
:108AB00034BF012000205DF808FB00BF4FEA4102EF
:108AC000B2F1E04324BFB3F5001CDCF1FE5C0DD92C
:108AD00001F0004C4FEAC0024CEA5070B2F1004F76
:108AE00040EB830008BF20F00100704711F0804F79
:108AF00021D113F13872BCBF01F00040704741F43E
:108B000080114FEA5252C2F11802C2F1200C10FA41
:108B10000CF320FA02F018BF40F001004FEAC12325
:108B20004FEAD32303FA0CFC40EA0C0023FA02F3C9
:108B30004FEA4303CCE77FEA625307D150EA01339F
:108B40001EBF4FF0FE4040F44000704701F000406F
:108B500040F0FE4040F40000704700BF53B94AB9EE
:108B6000002908BF00281CBF4FF0FF314FF0FF3035
:108B700000F072B9ADF1080C6DE904CE00F006F812
:108B8000DDF804E0DDE9022304B070472DE9F04789
:108B9000089E04468846002B4BD18A42154667D969
:108BA000B2FA82F24AB1C2F1200701FA02F320FAC6
:108BB00007F7954047EA030894404FEA154E230C07
:108BC000B8FBFEF71FFA85FC0EFB178843EA084343
:108BD00007FB0CF1994209D9EB1807F1FF3080F03F
:108BE0001B81994240F21881023F2B445B1AA4B2C8
:108BF000B3FBFEF00EFB103344EA034400FB0CFC15
:108C0000A44509D92C1900F1FF3380F00781A44550
:108C100040F2048102382C4440EA0740A4EB0C04E3
:108C200000271EB1D4400023C6E900433946BDE801
:108C3000F0878B4209D9002E00F0EB800027C6E9AF
:108C4000000138463946BDE8F087B3FA83F7002FB4
:108C500047D18B4202D3824200F2FA80841A61EB40
:108C6000030301209846002EE0D0C6E90048DDE766
:108C700002B9FFDEB2FA82F2002A40F08F80491B6F
:108C80004FEA154E1FFA85F80127B1FBFEFC230CB5
:108C90000EFB1C1143EA014308FB0CF1994207D972
:108CA000EB180CF1FF3002D2994200F2CD808446DD
:108CB000591AA3B2B1FBFEF00EFB101443EA0444B0
:108CC00008FB00F8A04507D92C1900F1FF3302D2A8
:108CD000A04500F2B6801846A4EB080440EA0C4018
:108CE0009FE7C7F1200CBB4022FA0CFE4EEA030EB0
:108CF00001FA07F420FA0CF521FA0CF34FEA1E48AA
:108D00002543B3FBF8F92C0C08FB19331FFA8EFA34
:108D100044EA034309FB0AF49C4202FA07F200FA10
:108D200007F10BD91EEB030309F1FF3080F08780B8
:108D30009C4240F28480A9F1020973441B1BADB22E
:108D4000B3FBF8F008FB103345EA034400FB0AFAD2
:108D5000A24508D91EEB040400F1FF336BD2A245F3
:108D600069D90238744440EA0940A0FB0289A4EBA7
:108D70000A044C45C2464B4654D351D0002E69D00C
:108D8000B1EB0A0564EB030404FA0CFCFD40FC4063
:108D90004CEA0505C6E90054002747E7C2F1200365
:108DA00020FA03F7954001FA02F021FA03F34FEAA3
:108DB000154E3843010CB3FBFEF71FFA85F80EFB86
:108DC000173341EA034107FB08F38B4204FA02F42C
:108DD00007D9691807F1FF3C2FD28B422DD9023FEA
:108DE0002944CB1A81B2B3FBFEF00EFB103341EAEB
:108DF000034100FB08F38B4207D9691800F1FF3CDF
:108E000017D28B4215D902382944C91A40EA0747BC
:108E10003BE73746304609E70746E7E61846FBE6F4
:108E20004145ABD2B8EB020A69EB0E02013813469A
:108E3000A4E76046E9E7184695E76746D1E781462B
:108E40007CE702382C4447E7ACF1020C2B442FE7B7
:108E5000384608E73746E9E6704700BFC31C0F4AAB
:108E6000D35C811C515C43EA0123411C515C43EA01
:108E70000143125C43EA0263094A1360F3EE047A89
:108E800007EE103AB4EEE77AF1EE10FA02DD13467F
:108E9000C3ED007A024B93ED000A70470CE8022004
:108EA0004402002030B585B01E4C20460DF0A4FED3
:108EB00020788DF80C0061881B4B1960E4881B4BEF
:108EC0001C601B4B18601B4B5B8899421ED25B1ABF
:108ED0009BB2184AD28894421BD2121B92B2154DF3
:108EE0002D78A84218D0134B187011B10CB15980CD
:108EF000DC8000238DF80D300E4B5A880192DB8800
:108F0000029301A810F08CFB05B030BDCB1A9BB2C8
:108F1000DFE7A21A92B2E2E7032BE4D8032AE2D8F1
:108F2000F2E700BF90F30220CCE9022020E7022004
:108F3000D0E5022048020020A44B5B6A642B00D8D5
:108F4000704770B582B000200DF0F4FDA04AA14B2F
:108F50001B6803EB830359005172D368022B00F0A6
:108F60005D81032B00F0A082012B04D0974B0022DF
:108F70005A6202B070BD984B1B69984A934218D050
:108F80006FF47F4293423BD013F5B64F3CD06FF461
:108F90007F0293423CD013F1800F3DD06FF07F12DF
:108FA00093423DD08E4A93423ED0894B0A225A705A
:108FB00002E0874B00225A708A4B1B69874A934212
:108FC00036D06FF47F42934200F0C08013F5B64F65
:108FD00000F0C0806FF47F02934200F0BF8013F175
:108FE000800F00F0BF806FF07F12934200F0BE80D0
:108FF0007B4A934200F0BE80754B0A229A701AE0B9
:10900000734B01225A70D7E7714B02225A70D3E793
:109010006F4B03225A70CFE76D4B04225A70CBE797
:109020006B4B05225A70C7E7694B06225A70C3E79B
:10903000674B00229A706C4BD3ED007A644EFCEEC5
:10904000E77A17EE903A3372684D0A24009423466B
:1090500032463221284603F0D5FA009423463246A0
:109060002821284603F0CEFA614E0094234632466A
:109070002821284603F080FBB379FF2B01D05D4AFD
:1090800013705B4AD279FF2A06D007EE902AF8EED9
:10909000677A514AC2ED007A554A527AFF2A06D0C1
:1090A00007EE902AF8EE677A4E4AC2ED007A83F016
:1090B000010202F0010248498A609B0883F0010323
:1090C00003F0010347498B601AB14B49C968012974
:1090D00054DD12B9484A00211161474AD268022A78
:1090E00058D03D4AD2681AB1434A5269142A5DD019
:1090F00041494A6901324A61132A04DD0A461421B2
:1091000051610021D1601BB13B4A9269012A51DDB6
:1091100013B9394B0022DA61374B9B69022B6DD0B2
:10912000304BDB681BB1344B1B6A142B72D0324AB4
:10913000136A01331362132B04DD134614221A62DF
:1091400000229A61224B0222DA600FE7204B0122B3
:109150009A7070E71E4B02229A706CE71C4B032238
:109160009A7068E71A4B04229A7064E7184B05223C
:109170009A7060E7164B06229A705CE71E480069F9
:109180000028A6D101311C48C160012101610021E4
:1091900041619EE7184A5269132AA2DC164A00214F
:1091A000D1600D480124C46051619AE70A4A002148
:1091B000D1609DE71049C9690029A9D101320E4942
:1091C0008A610122CA6100220A62A1E70008004008
:1091D0004000002088F1022060E50220D3D3D3FFB5
:1091E000FF8080FF0CE70220F4EE0220ACF10220A9
:1091F0006CFA0220B4F8022048020020A04B1B6A3F
:10920000132B8DDC9E4B00229A619E490120C86081
:109210001A6285E79B4B0022DA6088E79A4B1B694C
:109220009A4A934218D06FF47F4293423BD013F591
:10923000B64F3CD06FF47F0293423CD013F1800FC5
:109240003DD06FF07F1293423DD0914A93423ED081
:10925000904B0A229A7002E08E4B00229A708E4B3D
:109260001B698A4A934236D06FF47F42934200F0E2
:10927000B78013F5B64F00F0B7806FF47F029342CA
:1092800000F0B68013F1800F00F0B6806FF07F120F
:10929000934200F0B5807E4A934200F0B5807D4B4A
:1092A0000A225A701AE07B4B01229A70D7E7794B59
:1092B00002229A70D3E7774B03229A70CFE7754B5F
:1092C00004229A70CBE7734B05229A70C7E7714B63
:1092D00006229A70C3E76F4B00225A706D4E6F4D95
:1092E0000A240094234632463221284603F08AF9A4
:1092F0000094234632461E21284603F083F9684E27
:109300000094234632461E21284603F035FAB279EE
:10931000FF2A01D0634B1A70614BDB79FF2B06D01B
:1093200007EE903AF8EE677A574BC3ED007A5C4B44
:109330005B7AFF2B06D007EE903AF8EE677A564B31
:10934000C3ED007A930883F0010303F001034E4953
:109350008B6082F0010202F001024F498A601BB16A
:109360004749496A012953DD13B9454B00219962E8
:10937000434B5B6A022B57D0434BDB681BB1404B1E
:10938000DB6A142B5CD03E49CB6A0133CB62132BD2
:1093900004DD0B461421D962002159621AB1384B01
:1093A0001B6B012B50DD0AB9354B5A63344B1B6BD9
:1093B000022B55D0384BDB681BB1314B9B6B142B08
:1093C0005AD02F4A936B01339363132B04DD13465A
:1093D00014229A6300221A632E4B0322DA60C5E539
:1093E0002C4B01225A7079E72A4B02225A7075E7FA
:1093F000284B03225A7071E7264B04225A706DE7FE
:10940000244B05225A7069E7224B06225A7065E701
:109410001B48806A0028A7D1013119484162012107
:1094200081620021C1629FE7154BDB6A132BA3DC2D
:10943000134B0021596214480124C460D9629BE790
:10944000114B0021D9609EE70D49496B0029AAD133
:1094500001330B490B6301234B6300238B63A2E7AA
:10946000074B9B6B132BA5DC054B00221A630A49A3
:109470000120C8609A639DE7074B0022DA60A0E7ED
:10948000480200200CE70220F4EE0220D3D3D3FFE1
:10949000FF8080FF400000204CED0220ACF1022054
:1094A0006CFA02204CFA0220064C0A230093224652
:1094B0003221054803F0A6F8FFF7F4FC0123E3602E
:1094C00054E500BF40000020ACF102207047704717
:1094D00070470000034B036058330B608023136018
:1094E000704700BF98020020054B064A1A60002210
:1094F0005A609A60DA601A615A619A61704700BFD7
:1095000014000320002C0140014A024B9A6070476E
:109510000080000800ED00E02DE9F04F91B000243C
:109520000B940C940D940E940F9400948C4B1A6B26
:1095300042F010021A631A6B02F010020092009AB5
:1095400001941A6B42F040021A631A6B02F0400257
:109550000192019A02941A6B42F002021A631A6B8A
:1095600002F002020292029A03941A6B42F0040281
:109570001A631A6B02F004020392039A04941A6BA2
:1095800042F001021A631A6B02F001020492049A7B
:1095900005941A6B42F008021A631A6B02F0080273
:1095A0000592059A06941A6B42F480721A631A6B3C
:1095B00002F480720692069A07941A6B42F0200217
:1095C0001A631A6B02F020020792079A08941A6B2A
:1095D00042F480621A631A6B02F480620892089A5D
:1095E00009941A6B42F080021A631A6B02F080022F
:1095F0000992099A0A941A6B42F400721A631B6B5F
:1096000003F400730A930A9B564E22460C213046FF
:1096100002F0B7FB22463021534802F0B2FB22464B
:109620000821524802F0ADFB22464021504802F08A
:10963000A8FB224605214F4802F0A3FB22468021C9
:109640004D4802F09EFBDFF838B12246082158460B
:1096500002F097FB0C230B9301250C950D940E94AF
:109660000BA9304602F0F6F908260B964FF00208D7
:10967000CDF830800D940E9406230F930BA93D482E
:1096800002F0E8F94FF08009CDF82C90DFF8F4A053
:10969000CDF830A00D940BA9364802F0DBF94FF459
:1096A000E0530B93CDF830800D9403230E930A23DF
:1096B0000F930BA9584602F0CDF930230B931127D5
:1096C0000C970D940E940BA9274802F0C3F90B9642
:1096D0000C970D940E940BA9244802F0BBF94FF49B
:1096E00000730B93CDF830800D940BA9584602F00F
:1096F000B1F940230B930C970D940E940BA91C48C1
:1097000002F0A8F905230B930C950D940E940BA968
:10971000184802F09FF904230B930C940D940BA9A5
:10972000134802F097F920230B93CDF830A00D9445
:109730000BA9124802F08EF9CDF82C900C950D94DF
:109740000E940BA90C4802F085F90B960C950D941C
:109750000E940BA9584602F07DF911B0BDE8F08FC8
:109760000038024000100240000C02400028024075
:109770000018024000040240001C02400024024085
:10978000000002400000111010B582B000240194C6
:109790000D4B1A6B42F480021A631B6B03F48003B7
:1097A0000193019B22460521392001F067F93920F8
:1097B00001F098F922460521452001F05FF9452086
:1097C00001F090F902B010BD0038024008B503481E
:1097D000034B036001F0A6F908BD00BFBCFE0220E8
:1097E0000030024008B50948094B0360094B43604B
:1097F00000238360C3604FF4804202614361836150
:10980000C361036202F00AFE08BD00BFACF1022092
:1098100000540040A086010008B50948094B0360C8
:10982000094B436000238360C3604FF480420261B0
:1098300043618361C361036202F0F0FD08BD00BFB4
:10984000C4FE022000580040A086010008B5084868
:10985000084B0360FF234360012282600023C36042
:10986000026143618361C361036203F07FFE08BD4F
:1098700064010320001000A008B51148114B0360DB
:1098800000234363436040228263C36303648360B5
:10989000036143618361C3610B4A0262C3608362F7
:1098A000C36203630822426401228264C3640365C5
:1098B00043658365C3650266436604F087FB08BDA4
:1098C000D80003200458014000EE020030B587B0F4
:1098D00000240294039404940594009401940E4D82
:1098E0000E4B2B600E4B6B60AC600E4BEB602C6133
:1098F0006C61AC61284605F08BFB4FF480530293FA
:1099000002A9284605F0A9FB00940194694628465F
:1099100005F010FC07B030BDD4FF0220000001406C
:109920008F5F0100A086010030B583B0002500954F
:1099300001950B4C0B4B236042F227336360A5600B
:1099400040F2F313E3602561A561204605F060FB5A
:10995000009501956946204605F0ECFB03B030BD4B
:1099600018FF02200004004030B587B000240294A4
:10997000039404940594009401940E4D0E4B2B60B7
:1099800042F210736B60AC600C4BEB602C61AC610D
:10999000284605F03DFB4FF48053029302A9284668
:1099A00005F05BFB009401946946284605F0C2FB74
:1099B00007B030BD3CFE022000080040A086010038
:1099C00008B50848084B03604FF4E13343600023B7
:1099D0008360C36003610C2242618361C36105F04F
:1099E00013FD08BD7CFE02200048004008B5084871
:1099F000084B0360084B436000238360C36003612E
:109A00000C2242618361C36105F0FEFC08BD00BF0A
:109A1000980003200014014020A1070008B506F0BB
:109A2000E7FA09F029FA012006F087FDFBE70000BC
:109A30002DE9F041A4B03422002117A81DF03BF815
:109A40000024129413941494159416943C222146E5
:109A500003A81DF030F80194284B1A6C42F0805294
:109A60001A641B6C03F080530193019B0294244BF6
:109A70001A6842F440421A601B6803F440430293A0
:109A8000029B4FF00108CDF85C804FF480371897A7
:109A900002251D954FF480031E9304231F93B423C6
:109AA0002093219506262296239617A804F0A4F861
:109AB00003F0F4FC0F231293139514944FF4A05366
:109AC00015934FF480531693052112A803F014FE4A
:109AD0004FF4C6730393902307930A95099508964C
:109AE000CDF830800D974FF000631093119403A8C8
:109AF00003F0F6FE24B0BDE8F08100BF003802405C
:109B00000070004010B582B000240EE0294A002306
:109B1000137080235370284B33F814100A230093DA
:109B20000223264802F06EFD0134052CEEDD0024F0
:109B300012E0204A0C2313700023537093701023FB
:109B4000D37013711C4B33F814100A2300930523B0
:109B50001A4802F057FD0134052CEADD00240EE01E
:109B6000144A0023137010235370134B33F814104E
:109B70000A2300930223114802F044FD0134052C0E
:109B8000EEDD002412E00B4A1423137000235370FF
:109B90009370D37001231371074B33F814100A2309
:109BA00000930523054802F02DFD0134052CEADD64
:109BB00002B010BDBCFF022050000020ACF102201A
:109BC00000B589B0FFF7A0FC00F006FFFFF730FFFB
:109BD000FFF7A2FCFFF7D8FDFFF7F8FDFFF702FE45
:109BE000FFF71AFEFFF732FEFFF746FEFFF77CFC99
:109BF000FFF76CFEFFF798FEFFF7B6FEFFF7E0FEFB
:109C0000FFF7F4FEFFF77EFF00200CF037FF012086
:109C10000CF034FF02200CF031FF03200CF02EFF7B
:109C20000CF046FE0CF054FE4FF4F0714FF4487007
:109C30000CF0A6FF0D4CC8220D49204605F05AFC39
:109C400096220C49204605F00FFC01AC0A4D0FCDC1
:109C50000FC495E8070084E80700002101A806F07A
:109C600032FC064B186006F016FCFEE79800032055
:109C700000E9022090ED0220F86C0208D8FD0220D5
:109C800008B50268034B9A4200D008BD00F0BEFE42
:109C9000FBE700BF001000407047000082B00021C9
:109CA00000910B4B5A6C42F480425A645A6C02F495
:109CB00080420092009A01911A6C42F080521A641C
:109CC0001B6C03F080530193019B02B0704700BFEF
:109CD000003802400268094B9A4200D0704782B0B7
:109CE00000230193064B1A6B42F480521A631B6BDC
:109CF00003F480530193019B02B07047003002408F
:109D00000038024030B58BB00023059306930793CB
:109D1000089309930368294A934204D0284A93423E
:109D200027D00BB030BD00250195264C236B43F0A6
:109D300002032363236B03F002030193019B4FF49F
:109D4000407305931223069301230793032308937B
:109D50000423099305A91C4801F07CFE0295236C9D
:109D600043F400132364236C03F400130293029B57
:109D7000D7E700250395134C236B43F0800323633F
:109D8000236B03F080030393039B3023059312237B
:109D9000069301230793032308930423099305A93A
:109DA0000A4801F057FE0495236C43F480032364B2
:109DB000236C03F480030493049BB2E70054004037
:109DC000005800400038024000040240001C0240DD
:109DD00008B503680E4A934203D00E4A93420CD052
:109DE00008BD02F5F232136C23F4001313644FF430
:109DF0004071094801F01EFFF2E702F5F032136CE2
:109E000023F4800313643021044801F013FFE7E7D3
:109E1000005400400058004000040240001C024072
:109E20002DE9F04188B00023039304930593069332
:109E300007930268264B9A4202D008B0BDE8F08131
:109E400000240094234B9A6B42F002029A639A6BAF
:109E500002F002020092009A01941A6B42F0020290
:109E60001A631A6B02F002020192019A02941A6BB1
:109E700042F020021A631B6B03F020030293029B43
:109E80004023039302260496032506954FF00A0803
:109E9000CDF81C8003A9104801F0DCFD4FF4986355
:109EA0000393049605940695092307930B4F03A982
:109EB000384601F0CFFD4FF44073039304960594A8
:109EC0000695CDF81C8003A9384601F0C3FDB4E720
:109ED000001000A0003802400004024000140240BC
:109EE000F0B589B000230393049305930693079379
:109EF0000268204B9A4201D009B0F0BD00240094C2
:109F000003F586335A6C42F400625A645A6C02F4C8
:109F100000620092009A01941A6B42F004021A63E4
:109F20001A6B02F004020192019A02941A6B42F039
:109F300008021A631B6B03F008030293029B4FF4A1
:109F4000F853039302270497032606960C250795DA
:109F50000DEB0501084801F07DFD042303930497F0
:109F60000594069607950DEB0501044801F072FD76
:109F7000C2E700BF002C014000080240000C024074
:109F800010B58AB0002305930693079308930993AD
:109F900003682A4A934207D0294A934211D0294A9A
:109FA000934222D00AB010BD00230193264B5A6C75
:109FB00042F001025A645B6C03F001030193019BC0
:109FC000F0E700220292204B196C41F00201196463
:109FD0001B6C03F002030293029B05211D2000F07D
:109FE0004DFD1D2000F07EFDDCE700240394164BA0
:109FF0001A6C42F004021A641A6C02F00402039212
:10A00000039A04941A6B42F008021A631B6B03F064
:10A0100008030493049B4FF4005305930223069313
:10A02000099305A9094801F015FD224605211E20C6
:10A0300000F024FD1E2000F055FDB3E700000140B4
:10A04000000400400008004000380240000C0240BC
:10A0500030B58BB0002305930693079308930993BB
:10A060000368474A934205D00446464A934227D0A4
:10A070000BB030BD00210191434B1A6C42F4802299
:10A080001A641A6C02F480220192019A02911A6BEE
:10A0900042F002021A631B6B03F002030293029B5D
:10A0A0004FF4406305930223069301230793032390
:10A0B00008930723099305A9344801F0CBFCD7E79F
:10A0C00000250395304B5A6C42F020025A645A6CBA
:10A0D00002F020020392039A04951A6B42F04002A8
:10A0E0001A631B6B03F040030493049B4FF48443F7
:10A0F000059302230693032308930823099305A9D4
:10A10000234801F0A7FC2348234B03604FF0206352
:10A1100043608560C5604FF480630361456185617C
:10A120004FF48073C3614FF480330362456200F0E3
:10A1300085FDF8B9174B63639C631848184B03609F
:10A140004FF020634360402383600023C3604FF4DB
:10A1500080620261436183614FF48072C2614FF497
:10A1600080320262436200F069FD30B90B4B236319
:10A170009C637DE7FFF790FDDCE7FFF78DFDF5E7DA
:10A180000048004000140140003802400004024032
:10A1900000180240DCFD02202864024058FF022023
:10A1A000A064024002681D4B9A4200D0704770B50F
:10A1B00086B01B4B1B685BB900220092194A516C98
:10A1C00041F480015164526C02F480020092009AC2
:10A1D0000133134A136030230193022602960024B0
:10A1E000039404940625059501A90F4801F032FC5B
:10A1F00040230193029603940494059501A90B480A
:10A2000001F028FC802301930296039404940595A1
:10A2100001A9074801F01EFC06B070BD04580140BA
:10A22000F00400200038024000100240000C024000
:10A230000018024010B588B000220146362000F018
:10A240001DFC362000F04EFC00240194144B1A6CC7
:10A2500042F010021A641B6C03F010030193019B7F
:10A2600002A903A803F01EFB03F0FCFA43000D480B
:10A27000A0FB03239B0C013B0B480C4A026040F2FD
:10A28000E732C26043600461846004F0C1FE10B133
:10A29000012008B010BD044804F083FDF9E700BFB9
:10A2A0000038024083DE1B43B00103200010004051
:10A2B0007047FEE7FEE7FEE7FEE7704708B5024895
:10A2C00004F084FD08BD00BF18FF022008B5024855
:10A2D00004F07CFD08BD00BF3CFE022008B502482A
:10A2E00004F074FD08BD00BFB001032008B50248AA
:10A2F00000F040FD08BD00BFDCFD022008B50248AB
:10A3000000F038FD08BD00BF58FF022008B5024824
:10A3100002F00BFF08BD00BF8406032008B5024809
:10A3200000F047FE08BD00BF2C07032008B5024817
:10A3300001F0A9F808BD00BF68060320054BD3F85B
:10A34000882042F47002C3F888204FF000629A60BF
:10A35000704700BF00ED00E010B5364805F01EF96B
:10A36000002308E00021344AD154344AD45C3448F4
:10A37000C454D1540133C72BF4DD2E4805F046F9FF
:10A3800000232DE0591C2E48415C73292ED1991CC5
:10A39000415C74292AD1D91C415C612926D13DE058
:10A3A000591C2748415C732922D1991C415C7429AE
:10A3B0001ED1A3F1C501415C612919D12EE0591CC0
:10A3C0001F48415C732915D1A3F1C601415C742972
:10A3D00010D1A3F1C501415C61290BD11EE001330D
:10A3E000C72B1ADC164AD25C232ACBD0232AD7D01B
:10A3F000232AE4D0232AF2D1A3F1C70210498A5CB0
:10A40000732AECD1A3F1C6028A5C742AE7D1A3F1C6
:10A41000C5028A5C612AE2D100E00023002205E047
:10A4200099180748405C044988540132632AF7DDD3
:10A4300010BD00BF980003200CE8022000E90220B4
:10A4400018EF022008B50B4805F0A8F800221346C3
:10A4500004E00949895C0B449BB20132612AF8DDB2
:10A46000054A82F862301B0A82F86330014805F021
:10A47000CDF808BD9800032090ED02207047002021
:10A48000704770470023012B06D8054AD25C8242F0
:10A4900003D00133DBB2F6E7FF231846704700BF55
:10A4A000F404002010B50446FFF7ECFFFF2800D0AD
:10A4B00010BD0020FFF7E6FF0128F9D8024B1C541D
:10A4C0000CF048FBF4E700BFF404002010B504468C
:10A4D0000CF040FBA821E0B20CF044FB10BD0000E2
:10A4E00000B583B000238DF807300221C0B20CF014
:10A4F00039FB8DF807009DF8073003F00F038DF846
:10A5000007309DF80730DBB2022B02D900238DF80B
:10A5100007309DF80720044B5A7100229A719DF86C
:10A52000070003B05DF804FBF404002070B582B0AE
:10A53000164B9D795B799D4222D22DB3012D21D0FE
:10A54000002614460D4604230DEB03023146C0B22B
:10A550000CF00CFB9DF804301B0203F470639DF8B3
:10A56000052013432B809DF806301B0203F4706313
:10A570009DF8072013432380044A93790133937194
:10A5800002B070BD0926DCE70326DAE7F4040020F8
:10A5900008B50122A421C0B20CF0E0FA08BD08B54C
:10A5A0000022A421C0B20CF0D9FA08BD08B5FFF70B
:10A5B000F6FF08BD2DE9F04F83B083460191F84CBA
:10A5C000214600200BF020FE211D03200BF01CFE75
:10A5D00004F10805294600200BF016FE04F10C01D9
:10A5E00002200BF011FE294600200BF00DFE04F1B5
:10A5F000100100200BF008FE0A200BF021FE04F1F0
:10A60000140100200BF000FE04F1180100200BF0F3
:10A61000FBFD0A200BF014FE04F11C0100200BF0DE
:10A62000F3FD04F1200100200BF0EEFD04F1240104
:10A6300000200BF0E9FD04F12807394600200BF05B
:10A64000E3FD04F12C0100200BF0DEFD04F13001EC
:10A6500000200BF0D9FD214600200BF0D5FD04F1C0
:10A66000340100200BF0D0FD04F1380A51460020DF
:10A670000BF0CAFD04F13C0100200BF0C5FD04F114
:10A680004006314600200BF0BFFD04F144010020DC
:10A690000BF0BAFD04F1480100200BF0B5FD04F108
:10A6A0004C0100200BF0B0FD04F1500100200BF034
:10A6B000ABFD394600200BF0A7FD214600200BF032
:10A6C000A3FD04F1540102200BF09EFD04F158019A
:10A6D00000200BF099FD04F15C0100200BF094FDCB
:10A6E00004F1600100200BF08FFD04F164010020F3
:10A6F0000BF08AFD04F1680100200BF085FD04F1E8
:10A700006C0100200BF080FD514600200BF07CFD19
:10A7100004F1700100200BF077FD314600200BF0B2
:10A7200073FD04F1740100200BF06EFD04F178015B
:10A7300000200BF069FD04F17C0102200BF064FDA8
:10A74000294600200BF060FD04F1800106200BF08B
:10A750005BFD04F18809494600200BF055FD04F12A
:10A760008C010E200BF050FD04F19C0841460020A6
:10A770000BF04AFD04F1A0010E200BF045FD04F1A1
:10A78000B007394600200BF03FFD04F1B4010A2068
:10A790000BF03AFD04F1C006314600200BF034FD09
:10A7A00004F1C40100200BF02FFD294600200BF01E
:10A7B0002BFD04F1C8010A200BF026FD04F1D401A1
:10A7C00000200BF021FD04F1D8010F200BF01CFD3F
:10A7D000494600200BF018FD04F1E8010F200BF0B2
:10A7E00013FD414600200BF00FFD04F1F8010A2093
:10A7F0000BF00AFD394600200BF006FD04F58271CE
:10A800000F200BF001FD314600200BF0FDFC04F59C
:10A810008A710F200BF0F8FC04F5927100200BF008
:10A82000F3FC04F594710A200BF0EEFC04F59A7128
:10A8300000200BF0E9FC04F59C710A200BF0E4FC0D
:10A84000294600200BF0E0FC04F5A2710A200BF071
:10A85000DBFC04F1D40100200BF0D6FC04F5A87158
:10A860000F200BF0D1FC494600200BF0CDFC04F585
:10A87000B0710F200BF0C8FC414600200BF0C4FC67
:10A8800004F5B8710A200BF0BFFC394600200BF02C
:10A89000BBFC04F5BE710F200BF0B6FC3146002066
:10A8A0000BF0B2FC04F5C6710F200BF0ADFC514665
:10A8B00000200BF0A9FC04F5CE7100200BF0A4FCE5
:10A8C00004F5D07100200BF09FFC04F5D27100203C
:10A8D0000BF09AFC04F5D47100200BF095FC04F504
:10A8E000D67100200BF090FC214600200BF08CFC70
:10A8F00004F5D87103200BF087FC214600200BF0F3
:10A9000083FC214600200BF07FFC04F5DA71102057
:10A910000BF07AFC214600200BF076FC04F5E47184
:10A9200010200BF071FC04F5EE7100200BF06CFCB4
:10A9300078200BF085FCBBF1000F33D0BBF1020F88
:10A9400004D104F5F07100200BF05EFC019B012B9B
:10A950002DD0134C04F5FE7100200BF055FC04F5CE
:10A96000007100200BF050FC04F5017100200BF089
:10A970004BFC04F5027100200BF046FC04F503715A
:10A9800000200BF041FC214600200BF03DFC04F5BB
:10A99000047100200BF038FC002003B0BDE8F08FFC
:10A9A0002C6D02080A4900200BF02EFCCEE7094C62
:10A9B00004F5F47100200BF027FC04F5F671042077
:10A9C0000BF022FC04F5FA7104200BF01DFCC0E72B
:10A9D000106F02082C6D020808B50B4B1A6842F480
:10A9E00000721A601A6842F480621A601A6842F4AF
:10A9F00080721A60032000F02FF80020FFF71AFC85
:10AA0000FFF74CF9002008BD003C0240034A1168E2
:10AA1000034B1B780B441360704700BFF001032009
:10AA200088000020014B1868704700BFF001032028
:10AA300038B50446FFF7F6FF0546B4F1FF3F02D0F4
:10AA4000044B1B781C44FFF7EDFF401BA042FAD3D8
:10AA500038BD00BF88000020074AD36823F4E063B4
:10AA60001B041B0C000200F4E060184340F0BF60C0
:10AA700040F40030D060704700ED00E030B4174B78
:10AA8000DB68C3F30223C3F10704042C28BF0424AA
:10AA90001D1D062D18D9033B4FF0FF3505FA04F4B0
:10AAA00021EA0401994005FA03F322EA030319435A
:10AAB00000280BDB0901C9B200F1604000F56140DC
:10AAC00080F8001330BC70470023E5E700F00F006A
:10AAD0000901C9B2024B1954F4E700BF00ED00E0D0
:10AAE00014ED00E0002807DB00F01F0240090123FD
:10AAF0009340024A42F82030704700BF00E100E076
:10AB000000280CDB00F01F02400901239340203095
:10AB1000034A42F82030BFF34F8FBFF36F8F704767
:10AB200000E100E058B110B5044643791BB10123A0
:10AB30006371002010BD0371FFF7CCF8F7E7012027
:10AB4000704730B405682C6824F480242C600468B5
:10AB500063608368402B05D0036899600368DA60FE
:10AB600030BC704703689A600368D960F8E700005A
:10AB70000268D3B2103B0B49A1FB03131B090A491E
:10AB8000C95CC165032B06D822F47F7222F0030250
:10AB90008265806D704722F47F7222F003020432D6
:10ABA0008265F6E7ABAAAAAA406F0208836A8269A7
:10ABB00092B9012B0AD01BB1022B01D000207047A3
:10ABC000C36A13F0807F2CD100207047C36AB3F1B1
:10ABD000C07F28D000207047B2F5005F05D0022B5F
:10ABE00029D9032B15D000207047032B03D8DFE8A9
:10ABF00003F01C041C0A00207047C36A13F0807F16
:10AC000015D100207047C36AB3F1C07F11D0002076
:10AC10007047C36A13F0807F01D001207047002085
:10AC200070470120704701207047012070470120C4
:10AC300070470120704701207047000070B504463E
:10AC4000FFF7F0FE002C5BD00546002384F834307B
:10AC5000022384F835302268136823F0010313605F
:10AC600023681A6812F0010F0AD0FFF7DBFE401BC1
:10AC70000528F5D920236365032084F8350070BDCD
:10AC80001A68204810406168A2680A43E1680A43D4
:10AC900021690A4361690A43A1690A43E1690A43D8
:10ACA000216A0A430243616A04291ED01A60266899
:10ACB000756925F00705636A1D43042B07D1A36A54
:10ACC0001D43E36A1BB12046FFF770FF90B9756121
:10ACD0002046FFF74DFFE26D3F2393408360002045
:10ACE0006065012384F83530C9E7E16A206B0143D0
:10ACF0000A43DBE740236365012084F83500BEE7A3
:10AD00000120BCE73F8010F038B5856D90F83440E5
:10AD1000012C2CD0012480F8344090F83540E4B266
:10AD2000012C04D0002380F83430022038BD0446C2
:10AD3000022084F83500002060652046FFF701FFFF
:10AD4000E26D3F239340AB602268136843F0160323
:10AD50001360236C23B12268136843F00803136067
:10AD60002268136843F0010313600020DEE702202D
:10AD7000DCE70000F0B583B0044600230193724B7A
:10AD80001D68724BA3FB0535AD0A876D3E68C26D29
:10AD900008239340334210D003681A6812F0040F5E
:10ADA0000BD01A6822F004021A60C26D0823934087
:10ADB000BB60436D43F001034365E26D01239340A3
:10ADC000334209D02268526912F0800F04D0BB6070
:10ADD000636D43F002036365E26D042393403342E5
:10ADE00009D02268126812F0020F04D0BB60636DB4
:10ADF00043F004036365E26D10239340334224D093
:10AE00002268126812F0080F1FD0BB6023681A680E
:10AE100012F4802F0DD01B6813F4002F04D1236C83
:10AE20009BB12046984710E0A36C73B12046984729
:10AE30000BE01A6812F4807F03D11A6822F008022E
:10AE40001A60236C0BB120469847E26D2023934093
:10AE5000334255D02268126812F0100F50D0BB60F8
:10AE600094F83530DBB2052B0ED023681A6812F443
:10AE7000802F33D01B6813F4002F2AD1636C002B72
:10AE80003ED0204698473BE02268136823F0160323
:10AE900013602268536923F080035361236CA3B1CC
:10AEA0002268136823F008031360E26D3F23934088
:10AEB000BB60002384F83430012384F83530236DDF
:10AEC000002B3FD0204698473CE0A36C002BE7D1F5
:10AED000EBE7E36BA3B12046984711E01A6812F440
:10AEE000807F09D11A6822F010021A60002384F8CA
:10AEF0003430012384F83530E36B0BB1204698479A
:10AF0000636DFBB1636D13F0010F17D0052384F857
:10AF100035302268136823F001031360019B01336D
:10AF20000193AB4204D823681B6813F0010FF5D1DD
:10AF3000002384F83430012384F83530E36C0BB1FE
:10AF40002046984703B0F0BD5C000020B5814E1B41
:10AF5000406D704748B310B5044690F83930FBB1E6
:10AF6000022384F839302268136823F4403361687F
:10AF70000B4313602268536B23F00703A1680B4354
:10AF800053632268136C23F47F5323F03F03E1687B
:10AF90000B4313640020E063012384F8393010BDB3
:10AFA00080F838300AF0C0FDDAE7012070477047BA
:10AFB000704770B5044603685D681E6815F0010FA0
:10AFC00016D016F4807F13D01A6822F480721A60AB
:10AFD000C36B43F00103C363036801229A60042337
:10AFE00080F83930002380F83830436903B198473E
:10AFF00015F0200F18D016F4005F15D022681368E2
:10B0000023F400531360236820229A60E36B43F01B
:10B010000203E363042384F83930002384F83830D2
:10B0200063690BB12046984715F0080F18D016F445
:10B03000006F15D02268136823F40063136023683F
:10B0400008229A60E36B43F00403E363042384F86B
:10B050003930002384F8383063690BB120469847B3
:10B0600015F0040F02D016F4806F20D115F0020FF6
:10B0700016D016F4007F13D02268136823F40073EF
:10B080001360236802229A60E36BE363012384F870
:10B090003930002384F8383023690BB120469847B3
:10B0A00015F0100F02D016F4805F0CD170BD22682D
:10B0B000136823F480631360236804229A60204697
:10B0C000FFF775FFD2E72268136823F480531360FB
:10B0D000236810229A60E36BE363012384F839301C
:10B0E000002384F838302046FFF762FFDEE70000D7
:10B0F00090F83830012B59D030B4012380F8383023
:10B10000022380F8393000EB0113DA698B1C1B0134
:10B11000C35842EA0343093A012A1ED98A1C00EBAC
:10B120000212526843EA026341BB0468656A204A1E
:10B130002A4013436362026800EB01139C69946127
:10B14000DB69093B012B10D9012380F8393000233A
:10B1500080F83830184630BC70478A1C00EB021269
:10B16000526802F07F421343DEE7023100EB011127
:10B170004B68026823F07F439362E5E70468E56962
:10B180000B4A2A401343E361026800EB01139C69F8
:10B190001461DB69093B012BD6D8023100EB0111A8
:10B1A0004B68026823F07F431362CDE702207047AB
:10B1B000F0FFFC0042EA811242EA0323009A43EACC
:10B1C0000243C36670472DE9F0410446884616469F
:10B1D0001F46FFF727FC05462068436F13F0010F59
:10B1E00007D1FFF71FFC401BB0F57A7FF4D903208D
:10B1F00008E046EA881646EA0726069B46EA034622
:10B20000C6660020BDE8F081037C012B73D00123CA
:10B21000037402680023C2F8C4300268C2F8C83060
:10B22000816111F0010F08D00268D2F8C4306FEAD2
:10B2300013436FEA0343C2F8C43011F0020F06D083
:10B240000268D2F8C43043F4F813C2F8C43011F0E5
:10B25000040F06D00268D2F8C83043F00103C2F8E8
:10B26000C83011F0080F06D00268D2F8C83043F099
:10B270000203C2F8C83011F0100F06D00268D2F8ED
:10B28000C83043F00C03C2F8C83011F0200F06D0CC
:10B290000268D2F8C83043F01003C2F8C83011F089
:10B2A000400F06D00268D2F8C83043F02003C2F83D
:10B2B000C83011F0800F06D00268D2F8C83043F0D1
:10B2C0004003C2F8C83011F4807F06D00268D2F87B
:10B2D000C83043F08003C2F8C83011F4007F06D0B4
:10B2E0000268D2F8C83043F4F853C2F8C8300023DB
:10B2F000037418467047022070470000002800F0D1
:10B30000BC8070B582B004460E46437C1BB3032359
:10B310006374002300932268D2F8303443F08073C2
:10B32000C2F830342368D3F8303403F080730093CC
:10B33000009BFFF777FB05462368D3F80C2412F433
:10B34000805F0BD1FFF76EFB401BB0F57A7FF3D91E
:10B35000032002B070BD0AF0A9FBD8E7D3F830246F
:10B3600022F45E3222F4FE72C3F830242168D1F850
:10B37000302430687368DB0243EA8003B06843EA34
:10B3800000431343C1F83034002301932268D2F8FC
:10B39000303443F00103C2F830342368D3F830343A
:10B3A00003F001030193019BFFF73CFB0546236873
:10B3B000D3F80C2412F4807F07D1FFF733FB401B36
:10B3C000B0F57A7FF3D90320C3E7D3F8A02042F089
:10B3D0000602C3F8A0202268D2F8943023F00303B9
:10B3E000C2F894302268D2F8943061680B4343F07D
:10B3F0000103C2F894302268D2F8A43023F003038A
:10B40000C2F8A4302268D2F8A430E1680B43C2F835
:10B41000A4302268936823F0FF0393602268936846
:10B42000A1680B439360726802B90122144B03FBBD
:10B4300002F3B26802F00302934031684FF4FA520B
:10B4400002FB01F2B3FBF2F32168D1F8182422F0D9
:10B450003F02C1F818242168D1F818241343C1F819
:10B46000183423680020C3F8C4002368C3F8C80058
:10B47000A0616061012363746BE70120704700BF26
:10B4800000093D00704710B504460368D3F80C244A
:10B4900012F0010F04D0D3F8082412F0010F60D18C
:10B4A0002368D3F80C2412F0020F04D0D3F8082438
:10B4B00012F0020F5BD1A369002B51D02168D1F8A3
:10B4C000BC20D1F8C4301A40D1F8C000D1F8C8303F
:10B4D000034091B219B1616941F00101616112F457
:10B4E000F81F03D0626942F00202626113F0010F9B
:10B4F00003D0626942F00402626113F0020F03D0CC
:10B50000626942F00802626113F00C0F03D06269B5
:10B5100042F01002626113F0100F03D0626942F032
:10B520002002626113F0200F03D0626942F04002F2
:10B53000626113F0400F03D0626942F080026261E1
:10B5400013F0800F03D0626942F48072626113F4D9
:10B55000F85F03D0636943F40073636163696BB997
:10B5600010BD0122C3F810240AF09CFE98E70222C5
:10B57000C3F8102420460AF0C1FE9CE72046FFF7DE
:10B5800081FFEDE7037C012B0ED0012303740268D9
:10B59000136B23F0030313630268136B19431163E6
:10B5A000002303741846704702207047037C012B68
:10B5B00000F0828030B4012303740268536B43F0BF
:10B5C000010353630268D2F8003423F00103C2F888
:10B5D00000340268D2F8003443F00103C2F80034AA
:10B5E0000268D36823F00303D3600268D3680C6851
:10B5F0002343D3600268536923F00703536104684F
:10B600006269CB698D692B434D692B431343636199
:10B610000268136923F00F031361026813694C6811
:10B62000234313610268D2F8003423F00E03C2F8FA
:10B6300000340268D2F800344C6843EA4403C2F88C
:10B6400000340268536E1B0C1B0453660268536E71
:10B650008C68234353660268D2F8003423F0F00369
:10B66000C2F800340468D4F80024CB680D692B4379
:10B670004D6A2B430D6A2B431343C4F80034026810
:10B68000936E23F0010393660268936E896A0B43FD
:10B6900093660268D2F8083443F00103C2F8083414
:10B6A0000268D2F8083443F00203C2F808340023D9
:10B6B0000374184630BC704702207047037C012B8E
:10B6C00031D030B4012303740268946E174B2340C9
:10B6D00093660468A26E0B684D682B438D682B43FC
:10B6E000CD682B430D692B434D692B438D692B434B
:10B6F000CD692B430D6A2B434D6A2B438D6A2B4337
:10B70000CD6A2B431343A3660268936E23F00203B2
:10B7100093660268936E096B0B4393660023037470
:10B72000184630BC70470220704700BFFF80F0FE13
:10B73000037C012B0ED0012303740268D36A23F02B
:10B740001F03D3620268D36A1943D16200230374D2
:10B750001846704702207047037C012B3ED030B45E
:10B76000012303740B684A68934238BF1346046888
:10B77000D4F8982002F0FC22C4F898200468D4F889
:10B78000982043EA03431343C4F898300268D2F880
:10B790009C3003F40043C2F89C300468D4F89C2029
:10B7A0000B69CD6843EA05438D6843EA056313439B
:10B7B000C4F89C300268D2F8A43023F47F43C2F866
:10B7C000A4300268D2F8A430496943EA0123C2F8E0
:10B7D000A43000230374184630BC70470220704721
:10B7E000037C012B77D010B40123037402689368A3
:10B7F00023F47F439360026893680C6843EA042350
:10B8000093600268936F9BB293670268936F4C6872
:10B8100043EA044393670268936F1B0C1B0493670E
:10B820000268936F8C68234393670268D36F1B0C85
:10B830001B04D3670268D36FCC682343D3670268C5
:10B84000D2F880301B0C1B04C2F880300268D2F89A
:10B8500080300C692343C2F880300268D2F884300B
:10B860001B0C1B04C2F884300268D2F884304C6987
:10B870002343C2F884300268D2F8843023F0807306
:10B88000C2F884300268D2F884308C692343C2F84D
:10B8900084300268D2F888301B0C1B04C2F8883050
:10B8A0000268D2F88830CC692343C2F88830026835
:10B8B000D2F88C301B0C1B04C2F88C300268D2F812
:10B8C0008C30096A0B43C2F88C300023037418468D
:10B8D0005DF8044B704702207047037C012B21D098
:10B8E00082B0012303740023009301684A6842F088
:10B8F00001024A600268516801F00101009100995B
:10B900000193D2F8041441F00801C2F8041402684B
:10B91000D2F8042402F008020192019A0374184636
:10B9200002B0704702207047037C012B0CD001232A
:10B9300003740268D2F8043443F00403C2F80434F8
:10B9400000230374184670470220704710B582B078
:10B95000047C012C0BD00446012020740498009034
:10B960002046FFF730FC0023237402B010BD0220F4
:10B97000FBE72DE9F04782B00A9D0B9C067C012E67
:10B980004CD0984692468946074601230374FFF738
:10B9900049F806463A68536F13F0010F09D1FFF7D3
:10B9A00041F8801BB0F57A7FF4D900233B74032063
:10B9B00031E04146032928BF0321002304E0E05C75
:10B9C0000133DE00B04005438B42F8D31567A8EB86
:10B9D000010021440AE00D5DE3009D402E43013447
:10B9E0009442F8D33B681E67801A114430B1024676
:10B9F000042828BF042200263446F1E708F1010399
:10BA0000C3F307220092DBB2524649463868FFF77B
:10BA1000D1FB0020387402B0BDE8F0870220FAE7BD
:10BA2000037C012B13D0012303740268D2F81C3469
:10BA300023F0C063C2F81C340268D2F81C3443EA15
:10BA40004161C2F81C140023037418467047022099
:10BA50007047000000230F2B00F2E380F0B583B0A5
:10BA600039E0092200E00022AA403A4302346D4D39
:10BA700045F824206C4A1468F24302EA04054F6832
:10BA800017F4803F01D046EA0405674C25606468DE
:10BA900002EA04054F6817F4003F01D046EA0405A6
:10BAA000614C6560A46802EA04054F6817F4801FC2
:10BAB00001D046EA04055C4CA560E46822404D686C
:10BAC00015F4001F01D046EA0402574CE26001332E
:10BAD0000F2B00F2A48001229A400C6804EA0206AF
:10BAE000B242F4D14C68651E012D03D9112C01D04E
:10BAF000122C12D185685F000324BC4025EA04059E
:10BB0000CC68BC402C438460456825EA02054C683B
:10BB1000C4F300129A402A434260C4685F000322C3
:10BB2000BA40D24314408D68BD402543C5604C687F
:10BB3000022C01D0122C13D1DD08083550F825E075
:10BB400003F007044FEA840C0F2404FA0CF42EEAE5
:10BB5000040E0C6904FA0CF444EA0E0440F8254083
:10BB6000046822404C6804F00304BC402243026095
:10BB70004A6812F0805FAAD0002201922B4A546CCE
:10BB800044F480445464526C02F480420192019A5D
:10BB90009C08A51C234A52F8257003F00302950067
:10BBA0000F22AA4027EA0207214A90423FF45BAFE6
:10BBB00002F58062904222D002F58062904220D04D
:10BBC00002F5806290421ED002F5806290421CD045
:10BBD00002F5806290421AD002F58062904218D03D
:10BBE00002F58062904216D002F58062904214D035
:10BBF00002F5806290423FF434AF0A2234E701221A
:10BC000032E7022230E703222EE704222CE7052246
:10BC10002AE7062228E7072226E7082224E703B0BE
:10BC2000F0BD704700380140003C01400038024040
:10BC30000000024000230F2B00F29480F0B529E0B1
:10BC4000092700E0002707FA05F5B54271D005681D
:10BC50005E000324B440E44325400560DD08083558
:10BC600050F8256003F007074FEA870C0F2707FA03
:10BC70000CF726EA070640F82560C5682540C56030
:10BC8000456825EA020242608268144084600133FC
:10BC90000F2B66D801229A4002EA0104A242F6D193
:10BCA0004FEA930E0EF102062F4D55F8266003F071
:10BCB0000305AD004FF00F0C0CFA05FC0CEA06066C
:10BCC0002A4FB842BED007F58067B84221D007F5A9
:10BCD0008067B8421FD007F58067B8421DD007F5CE
:10BCE0008067B8421BD007F58067B84219D007F5C6
:10BCF0008067B84217D007F58067B84215D007F5BE
:10BD00008067B84213D007F58067B84298D00A27F9
:10BD100099E7012797E7022795E7032793E7042789
:10BD200091E705278FE706278DE707278BE7082789
:10BD300089E70F4D2E68E44326402E606E6826404A
:10BD40006E60AE682640AE60EE683440EC60064E31
:10BD50000EF1020456F8245025EA0C0546F824504A
:10BD600075E7F0BD704700BF003801400000024099
:10BD7000003C01400369194201D1002070470120B5
:10BD8000704712B909048161704781617047436946
:10BD900031EA030301D08161704709048161704772
:10BDA00003685A6912F4806F11D06FF480625A618F
:10BDB00000230363202280F83D2080F83E30026C8F
:10BDC00042F00402026480F83C30012070470020F9
:10BDD0007047F8B506460C4617461D4622E0FEF7AA
:10BDE00021FE069BC01AA84200D8DDB900233363A8
:10BDF000202286F83D2086F83E30326C42F0200248
:10BE0000326486F83C3001201AE033685B6924EA2A
:10BE100003039BB2B3FA83F35B099F420FD1B5F1E1
:10BE2000FF3FDCD1C4F30743012BEED033689B699D
:10BE300024EA03039BB2B3FA83F35B09EDE7002026
:10BE4000F8BDF8B504460D4616461F463CE01A6894
:10BE500042F400721A6023686FF480625A61002312
:10BE60002363202284F83D2084F83E30226C42F087
:10BE70000402226484F83C30012033E0FEF7D2FD56
:10BE8000C01BB04200D8FEB900232363202284F8EF
:10BE90003D2084F83E30226C42F02002226484F877
:10BEA0003C3001201EE023685B6925EA03039BB256
:10BEB000003318BF0123A3B123685A6912F4806FBD
:10BEC000C5D1B6F1FF3FD9D1C5F30743012BEAD065
:10BED00023689B6925EA03039BB2003318BF012343
:10BEE000E9E70020F8BD0000F0B583B004460F4636
:10BEF00015461E46C36A082B0DD0012B0BD013F537
:10BF0000803F08D0036B122B0AD10268136843F4F8
:10BF10008073136004E02268136843F48073136035
:10BF200000962B4600224FF001112046FFF751FFEB
:10BF300058B123681B6813F4807F2BD04FF4007333
:10BF400023640323184603B0F0BD2369B3F5804F83
:10BF50000ED1236807F0FE071F6133462A460F49BA
:10BF60002046FFF76EFF03460028EBD00123E9E7E8
:10BF7000FB11226803F0060343F0F003136133461C
:10BF80002A4607492046FFF75CFF28B92368FFB21D
:10BF90001F61E2E70323D5E70123D3E70200010095
:10BFA000080001002DE9F04184B004460D46164614
:10BFB0001F46C26A01680B6843F480630B60082A5D
:10BFC0000DD0012A0BD012F5803F08D0036B112B46
:10BFD0000AD10268136843F48073136004E0226896
:10BFE000136843F4807313600097334600224FF0C8
:10BFF00001112046FFF7EDFE60B123681B6813F4C2
:10C00000807F5BD04FF4007323640323184604B091
:10C01000BDE8F0812369B3F5804F0FD1236845F067
:10C020000105EDB21D613B46324626492046FFF729
:10C0300008FF03460028E9D00123E7E74FEAE518A7
:10C0400008F00608236848F0F0021A613B463246C1
:10C050001D492046FFF7F5FE08B10123D6E7236806
:10C06000EDB21D613B46324616492046FFF7E9FE18
:10C0700008B10123CAE7002203922368596903919A
:10C08000996903910399196841F4807119600097C7
:10C0900033464FF001112046FFF79BFE48B123685D
:10C0A0001B6813F4807F0BD04FF4007323640323C9
:10C0B000ACE7226848F0F1031361B4E70323A5E776
:10C0C0000323A3E7020001000800010070B5044645
:10C0D0000D46164623685B6913F0800F1CD120467D
:10C0E000FFF75EFED0B9B5F1FF3FF3D0FEF79AFC43
:10C0F000801BA84201D8002DECD10023236320220D
:10C1000084F83D2084F83E30226C42F02002226404
:10C1100084F83C30012000E0002070BD0120FCE7E5
:10C120002DE9F04184B00446884616461F460B9D13
:10C130000268136843F48073136000950A9B002221
:10C140004FF00111FFF745FE60B123681B6813F43F
:10C15000807F4FD04FF4007323640323184604B04C
:10C16000BDE8F081226808F0FE0313612B460A9AAD
:10C1700021492046FFF765FE08B10123EEE70023C1
:10C18000039323685A6903929B690393039B2A468E
:10C190000A992046FFF79AFF034658B1236C042BF7
:10C1A00001D00123DAE72268136843F400731360B7
:10C1B0000123D3E7012F0ED02368320A1A612A46E1
:10C1C0000A992046FFF782FF034678B1236C042BBF
:10C1D00005D00123C2E72268F6B21661BEE72268E5
:10C1E000136843F4007313600123B7E72268F6B2C3
:10C1F0001661B3E70323B1E7020001002DE9F04126
:10C2000084B004460E46174698460B9D0268136894
:10C2100043F4806313600268136843F4807313600F
:10C2200000950A9B00224FF00111FFF7D2FD68B183
:10C2300023681B6813F4807F00F089804FF400733B
:10C2400023640323184604B0BDE8F081F6B22368E6
:10C2500006F0FE021A612B460A9A3F492046FFF774
:10C26000F0FD08B10123EDE70023039323685A6929
:10C2700003929B690393039B2A460A992046FFF782
:10C2800025FF58B1236C042B01D00123DAE7226883
:10C29000136843F4007313600123D3E7B8F1010F6F
:10C2A0000DD12368FFB21F612A460A992046FFF785
:10C2B0000DFF20B3236C042B1AD00123C2E723689F
:10C2C0003A0A1A612A460A992046FFF7FFFE58B13A
:10C2D000236C042B01D00123B4E72268136843F4D4
:10C2E000007313600123ADE72368FFB21F61DBE732
:10C2F0002268136843F4007313600123A2E72268E5
:10C30000136843F48073136000950A9B00224FF07A
:10C3100001112046FFF75DFD48B123681B6813F447
:10C32000807F16D04FF40073236403238AE72368C9
:10C3300046F001061E612B460A9A07492046FFF780
:10C3400080FD034600283FF47DAF01237AE70323F5
:10C3500078E7032376E700BF0200010070B50446CA
:10C360000D46164623685B6913F0040F1CD1204666
:10C37000FFF716FDD0B9B5F1FF3FF3D0FEF752FB42
:10C38000801BA84201D8002DECD10023236320227A
:10C3900084F83D2084F83E30226C42F02002226472
:10C3A00084F83C30012000E0002070BD0120FCE753
:10C3B00070B505460C4616462B685A6912F0400FB8
:10C3C00029D15A6912F0100F15D1FEF72BFB801BF3
:10C3D000A04201D8002CEFD100232B63202285F846
:10C3E0003D2085F83E302A6C42F020022A6485F810
:10C3F0003C30012070BD6FF010025A6100232B63A6
:10C40000202285F83D2085F83E302A6C2A6485F884
:10C410003C300120EEE70020ECE70000002800F0AF
:10C42000C880F8B5044690F83D30002B75D0242321
:10C4300084F83D302268136823F0010313602268FA
:10C44000136843F4004313602268136823F4004325
:10C45000136001F007FA6268584B9A4262D8584B51
:10C4600098428CBF00230123002B40F0A480554B41
:10C47000A3FB00239B0C21684A6822F03F021A4369
:10C480004A6025682A6A22F03F0266684B498E425C
:10C490004ED8013313432B622568E96921F44F41DB
:10C4A00021F0FF016368454A93424BD801385B0095
:10C4B000B0FBF3F30133C3F30B03042B38BF0423A6
:10C4C0000B43EB6121680B6823F0C003E269206A2B
:10C4D000024313430B6021688B6823F4034323F06A
:10C4E000FF032269E068024313438B602168CB6835
:10C4F00023F0FF036269A06902431343CB60226803
:10C50000136843F00103136000202064202384F8A3
:10C510003D30206384F83E00F8BD80F83C30FDF7E4
:10C52000F1FB84E7284B98428CBF002301239BE753
:10C530004FF4967101FB03F32449A1FB03139B09FC
:10C540000133A7E7A268BAB9461E03EB4307B6FB5F
:10C55000F7F60136C6F30B06B6FA86F6760936BB51
:10C56000C2B9013803EB4303B0FBF3F30133C3F368
:10C570000B0242F40043A3E7461E03EB830707EBDD
:10C580008707B6FBF7F60136C6F30B06B6FA86F652
:10C590007609E4E7013803EB830303EB8303B0FB85
:10C5A000F3F20132C2F30B0242F4404388E7012365
:10C5B00086E7012070470120AEE700BFA08601009A
:10C5C0007F841E0083DE1B43FF083D00D34D6210B5
:10C5D000A8B110B50446242380F83D3002681368E2
:10C5E00023F001031360FDF7F3FB0020206484F8BF
:10C5F0003D00206384F83E0084F83C0010BD01201B
:10C60000704700002DE9F04184B004460E46904684
:10C610001F46FEF707FA94F83D30DBB2202B04D01A
:10C620000226304604B0BDE8F0810546009019238B
:10C6300001224F492046FFF7CCFB002840F09180B3
:10C6400094F83C30012B00F08E80012384F83C30BC
:10C6500023681A6812F0010F03D11A6842F0010230
:10C660001A602268136823F400631360212384F89E
:10C670003D30102384F83E3000232364C4F8248026
:10C680006785638D23853B4BE3622B460A9A3146CF
:10C690002046FFF729FC0646002866D100230393B5
:10C6A00023685A6903929B690393039B12E0236CEE
:10C6B000042B01D00126B4E72268136843F4007309
:10C6C00013600126ADE72A460A992046FFF746FE89
:10C6D00000282CD1238D002B35D02A460A992046DC
:10C6E000FFF7F4FC0028E2D1626A236812781A612D
:10C6F000616A4B1C6362638D013B9BB26385238D32
:10C70000013B9BB223852268506910F0040FDAD0F8
:10C71000002BD8D04B781361636A01336362638D59
:10C72000013B9BB26385238D013B2385CBE7236CC3
:10C73000042B01D0012674E72268136843F40073C8
:10C74000136001266DE72268136843F400731360D9
:10C75000202384F83D30002384F83E3084F83C30B8
:10C760005FE702265DE702265BE7012659E700BF87
:10C77000020010000000FFFF2DE9F04186B00446E2
:10C780000E4690461F46FEF74DF994F83D30DBB259
:10C79000202B04D00226304606B0BDE8F0810546C5
:10C7A0000090192301229E492046FFF712FB002822
:10C7B00040F0348194F83C30012B00F037810123A4
:10C7C00084F83C3023681A6812F0010F03D11A680C
:10C7D00042F001021A602268136823F400631360B8
:10C7E000222384F83D30102384F83E300023236454
:10C7F000C4F824806785638D23858A4BE3622B46CA
:10C800000C9A31462046FFF7CDFB0646002840F043
:10C810000F81238D5BB9029323685A6902929A694A
:10C820000292029A1A6842F400721A6077E0012BB1
:10C830000FD0022B1FD02268136843F4806313606B
:10C840000023059323685A6905929B690593059B0C
:10C8500065E02268136823F4806313600023039368
:10C8600023685A6903929A690392039A1A6842F4F8
:10C8700000721A6053E02268136823F48063136027
:10C880002268136843F40063136000230493236851
:10C890005A6904929B690493049B40E02A460C99D0
:10C8A0002046FFF785FD002840F0C48023681A6900
:10C8B000636A1A70636A01336362238D013B2385C7
:10C8C000638D013B9BB2638529E000950C9B0022A0
:10C8D00055492046FFF77DFA002840F0AD802268D8
:10C8E000136843F40073136023681A69636A1A704B
:10C8F000626A531C6362238D013B2385638D013B78
:10C900009BB2638523681B695370636A013363625A
:10C91000238D013B2385638D013B9BB26385238D72
:10C92000002B72D0032B49D8012BB7D0022BCCD0CF
:10C9300000950C9B00223C492046FFF74AFA00284C
:10C940007CD12268136823F48063136023681A691A
:10C95000636A1A70636A01336362238D013B238526
:10C96000638D013B9BB2638500950C9B00222E4991
:10C970002046FFF72EFA002862D12268136843F49C
:10C980000073136023681A69636A1A70626A531C21
:10C990006362238D013B2385638D013B9BB26385DD
:10C9A00023681B695370636A01336362238D013B03
:10C9B0002385638D013B9BB26385B0E72A460C99C2
:10C9C0002046FFF7F5FC00283CD123681A69636A0A
:10C9D0001A70626A531C6362238D013B2385638D49
:10C9E000013B9BB263852368596911F0040F96D00F
:10C9F0001B695370636A01336362238D013B238596
:10CA0000638D013B9BB2638589E7202384F83D3029
:10CA1000002384F83E3084F83C30BCE60226BAE6B7
:10CA2000020010000000FFFF040001000226B2E631
:10CA30000126B0E60126AEE60126ACE60126AAE60E
:10CA40000126A8E60126A6E62DE9F04182B00446BB
:10CA50000E4617469846FDF7E5FF94F83D30DBB2E9
:10CA6000202B04D00223184602B0BDE8F081054611
:10CA70000090192301224C492046FFF7AAF900280B
:10CA800040F08B8094F83C30012B00F0888001232B
:10CA900084F83C3023681A6812F0010F03D11A6839
:10CAA00042F001021A602268136823F400631360E5
:10CAB000212384F83D30402384F83E300023236452
:10CAC000089B6362BDF824306385638D2385374BF3
:10CAD000E36201950A9B009343463A46314620465D
:10CAE000FFF71EFB00285CD1238D002B34D02A4693
:10CAF0000A992046FFF7EAFA10BB626A23681278A7
:10CB00001A61616A4B1C6362238D013B9BB22385D2
:10CB1000628D013A92B262852268506910F0040F6A
:10CB2000E2D0002BE0D04B781361636A013363627B
:10CB3000238D013B2385638D013B9BB26385D3E746
:10CB4000236C042B01D001238DE72268136843F482
:10CB500000731360012386E72A460A992046FFF7EF
:10CB6000FDFB034658B1236C042B01D001237AE767
:10CB70002268136843F400731360012373E721688C
:10CB80000A6842F400720A60202284F83D200022E4
:10CB900084F83E2084F83C2065E7022363E7022303
:10CBA00061E701235FE700BF020010000000FFFF04
:10CBB0002DE9F04186B004460E4617469846FDF72B
:10CBC00031FF94F83D30DBB2202B04D002263046F2
:10CBD00006B0BDE8F08105460090192301229E4968
:10CBE0002046FFF7F6F8002840F0348194F83C30F6
:10CBF000012B00F03781012384F83C3023681A6848
:10CC000012F0010F03D11A6842F001021A60226883
:10CC1000136823F400631360222384F83D3040231B
:10CC200084F83E30002323640C9B6362BDF83430EB
:10CC30006385638D2385894BE36201950E9B009389
:10CC400043463A4631462046FFF7D8FA06460028C2
:10CC500040F00A81238D5BB9029323685A690292DE
:10CC60009A690292029A1A6842F400721A6072E09B
:10CC7000012B0AD0022B1AD00023059323685A698E
:10CC800005929B690593059B65E02268136823F470
:10CC9000806313600023039323685A6903929A699F
:10CCA0000392039A1A6842F400721A6053E02268F1
:10CCB000136823F4806313602268136843F40063ED
:10CCC00013600023049323685A6904929B690493B8
:10CCD000049B40E02A460E992046FFF769FB002896
:10CCE00040F0C48023681A69636A1A70636A01336A
:10CCF0006362238D013B2385638D013B9BB263857A
:10CD000029E000950E9B002255492046FFF761F867
:10CD1000002840F0AD802268136843F4007313606C
:10CD200023681A69636A1A70626A531C6362238DEE
:10CD3000013B2385638D013B9BB2638523681B699F
:10CD40005370636A01336362238D013B2385638DD6
:10CD5000013B9BB26385238D002B72D0032B49D8F6
:10CD6000012BB7D0022BCCD000950E9B00223C4962
:10CD70002046FFF72EF800287CD12268136823F4A0
:10CD80008063136023681A69636A1A70636A0133E7
:10CD90006362238D013B2385638D013B9BB26385D9
:10CDA00000950E9B00222E492046FFF712F800281E
:10CDB00062D12268136843F40073136023681A6910
:10CDC000636A1A70626A531C6362238D013B238578
:10CDD000638D013B9BB2638523681B695370636A53
:10CDE00001336362238D013B2385638D013B9BB23D
:10CDF0006385B0E72A460E992046FFF7D9FA002846
:10CE00003CD123681A69636A1A70626A531C6362B0
:10CE1000238D013B2385638D013B9BB26385236892
:10CE2000596911F0040F96D01B695370636A01337E
:10CE30006362238D013B2385638D013B9BB2638538
:10CE400089E7202384F83D30002384F83E3084F8BD
:10CE50003C30BCE60226BAE6020010000000FFFFEC
:10CE6000040001000226B2E60126B0E60126AEE685
:10CE70000126ACE60126AAE60126A8E60126A6E6DA
:10CE800090F83D007047F0B44D680468E368C3F360
:10CE90000B431D44D2011444D4F8883003F470438A
:10CEA000C4F888300B680468E668C6F30B46334460
:10CEB0000133144443EA0543C4F88830CD6804685C
:10CEC000E368C3F30A031D441444D4F88C3003F41C
:10CED0007043C4F88C308B680468E668C6F30A06B1
:10CEE00033440133144443EA0543C4F88C300368E7
:10CEF0001344D3F8944024F00704C3F89440036823
:10CF000013440C69C3F8944091F831C091F8327021
:10CF10008E6905681544D5F89C300024C5F89C40FE
:10CF200091F8303043EA0C2343EA0743056815447F
:10CF300043EA0663C5F89C3003681344D3F898505D
:10CF400025F0FF05C3F89850036813444D69C3F8F2
:10CF5000985003681344D3F8A05025F4E06525F0F9
:10CF60000705C3F8A050CD690E6A03681344354322
:10CF7000C3F8A05003681344D3F8AC50C3F8AC40D6
:10CF8000036813444C6AC3F8AC400B696BB1012BC6
:10CF90003CD0042B3CD0022B08D0032B3AD0072BDB
:10CFA00001D0012302E0022300E0042304681444BA
:10CFB000D4F8B05005F0E025C4F8B0508C6A03FBFB
:10CFC00004F54C680E68A41B03FB04F303330468E8
:10CFD000144443EA0543C4F8B03003681344D3F85B
:10CFE000B44024F4FF6424F00704C3F8B440036899
:10CFF0001344C96AC3F8B41003681A44D2F88430E1
:10D0000043F00103C2F88430F0BC70470323CDE73E
:10D010000223CBE70223C9E7002872D038B50446C3
:10D0200090F8A130002B67D0022384F8A130226849
:10D03000936923F07043936121688A696368A068EB
:10D040000343E06803432069034313438B61216872
:10D050008A682D4B1A408A60656920688268A169D8
:10D0600041EA05410A4382602168CA681A40CA60E1
:10D07000E5692068C268216A41EA05410A43C26045
:10D0800021680A691A400A61656A20680269A16A12
:10D0900041EA05410A43026121684A6913404B6134
:10D0A000E06A21684B69226B42EA004213434B61FC
:10D0B00094F8350094F836301B042168CA6A02F0EF
:10D0C0007F42CA622168CA6A43EA002394F83400A6
:10D0D00003431343CB622268536B43F0060353634D
:10D0E0002268936943F0010393610020C4F8A4000F
:10D0F000012384F8A13038BD80F8A03008F0A2FCEC
:10D1000092E70120704700BF00F800F010B5044618
:10D1100008F0B8FC0020C4F8A40084F8A10084F84A
:10D12000A00010BD70477047704770B50446036893
:10D130009D6B5E6B15F0040F02D016F0040F12D138
:10D1400015F0020F02D016F0020F21D115F0010FD9
:10D1500002D016F0010F32D115F0080F02D016F0F0
:10D16000080F3DD170BD5A6B22F004025A63036868
:10D170000422DA63D0F8A43043F00103C0F8A430ED
:10D1800080F8A120002380F8A030FFF7CBFFD7E77D
:10D190002268536B23F00203536323680222DA638D
:10D1A000D4F8A4301343C4F8A430042384F8A13085
:10D1B000002384F8A0302046FFF7B4FFC6E72268BA
:10D1C000536B23F00103536322680123D36384F874
:10D1D000A130002384F8A0302046FFF7A4FFBBE76E
:10D1E0002268536B23F00803536323680822DA6331
:10D1F000012384F8A130002384F8A0302046FFF7F3
:10D2000093FFAFE790F8A030012B27D02DE9F04134
:10D2100094460F4606464FF0010880F8A08002238E
:10D2200080F8A130342404FB020438340D460FCDBD
:10D230000FC40FCD0FC40FCD0FC42B6823606246FF
:10D2400039463046FFF71FFE3368C3F8248086F85E
:10D25000A180002086F8A000BDE8F0810220704780
:10D2600090F8A030012B1DD030B4012480F8A040EC
:10D27000022380F8A1300368D2011344D3F8905000
:10D2800005F07F45C3F8905003681A44C2F8901027
:10D2900003685C6280F8A140002380F8A030184643
:10D2A00030BC70470220704790F8A030012B17D097
:10D2B000012280F8A020022380F8A130036803EB4C
:10D2C000C111D1F8843043F00203C1F884300368FF
:10D2D0005A6280F8A120002380F8A03018467047D9
:10D2E0000220704790F8A030012B17D0012280F85F
:10D2F000A020022380F8A130036803EBC111D1F80C
:10D30000843023F00203C1F8843003685A6280F845
:10D31000A120002380F8A0301846704702207047F3
:10D32000F8B590F8A040012C21D00446012580F8E2
:10D33000A050022084F8A100342000FB03F000F18B
:10D34000380720448163066E0E44C6630264466E4D
:10D35000324442641A46E1192046FFF794FD2368DF
:10D360005D6284F8A150002084F8A000F8BD02207E
:10D37000FCE738B590F8A030012B19D00446012500
:10D3800080F8A050022380F8A130342303FB02F37D
:10D3900003F138002344D96421182046FFF773FDB8
:10D3A00023685D6284F8A150002084F8A00038BD95
:10D3B0000220FCE738B590F8A030012B19D00446C4
:10D3C000012580F8A050022380F8A130342303FB0C
:10D3D00002F303F138002344D96521182046FFF7F2
:10D3E00052FD23685D6284F8A150002084F8A000FB
:10D3F00038BD0220FCE7000010B490F8A040012CDA
:10D4000047D0012380F8A030022380F8A1303424D3
:10D4100004FB0204A36C6BB1012B34D0042B34D079
:10D42000022B08D0032B32D0072B01D0012302E0BE
:10D43000022300E0042301FB03F10468D201144439
:10D44000D4F8B03023F0FF5323F4F813C4F8B0300D
:10D45000114C636A43F00103636203681A44D2F813
:10D46000B03043EA0141C2F8B010636A43F00103EF
:10D470006362012380F8A130002380F8A0301846B1
:10D480005DF8044B70470323D5E70223D3E702235B
:10D49000D1E70220F4E700BF0068014010B582B078
:10D4A00000230193194B1A6C42F080521A641B6CD2
:10D4B00003F080530193019B154B01221A60FDF785
:10D4C000B1FA0446134B5B6813F4803F08D1FDF7B3
:10D4D000A9FA001BB0F57A7FF4D9032002B010BD81
:10D4E0000D4B01221A60FDF79DFA0446094B5B685B
:10D4F00013F4003F07D1FDF795FA001BB0F57A7FD2
:10D50000F4D90320EAE70020E8E700BF0038024032
:10D5100040000E420070004044000E422DE9F041F0
:10D5200005460F4616469846069C2B689B683B426C
:10D5300014BF01230023B34212D0B4F1FF3FF4D053
:10D540002CB1FDF76FFAA0EB0800A042EDD904233F
:10D5500085F841306B6C43F001036B64012000E0FF
:10D560000020BDE8F08181647047000030B583B0D1
:10D570000446FDF757FA002C4ED0054694F841308A
:10D58000002B3ED021680B6823F4F853A268013ABF
:10D5900043EA02230B60A36C00932B460022202158
:10D5A0002046FFF7BBFF014628BB2068036823F035
:10D5B0007F4323F0D0036568E26842EA0562E569CB
:10D5C0002A43256A2A431343036020684268134BA9
:10D5D00013402569626942EA0542A5692A4313435B
:10D5E00043602268136843F00103136000236364FF
:10D5F000012384F84130002384F84030084603B00A
:10D6000030BD84F840302046FCF70AFC41F28831F6
:10D610002046FFF7A8FFB5E70121EFE7FEF8E0FF9E
:10D62000324B9B6803F00C03042B5CD0082B01D019
:10D630002F4870472DE9F04B2C4B5A6802F03F02FF
:10D640005B6813F4800F2BD0284B5B68C3F38813FF
:10D650001E4600275C010025E41A65EB0705A901B9
:10D6600041EA9461A001001B61EB0501CB0043EA94
:10D670005073C400A01943EB07014B0243EAD05397
:10D680004402204619460023FBF768FA174B5B68F3
:10D69000C3F3014301335B00B0FBF3F0BDE8F08B53
:10D6A000124B5B68C3F388131E4600275C010025FC
:10D6B000E41A65EB0705A90141EA9461A001001B8A
:10D6C00061EB0501CB0043EA5073C400A01943EBA2
:10D6D00007018B0243EA9053840220461946002337
:10D6E000FBF73CFAD2E70348704700BF003802401E
:10D6F0000024F40000127A00002800F09E8070B52B
:10D700000446504B1B6803F00F038B4209D2CBB287
:10D710004C4A1370136803F00F038B4201D00120B1
:10D7200070BD236813F0020F17D013F0040F04D05C
:10D73000454A936843F4E0539360236813F0080F5D
:10D7400004D0414A936843F4604393603E4A93682F
:10D7500023F0F003A068034393600D46236813F0A1
:10D76000010F32D06368012B21D09A1E012A25D9DE
:10D77000354A126812F0020F61D033498A6822F0EC
:10D78000030213438B60FDF74DF906462E4B9B6851
:10D7900003F00C036268B3EB820F16D0FDF742F979
:10D7A000801B41F288339842F0D90320B8E7264A1B
:10D7B000126812F4003FE0D10120B1E7224A12685A
:10D7C00012F0007FD9D10120AAE71E4B1B6803F09D
:10D7D0000F03AB4209D9EAB21A4B1A701B6803F067
:10D7E0000F03AB4201D001209AE7236813F0040F26
:10D7F00006D0154A936823F4E053E1680B43936025
:10D80000236813F0080F07D00F4A936823F460438E
:10D81000216943EAC1039360FFF702FF0A4B9B684B
:10D82000C3F30313094AD35CD840094B1860094B72
:10D830001868FCF7FFFC002072E701207047012008
:10D840006EE700BF003C024000380240146D020841
:10D850005C0000208C000020014B1868704700BF5E
:10D860005C00002008B5FFF7F7FF044B9B68C3F38B
:10D870008223034AD35CD84008BD00BF0038024071
:10D88000246D020808B5FFF7E7FF044B9B68C3F35C
:10D890004233034AD35CD84008BD00BF0038024081
:10D8A000246D02080F2303600B4B9A6802F00302F9
:10D8B00042609A6802F0F00282609A6802F4E052D4
:10D8C000C2609B68DB0803F4E0530361034B1B68F1
:10D8D00003F00F030B60704700380240003C024029
:10D8E00030B583B00446036813F0800F08D0BC4AFB
:10D8F000D2F88C3023F00063416B0B43C2F88C30BC
:10D90000236813F4807F08D0B54AD2F88C3023F016
:10D910008053A16B0B43C2F88C30236813F0430F84
:10D920001BD1236813F00C0F70D113F0800F03D0BC
:10D93000636BB3F1006F69D0236813F0200F40F0E0
:10D94000E580236813F0100F00F0478194F8302031
:10D95000A44B1A60002003B030BDA34B00221A6014
:10D96000FDF760F805469E4B1B6813F0006F06D06C
:10D97000FDF758F8401B0228F5D90320EBE7236890
:10D9800013F0010F07D06268A3681B0743EA8213F4
:10D99000934AC2F88430236813F0020F15D0904ADE
:10D9A000D2F884106068E3681B0643EA801301F034
:10D9B000E0410B43C2F88430D2F88C3023F01F03CF
:10D9C000216A01390B43C2F88C30236813F0400FF1
:10D9D0000AD06268E3681B0643EA8213A26843EA3E
:10D9E00002737F4AC2F884307F4B01221A60FDF730
:10D9F00019F805467A4B1B6813F0006F91D1FDF7BB
:10DA000011F8401B0228F5D90320A4E7774B002228
:10DA10001A60FDF707F80546714B1B6813F0005FAD
:10DA200006D0FCF7FFFF401B0228F5D9032092E740
:10DA3000236813F0040F1BD0694AD2F88830D2F85B
:10DA40008810206903F4403343EA8013A06943EA55
:10DA5000006301F0E0410B43C2F88830D2F88C300B
:10DA600023F4F853616A013943EA0123C2F88C3088
:10DA7000236813F0080F19D0594AD2F88830D2F829
:10DA80008810206903F4403343EA801301F0706189
:10DA90000B43E16943EA0173C2F88830D2F88C3055
:10DAA00023F44033A16A0B43C2F88C30236813F08F
:10DAB000800F03D0636BB3F1006F12D04B4B012288
:10DAC0001A60FCF7AFFF0546454B1B6813F0005F7B
:10DAD0007FF432AFFCF7A6FF401B0228F4D90320E5
