:020000040800F2
:1000000070430020D13F0008753F0008813F000881
:100010008D3F0008993F0008A53F0008FE3EFEAF57
:10002000000000000000000000000000553D000836
:10003000B13F000800000000ED3D0008192800084D
:10004000D5470008BF470008A947000893470008A4
:100050007D47000867470008514700083B470008F4
:10006000254700080F470008F9460008E346000846
:10007000CD460008B7460008A14600088B46000898
:10008000754600085F4600084946000833460008E8
:100090001D46000807460008F1450008DB4500083A
:1000A000C5450008AF45000899450008834500088C
:1000B0006D45000857450008414500082B450008DC
:1000C00015450008FF440008E9440008D34400082F
:1000D000BD440008A7440008914400087B44000880
:1000E000654400084F4400083944000823440008D0
:1000F0000D440008F7430008E1430008CB43000823
:10010000B54300089F430008894300087343000873
:100110005D43000847430008314300081B430008C3
:1001200005430008EF420008D9420008C342000816
:10013000AD42000897420008814200086B42000867
:10014000554200083F4200082942000813420008B7
:10015000FD410008E7410008D1410008BB4100080B
:10016000A54100088F41000879410008634100085B
:100170004D41000837410008214100080B410008AB
:10018000F5400008DF400008C9400008B3400008FF
:100190009D40000887400008714000085B4000084F
:1001A0000000000045400008E9250008BD3F0008A8
:1001B0003524000870B51E460368BDF910505B6B0E
:1001C000044698472368314620469A6B9047236837
:1001D00029462046DB6BBDE8704018478180704798
:1001E000C180704770B503680446DB6A15469847BE
:1001F0002368294620461B6BBDE8704018470181E3
:10020000704741817047704770477047704770472B
:10021000C38810B4D21A83885DF8044BC91A0368E6
:1002200012B25B6D09B2184712207047704710B5C3
:10023000582104460FF016FA204610BD10B50446AA
:1002400000F00EFD014B2360204610BD64FB00084A
:1002500013B502AB00F12C0423F8041D2046194607
:100260000AF089FA20460BF0ECFE02B010BD704790
:1002700010B5782104460FF0F5F9204610BD0000B6
:1002800010B5044600F000FC014B2360204610BD71
:10029000F8FB000810B50B460446054A0A216430F5
:1002A0000CF074FF04F12C00BDE810400BF0C9BE47
:1002B00084FC0008704710B5782104460FF0D2F98D
:1002C000204610BD10B5044600F054FC014B2360DD
:1002D000204610BD90FC000810B50B460446054AA8
:1002E0000A2164300CF052FF04F12C00BDE81040EC
:1002F0000BF0A7BE84FC00087047A0F10400FBE7E8
:10030000704710B5102104460FF0ACF9204610BD1F
:10031000A0F10400F5E7000010B500228260044A55
:10032000C16002F1080420320460426010BD00BFC9
:100330001CFD0008704770477047704770B506464F
:10034000074B46F8043B054600F53174B44205D02E
:1003500054F8583D1B6820469847F7E7284670BD7B
:100360004CFD000870B50646074B46F8043B0546B1
:1003700000F53574B44205D054F8783D1B6820462A
:100380009847F7E7284670BD64FD000870B506463B
:10039000074B46F8043B054600F1F404B44205D08F
:1003A00054F8783D1B6820469847F7E7284670BD0B
:1003B0007CFD000808207047704710B4C26883684D
:1003C000406812F0010F4FEA620218BF84581044CF
:1003D00018BFE3585DF8044B184743682BB1836896
:1003E0002BB9C06800F00100704718467047012023
:1003F0007047022070470620704710B50446FFF78B
:10040000C5FF2046F4210FF02DF9204610BD10B590
:100410000446FFF7A7FF20464FF435710FF022F98D
:10042000204610BD10B50446FFF788FF20464FF464
:1004300031710FF017F9204610BD10B51021044698
:100440000FF010F9204610BD70B5044600F1C80643
:1004500000F53D6104F58A65304608F0F1FF04F5CA
:100460003E61284608F0B8FA00242146304601349F
:1004700008F0E8FE082CF8D128464FF0FF320F2193
:10048000BDE8704008F0C7BE08B508460D2A0CD874
:10049000DFE802F0070C0F1215181B1E2124272A73
:1004A0002D304FF00001FFF7D3FE08BD4FF00501DE
:1004B000F9E74FF00601F6E74FF00701F3E74FF0D9
:1004C0000801F0E74FF00901EDE74FF00A01EAE714
:1004D0004FF00B01E7E74FF00D01E4E74FF00E019D
:1004E000E1E74FF01501DEE74FF01601DBE74FF0D3
:1004F0001701D8E74FF01801D5E708461146FFF776
:10050000EBBE08461146FFF7C5BE37B500F68C14A2
:100510000D4620460BF095FD0D2D0FD8DFE805F0B8
:10052000071316191C1F2225282B2E31343702A938
:10053000002321F8043D20460AF01DF920460BF067
:1005400080FD03B030BD02A90523F2E702A906230E
:10055000EFE702A90723ECE702A90823E9E702A9CC
:100560000923E6E702A90A23E3E702A90B23E0E750
:1005700002A90D23DDE702A90E23DAE702A915235C
:10058000D7E702A91623D4E702A91723D1E702A9C6
:100590001823CEE770B50D46044600F6B8100BF0F0
:1005A00050FD2B4604F69C30024A0A21BDE87040FB
:1005B0000CF0ECBD84FC000838B500F51F6504465E
:1005C0004FF00A0128460AF007F80023012284F8B8
:1005D000ED2084F8753484F8B12984F8DD3984F885
:1005E000493A28460BF02DFD04F1C8000BF029FD17
:1005F00004F58A600BF025FD04F68C100BF021FD4C
:1006000004F6B8100BF01DFD04F62420BDE83840B8
:100610000BF017BD38B500F51F6504464FF00B0110
:10062000284609F0D9FF0123002284F8ED2084F840
:10063000753484F8B12984F8DD3984F8493A2846BC
:100640000BF0FFFC04F1C8000BF0FBFC04F58A6022
:100650000BF0F7FC04F68C100BF0F3FC04F6B8106A
:100660000BF0EFFC04F62420BDE838400BF0E9BCA9
:1006700008B58BB2012B05D9054B064A06488721E0
:1006800001F01AFB782301FB0300043008BD00BF12
:10069000A4FD000877FF0008BFFD000808B58BB275
:1006A000052B05D9054B064A0648872101F004FBB6
:1006B000782301FB0300043008BD00BFA4FD00083F
:1006C00054FE0008BFFD000808B58BB2072B05D902
:1006D000054B064A0648872101F0EEFA582301FB34
:1006E0000300043008BD00BFA4FD0008E5FE0008BB
:1006F000BFFD000810B5084B0360044600F69800E3
:10070000FFF744FE04F2C450FFF72CFE04F5C67058
:10071000FFF714FE204610BD8004010810B5034BFE
:1007200003600446FFF7E6FF204610BD14FE0008F4
:1007300010B50446FFF7F2FF20464FF43F610EF07C
:1007400091FF204610BD10B50446FFF7D3FF2046A9
:100750004FF43D610EF086FF204610BD10B50446F3
:1007600000F098FC134B2360134BC4F8D83B0023D4
:10077000124AC4F8DC3BC4F8EC3B114BC4F8D02B54
:10078000C4F8E02B0F4AC4F8E82B1A88B4F9783083
:10079000C4F8D44B9A42C4F8E44B05DC0A4B1A88DF
:1007A000B4F97A309A4202DD012384F8653020469C
:1007B00010BD00BF14FE00080B05000894FD0008E2
:1007C0002C3B0020950500082E3B002000220260F3
:1007D000704770477047704710B54FF4A8710446D2
:1007E0000EF040FF204610BD10B50446D0F84C0175
:1007F000FFF7EFFF2046BDE810400AF001BF10B53B
:100800000446D0F8340158B10368DB68984738B122
:10081000D4F8340103689B6898470023C4F8343146
:1008200010BD000010B5044600F05EFF014B2360D0
:10083000204610BD180001084FF6FF738381038422
:1008400043841368C3611060704790F825201AB183
:1008500090F8242002B11860704700220280428084
:100860008280C280704770B503680446DB6A154613
:1008700098472368294620465B6EBDE870401847BC
:100880000D2070470E20704770477047704710B5B5
:10089000382104460EF0E6FE204610BD10B5782142
:1008A00004460EF0DFFE204610BD000008B5094BDF
:1008B0001B682BB9084B094ACF21094801F0FCF904
:1008C000084B02881B889A4203DB074B034AD0215E
:1008D000F3E708BD983B0020CB000108280201087F
:1008E0000D0101089C3B00204001010810B50446A1
:1008F000FFF7DCFF044B22881B6813F81220034B20
:100900001B6853F8220010BD983B0020A03B00203C
:1009100073B5036804461E6BC38C02A80D4620F80D
:10092000043DFFF7E3FF0368DB6A9847291A09B221
:100930002046B04702B070BD10B50446FFF7B6FFC1
:10094000024B22881B6853F8220010BDA409002026
:1009500010B5C28C4FF6FF739A42044609D0263078
:10096000FFF7EAFF626B01462046BDE8104009F040
:10097000BBBE002010BD00002DE9F04FC68C4FF625
:10098000FF739E428FB004460F464BD000F1260500
:100990002846FFF7ABFF8046002843D02846FFF7E4
:1009A00085FF224B94F82EA01B68B4F82C9094F885
:1009B00030B003EB460328465E78C6F30102059289
:1009C000FFF774FFA36A0B93194B94F82F001B6871
:1009D00094F83110059A8DF83300C6F381068DF82E
:1009E000296007AE8DF834108DF832A02146ADF89D
:1009F000309030468DF82820CDF824808DF82AB02C
:100A0000D3F808800BF0C7FB2846FFF795FF636B10
:100A1000029309AB0190009396E806003B464046DE
:100A20000AF0F2F80FB0BDE8F08F00BF983B00204D
:100A3000383B00202DE9F041C78C4FF6FF739F42F1
:100A400004461BD000F126052846FFF74FFF064657
:100A50002846FFF72BFF2846FFF76EFF094B1B6860
:100A600003EB4703024659783368DD69636B304610
:100A7000AC46C1F38101BDE8F04160470020BDE80C
:100A8000F08100BF983B00207FB50646002501237A
:100A9000304A8580C5808581C58105824582456152
:100AA0008561C56180F8245080F82530856246F85C
:100AB0002C2B80F851304FF6FF73A0F8523080F89D
:100AC0005A30254B058645868586C5860587458728
:100AD0008587C58705644564856480F85050456501
:100AE000A0F8585080F85B5080F85C50C3625A23DD
:100AF000038146224B230446438180F85D500566FE
:100B00000821009230464FF0FF32FFF753FB2A4690
:100B10007321D5200CF048FB606504A80423A4F8D9
:100B2000585020F8043DFFF707FF04F16405034621
:100B30000A4A0A2128460CF029FB304625664FF068
:100B4000030109F049FD2046314608F04DFE2046DC
:100B500004B070BD9C01010854000108C8000108E0
:100B60007047704710B5782104460EF07BFD204693
:100B700010BD0000F0B5064600250127304B8580EA
:100B8000C5808581C5810582458245618561C561D4
:100B900080F8245080F82570856246F82C3B4FF68B
:100BA000FF73A0F8523080F85A30264B05864586F0
:100BB0008586C586058745878587C587056445641D
:100BC000856480F8505080F851704565A0F8585001
:100BD00080F85B5080F85C50C3625A2385B0038173
:100BE0004B23438105224623044680F85D50056669
:100BF0001146009330465023FFF7DCFA2A46732152
:100C0000D5200CF0D1FA606504A80223A4F858504E
:100C100020F8043DFFF790FE04F1640503460A4AFC
:100C20000A2128460CF0B2FA39463046256609F00A
:100C3000D3FC2046314608F0D7FD204605B0F0BD74
:100C40006002010854000108C8000108704770479D
:100C500010B5582104460EF005FD204610BD0000D9
:100C6000F7B50646002502AF0122234B8580C580DB
:100C7000058145818581C581058245824561856102
:100C8000C56180F8245080F82520856246F82C3B09
:100C90004FF6FF7327F8043D80F85120174AC262CF
:100CA0000446A0F85230058645868586C5860587A8
:100CB00045878587C58705644564856480F85050FD
:100CC000394680F85430304609F055FD64232381BD
:100CD0004B2363810E2230461A21FFF783FA3946EF
:100CE0003046ADF8045009F046FD2046314608F084
:100CF0007BFD204603B0F0BDF4020108241D01086D
:100D0000704770477047704770477047704770B5BD
:100D100004461D46084604F5C6739842114609D19B
:100D2000FFF7D2FC2368DB6A2A4601462046BDE86D
:100D30007040184704F2C453984205D103689B6879
:100D4000984723681B6BEFE704F69803984205D198
:100D500003689B68984723685B6BE5E770BD704745
:100D600070477047704770B4C5688468406815F074
:100D7000010F4FEA65051CBF465934592844A44663
:100D800070BC604743682BB183682BB9C06800F022
:100D900001007047184670470120704710B4C268C0
:100DA0008368406812F0010F4FEA620218BF84584E
:100DB000104418BFE3585DF8044B184743682BB143
:100DC00083682BB9C06800F001007047184670476F
:100DD0000120704783898B42C6BF00EB81004068C9
:100DE0000020704710B58489002293B2A34209DA2B
:100DF00000EB83010132496891F837100029F4D0E3
:100E0000184610BD4FF0FF3010BD10B503681B69C8
:100E100004469847011E06DB23682046DB6889B23A
:100E2000BDE810401847002010BD10B5002284898D
:100E300093B2A34202F1010205DA00EB83035B687F
:100E400083F83810F3E710BD83891BB1436893F82A
:100E5000380070471846704710B4C268836840680D
:100E600012F0010F4FEA620218BF8458104418BFF5
:100E7000E3585DF8044B184743682BB183682BB9DE
:100E8000C06800F0010070471846704701207047A5
:100E900070B504460D462846012109F0BDFD2368C2
:100EA000294620465B6ABDE87040184710B53821D6
:100EB00004460EF0D7FB204610BD10B510210446A5
:100EC0000EF0D0FB204610BD10B5102104460EF0E8
:100ED000C9FB204610BD10B5102104460EF0C2FB20
:100EE000204610BD08B58389012B05DD094B0A4A50
:100EF0000A48542100F0E0FE00F110038B6200F17B
:100F00002003CB6383895A1C828100EB83004160FC
:100F100008BD00BFFC030108C00401083504010836
:100F200000F52B62914202D10368DB6B184700F594
:100F30002F62914202D103689B6BF7E7704770B54F
:100F40000446406B0D4650B10368DB68984730B1EA
:100F5000606B036829469B68BDE87040184770BD08
:100F600070B504460E460025A289ABB293420CDA56
:100F700004EB83035868B04205D090F8373013B1C2
:100F8000002109F049FD0135EEE7206B50B10368FF
:100F9000DB68984730B1206B036831469B68BDE839
:100FA0007040184770BD70B50446F43007F0CEFAB3
:100FB0004FF4C87563596019D3F88830583598478D
:100FC000B5F58A6FF6D104F27C4007F0BFFA04F25F
:100FD000145007F0BBFA04F5AC6007F0B7FA4FF411
:100FE000B96540F6980663596019D3F888307835AA
:100FF0009847B542F7D104F69C00FFF746FCD4F8B9
:10100000143904F61410D3F88830BDE8704018473E
:10101000094A026000228280C2800281428182816C
:10102000C2810282428242618261C26180F82420D0
:10103000012280F8252070478020010838B5044639
:101040000D46FFF7E5FF064B23604FF6FF73204682
:10105000E38484F82830294609F08DFB204638BD0A
:10106000241D010810B50446FFF7D2FF084B23608A
:101070004FF6FF720023E284A362A38584F82E203A
:1010800084F82F3084F8303084F83130204610BD99
:101090003C1C01082DE9F04F044697B00BF094FA80
:1010A00022460025E34BE56342F8403B10460E9292
:1010B000FFF7AEFFA56684F86C5016AD4FF6FF76CD
:1010C000DD4B25F8046D2364FF2384F8663004F1BA
:1010D0007003294618460493FFF7B0FF04F19C0300
:1010E0002946184604F1C80A0593ADF85460FFF785
:1010F000A5FF504608F04EF804F5C6731093CF4B89
:10110000C4F88C3104F5C87504F58A66284658354C
:10111000FFF794F8AE42F9D1304607F0FDFC04F237
:10112000C4531193C64BC4F8C43504F6980304F5B0
:10113000B9650F932846FFF7C5F80F9B7835AB428A
:10114000F8D1C04BC4F8983816AF04F69C004FF69F
:10115000FF78FFF795F804F61410FFF791F827F8D9
:10116000048D04F68C13394618460693FFF766FF84
:1011700004F6B81318460793FFF774FFB24BC4F890
:10118000B839002504F51F63C4F8EC5918460893D4
:10119000FFF768FF04F62423394618460993ADF893
:1011A0005480FFF74BFF04F5256318460A93FFF7B9
:1011B00059FF04F68423394618460B93ADF8548042
:1011C000FFF73CFF04F52B6318464FF0010B029329
:1011D000DFF89492FFF71CFF04F52F63C4F8D85A88
:1011E00084F8DC5AC4F8B09AA4F8DE8AA4F8E08A3D
:1011F000A4F8E28AA4F8E48A84F8E68A84F8E75A34
:1012000084F8E85AC4F8EC5A84F8D4BA1846039320
:10121000FFF7FEFE04F53363C4F8185B84F81C5B2B
:10122000C4F8F09AA4F81E8BA4F8208BA4F8228BA3
:10123000A4F8248B84F8268B84F8275B84F8285B39
:10124000C4F82C5B84F814BB18460C93FFF70AFF14
:1012500004F664330D937D4BC4F8643B7C4BC4F8B7
:10126000743BC4F8843B0D9BC4F8883B794BC4F8AD
:10127000B03B794B0D9AC4F8B83B784BC4F8782B47
:101280004FF02808C4F8C03B4FF4F0792422744B87
:10129000A4F8705BC4F87C2BC4F88C8BC4F8945B06
:1012A000C4F8985BC4F8BC5BC4F8C83BC4F8CC5B1A
:1012B0004FF44873CDF800902A4629460E98C4F89A
:1012C00080BBC4F890BBC4F8B44BC4F8C44BFEF761
:1012D00071FF84F865502A46294628460BF064FFC2
:1012E0002A46A06629460498FEF77CFF0223394669
:1012F0000498ADF8543009F03EFA40F277120598A0
:101300004FF4C871FEF76EFF132339460598ADF808
:10131000543009F030FA64232A46CDF8009029466B
:101320005046FEF747FF2946504608F039F959461E
:10133000504608F0A3F950464A4908F078F850465C
:101340000A2108F077F850460A2108F076F850464E
:101350000E2107F0B7FF2A462946504607F02CFF1A
:101360002946504607F040FF04F53C692A4650469E
:101370004B2108F055F84A461099504607F034FEC4
:101380004B232322009330464FF4C6732A21FEF7E5
:1013900011FF5946304607F0C2FC2946304607F097
:1013A00048FB30462F4908F042F84146304608F0E5
:1013B00041F830460A2108F040F830463D2107F058
:1013C00049FB3046992107F04CF92A462946304618
:1013D00007F0C2FC2A462946304607F0C3FC2A46DD
:1013E00030465A2107F0C4FC0F9BCDF800904A46C6
:1013F0001199304607F0DAFC2A462946304607F0B4
:101400000AFF84F87554812206984FF4C871FEF7DC
:10141000E9FE39460698ADF8545009F0ACF93C2382
:101420000093079840239622D021FEF7C3FE2A4658
:101430001CE000BF80040108B81C01084CFD000836
:1014400064FD00087CFD000854000108A0030108A9
:1014500088030108D4030108210F0008EC030108E8
:101460000F0D000865C90008F81D010884F8DD5952
:101470007321D5200BF098FEA4F8E459C4F8E009D4
:1014800005233846ADF85430FFF756FA04F69C3978
:101490000346774A0A2148460BF078FEC4F8EC99D7
:1014A0002946079809F098F81923009341464FF40C
:1014B000C87308988122FEF77DFE2A468A21FF2004
:1014C0000BF072FEA4F81C5AC4F8180A4FF00A0177
:1014D000089809F081F81F220998C021FEF782FEC2
:1014E000142384F8495A39460998ADF8543009F064
:1014F00042F90A98E3224FF49671FEF773FE2A46EA
:101500008A21FF200BF050FEA4F87C5AC4F8780A18
:101510004FF006010A9809F05FF84FF48A720B98B1
:101520004FF4C871FEF75EFE0C2339460B98ADF8F8
:10153000543009F020F90298D922BD21FEF752FE5D
:101540004FF01103ADF848304FF0120313AAADF875
:101550004C304FF00F0914AB4FF0100812A902984D
:101560000097ADF85090ADF8548009F083F9294602
:10157000029809F051FA84F8E85A0398D922FD211B
:10158000FEF730FE4FF01103ADF848304FF0120374
:1015900013AAADF84C3012A914AB03980097ADF81C
:1015A0005090ADF8548009F065F95946039809F058
:1015B00033FA84F8285B0C98E4225621FEF712FED9
:1015C0002A468A21FF200BF0EFFDA4F85C5BC4F8EB
:1015D000580B251D0C984FF0070108F0FDFF0E99E0
:1015E000284608F001F90499284608F0FDF8059905
:1015F000284608F0F9F85146284608F0F5F8314633
:10160000284608F0F1F80699284608F0EDF8079901
:10161000284608F0E9F80899284608F0E5F80999FD
:10162000284608F0E1F80A99284608F0DDF80B99F9
:10163000284608F0D9F80299284608F0D5F8039909
:10164000284608F0D1F80C99284608F0CDF8029900
:101650000D98FFF747FC0D980399FFF743FC04F53D
:101660003B632046C4F8943B17B0BDE8F08F00BF41
:10167000C800010870477047416070477047704765
:101680000123037270477047C2688368406812F094
:10169000010F4FEA620218BF8158104418BFCB589F
:1016A000184743682BB183682BB9C06800F001006C
:1016B0007047184670470120704710B50C2104464A
:1016C0000DF0D0FF204610BD10B54FF4A8710446B0
:1016D0000DF0C8FF204610BD10B5102104460DF0D6
:1016E000C1FF204610BD000070B504460D461646E9
:1016F0000AF028F90C4BC4F848611C600B4B2360BE
:1017000000200B4BC4F83001C4F83401C4F83C018C
:10171000C4F84001C4F84401C4F83831C4F84C514D
:1017200000F0F2F9204670BD943B002050050108FE
:1017300038050108064BC0F840310023C0F8443199
:1017400000F59C73C0F83C01C0F83431704700BF0D
:10175000951800082DE9F04707469068DDF820A0AD
:10176000994603681B6A884614469847B0F53F6F50
:1017700005D2424B424AC221424800F09DFA6068BD
:1017800003681B6A98470F2803D83F4B3C4AC32184
:10179000F2E7E06803681B6A98470B2803D83B4BC5
:1017A000374AC421E8E70AF067F80AF0B2F8D9F836
:1017B000000010B10368DB689847D9F8000010B149
:1017C00003681B689847386810B103685B699847DD
:1017D000D8F8000010B103685B689847386810B10A
:1017E00003681B689847D8F8000010B103689B682D
:1017F0009847E068036800215B6A9847054620B176
:10180000002343600372224B0360A0680368002139
:101810005B6A9847064608B1FEF7A0FF6068036858
:1018200000215B6A9847044610B13146FEF774FD0B
:10183000C9F80050C8F800403E60ECB1231DCAF85A
:101840000030C4F808A03368F4633046DB6898477A
:10185000236820461B689847294630460BF032F82B
:101860002B6828461B6998470AF006F803689B6AAC
:1018700098472046BDE8F0872346E0E7A405010825
:10188000AB070108320601086506010808070108D0
:101890008C05010807B5D0F84C310093D0F84821E9
:1018A000044B00F598710448FFF754FF03B05DF84E
:1018B00004FB00BF903B00208C3B002070470000E1
:1018C00030B5154D2C78BFF35B8F14F0010489B04F
:1018D0001ED1284600F0D7F9D0B13F2306930F4B15
:1018E00005930F4B0493012204238DE80C000D494E
:1018F00007940C223A23039402940B480BF078F8D7
:10190000284600F0C1F9094A094907480DF0A4FE2C
:10191000054809B030BD00BFF0080020B04B0108F9
:10192000882A0108244D010800090020B009002080
:10193000BD18000830B5144D2C78BFF35B8F14F040
:10194000010489B01DD1284600F09DF9C8B13F239C
:1019500006930E4B05930E4B0493042318220D4956
:101960000193079414230394029400940A480BF003
:101970003FF8284600F088F9084A094906480DF062
:101980006BFE054809B030BDF4080020B44B0108D7
:1019900078450108CC4D010820090020B00900203D
:1019A000BD18000830B5144D2C78BFF35B8F14F0D0
:1019B000010489B01DD1284600F065F9C8B13F2364
:1019C00006930E4B05930E4B049304230E220D49F0
:1019D0000193079411230394029400940A480BF096
:1019E00007F8284600F050F9084A094906480DF062
:1019F00033FE054809B030BDF8080020AC4B0108A3
:101A000058280108604C010840090020B009002056
:101A1000BD18000830B5144D2C78BFF35B8F14F05F
:101A2000010489B01DD1284600F02DF9C8B13F232B
:101A300006930E4B05930E4B049304230C220D4981
:101A40000193079432230394029400940A480AF005
:101A5000CFFF284600F018F9084A094906480DF05A
:101A6000FBFD054809B030BDFC08002040610108BD
:101A70001C4F0108B84B010860090020B009002084
:101A8000BD18000810B5202104460DF0EBFD2046DE
:101A900010BD704703290BD8DFE801F002040608E7
:101AA000FFF780BFFFF7B6BFFFF744BFFFF708BFE0
:101AB0000020704710B5042104460DF0D3FD2046E8
:101AC00010BD000000487047C40801081920704785
:101AD00000487047F86101080C20704700487047C3
:101AE0008009002010B5FFF75DFF064C2060FFF76E
:101AF00091FF6060FFF71EFFA060FFF7E1FEE0606E
:101B000010BD00BF8009002038B50A4B0A4A188072
:101B10000A4B1A60FFF7DCFF0546FFF7DFFF0446BC
:101B2000FFF7DAFF064B1D60064B1C60064B188062
:101B300038BD00BFA009002044610108A4090020AD
:101B4000983B0020A03B00209C3B0020014B024A18
:101B50001A607047A40900204461010808B50146D5
:101B6000034B00B10121186808F044FB012008BDB7
:101B7000383B0020032208B50021012001F0E3FAE0
:101B8000074A106020B100231A46194601F0FCFAFA
:101B900001210022084601F0D6FA024B186008BD68
:101BA000A8090020AC090020034800234FF0FF32B1
:101BB0001946006801F0AEBBA809002003480023C5
:101BC0001A461946006801F0DFBA00BFA8090020D4
:101BD000034800231A461946006801F09BBB00BF6A
:101BE000A809002007B5094802AA002342F8043DCD
:101BF0001946006801F047FB019B1BB1044B4FF0F5
:101C000080521A6003B05DF804FB00BFA8090020F1
:101C100004ED00E007B5094B186860B102AA002383
:101C200042F8043D064901F02EFB019B1BB1054B18
:101C30004FF080521A6003B05DF804FBAC0900203D
:101C40001000002004ED00E070B5084D084C0023A2
:101C50001A462946206801F05DFB294620680023CA
:101C60004FF0FF32BDE8704001F054BB100000207F
:101C7000AC090020FEE7FEE70149002001F04CBE60
:101C80005D1B0008704770477047FEE7084910F079
:101C9000030318BFC3F104030A6818BFC018131860
:101CA000044883423ABF10460B604FF0FF30704744
:101CB00014000020703F0020FEE70000024B18686F
:101CC0000368DB68184700BF383B00201FB500F0F1
:101CD000B1FD01F06DF800230322039302930193F9
:101CE00000920449044840F2B63201F0CBFB01F007
:101CF000AFFCFEE7B80A0108BD1C0008704738B504
:101D0000044602F00DFF054602F010FF81B2A8B2B2
:101D100003F062FA08B90123237138BD10B5082118
:101D200004460DF09FFC204610BD7FB504790E4699
:101D300015465CB101A803F07BFA9DF8043043B16D
:101D4000BDF806303360BDF80A302B60204604B081
:101D500070BD1C46FAE703681B6C184703685B6A92
:101D60001847704770470000034A044B13601A6815
:101D700042F400721A607047B409002000B00240BB
:101D8000034B1B78002B40F2EF1018BF0020704768
:101D9000F40900202DE9F843414BB1F80C801B6891
:101DA000CF8998680E7E03681B6A0D4698471028F5
:101DB0002A7E6B6971D103F01F041F21C4EB042438
:101DC00094FBF1F444EA0262C3F3C424C4EB042498
:101DD000C3F3451394FBF1F442EA0444C3EB032339
:101DE0003F2293FBF2F344EA0322DFF8C0E02D4CDC
:101DF0004FF0806CCEF888C0022384F83930236815
:101E00004FF00009C3F8009023683F219960C3F8A0
:101E10001090C3F81890C3F81C90C3F82490C3F82E
:101E20003490A968D9602049C3F8109041EA06614E
:101E300022F07F4207EB0847D9611A625F64AA6803
:101E40005A616A8A1028A2EB08029A610CBF02212B
:101E500001214FF07F4292FAA2F2B2FA82F2D2B29C
:101E600096400E435E625A69DA639A691A645A6A46
:101E70005A63CEF808C01A6822F4403242F40032A5
:101E80001A602268136843F40C53136022681368C5
:101E900043F001031360BDE8F88343EA0262A4E75C
:101EA000383B0020B40900200900010000E100E0F7
:101EB00010B540F6A82104460DF0D4FB204610BD15
:101EC0002DE9F3470E68042E80460C4600F0A080F2
:101ED000202E00F09D80A6F1400257425741802EEF
:101EE00000F09880A6F580735E425E415B4B1B68F4
:101EF000986803681B6A98472368402B824600F065
:101F00009D8000F28980042B00F09180202B00F04E
:101F10009580BAF1100F0CBF4FF002094FF0010984
:101F20000025E389A8F8A43ADFF838814C4B4FF03C
:101F30008062C3F88820404603F055FEA289638A78
:101F4000C8F8045045469B1AEB60C5F82C90238ACC
:101F5000A289BAF1100FA3EB02030CBF4FF00208E5
:101F60004FF00108AB622846C5F8088003F00CFE6C
:101F70000FB9002E35D0237EFF2B1FBF02232B630A
:101F8000237E6B6304BF00232B6306B3BAF1100FEB
:101F9000207E636958D103F01F024FF01F0EC3F378
:101FA000C421C2EB022292FBFEF242EA0062C1EBC4
:101FB0000121C3F3451391FBFEF142EA0142C3EB59
:101FC00003233F2193FBF1F342EA03236B63638A0C
:101FD000A2892448C5F81C809B1AAB61002103F03C
:101FE00073FE01211F4803F06FFE1D4B4FF080620E
:101FF0009A60E289A38907B94EB30093A36801925E
:10200000616818481A4603F02BFE02B0BDE8F0875D
:10201000012767E7012669E7802B12D0B3F5807F9F
:102020007FF477AF4FF009094FF4003579E71028B6
:102030000CBF4FF002094FF00109F5E74FF000091E
:10204000F2E74FF00A09EFE743EA0063BEE70092C8
:102050006168A268034803F0D4FDD6E7383B00204E
:1020600000E100E0B40900202DE9F041374B1B6886
:102070000646986803680C461B6A8AB09847E3894D
:10208000A6F8A43A236810280CBF4FF002084FF0BE
:102090000108082B07460ED10FCC03AD0FC594E8FD
:1020A0000700336885E807005B6C03A93046984752
:1020B0000AB0BDE8F081264D264B4FF08062C3F890
:1020C0008820284603F08FFD4FF44033A2896B60CF
:1020D000638AC5F82C809B1AEB600023AB62102F3B
:1020E000C5F808806369217E2DD103F01F02C2EB81
:1020F00002221F2092FBF0F5C3F3C42245EA0165DA
:10210000C2EB0222C3F3451392FBF0F245EA02450B
:10211000C3EB03233F2293FBF2F345EA032501219E
:102120000B4803F0D1FD0B4B09484FF080629A60D9
:1021300003F02AFDE2890092A389A2680448294697
:1021400003F05FFDB4E743EA0165E8E7383B0020B0
:10215000B409002000E100E070B5044626460C30CA
:1021600000250F4B60602572657246F8203B6022A7
:10217000314608F069F904F52A6275611C36B242ED
:10218000FBD194F8A72AC4F8A05A65F30002A4F87A
:10219000A45A84F8A65A84F8A72A204670BD00BF26
:1021A000E00A0108012380F8641080F86530704768
:1021B000406803681B68184700207047436B0BB1E9
:1021C0000846184770474FF6FF707047014B186874
:1021D000704700BFF8090020034B702283F85A2390
:1021E00083F85C23704700BF00E100E0044B4FF030
:1021F0008062C3F888204FF08052C3F8882070476F
:1022000000E100E0034B4FF080629A604FF0805293
:102210009A60704700E100E07047000008B531B9EE
:102220000A4B0B4A0B484FF44371FFF745FD81639E
:10223000C26309490364003218BF01220A700033E7
:10224000064A18BF0123137008BD00BF450B0108E3
:10225000AC0C01087D0B0108363B0020373B002009
:1022600008B500F061FC0A4B1B680222C3F8102479
:102270000122C3F81024D3F8082442F00102C3F865
:102280000824D3F8082442F00202C3F8082408BD49
:10229000A83C0020024B00221A7007F0F5BB00BFDB
:1022A0001800002010B5044607F0FAFB94F84730F8
:1022B00013B1024B01221A7010BD00BF180000209C
:1022C00010B5044607F07CFF23682046D3F884301D
:1022D000BDE81040184710B5682104460DF0C2F95A
:1022E000204610BD30B590F8642090F830309A4206
:1022F0000F4B1A780DD05AB90E4A0F490F4814885F
:102300000F4D0C80018811802980048001221A70F1
:1023100030BD002AFCD00948074A01881180054ACF
:10232000074D14882C80118004800022EFE700BF45
:10233000303B00202C3B0020323B00202E3B002075
:10234000343B00200D4B1B78B3B10D4B0D481B687F
:10235000D3F8042422F00802C3F804240A4A916244
:10236000426A42F001024262084A1160D3F8042432
:1023700042F00802C3F80424704700BF000A00209E
:10238000A83C00200068014084680140F809002052
:10239000F8B51C4C9DF8185023701B4C21601B4C49
:1023A0002280541EA6B21F2E09D80124B44014F076
:1023B000803F174F174E09D114F00B0F17D1164B52
:1023C000164A17484FF43971FFF776FC3F88348876
:1023D000D2087C43624381637BB11144C16375B110
:1023E000114401640F4A13700F4B1D70F8BD3C88F7
:1023F00062430732D2103488ECE7C363EFE7056429
:10240000F0E700BF000A0020F8090020020A0020BF
:102410002C3B00202E3B0020280B0108580C010803
:102420007D0B0108363B0020373B002003689B6989
:102430001847000070B5604D2B68D3F80C24D10705
:1024400032D501225D4CC3F81024002000F044FD79
:10245000226892F85630013382F85630FFF7DAFBE3
:10246000574B58491B781BB92268002A40F09880C6
:102470000A78002A00F09880534E3178002940F005
:1024800093801BB12068002840F092804F4B0020C1
:1024900018604F4B1B88182B38D100F075FB46484D
:1024A00004F0E5FE012333702B68D3F80C24920767
:1024B00040F181800222C3F81024454B434D1B8814
:1024C000444C4549454A182B43D12B680BBBD4F8E3
:1024D000043423F00803C4F80434414B09681B8812
:1024E0005B0803EB43030B4493623E4B01265E62A1
:1024F00000F05CFBD4F8043443F00803C4F804345F
:102500002E602D48BDE8704004F0B1BE00F028FBFD
:10251000C5E7D4F8043423F00803C4F804340B6886
:102520009362304B01225A6200F02EFBD4F804343F
:1025300043F00803C4F80434002000F0DDFC224B13
:1025400000221A701D4B1868002834D0FFF76EFF68
:1025500070BD286801302860D4F80434032823F0C3
:102560000803C4F8043412DC1D4B09681B885B089F
:1025700000FB031393621B4B01225A6200F0F0FA36
:10258000D4F8043443F00803C4F80434B9E70B6802
:102590009362144B01225A62002000F0E1FAC5E771
:1025A000087882F8460063E7002000F0A5FC7BE78E
:1025B00007F006FE6AE770BDA83C0020383B00200B
:1025C000000A002018000020040A0020FC09002056
:1025D000020A0020006C0140F809002084680140D4
:1025E000323B002000680140064B5A68920707D52D
:1025F00002229A60044B1B68586803685B6918479D
:10260000704700BF00B00240383B00204068704770
:1026100041607047054A136843F080731360044AB1
:10262000136843F001031360704700BFFCED00E046
:10263000001000E0521A02EB5302B2FBF3F07047B5
:10264000014B1868704700BF041000E0704710B5D8
:102650000C2104460DF006F8204610BD10B50368A5
:1026600004461B6931B19847A26863689B1A1844F5
:10267000606010BD9847A06010BD704770470000B3
:1026800008B500F02EF8024B00221A6008BD00BF0A
:10269000050A0020F8B50F4600F027F80C4A937899
:1026A00055781478D370C6B213F001009570547049
:1026B00016700BD015F0010008D014F0010005D001
:1026C000F30702D401203870F8BD0020F8BD00BF28
:1026D000050A002010B5042104460CF0C3FF204673
:1026E00010BD0021084602F05FB9002002F096B943
:1026F0007047012070470C2070470C2303FB01003A
:10270000083070470C2303FB01000830704701209C
:1027100070474FF43F6070474FF43F6303FB010085
:10272000083070474FF43F6303FB010008307047E7
:10273000012070471020704700EB011008307047EF
:1027400000EB0110083070470846FEF7F3BF0000A9
:1027500010B5034B0360044605F04EFD204610BD46
:10276000B00D010810B50446FFF7F2FF2046142112
:102770000CF078FF204610BD10B5034B03600446F3
:1027800005F03AFD204610BD7C0D010810B5044649
:10279000FFF7F2FF204640F6F8310CF063FF2046C9
:1027A00010BD000010B5034B0360044605F024FD86
:1027B000204610BD480D010810B50446FFF7F2FF92
:1027C000204618210CF04EFF204610BD10B5084BD6
:1027D0000360044600F62440FFF7BAFF04F12C0022
:1027E000FFF7CAFF04F11400FFF7DCFF204610BD1D
:1027F000E40D010810B50446FFF7E8FF204640F657
:102800008C510CF02FFF204610BD10B5042104465A
:102810000CF028FF204610BD08B503F063F8044B08
:102820001B781BB1BDE8084001F008BB08BD00BF24
:10283000742300202DE9F04FDFF8E8929BB003F0FD
:1028400037F8D9F8403043F08053C9F84030D9F810
:10285000403003F080530693A64B1A6842F440427E
:102860001A601B6803F4404307934FF480031493EA
:102870004FF4B473169307234FF0010A4FF0020888
:102880001893082506230DA8CDF834A0CDF838A05C
:10289000CDF84C80CDF85C801993159505F060F962
:1028A00000B1FEE704F07AFD00B1FEE70F230893C4
:1028B0000A904FF4A0534FF48056052108A8CDF894
:1028C00024800B930C9604F0B5FD044600B1FEE79E
:1028D00002F044FCD9F83030874F43F48053C9F8F4
:1028E0003030D9F8303003F48053059302F07EFA8B
:1028F00002F0F6F95B2003F063F802F0E1F802F071
:102900003BF97E4840F27713036103230393C361CD
:102910000560846204F000FF794A3A60384604F0AA
:102920008EFB7849C7F80CA04FF0040B7D22384687
:1029300081E804018C60C7F808B004F0D7FA724946
:10294000724D0C60C8228A60384610224C618C613E
:10295000CC61CA600C610C624C62C1F828A04C606A
:1029600004F09CFB4FF40061E9604FF40051696191
:102970004FF48041A9614FF48031E9614FF4003197
:1029800029624FF480212E616962614E4FF480709C
:102990004FF400724FF4002185E80500A9624FF45E
:1029A000806229463846AA60029204F0FDFB304658
:1029B00003F033FF4FF4F171B162CA21716240F24A
:1029C000E3113163CB21F162304652493160C6F8E0
:1029D00014A0C6F818A0C6F81C80C6F8208086F897
:1029E000344086F8354086F836407460B460F46050
:1029F000346103F093FE384604F022FC5146404611
:102A000002F004FD294638462C606C60AC60EC6036
:102A10002C616C61AC61EC612C626C62AC6204F0A4
:102A2000C3FB5946384604F0F7FBD9F830103A4852
:102A300041F40071C9F83010D9F83010039B10939D
:102A400001F400710D2308910DA91193CDF834B054
:102A5000CDF838800F9403F0A7F9384604F007FC4E
:102A60000D940F9402F062F84FF040431693FF2349
:102A70001293109013948DF864408DF865408DF892
:102A8000664002F053F8189002F04AF80523029AC3
:102A90001593800814920E90CDF8448002F040F80F
:102AA000800822460DA91790304603F0C2FE20464A
:102AB00002F042F8194B01932A23009321465B460A
:102AC0003922384604F012FC154B01932B23214682
:102AD000009339225B46384604F008FC02F020F8E7
:102AE00022460146304603F0CDFE00F015FA1BB039
:102AF000BDE8F08F00700040A83C0020681800205E
:102B0000006C0140682300200818002034180020C1
:102B1000003C002000680140002402402E000020FC
:102B20003E0000200038024037B50B4A0B4C022310
:102B3000152513705570019244220092002139220C
:102B4000204604F0D3FB0021009135232A4620467D
:102B500004F09FFB03B030BD65230020A83C00209B
:102B600007B5074B03EB80002A230190009339221D
:102B700004230021034804F0B9FB03B05DF804FB13
:102B80002E000020A83C002007B5064B01932A2305
:102B90000093392204230021034804F0A7FB03B06B
:102BA0005DF804FB26000020A83C002007B5064B7A
:102BB00001932A230093392204230021034804F0BF
:102BC00095FB03B05DF804FB2A000020A83C002020
:102BD0002DE9F743614E3578BFF35B8F15F00105A2
:102BE0008046894617461C4656D13046FFF74BF8BB
:102BF000002851D0A3B25A4CBDF82800C4F8048074
:102C0000012284F8452084F8462084F8542084F872
:102C10005720544AC4F80890E76025616561258310
:102C20006583A583E58325846584A58484F826507F
:102C3000A562A5856563A563E563256484F84450B2
:102C400084F8555084F8565084F8585084F85950F8
:102C500084F85A5084F85B5084F85C502566146000
:102C6000414A84F865501380404A1080404A1570EC
:102C7000404A83421380404AACBF002301231080A6
:102C800084F8303030463D4B2360FEF7FDFF3C4A70
:102C90003C4920460CF0E0FC31483B4F07F0A0F8DF
:102CA000FEF710FF0446FEF711FF0D9B009301464F
:102CB0000C9B0B9A20460AF065FB344B344A1A6091
:102CC0000020FEF721FF33480AF0C6FA3B78BFF335
:102CD0005B8FDB0738D43846FEF7D5FF002833D0AA
:102CE0002D4E2E4B336006F6384806F1140006F1DF
:102CF0002C0506F624447060B560F460C6F81080B8
:102D000005F07CFA264B7361284605F077FA254BCF
:102D1000F362204605F072FA234BC6F8243C324693
:102D200006F688514046FDF77DFD06F68850FDF712
:102D30004DFD4046FEF7FEFC3846FEF7A5FF104A63
:102D40001A4930460CF088FC08F096FD014604480C
:102D500006F088FF024803B0BDE8F0830C0A0020AB
:102D6000100A0020383B00202C3B00202E3B002086
:102D7000303B0020323B0020343B0020B80B0108E0
:102D8000B009002019220008780A0020A43B002086
:102D9000642300201C0000207C0A0020E40D0108B0
:102DA000480D01087C0D0108B00D0108CD27000871
:102DB000F0B585B000254FF4F073039502950195A9
:102DC0000093144A144915484FF44873FFF700FF65
:102DD000134B01261E70134B1A8803680096044695
:102DE0005F6F4FF040412B46B8470F4B84F8585067
:102DF000636184F8465002230C4D84F85430282334
:102E000084F845302846FFF705FC256184F85C60AE
:102E100005B0F0BDA418002020000020AC18002050
:102E20007423002024000020542300205823002075
:102E300038B5194C194D1A491A4822460CF00CFCA9
:102E40002846FFF789F92246174928460CF004FC6A
:102E50001648174B174903600025224605710CF0F0
:102E6000FBFB1548154B4560224685601449154DFE
:102E700003600CF0F1FB2246134914480CF0ECFB04
:102E8000134B2B602846FFF7FBFB224628461149CF
:102E9000BDE838400CF0E0BBB0090020AC180020C1
:102EA000931A00081C000020651D0008A4180020CB
:102EB000C80A0108FD1C000858230020040D010861
:102EC0004D26000854230020F12600082000002091
:102ED0002C0D01087D260008064A0121115408B96D
:102EE00001F052BD0128FBD00228F9D00328F7D009
:102EF000704700BF75230020064A0021115408B90D
:102F000001F032BD0128FBD00228F9D00328F7D008
:102F1000704700BF7523002008B5002001F0D6FCE3
:102F2000012001F0D3FC022001F0D0FC032001F0CD
:102F3000CDFC0020FFF7E0FF0120FFF7DDFF0220BE
:102F4000FFF7DAFF0320BDE80840FFF7D5BF000018
:102F5000034B1B5C0BB1FFF7CFBFFFF7BDBF00BF3B
:102F60007523002000F1080343604FF0FF32C36077
:102F70000361002382600360704700230361704790
:102F800043684B609A688A609A68516099600861EA
:102F900003680133036070470A68531C30B50AD1D7
:102FA00003695A684A6091608B60596008610368E0
:102FB0000133036030BD00F108035C682568AA4254
:102FC000EFD32346F9E7436882689A6083684268D2
:102FD0005A6003695A68904204BF82685A600022AE
:102FE0000261186801381860704738B51546026CE0
:102FF00004464AB905681DB9406800F0E1FD656006
:10300000A36B0133A36338BD65B980680CF066FB20
:10301000A368226C13446268A3609342F0D32368D0
:10302000A360EDE7C0680CF059FB236CE2682168EF
:103030005B421A448A42E2603EBF62689B18E360CA
:10304000022DDDD1A36B002BDAD0A36B013BA36370
:10305000D6E7034630B41C6808465CB1D9681A6CE0
:103060005D681144A942D96028BFDC60D96830BCD2
:103070000CF034BB30BC704738B5044600F09AFE03
:1030800004F12405A36C002B12DC4FF0FF33A36482
:1030900000F0A2FE00F08EFE04F11005636C002B20
:1030A00013DC4FF0FF336364BDE8384000F094BE9A
:1030B000636A002BE9D0284600F0CAFC08B100F092
:1030C0003FFDA36C013BA364DCE72369002BE8D040
:1030D000284600F0BDFC08B100F032FD636C013BF6
:1030E0006364DBE738B50D46044610B900F04CFECA
:1030F000FEE700F05FFE206CE36B2268A2604343B2
:10310000D1181B1A13446160E36000214FF0FF33B4
:10311000A1636364A3646DB923693BB104F110003A
:1031200000F096FC012801D100F022FE00F054FED0
:10313000012038BD04F11000FFF714FF04F1240052
:10314000FFF710FFF2E7F8B50E461746054670B1D7
:10315000502000F059FD044648B106FB05F001304F
:1031600000F052FD206028B9204600F0ABFD00F0D1
:103170000BFEFEE7E563266401212046FFF7B2FF60
:1031800084F84D702046F8BD2DE9F04385B089469E
:1031900001921F46044610B900F0F6FDFEE7002933
:1031A00065D1036C002B62D000F0EEFDFEE7019DBF
:1031B0001DB900F011FE00204AE016B902A800F087
:1031C00081FC00F009FE00F06DFA00F0F3FD636C85
:1031D000013308BFC4F84480A36C013308BFC4F8AE
:1031E000488000F0F9FD01A902A800F07BFCC0BBFB
:1031F00000F0E0FDA66BE56B00F0EEFDAE422AD1DB
:10320000019904F1100000F0FDFB2046FFF734FFA8
:1032100000F0E6FA08B900F0ABFD012600F0CAFDA7
:10322000A26BE36B9A4201D3022FC0D13A464946C2
:103230002046FFF7DAFE636A3BB104F1240000F098
:1032400007FC012801D100F093FD00F0C5FD01202D
:1032500005B0BDE8F0832046FFF70EFF00F0C0FA8E
:10326000DBE72046FFF708FF00F0BAFAA3E7022FDA
:1032700002D1E36B012B03D100264FF00008CDE70C
:1032800000F082FDFEE72DE9F0410E4690461D4616
:10329000044610B900F078FDFEE7D9B9036CCBB154
:1032A00000F072FDFEE704F1240000F0D1FB60B3F2
:1032B000B8F1000F29D00124C8F80040384600F0CA
:1032C00087FD2046BDE8F081A36C0133A3641CE0B8
:1032D0000024F3E7022D02D1E36B012B17D100F09C
:1032E00027FE00F051FDA26BE36B9A42074601D323
:1032F000022DEDD12A4631462046FFF776FEA36C1B
:103300000133E1D1636A002BCDD10124D6E700F06F
:103310003BFDFEE72DE9F04385B00E46019299464C
:10332000044610B900F030FDFEE711B9036C002B24
:103330007CD100274FF0000800F03CFDA36B53B395
:1033400031462046E568FFF784FEB9F1000F17D13A
:10335000A36B013BA363236813B900F0F7FB606024
:1033600023693BB104F1100000F072FB012801D188
:1033700000F0FEFC00F030FD012005B0BDE8F08358
:10338000636AE560002BF5D004F1240000F060FBD7
:103390000028EFD0ECE7019D1DB900F01DFD0020D5
:1033A000EBE717B902A800F08DFB00F015FD00F067
:1033B00079F900F0FFFC636C013308BFC4F8448066
:1033C000A36C013308BFC4F8488000F005FD01A9D3
:1033D00002A800F087FB18BB00F0ECFCA56B00F026
:1033E000FBFCBDB9236833B900F0E4FC606800F071
:1033F000B3FB00F0F1FC019904F1240000F002FBA2
:103400002046FFF739FE00F0EBF908B900F0B0FCF8
:10341000012791E72046FFF72FFE00F0E1F9F7E7DB
:103420002046FFF729FE00F0DBF9B8E700F0ACFC1E
:10343000FEE7000010B50E4B1A6850600D4A126886
:103440009042044607D20C4A10681968BDE8104043
:103450000431FFF7A1BD094A106819680431FFF76C
:103460009BFD074B1A68944238BF1C6010BD00BF1B
:103470007C2300207024002084230020802300204F
:10348000440000202DE9F84F0AAE0F4615469A4633
:1034900096E84009814610B900F076FCFEE7042E5C
:1034A00002D900F071FCFEE7502000F0ADFB0446AD
:1034B00070B1BBF1000F03D1A80000F0A5FB83465B
:1034C000C4F830B0BBF1000F06D1204600F0FAFB83
:1034D0004FF0FF30BDE8F88FAD002A46A5215846D1
:1034E0000CF096F9236B043D1D4425F007057B1E67
:1034F00004F13402093793F9011002F8011B13F9A2
:10350000011F09B19F42F6D14FF0000B271D38462D
:1035100084F83DB0E662A664FFF72FFD04F11800C1
:10352000FFF72BFDC6F105032461A3616462C4F8B3
:103530004CB052464946284600F0FAFB2060B8F1EC
:10354000000F01D0C8F8004000F034FC2F4B304D84
:103550001A68DFF8F08001321A602A68002A4BD11D
:103560002C601B68012B27D12A48DFF8DCA0DFF88C
:10357000DC90FFF7F7FC2848FFF7F4FC2748FFF73B
:10358000F1FC2748FFF7EEFC2648FFF7EBFC50461E
:10359000FFF7E8FC4846FFF7E5FC2348FFF7E2FCAD
:1035A0002248FFF7DFFC2248FFF7DCFC214BC3F881
:1035B00000A0214BC3F80090204A13680133136028
:1035C0001F4A23641168E36A8B4288BF1360114A63
:1035D000142000FB03203946FFF7D2FC00F0FCFB6F
:1035E000D8F800302BB12B68DB6A9E4201D900F07D
:1035F000BFFB0120BDE8F88FD8F80030002BDBD1ED
:103600002B68DB6A9E4228BF2C60D5E7EC230020A4
:103610007C230020882300209C230020B02300204E
:10362000C4230020D8230020302400205C24002064
:10363000482400208023002084230020F823002039
:10364000002400204424002004240020182400200A
:1036500030B585B00024039402940194009423466D
:1036600040220C490C48FFF70DFF012805460AD1FE
:1036700000F08AFB094B1D60094B1C6005B0BDE8DA
:10368000304000F001BC10B900F07EFBFEE705B051
:1036900030BD00BF040E0108B138000844240020EA
:1036A00070240020024A136801331360704700BF82
:1036B000F42300202DE9F84F3E4B1B68002B41D12D
:1036C0003D4B1A6801321A601D68002D44D13B4BF6
:1036D0001A68126812B100F057FBFEE7384A196801
:1036E00010681860116037490A6801320A601A6868
:1036F0001168354A69B31B68DB68DB685B682AE0E0
:1037000006F1040A5046FFF75EFCB16A19B106F1F2
:103710001800FFF758FCF06AD9F800102B4B8842CC
:103720004FF0140288BFC9F80000514602FB003078
:10373000FFF726FC3868F16AC26A914228BF4FF051
:10374000010B14E0224A1368013313604FF0000BA1
:1037500027E04FF0FF3313601B4C1E4F23689D4240
:103760004FF0000B13D3DFF85480DFF87090D8F8D7
:10377000002012681AB94FF0FF32226007E0D8F833
:103780000020D268D66871688D42B9D221603A684B
:103790000E4BD16A14224A439A58022A28BF4FF08E
:1037A000010B0D4A1268002A18BF4FF0010B584652
:1037B000BDE8F88FF423002070240020802300202F
:1037C000842300202C240020440000208823002093
:1037D000F02300207C2300207424002000240020FB
:1037E0002DE9F0412A4C236813B900F0CDFAFEE729
:1037F00000F0E0FA2368013B236023682BB100242A
:1038000000F0EAFA2046BDE8F081224B1B68002B4D
:10381000F5D0214D214E1DE0EB68DC68271D04F139
:103820001800FFF7D0FB3846FFF7CDFBE36A32689C
:103830001420934200FB0380394688BF3360FFF7B2
:103840009FFB174BE26A1B68DB6A9A4204D3154B55
:1038500001221A60DFF854802B68002BDCD1124C57
:1038600023688BB90F4B1C68012CC8D100F080FA7B
:10387000C6E7FFF71FFF00B12E602368013B2360FE
:103880002368002BF5D1EDE7064D0126F8E700BFD0
:10389000F4230020EC23002030240020002400200A
:1038A0007C23002074240020F023002088230020A3
:1038B00008B5154E154C236843B9154B1B68012BF1
:1038C00001D900F055FAFEF7D7F9F3E7FFF7EAFE62
:1038D0003568FFF785FF002DEDD000F06BFAF36837
:1038E000DD68281DFFF76FFB0A4A1368013B136070
:1038F0002368013B236000F06FFA286B00F0E2F9C7
:10390000284600F0DFF9D6E75C240020FC230020E5
:1039100088230020EC23002038B50D4640B9054B24
:103920001C6800F047FAE564BDE8384000F054BA7E
:103930000446F6E77C23002008B9044B1868C36CE2
:103940000BB1084618471846704700BF7C2300207B
:1039500070B5264B1A68264B12B101221A6070BD51
:10396000244C1A6020680121FFF7E6FF22682368D3
:1039700012681B6B9A4204D8206821683431FEF724
:1039800079F923681C49186B14220BF077FE20B1DB
:10399000206821683431FEF76DF9184A184914235C
:1039A0001646086858431058B8B109684B43D018F8
:1039B000083345686D68456013449D4204BF6B68D9
:1039C0004360142303FB01614B68DB6823602068BC
:1039D0000021BDE87040FFF7AFBF086810B900F0E4
:1039E000D3F9FEE7086801380860DAE7F42300201D
:1039F000742400207C230020F00D0108882300207F
:103A00000024002038B50D4610B900F0BDF9FEE7DE
:103A10000C4C21681831FFF7BFFA20680430FFF71B
:103A2000D2FA6B1C06D1216807480431BDE8384042
:103A3000FFF7A6BA054B18682844BDE83840FFF7E1
:103A4000F9BC00BF7C230020482400207024002003
:103A500038B5C368DC6814B900F096F9FEE704F1E4
:103A600018052846FFF7AFFA104B1B68DBB9251D78
:103A70002846FFF7A8FA0E4AE36A11688B4288BF0E
:103A800013600C4A1420294600FB0320FFF778FA44
:103A9000094BE26A1B68DB6A9A4223BF074B01208D
:103AA0001860002038BD29460548EFE7F4230020C0
:103AB00000240020882300207C2300207424002080
:103AC0003024002008B510B900F05EF9FEE7034B82
:103AD0001B680360024B1B68436008BD2C24002058
:103AE0007024002038B50D46044610B900F04CF99A
:103AF000FEE711B900F048F9FEE700F05BF90E4B64
:103B000019682B685A1C10D00C4A20681268904221
:103B1000626801D091420DD2881A83420AD95B1A99
:103B200013442B602046FFF7CDFF002400F054F92A
:103B3000204638BD0124F9E7702400202C24002001
:103B4000014B01221A60704774240020014B186851
:103B5000704700BF7C230020F8B5044640B3154DE4
:103B6000C36A2A68D26A934222D22A68124ED26A63
:103B7000C2F105028261142202FB036342699A4288
:103B800013D1071D3846FFF71EFA2B680B4ADB6A74
:103B90001168E3628B4200D913601420394600FBA0
:103BA0000360BDE8F840FFF7EBB92B68DB6AC3623E
:103BB000F8BD00BF7C2300208823002000240020C3
:103BC00038B50446D0B1C26A836C9A4216D0051D3E
:103BD0002846FFF7F8F9A36CE362C3F10502A2617E
:103BE000074A11688B4288BF1360064A1420294691
:103BF00000FB0320BDE83840FFF7C2B938BD00BF65
:103C0000002400208823002070B50446FFF74AFDF9
:103C10002748016871B9274B274A23F0070313602F
:103C20005160264A41F2745582E8220083E824005C
:103C3000012303602CB1083463071CBF24F0070480
:103C40000834621E41F272539A4207D81A4A136826
:103C500059688C4204D819498B4207D100251EE0CF
:103C600019680029F7D01A460B46F1E7196815685C
:103C700011605968091B102905F108050AD91A199C
:103C800051605C6056680C4908684468A6420DD8CB
:103C900010600A600A495B680A68D21A0A60FFF776
:103CA0009FFD0DB9FDF7E7FF284670BD0146EBE724
:103CB000FC39002080240020003A0020F439002044
:103CC0004800002038B50446C8B1A0F10805FFF748
:103CD000E9FC54F8040C0A4B1A68516888420CD865
:103CE00044F8082C074A1D6054F8043C11680B4442
:103CF0001360BDE83840FFF773BD1346ECE738BDED
:103D0000003A00204800002003480068006880F363
:103D1000088862B600DF00BF08ED00E0DFF80C00A5
:103D2000016841F4700101607047000088ED00E017
:103D30004FF0807300E90A00054B40F80C3C6FF02F
:103D4000020340F8202C40F8243C4438704700BF60
:103D5000993D0008054B19680868B0E8F04F80F3FA
:103D600009884FF0000080F3118870477C23002001
:103D7000044B4FF080521A60BFF34F8FBFF36F8F29
:103D8000704700BF04ED00E0EFF311804FF4A07125
:103D900081F311887047002008B5054B1B6801337B
:103DA00002D0FFF7F1FFFEE7FFF7EEFFFEE700BFEF
:103DB0004C00002008B5FFF7E7FF044A1368013301
:103DC0001360BFF34F8FBFF36F8F08BD4C0000200F
:103DD00080F3118870470000034B186801381860A1
:103DE00008B9FFF7F5BF70474C000020EFF30980DA
:103DF000114B1A681EF0100F08BF20ED108A20E941
:103E0000F04F10604DF8043D4FF4A07080F311881E
:103E1000FFF79EFD4FF0000080F3118808BC196881
:103E20000868B0E8F04F1EF0100F08BFB0EC108A21
:103E300080F30988704700BF7C23002008B5FFF796
:103E4000A3FFFFF737FC18B1044B4FF080521A6004
:103E50000020BDE80840FFF7BBBF00BF04ED00E055
:103E6000064B4FF47A721B68B3FBF2F3044A013B32
:103E70001360044B07221A60704700BFA80000209F
:103E800014E000E010E000E013B5234B1A78D2B242
:103E90000192FF221A701B78204ADBB28DF80330A2
:103EA0009DF8033003F0400313701D4B07221A6086
:103EB00000219DF80300000602F1FF3423D401B174
:103EC0001A601A68120202F4E0621A60019B124A38
:103ED000DBB21370134B1A6842F47C021A601A6842
:103EE00042F07C421A60FFF7BBFF0F4B00221A60C2
:103EF000FFF714FF0D4A136843F040431360FFF7C8
:103F000003FFFFF749FF9DF803205200D2B28DF85E
:103F1000032001212246CCE700E400E0083A00201B
:103F20000C3A002020ED00E04C00002034EF00E0CF
:103F300008B5EFF305830F2B08D90A4A9B5C0A4AA0
:103F400012789A4202D9FFF71FFFFEE7074B084A93
:103F50001B68126803F4E063934202D9FFF714FF71
:103F6000FEE708BDF0E300E0083A00200CED00E0B9
:103F70000C3A0020684620F007018D4601B5FEE7A7
:103F8000684620F007018D4601B5FEE7684620F03F
:103F900007018D4601B5FEE7684620F007018D4612
:103FA00001B5FEE7684620F007018D4601B5FEE742
:103FB000684620F007018D4601B5FEE7684620F00F
:103FC00007018D4601B5BDE80140854670470000F8
:103FD000684620F007018D4679B5134A134B144902
:103FE0008B4213D3134B144A0021934213D3134E25
:103FF000134CA41BA4100025A5420FDB04F050F8BD
:10400000FDF764FEBDE879408546704752F8040F1D
:1040100043F8040BE4E743F8041BE6E756F82530C1
:1040200098470135E8E700BF206201080000002042
:10403000F0080020F0080020703D00201062010808
:104040001C620108684620F007018D4601B5FFF7A4
:10405000B5FFBDE8014085467047684620F007017E
:104060008D4601B5FFF7AAFFBDE8014085467047C0
:10407000684620F007018D4601B5FFF79FFFBDE8B8
:10408000014085467047684620F007018D4601B51E
:10409000FFF794FFBDE8014085467047684620F071
:1040A00007018D4601B5FFF789FFBDE80140854650
:1040B0007047684620F007018D4601B5FFF77EFF87
:1040C000BDE8014085467047684620F007018D46EF
:1040D00001B5FFF773FFBDE80140854670476846AC
:1040E00020F007018D4601B5FFF768FFBDE80140EC
:1040F00085467047684620F007018D4601B5FFF7F9
:104100005DFFBDE8014085467047684620F0070125
:104110008D4601B5FFF752FFBDE801408546704767
:10412000684620F007018D4601B5FFF747FFBDE85F
:10413000014085467047684620F007018D4601B56D
:10414000FFF73CFFBDE8014085467047684620F018
:1041500007018D4601B5FFF731FFBDE801408546F7
:104160007047684620F007018D4601B5FFF726FF2E
:10417000BDE8014085467047684620F007018D463E
:1041800001B5FFF71BFFBDE8014085467047684653
:1041900020F007018D4601B5FFF710FFBDE8014093
:1041A00085467047684620F007018D4601B5FFF748
:1041B00005FFBDE8014085467047684620F00701CD
:1041C0008D4601B5FFF7FAFEBDE801408546704710
:1041D000684620F007018D4601B5FFF7EFFEBDE808
:1041E000014085467047684620F007018D4601B5BD
:1041F000FFF7E4FEBDE8014085467047684620F0C1
:1042000007018D4601B5FFF7D9FEBDE8014085469F
:104210007047684620F007018D4601B5FFF7CEFED6
:10422000BDE8014085467047684620F007018D468D
:1042300001B5FFF7C3FEBDE80140854670476846FB
:1042400020F007018D4601B5FFF7B8FEBDE801403B
:1042500085467047684620F007018D4601B5FFF797
:10426000ADFEBDE8014085467047684620F0070175
:104270008D4601B5FFF7A2FEBDE8014085467047B7
:10428000684620F007018D4601B5FFF797FEBDE8AF
:10429000014085467047684620F007018D4601B50C
:1042A000FFF78CFEBDE8014085467047684620F068
:1042B00007018D4601B5FFF781FEBDE80140854647
:1042C0007047684620F007018D4601B5FFF776FE7E
:1042D000BDE8014085467047684620F007018D46DD
:1042E00001B5FFF76BFEBDE80140854670476846A3
:1042F00020F007018D4601B5FFF760FEBDE80140E3
:1043000085467047684620F007018D4601B5FFF7E6
:1043100055FEBDE8014085467047684620F007011C
:104320008D4601B5FFF74AFEBDE80140854670475E
:10433000684620F007018D4601B5FFF73FFEBDE856
:10434000014085467047684620F007018D4601B55B
:10435000FFF734FEBDE8014085467047684620F00F
:1043600007018D4601B5FFF729FEBDE801408546EE
:104370007047684620F007018D4601B5FFF71EFE25
:10438000BDE8014085467047684620F007018D462C
:1043900001B5FFF713FEBDE801408546704768464A
:1043A00020F007018D4601B5FFF708FEBDE801408A
:1043B00085467047684620F007018D4601B5FFF736
:1043C000FDFDBDE8014085467047684620F00701C5
:1043D0008D4601B5FFF7F2FDBDE801408546704707
:1043E000684620F007018D4601B5FFF7E7FDBDE8FF
:1043F000014085467047684620F007018D4601B5AB
:10440000FFF7DCFDBDE8014085467047684620F0B7
:1044100007018D4601B5FFF7D1FDBDE80140854696
:104420007047684620F007018D4601B5FFF7C6FDCD
:10443000BDE8014085467047684620F007018D467B
:1044400001B5FFF7BBFDBDE80140854670476846F2
:1044500020F007018D4601B5FFF7B0FDBDE8014032
:1044600085467047684620F007018D4601B5FFF785
:10447000A5FDBDE8014085467047684620F007016C
:104480008D4601B5FFF79AFDBDE8014085467047AE
:10449000684620F007018D4601B5FFF78FFDBDE8A6
:1044A000014085467047684620F007018D4601B5FA
:1044B000FFF784FDBDE8014085467047684620F05F
:1044C00007018D4601B5FFF779FDBDE8014085463E
:1044D0007047684620F007018D4601B5FFF76EFD75
:1044E000BDE8014085467047684620F007018D46CB
:1044F00001B5FFF763FDBDE801408546704768469A
:1045000020F007018D4601B5FFF758FDBDE80140D9
:1045100085467047684620F007018D4601B5FFF7D4
:104520004DFDBDE8014085467047684620F0070113
:104530008D4601B5FFF742FDBDE801408546704755
:10454000684620F007018D4601B5FFF737FDBDE84D
:10455000014085467047684620F007018D4601B549
:10456000FFF72CFDBDE8014085467047684620F006
:1045700007018D4601B5FFF721FDBDE801408546E5
:104580007047684620F007018D4601B5FFF716FD1C
:10459000BDE8014085467047684620F007018D461A
:1045A00001B5FFF70BFDBDE8014085467047684641
:1045B00020F007018D4601B5FFF700FDBDE8014081
:1045C00085467047684620F007018D4601B5FFF724
:1045D000F5FCBDE8014085467047684620F00701BC
:1045E0008D4601B5FFF7EAFCBDE8014085467047FE
:1045F000684620F007018D4601B5FFF7DFFCBDE8F6
:10460000014085467047684620F007018D4601B598
:10461000FFF7D4FCBDE8014085467047684620F0AE
:1046200007018D4601B5FFF7C9FCBDE8014085468D
:104630007047684620F007018D4601B5FFF7BEFCC4
:10464000BDE8014085467047684620F007018D4669
:1046500001B5FFF7B3FCBDE80140854670476846E9
:1046600020F007018D4601B5FFF7A8FCBDE8014029
:1046700085467047684620F007018D4601B5FFF773
:104680009DFCBDE8014085467047684620F0070163
:104690008D4601B5FFF792FCBDE8014085467047A5
:1046A000684620F007018D4601B5FFF787FCBDE89D
:1046B000014085467047684620F007018D4601B5E8
:1046C000FFF77CFCBDE8014085467047684620F056
:1046D00007018D4601B5FFF771FCBDE80140854635
:1046E0007047684620F007018D4601B5FFF766FC6C
:1046F000BDE8014085467047684620F007018D46B9
:1047000001B5FFF75BFCBDE8014085467047684690
:1047100020F007018D4601B5FFF750FCBDE80140D0
:1047200085467047684620F007018D4601B5FFF7C2
:1047300045FCBDE8014085467047684620F007010A
:104740008D4601B5FFF73AFCBDE80140854670474C
:10475000684620F007018D4601B5FFF72FFCBDE844
:10476000014085467047684620F007018D4601B537
:10477000FFF724FCBDE8014085467047684620F0FD
:1047800007018D4601B5FFF719FCBDE801408546DC
:104790007047684620F007018D4601B5FFF70EFC13
:1047A000BDE8014085467047684620F007018D4608
:1047B00001B5FFF703FCBDE8014085467047684638
:1047C00020F007018D4601B5FFF7F8FBBDE8014079
:1047D00085467047684620F007018D4601B5FFF712
:1047E000EDFBBDE8014085467047000070B52D4CDB
:1047F00088B0204601F0E8FE054600284FD12A4A3D
:104800002A4B2B4EA06084E80C004FF48043E060FC
:104810006061A061E06120622361336B43F00203B9
:104820003363336B059003F002030193019B21482E
:104830004FF480730393122304930223069303A976
:104840000423079301F0B0FA4FF4007303A9194849
:10485000039301F0A9FA336C43F400133364336C0F
:1048600003F400130293029B336A43F40013336290
:10487000336A23F4001333622A4605211F2001F016
:104880005FF81F2001F090F82A460521202001F052
:1048900057F8202001F088F8204601F0BDFC08B050
:1048A00070BD00BF103A002000540040801A06007E
:1048B000003802400004024008B5034801F01FFD23
:1048C000BDE80840FFF792BF103A002070B50328FA
:1048D0008AB0044625D8214D55F820300593012390
:1048E00006930793032308931D4B02281A6B23D0CA
:1048F00003282AD0012816D042F040021A631B6B0D
:1049000003F040030193019B164E05A956F82400BD
:1049100001F04AFA012235F8241056F8240001F07B
:1049200035FB0AB070BD42F008021A631B6B03F03E
:1049300008030293029BE7E742F008021A631B6B2D
:1049400003F008030393039BDEE742F480621A63DB
:104950001B6B03F480630493049BD5E75400002091
:104960000038024064000020032808D8044B33F8C4
:104970002010044B002253F8200001F007BB7047C1
:104980005400002064000020032808D8044B33F8AA
:104990002010044B012253F8200001F0F7BA7047B1
:1049A000540000206400002010B5194B1A6B42F02F
:1049B00001021A631B6B86B003F001030093009B96
:1049C00069B90123019302230493124B02910391CD
:1049D00053F8200001A901F0E7F906B010BD012944
:1049E000FBD1022304930C4B02930A4B019153F821
:1049F0002000002401A9039401F0D6F922460F21DA
:104A0000062000F09DFF062000F0CEFFE5E700BF86
:104A100000380240500000200000111008B5034B80
:104A2000012153F8200001F0ABFA08BD500000202E
:104A3000FFF7DCBE10B586B006AC642304F8012D88
:104A4000029301230A46019301460094034801F0B2
:104A50006DFC08B1FFF730FF06B010BD103A002022
:104A60007FB506AA002302F8013D4FF47A73029342
:104A700001238DE80C000A460146054801F0C8FCF8
:104A800008B1FFF719FF9DF8170007B05DF804FBA8
:104A9000103A00201FB54FF47A748DE81C000A46C6
:104AA00001230146044801F0B3FC044608B1FFF7B6
:104AB00003FF204604B010BD103A002000F020BFD4
:104AC00070B5154B154C1A6B42F080021A631B6BC4
:104AD00086B003F080030093009B1123802502938E
:104AE0000026032301A9204604930195039601F0B3
:104AF0005BF932462946204601F048FA142000F0BE
:104B0000FFFE01222946204601F040FA0A2000F06B
:104B1000F7FE06B070BD00BF00380240001C024026
:104B2000014B1868704700BF74000020014B1868E3
:104B3000704700BF78000020014B1860704700BF2D
:104B40004C3A0020012807B503460AD84A780B786A
:104B5000084800920021152202F09BFB03B05DF88B
:104B600004FB01910A5C009200213922014802F005
:104B7000BDFBF3E7A83C00201FB5274B5A6C42F061
:104B800080625A645A6C02F080620192019A5A6AF9
:104B900042F080625A625A6A22F080625A621A6B4C
:104BA00042F400021A631A6B02F400020292029AA3
:104BB0001A6942F400021A611A6922F400021A61A9
:104BC0005A6C42F000625A645A6C02F0006203921E
:104BD000039A5A6A42F000625A625A6A22F00062EC
:104BE0005A6203210022582000F0AAFE582000F04B
:104BF000DBFE002203215A2000F0A2FE5A2000F022
:104C0000D3FE002203215C2000F09AFE5C2000F01D
:104C1000CBFE05B05DF804FB0038024000B595B04E
:104C20004FF480730C930523069300230D930E938A
:104C30000B93119312931393009304934FF080728C
:104C400010230F92029301224FF4800301920392EA
:104C500005936A46034606A9044801F0F7FF0030B1
:104C600018BF012015B05DF804FB00BF043D002013
:104C700000B595B04FF480730C930623069341F270
:104C80008832002306A915480D930E930F930B93BA
:104C900011931293139301F09CFFE0B90223009348
:104CA000019301230393102302934FF48003059390
:104CB000052306934FF0807304900F936A4641F2E8
:104CC000883306A9054801F0C1FF003018BF012054
:104CD00015B05DF804FB0120FAE700BF043D002099
:104CE00000B591B04FF480730893EB2302934FF01B
:104CF00040724FF4406309930B924FF400530A2221
:104D00000593079200236A4602A907480A930D9368
:104D10000E930F93019301F0E6FF003018BF0120BE
:104D200011B05DF804FB00BF043D0020F0B52C4B32
:104D30002C4C9A6B2C4842F002029A639A6B89B011
:104D400002F002020092009A9A6942F002029A610D
:104D50009A6922F002029A611A6B42F002021A6307
:104D60001A6B02F002020192019A1A6B42F02002C1
:104D70001A631B6B03F020030293029B40230393EF
:104D800002230493012305930A27032303A906930F
:104D900000250926079701F007F84FF4806303A95F
:104DA000204603930595079600F0FEFF4FF44073ED
:104DB00003A920460393079700F0F6FFC02303A939
:104DC00020460393079600F0EFFF2A460F215B2051
:104DD00000F0B6FD5B2000F0E7FD09B0F0BD00BFBC
:104DE0000038024000140240000402402DE9F04166
:104DF000494C4A4B236090B0204601F0CEFE074656
:104E000000283ED101462046FFF790FF01251023E0
:104E10006560A560E3604FF0807696FAA6F3B3FA7A
:104E200083F3DBB2013B4FF4807820462361C4F862
:104E30001480A761E761276201F058FE08BB662372
:104E400009900A900B9007900D900E900F9041F2F0
:104E5000883202A92046CDF82080029301F0B9FEE5
:104E600068B9992341F2883202A92046029301F0E1
:104E7000B0FE20B941F28830FFF7D0FE18B104250A
:104E800046E0012544E0852309900A9007900D90A3
:104E90000E900F9041F2883202A92046CDF8208072
:104EA00002930B960C9501F094FE0028E7D141F295
:104EB00088320DF10701204601F0BEFF0028DED147
:104EC000FFF7D6FE05460028D9D181230293F023AF
:104ED00093FAA3F3B3FA83F39DF807200A21DBB218
:104EE00002F00F0201FA03F3134302A941F28832E0
:104EF00020468DF8073001F06CFE0028BFD141F24A
:104F000088320DF10701204601F044FF0028B6D198
:104F1000284610B0BDE8F081043D0020001000A03C
:104F20002DE9F743224C234D01264FF000081027AE
:104F3000214681464FF6FF722846CDF8048084E86A
:104F4000C000A660C4F80C8002F0D5FF304600F027
:104F5000D7FC022321464FF6FF72284684E88800DA
:104F6000A660C4F80C8002F0C6FF032384E8880022
:104F7000214608234FF6FF722846A360C4F80C8030
:104F800002F0B9FF4FF40C730193042384E8880006
:104F90004FF6FF72019BE36021462846A66002F0AF
:104FA000AAFF4946284602F0BDFF03B0BDE8F083E2
:104FB000503A0020D43A002070B506468EB0002842
:104FC00000F0B6805B4B5C489A6B42F001029A633A
:104FD0009A6B02F001020092009A1A6B42F480026E
:104FE0001A631A6B02F480020192019A1A6B42F062
:104FF00004021A631A6B02F004020292029A1A6BFC
:1050000042F008021A631A6B02F008020392039A34
:105010001A6B42F010021A631A6B02F0100204922B
:10502000049A1A6B42F020021A631A6B02F02002F3
:105030000592059A1A6B42F040021A631A6B02F04D
:1050400040020692069A1A6B42F080021A631A6BAB
:1050500002F080020792079A1A6B42F480721A6378
:105060001B6B03F480730EAC0893089B012344F878
:10507000143D022221460A920C920C220D920B93AF
:1050800000F092FE4CF2037321462C48099300F085
:105090008BFE4FF6837321462948099300F084FE66
:1050A0004FF63F0321462748099300F07DFE48F262
:1050B000331321462448099300F076FE4FF60C7313
:1050C00021462248099300F06FFE214640F2FF631B
:1050D0001F4C2048099300F067FE8023A3604FF423
:1050E0000073E3604FF4806323614FF48053636186
:1050F0004FF48043A3614FF4003300252362032360
:10510000A3622563144B3463204623606560E56128
:105110006562E562A66300F0CDFC204600F08AFCE3
:1051200038202A46052100F00BFC382000F03CFC1A
:105130000EB070BD0038024000080240000C024072
:10514000001002400014024000180240001C0240FF
:105150007C3A0020002002401064024038B51A4C0E
:105160001A4D1B4B236002232B602B616B61AB61DB
:1051700020232361402363614FF4C073A3610421A2
:105180004FF400630722236220464FF48053A96046
:1051900000216160A160E160E1616362A1626A6017
:1051A000EA60FFF709FF2046294602F084FE094C19
:1051B00038B10123237040F26950FFF7B1FE207827
:1051C00038BD2070F7E700BFD43A0020603A0020D5
:1051D000400100A07C000020F8B5114C114D23685F
:1051E000074628780E469847636854209847112848
:1051F00013D10D4B5422B7421C601E460B4B2A7034
:1052000034BF01220C221A705420A36898473368D7
:105210002878DB6898470020F8BD0320F8BD00BF60
:1052200080000020083B00201C3B0020203B002089
:105230002DE9F74F314F324C3B6880461B6920788F
:105240009847A34688F8000050B1DFF8BCA008F1E9
:10525000020901AC6D46002698F800309E4203D347
:10526000002003B0BDE8F08F3B689BF800005B694D
:10527000294622469847234BDFF890C01A7810073A
:1052800041BF2B88218829802380910741BF2B882B
:10529000C3F5477303332B80530748BF2388B5F802
:1052A00000E048BFC3F5EF734FEA860144BF013306
:1052B00023805AF8263051F80C2020889E458CBF58
:1052C000AEEB0303A3EB0E0390428CBF821A121ABB
:1052D0009BB292B21A44052AC8BF4AF801E05AF8B4
:1052E0000130C8BF4CF8010029F8023B5CF80130DE
:1052F000A9F80230013602340235ADE71C3B00202C
:10530000083B0020203B00200C3B0020143B0020E9
:1053100000207047704710B50446FFF789FBA821AD
:10532000E0B2FFF79DFB10BD13B500240221C0B20F
:105330008DF80740FFF794FB8DF807009DF80730C4
:1053400003F00F038DF807309DF80730022B88BF5C
:105350008DF80740044B9DF807209DF807005A7010
:1053600000229A7002B010BD233B002073B5154C8B
:105370001546A37862789A420E461FD903B3012BD3
:105380000CBF0921002104230DEB0302C0B2FFF77B
:1053900081FB9DF804309DF805201B0203F4706327
:1053A000134333809DF806309DF807201B0203F459
:1053B000706313432B80A3780133A37002B070BDD8
:1053C0000321E0E7233B00200122A421C0B2FFF724
:1053D00031BB0022A421C0B2FFF72CBBFFF7F9BFFD
:1053E00070470000084A137898420BD051788842E1
:1053F00003D1704731B9012301E0002BFAD1D05419
:10540000FFF716BB704700BF213B002038B50446AC
:105410000D460020CB49FFF795FBCB490320FFF752
:1054200091FBCA490020FFF78DFBC9490220FFF715
:1054300089FBC6490020FFF785FBC6490020FFF71E
:1054400081FB0A20FFF73AFBC3490020FFF77AFBF4
:10545000C2490020FFF776FB0A20FFF72FFBC04967
:105460000020FFF76FFBBF490020FFF76BFBBE4931
:105470000020FFF767FBBD490020FFF763FBBC4935
:105480000020FFF75FFBBB490020FFF75BFBAD4946
:105490000020FFF757FBB8490020FFF753FBB7493F
:1054A0000020FFF74FFBB6490020FFF74BFBB54943
:1054B0000020FFF747FBB4490020FFF743FBB34947
:1054C0000020FFF73FFBB2490020FFF73BFBB1494B
:1054D0000020FFF737FBA5490020FFF733FB994970
:1054E0000020FFF72FFBAC490220FFF72BFBAB4955
:1054F0000020FFF727FBAA490020FFF723FBA9495B
:105500000020FFF71FFBA8490020FFF71BFBA7495E
:105510000020FFF717FBA6490020FFF713FB974970
:105520000020FFF70FFBA3490020FFF70BFB954975
:105530000020FFF707FBA0490020FFF703FB9F496E
:105540000020FFF7FFFA9E490220FFF7FBFA7F4990
:105550000020FFF7F7FA9B490620FFF7F3FA9A4974
:105560000020FFF7EFFA99490E20FFF7EBFA984970
:105570000020FFF7E7FA97490E20FFF7E3FA964974
:105580000020FFF7DFFA95490A20FFF7DBFA94497C
:105590000020FFF7D7FA93490020FFF7D3FA6B49B1
:1055A0000020FFF7CFFA90490A20FFF7CBFA8F4986
:1055B0000020FFF7C7FA8E490F20FFF7C3FA824990
:1055C0000020FFF7BFFA8B490F20FFF7BBFA804995
:1055D0000020FFF7B7FA88490A20FFF7B3FA7E499F
:1055E0000020FFF7AFFA85490F20FFF7ABFA7C499F
:1055F0000020FFF7A7FA82490F20FFF7A3FA81499D
:105600000020FFF79FFA80490A20FFF79BFA7F49A5
:105610000020FFF797FA7E490A20FFF793FA4B49DB
:105620000020FFF78FFA7B490A20FFF78BFA6F49BA
:105630000020FFF787FA78490F20FFF783FA6249C5
:105640000020FFF77FFA75490F20FFF77BFA6049CA
:105650000020FFF777FA72490A20FFF773FA5E49D4
:105660000020FFF76FFA6F490F20FFF76BFA5C49D4
:105670000020FFF767FA6C490F20FFF763FA3F49F4
:105680000020FFF75FFA69490020FFF75BFA6849DD
:105690000020FFF757FA67490020FFF753FA29491E
:1056A0000020FFF74FFA64490320FFF74BFA254922
:1056B0000020FFF747FA23490020FFF743FA5F492C
:1056C0001020FFF73FFA1F490020FFF73BFA5C4923
:1056D0001020FFF737FA00205A49FFF733FA7820F5
:1056E000FFF7ECF9002C00F0C780022C03D15649DB
:1056F0000020FFF727FA012D0BD154490020FFF7B6
:1057000021FA53490420FFF71DFA52490420FFF7FC
:1057100019FA51490020FFF715FA50490020FFF708
:1057200011FA4F490020FFF70DFA4E490020FFF70C
:1057300009FA4D490020FFF705FA02490020FFF75A
:1057400001FA93E0090E01086B0E01081F0E010813
:10575000F10E0108350E01084B0E0108610E01081B
:10576000630E0108650E0108670E0108690E010845
:105770000B0E01080D0E01080F0E0108110E010895
:10578000130E0108150E0108170E0108190E010865
:105790001B0E01081D0E01086F0F0108210E0108E4
:1057A000230E0108250E0108270E0108290E010805
:1057B0002B0E01082D0E01082F0E0108310E0108D5
:1057C000720F0108750F0108330E01087C0F0108E4
:1057D000370E01088B0F0108390E01086F0E010802
:1057E0003B0E0108590E01087A0E01083D0E010812
:1057F000850E0108950E0108A50E0108B00E0108DE
:10580000C00E01083F0E0108D00E0108410E01082C
:10581000DB0E0108E60E0108F40E0108040F010872
:10582000140F01081F0F01082F0F01085B0E01085C
:105830005D0E01085F0E01083F0F01084D0F0108C2
:105840005E0F0108430E0108450E0108490E0108CC
:10585000430F0108480F01084D0E01084F0E0108C3
:10586000510E0108530E0108550E0108044900208D
:10587000FFF768F9002038BD0249204639E700BF2C
:10588000570E0108470E0108704710B5044601F095
:105890000FFF4FF47A73B0FBF3F000F09FF8002293
:1058A00021464FF0FF3000F04BF8002010BD000003
:1058B00008B50B4B1A6842F400721A601A6842F479
:1058C00080621A601A6842F480721A60032000F045
:1058D00025F80120FFF7D9FFFFF7D6FF002008BD0C
:1058E000003C0240024A136801331360704700BF56
:1058F000283B0020014B1868704700BF283B002060
:1059000013B50190FFF7F6FF0446FFF7F3FF019B85
:10591000001B9842F9D302B010BD0000074AD368BB
:1059200023F4E0631B041B0C43F0BF63000243F449
:10593000003300F4E0600343D360704700ED00E003
:1059400030B5174BDC68C4F30224C4F10703251DEE
:10595000042B28BF0423062D4FF0010505FA03F39D
:1059600003F1FF338CBF033C00241940A14005FA2A
:1059700004F4013C2240002842EA01024FEA0212EC
:10598000AFBF00F1604000F00F00064BD2B2A5BFE0
:1059900000F56140D2B21A5480F8002330BD00BF38
:1059A00000ED00E014ED00E04209012300F01F00CB
:1059B00003FA00F0014B43F82200704700E100E0D9
:1059C0004309012200F01F0002FA00F02033024ACE
:1059D00042F82300704700BF00E100E00138B0F159
:1059E000807F0AD2064B074A5860F02182F82310C4
:1059F0000020072298601A6070470120704700BF9E
:105A000010E000E000ED00E00368DAB223F47F73F9
:105A100023F003031821103AB2FBF1F20449032AE0
:105A200088BF0433895C03654165006D704700BF22
:105A30009A0F010838B50446002837D0022380F8B1
:105A40003530416A00681A4D036862681D40A368DA
:105A50001343E26813432269134362691343A26943
:105A60001343E2691343226A042908BF216B43EA06
:105A7000020308BFE26A43EA050304BF0A43134373
:105A800003602268616A5369042923F0070343EA2B
:105A9000010304BFA16A0B4353612046FFF7B4FF23
:105AA00000200123E06484F8353038BD012038BD82
:105AB0003F8010F038B5054618B390F83530022B0A
:105AC0001FD00268136823F00103136003680024E9
:105AD0001C6003685C6003689C600368DC600368AA
