S01500004D6F74686572456E6967696E652E73726563E1
S3150800800000000820A1970108856A0108896A010805
S31508008010AD6A0108AF6A0108B16A010800000000EC
S31508008020000000000000000000000000E1DA00087F
S31508008030B36A01080000000081DB0008E5DB0008E0
S31508008040F1970108F1970108F1970108F1970108DE
S31508008050F1970108F1970108F1970108F1970108CE
S31508008060F1970108F1970108F1970108F1970108BE
S31508008070F1970108F1970108F1970108F1970108AE
S31508008080F1970108F1970108F1970108F19701089E
S31508008090F1970108F1970108F1970108F19701088E
S315080080A0F1970108B56A0108F1970108F1970108E7
S315080080B0F1970108F1970108F1970108F19701086E
S315080080C0F1970108F1970108F1970108F19701085E
S315080080D0F1970108F1970108F1970108F19701084E
S315080080E0F1970108F1970108F1970108F19701083E
S315080080F0F1970108F1970108F1970108F19701082E
S31508008100F1970108F1970108CD6A0108F19701086E
S31508008110F1970108F1970108DD6A0108516B01081A
S31508008120F1970108F56A0108F1970108F197010826
S31508008130F1970108056B0108F1970108F197010805
S31508008140F1970108F1970108F1970108F1970108DD
S31508008150F1970108156B0108F19701082D6B0108C5
S31508008160F1970108F1970108F1970108F1970108BD
S31508008170F1970108F1970108F1970108000000003E
S31508008180F1970108F1970108F1970108F19701089D
S31508008190F1970108F1970108F1970108F19701088D
S315080081A0F1970108F1970108F1970108F19701087D
S315080081B0F1970108F1970108F1970108F19701086D
S315080081C0F1970108F197010800000000F1970108EE
S315080081D0F1970108F1970108F1970108F19701084D
S315080081E0F1970108F1970108F1970108F19701083D
S311080081F0F1970108F1970108EE11AA5555
S3150800820010B5054C237833B9044B13B10448AFF3C2
S3150800821000800123237010BD4C02002000000000DE
S3150800822020B1010808B5034B1BB103490348AFF356
S31508008230008008BD000000005002002020B101089F
S3150800824010F8012B11F8013B012A28BF9A42F7D0F2
S31508008250D01A7047034613F8012B002AFBD1181AC7
S315080082600138704700000000000000000000000010
S3150800827001F0FF01102A2BDB10F0070F08D010F8C9
S31508008280013B013A8B422DD010F0070F42B3F6D1CD
S31508008290F0B441EA012141EA014122F007047FF0E6
S315080082A000070023F0E80256083C85EA010586EA3D
S315080082B0010685FA47F5A3FA87F586FA47F6A5FA79
S315080082C087F68EB9EED1F0BC01F0FF0102F0070285
S315080082D032B110F8013B013A83EA010313B1F8D130
S315080082E00020704701387047002D06BF3546033811
S315080082F0073815F0010F07D1013015F4807F02BF4A
S31508008300013015F4C03F0130F0BC0138704700BF9A
S3150800831053B94AB9002908BF00281CBF4FF0FF31DE
S315080083204FF0FF3000F072B9ADF1080C6DE904CEDC
S3150800833000F006F8DDF804E0DDE9022304B0704732
S315080083402DE9F047089E04468846002B4BD18A4201
S31508008350154667D9B2FA82F24AB1C2F1200701FA84
S3150800836002F320FA07F7954047EA030894404FEAD4
S31508008370154E230CB8FBFEF71FFA85FC0EFB178873
S3150800838043EA084307FB0CF1994209D9EB1807F1B0
S31508008390FF3080F01B81994240F21881023F2B443E
S315080083A05B1AA4B2B3FBFEF00EFB103344EA034497
S315080083B000FB0CFCA44509D92C1900F1FF3380F009
S315080083C00781A44540F2048102382C4440EA07405C
S315080083D0A4EB0C0400271EB1D4400023C6E90043D1
S315080083E03946BDE8F0878B4209D9002E00F0EB80AC
S315080083F00027C6E9000138463946BDE8F087B3FAD2
S3150800840083F7002F47D18B4202D3824200F2FA80CB
S31508008410841A61EB030301209846002EE0D0C6E9D2
S315080084200048DDE702B9FFDEB2FA82F2002A40F020
S315080084308F80491B4FEA154E1FFA85F80127B1FBB5
S31508008440FEFC230C0EFB1C1143EA014308FB0CF14E
S31508008450994207D9EB180CF1FF3002D2994200F283
S31508008460CD808446591AA3B2B1FBFEF00EFB101458
S3150800847043EA044408FB00F8A04507D92C1900F183
S31508008480FF3302D2A04500F2B6801846A4EB0804D2
S3150800849040EA0C409FE7C7F1200CBB4022FA0CFECD
S315080084A04EEA030E01FA07F420FA0CF521FA0CF34A
S315080084B04FEA1E482543B3FBF8F92C0C08FB193381
S315080084C01FFA8EFA44EA034309FB0AF49C4202FAAD
S315080084D007F200FA07F10BD91EEB030309F1FF3087
S315080084E080F087809C4240F28480A9F10209734497
S315080084F01B1BADB2B3FBF8F008FB103345EA034487
S3150800850000FB0AFAA24508D91EEB040400F1FF3362
S315080085106BD2A24569D90238744440EA0940A0FBE7
S315080085200289A4EB0A044C45C2464B4654D351D0A3
S31508008530002E69D0B1EB0A0564EB030404FA0CFCBF
S31508008540FD40FC404CEA0505C6E90054002747E70C
S31508008550C2F1200320FA03F7954001FA02F021FA46
S3150800856003F34FEA154E3843010CB3FBFEF71FFA27
S3150800857085F80EFB173341EA034107FB08F38B42E4
S3150800858004FA02F407D9691807F1FF3C2FD28B4287
S315080085902DD9023F2944CB1A81B2B3FBFEF00EFB5C
S315080085A0103341EA034100FB08F38B4207D96918E7
S315080085B000F1FF3C17D28B4215D902382944C91A53
S315080085C040EA07473BE73746304609E70746E7E606
S315080085D01846FBE64145ABD2B8EB020A69EB0E0238
S315080085E001381346A4E76046E9E7184695E7674663
S315080085F0D1E781467CE702382C4447E7ACF1020C08
S315080086002B442FE7384608E73746E9E6704700BFA8
S3150800861008B5032000F02EF800200EF0F5F90EF04C
S3150800862027F8002008BD0000034A1168034B1B7891
S315080086300B441360704700BF3096002040000020AE
S31508008640014B1868704700BF3096002038B50446BD
S31508008650FFF7F6FF0546B4F1FF3F02D0044B1B783F
S315080086601C44FFF7EDFF401BA042FAD338BD00BFFC
S31508008670400000200649CB6823F4E0631B041B0C6A
S31508008680000200F4E0600343024A1A43CA607047D6
S3150800869000ED00E00000FA0530B4154BDB68C3F3C3
S315080086A00223C3F10704042C28BF04241D1D062D2C
S315080086B014D9033B4FF0FF3505FA04F421EA040107
S315080086C0994005FA03F322EA03031943002807DB56
S315080086D00901C9B2074B195430BC70470023E9E7B2
S315080086E000F00F000901C9B2034B1954F4E700BFA3
S315080086F000ED00E000E400E014ED00E0002807DBF0
S3150800870000F01F02400901239340024A42F8203034
S31508008710704700BF00E100E070B110B50446037968
S3150800872033B102232371002020610123237110BD78
S3150800873043710DF0BDFFF4E7012070474379012B23
S3150800874037D010B4012343710222027104682268EB
S315080087508B4013432360C1B902681368116801F09E
S315080087603801C3F38003382914BF002303F001033B
S315080087701BB1536843F001035360012303710023BF
S31508008780437118465DF8044B704702681368116810
S3150800879001F46011C3F38043B1F5601F14BF0023D1
S315080087A003F00103002BE8D0536843F0020353603B
S315080087B0E3E702207047704710B5044603685A6B12
S315080087C012F4005F05D123685A6B12F0005F11D1CD
S315080087D010BD04220271026942F0010202614FF4DF
S315080087E000525A630268136823F480531360FFF734
S315080087F0E2FFE8E704222271226942F002022261BE
S315080088004FF000525A632268136823F080531360AE
S31508008810204600F03DF8DBE74379012B1FD070B402
S3150800882001254571022303710668336840F6FE7414
S31508008830944023EA04040B6849680B439340234396
S31508008840336004682368C02101FA02F223EA0202AF
S315080088502260057100234371184670BC70470220D8
S31508008860704710B483B0002401940068019051B198
S3150800887001990A4414320192019A1360002003B048
S315080088805DF8044B704701990A4408320192F3E7F0
S31508008890704730B405682C6824F480242C6004687A
S315080088A063608368402B05D0036899600368DA60C3
S315080088B030BC704703689A600368D960F8E700001F
S315080088C00268D3B2103B0949A1FB03131B090849E7
S315080088D0C95CC165032B04D8064B13408365806DBC
S315080088E07047044B134004338365F8E7ABAAAAAA7A
S315080088F038B1010800FCFFFF836A826992B9012B2F
S315080089000AD01BB1022B01D000207047C36A13F0AE
S31508008910807F2CD100207047C36AB3F1C07F28D06E
S3150800892000207047B2F5005F05D0022B29D9032B2A
S3150800893015D000207047032B03D8DFE803F01C048A
S315080089401C0A00207047C36A13F0807F15D10020E7
S315080089507047C36AB3F1C07F11D000207047C36A5D
S3150800896013F0807F01D00120704700207047012056
S315080089707047012070470120704701207047012089
S31508008980704701207047000070B50446FFF758FE8F
S31508008990002C5BD00546002384F83430022384F883
S315080089A035302268136823F00103136023681A68B8
S315080089B012F0010F0AD0FFF743FE401B0528F5D930
S315080089C020236365032084F8350070BD1A682048A3
S315080089D010406168A2680A43E1680A4321690A43AC
S315080089E061690A43A1690A43E1690A43216A0A439C
S315080089F00243616A04291ED01A602668756925F043
S31508008A000705636A1D43042B07D1A36A1D43E36A5E
S31508008A101BB12046FFF770FF90B975612046FFF736
S31508008A204FFFE26D3F23934083600020606501237A
S31508008A3084F83530C9E7E16A206B01430A43DBE76E
S31508008A4040236365012084F83500BEE70120BCE7B2
S31508008A503F8010E038B5856D90F83440012C31D050
S31508008A60012480F8344090F83540E4B2012C04D053
S31508008A70002380F83430022038BD0446022084F8EA
S31508008A803500002060652046FFF703FFE26D3F23AF
S31508008A909340AB602268136843F01603136022689C
S31508008AA0536943F080035361236C23B1226813682A
S31508008AB043F0080313602268136843F00103136048
S31508008AC00020D9E70220D7E770B50446866DFFF780
S31508008AD0B7FD94F83530DBB2022B06D080236365E8
S31508008AE0002384F83430012070BD054622681368D7
S31508008AF023F0160313602268536923F08003536139
S31508008B00236CE3B12268136823F008031360226814
S31508008B10136823F00103136023681B6813F0010F21
S31508008B2011D0FFF78DFD401B0528F5D92023636575
S31508008B30002384F83430032084F83500D4E7A36C86
S31508008B40002BDFD1E3E7E26D3F239340B3600020BB
S31508008B5084F83400012384F83530C5E790F83530B9
S31508008B60DBB2022B03D0802343650120704705231F
S31508008B7080F835300268136823F00103136000207B
S31508008B8070470000F0B583B0044600230193724B8A
S31508008B901D68724BA3FB0535AD0A876D3E68C26D2D
S31508008BA008239340334210D003681A6812F0040F62
S31508008BB00BD01A6822F004021A60C26D082393408B
S31508008BC0BB60436D43F001034365E26D01239340A7
S31508008BD0334209D02268526912F0800F04D0BB6074
S31508008BE0636D43F002036365E26D042393403342E9
S31508008BF009D02268126812F0020F04D0BB60636DB8
S31508008C0043F004036365E26D10239340334224D096
S31508008C102268126812F0080F1FD0BB6023681A6812
S31508008C2012F4802F0DD01B6813F4002F04D1236C87
S31508008C309BB12046984710E0A36C73B1204698472D
S31508008C400BE01A6812F4807F03D11A6822F0080232
S31508008C501A60236C0BB120469847E26D2023934097
S31508008C60334255D02268126812F0100F50D0BB60FC
S31508008C7094F83530DBB2052B0ED023681A6812F447
S31508008C80802F33D01B6813F4002F2AD1636C002B76
S31508008C903ED0204698473BE02268136823F0160327
S31508008CA013602268536923F080035361236CA3B1D0
S31508008CB02268136823F008031360E26D3F2393408C
S31508008CC0BB60002384F83430012384F83530236DE3
S31508008CD0002B3FD0204698473CE0A36C002BE7D1F9
S31508008CE0EBE7E36BA3B12046984711E01A6812F444
S31508008CF0807F09D11A6822F010021A60002384F8CE
S31508008D003430012384F83530E36B0BB1204698479D
S31508008D10636DFBB1636D13F0010F17D0052384F85B
S31508008D2035302268136823F001031360019B013371
S31508008D300193AB4204D823681B6813F0010FF5D1E1
S31508008D40002384F83430012384F83530E36C0BB102
S31508008D502046984703B0F0BD58000020B5814E1B49
S31508008D60406D70475079137943EA002307480B5042
S31508008D70D07893781B0443EA0063507843EA0023CB
S31508008D8012781343024A8B50704700BF4080024056
S31508008D9044800240016841F218028B5843F400539C
S31508008DA08B507047016841F218028B5843F0020352
S31508008DB08B50704770B59EB0044629B14FF40063D6
S31508008DC0C3604FF480438360E369002B68D14FF496
S31508008DD08063079321680B68374A1A40A368E068DE
S31508008DE003430798034343F4007313430B60236854
S31508008DF01D680120FFF72AFC23681D6023684022AE
S31508008E005A6023685D680120FFF720FC23685D60CF
S31508008E10236800259D602368DD602268936923F036
S31508008E20BE031B041B0C43F08003936123689E69F1
S31508008E300120FFF70BFC23689E612368DD61236828
S31508008E40DD690120FFF702FC2368DD61216841F234
S31508008E5018054B59194A1A40194B13434B512368A5
S31508008E605E590120FFF7F2FB23685E51236803F57C
S31508008E708053144A1A60236803F580531D6801203D
S31508008E80FFF7E4FB236803F580531D60A369012BF4
S31508008E9009D0626900212046FFF764FF1EB070BD45
S31508008EA00023079396E7216841F21C028858064B6F
S31508008EB003438B50EDE700BF0F8120FF233FDEF809
S31508008EC0040020028020C1024000010010B582B0D3
S31508008ED00446002301930268136843F008031360ED
S31508008EE003681B6801930120FFF7B0FB2368019A0A
S31508008EF01A6002B010BD10B582B004460023019373
S31508008F000268136843F00403136003681B6801933F
S31508008F100120FFF79BFB2368019A1A6002B010BD77
S31508008F2030B583B0054600230193026841F2180460
S31508008F30135943F48013135103681B5901930120F5
S31508008F40FFF784FB2B68019A1A5103B030BDF0B4C1
S31508008F5090F84540012C31D0012480F84540022480
S31508008F6080F84440C162002401E0F96001349C4263
S31508008F7017D265014F194FF480164E5140F2F45638
S31508008F8006FB0426BE60C6691EB94E5946F440065D
S31508008F904E515D1EA542E8D9651C01EB4515FD60DD
S31508008FA0E4E7026841F21003D150012380F8443007
S31508008FB0002380F845301846F0BC70470220FBE7CE
S31508008FC0F0B490F84540012C2ED0012480F8454095
S31508008FD0022480F844408162002401E0E9600134FB
S31508008FE09C4214D266018D194FF000478F5144F206
S31508008FF0F4566E6040F2F45606FB0426AE605E1E1A
S31508009000A642EBD9661C01EB4616EE60E7E7026856
S3150800901041F20C03D150012380F84430002380F834
S3150800902045301846F0BC70470220FBE790F84530FB
S31508009030012B00F08580012380F84530022380F853
S315080090404430B1B1C36A1A68002A1ADB30B440F258
S31508009050F45291421DD93B4AA2FB0142920A40F2C0
S31508009060F45404FB121404B10132012A11D000236E
S3150800907047E0012380F84430002280F8452018464E
S315080090807047122380F84430002380F845300120C9
S3150800909070471A6842F040521A60C36AC1F30C015D
S315080090A05960C26A136843F000431360C36ADB68F9
S315080090B0C362036841F214029A5812F0040F08D0EA
S315080090C041F2140204219950026841F20403002176
S315080090D0D150012380F84430002380F845301846E3
S315080090E030BC7047C56A2C6844F080542C6011E087
S315080090F0C56A2C6844F000442C60C46AE468C462FB
S3150800910001339A42D5D9C56A2C6824F040542C609C
S31508009110002BE7D0C46A40F2F4556560541E9C42A1
S31508009120E6D1C56A2C6844F000542C60064C04FB52
S31508009130021404F2F454C56AC4F30C046C60D7E74D
S31508009140022070470BB002AC0CFAFFFF90F84530CE
S31508009150012B45D0012380F84530022380F844309E
S315080091600021836A1A68002A32DB032930D80131C4
S315080091701A6802F44072B2F5007F09D01A6812F430
S31508009180407F0BD1826B01328263DB688362E8E73A
S31508009190036301228263DB688362E2E74363826BCF
S315080091A001328263012A11D01A68C2F30D42043AC9
S315080091B0C263026B92680264DB688362012380F8EB
S315080091C04430002380F84530184670470363EBE7C0
S315080091D0012380F84430002280F84520184670475D
S315080091E0022070477047704710B50446036841F27D
S315080091F014029A5812F0400F11D141F214029B58EA
S3150800920013F0010F19D1226841F214034FF480318B
S31508009210D1502268D35813F4004F1BD110BD0CF05F
S315080092206BFD226841F214034021D150012384F8D2
S315080092304430002384F84530E5E7FFF7D3FF21687B
S31508009240012341F214028B5084F84430002384F839
S315080092504530D8E72046FFF7C6FF226841F21403D7
S315080092604FF40041D150012384F84430002384F898
S315080092704530D3E7F8B590F84430DBB2822B33D0CB
S3150800928016460546822380F844300268136903F0BF
S315080092901C03048AE402A4B223438C0104F4F86490
S315080092A01C4344F001041461FFF7CAF9074614F099
S315080092B0010F10D0FFF7C4F9C01BB0F5803F02D2EA
S315080092C02B681C69F3E7012385F84430002385F8E9
S315080092D04530032007E02B685B699BB233600123A6
S315080092E085F844300020F8BD0220FCE790F84430A9
S315080092F0DBB2422B32D070B50546422380F84430A3
S315080093000068036903F01C032C8AE402A4B2234311
S315080093108C0104F4F8641C4344F0030492B24261DD
S315080093202B681C61FFF78CF9064614F0010F10D064
S31508009330FFF786F9801BB0F5803F02D22B681C69BF
S31508009340F3E7012385F84430002385F845300320E8
S3150800935003E0012385F84430002070BD02207047E1
S3150800936070B582B000230193002800F00C810446F2
S3150800937090F84430002B32D0844B5A6C42F4804229
S315080093805A645B6C03F480430093009B804B5A68D5
S3150800939022F400025A605A68216A0A435A6023680E
S315080093A003F580531A6842F001021A60FFF748F97C
S315080093B00546236803F58052126812F0010F13D090
S315080093C0FFF73EF9401BB0F5FA7FF2D9032584F87A
S315080093D04450002384F84530284602B070BD80F812
S315080093E045300CF0F9FBC7E71D6925F01C0500F0B0
S315080093F0A5FE684B0344684A934255D845F00805CC
S3150800940023681D614FF4004200212046FFF76EFFD6
S315080094100546002860D1FF20FFF718F96368002B7E
S3150800942000F09180FFF70CF9064601AA01212046B3
S31508009430FFF720FFFFF704F9801B41F288339842B3
S3150800944052D8019B13F0040FEFD04FF4805200213D
S315080094502046FFF74BFF002852D1FFF7F1F80646E2
S3150800946001AA01212046FFF705FFFFF7E9F8801B4F
S3150800947041F2883398424BD8019B13F0200FEFD066
S3150800948001AA1F212046FFF7F5FE00284CD1019BB3
S3150800949013F0100F50D04FF40062E26013F0040F7F
S315080094A04DD00023A3605EE03C4B03443C4A934204
S315080094B002D845F00C05A3E73A4B03443A4A9342CF
S315080094C09ED93A4B03443A4A934202D845F00405DA
S315080094D096E745F0100593E701212046FFF76AFC59
S315080094E0012584F8445077E701212046FFF762FCFE
S315080094F0012384F84430002384F8453003256BE7BC
S3150800950001212046FFF756FC012584F8445063E7FD
S3150800951001212046FFF74EFC012384F8443000233E
S3150800952084F84530032557E701212046FFF742FC1A
S31508009530012584F844504FE70022E260AEE74FF475
S315080095408043A3600FE0E268C2F3CF02A368C3F3C7
S315080095504F031A4300212046FFF7C8FE58B940F6C4
S31508009560FF70FFF773F800212046FFF723FC01235D
S3150800957084F8443030E701212046FFF71BFC01251B
S3150800958084F8445028E7012526E700BF0038024042
S315080095900038014000D3CEFEBFE1E40040F1E9FD0A
S315080095A03F787D0100796CFCFF596202001F0AFAB8
S315080095B07FF0FA0238B590F84530012B1AD00446E8
S315080095C0012580F84550022380F84430FFF77EFCD9
S315080095D02046FFF790FC2046FFF7A2FC2046FFF73F
S315080095E0D9FB2046FFF7DEFB84F84450002084F8B8
S315080095F0450038BD0220FCE710B40A490C6924F47A
S3150800960040740C610C6944F440740C610C6944F0B4
S3150800961001040C6102604360BFF34F8F5DF8044B91
S31508009620704700BF003C0240084B1A6922F440729A
S315080096301A611A6942F400721A611A6942F0010243
S315080096401A610160BFF34F8F704700BF003C0240AC
S31508009650084B1A6922F440721A611A6942F4807238
S315080096601A611A6942F001021A610180BFF34F8F2D
S31508009670704700BF003C0240074B1A6922F440724B
S315080096801A611A691A611A6942F001021A610170AF
S31508009690BFF34F8F704700BF003C02401A4BDB6890
S315080096A013F0020F04D0194A936943F0200393611B
S315080096B0154BDB6813F0100F04D0144A936943F076
S315080096C010039361104BDB6813F0200F04D00F4A88
S315080096D0936943F0080393610B4BDB6813F0400F63
S315080096E004D00A4A936943F004039361064BDB6886
S315080096F013F0800F04D0054A936943F0020393617F
S31508009700014BF222DA607047003C02403496002092
S31508009710094B1B69002B01DB00207047064B074AE3
S315080097205A6002F188325A601B69002B01DB00205F
S3150800973070470120704700BF003C0240230167457F
S31508009740034A136943F0004313610020704700BFC2
S31508009750003C024038B50446164B00229A61FEF7D3
S315080097606FFF0546144BDB6813F4803F0AD0B4F14B
S31508009770FF3FF7D0CCB1FEF763FF401BA042F1D9FB
S3150800978003200DE00C4BDB6813F0F20F09D10A4BEE
S31508009790DB6813F0010F0AD0074B0122DA600020BC
S315080097A038BDFFF77BFF0120FAE70320F8E7002022
S315080097B0F6E700BF34960020003C0240F8B51E4C80
S315080097C0247D012C35D01F4616460D4604461A4BF5
S315080097D001221A754CF25030FFF7BCFF014698B9C2
S315080097E0032C07D8DFE804F002151A1FF1B2284641
S315080097F0FFF742FF4CF25030FFF7ACFF01460F4A25
S31508009800136923F0010313610B4B00221A750846EE
S31508009810F8BDB1B22846FFF71BFFEBE731462846ED
S31508009820FFF702FFE6E732463B462846FFF7E4FE27
S31508009830E0E70221EBE700BF34960020003C024037
S3150800984010B449B1012926D0022902D04FF4407438
S3150800985003E04FF4007400E000240B2800D904301C
S315080098600E4B196921F4407119611A6922431A616C
S315080098701A6922F0F8021A611A6942EAC00040F031
S31508009880020018611A6942F480321A61BFF34F8FD9
S315080098905DF8044B70474FF48074DEE7003C0240E5
S315080098A000230F2B00F2E280F0B482B039E00922DF
S315080098B000E00022B2403A4302346D4E46F82420B6
S315080098C06C4A1468EA4302EA04064F6817F4803FB4
S315080098D001D045EA0406674C2660646802EA040675
S315080098E04F6817F4003F01D045EA0406614C6660EC
S315080098F0A46802EA04064F6817F4801F01D045EAF7
S3150800990004065C4CA660E46822404E6816F4001F04
S3150800991001D045EA0402574CE26001330F2B00F2EE
S31508009920A28001229A400C6804EA0205AA42F4D1F0
S315080099304C68122C18BF022C10D1DE08083650F8D5
S3150800994026C003F00704A7000F24BC402CEA040C29
S315080099500C69BC4044EA0C0440F8264004685F00E1
S315080099600326BE40F64306EA040C4C6804F00304DA
S31508009970BC4044EA0C0404604C6804F1FF3C112C1A
S3150800998018BFBCF1010F01D9122C11D1846806EA5F
S31508009990040CCC68BC4044EA0C048460446824EA9D
S315080099A0020C4C68C4F300129A4042EA0C02426068
S315080099B0C26816408A68BA403243C2604A6812F0E2
S315080099C0805FAAD02C4A546C44F480445464526C88
S315080099D002F480420192019A9C08A61C244A52F875
S315080099E0267003F0030296000F22B24027EA020708
S315080099F0224A90423FF45DAF02F58062904222D03F
S31508009A0002F58062904220D002F5806290421ED014
S31508009A1002F5806290421CD002F5806290421AD00C
S31508009A2002F58062904218D002F58062904216D004
S31508009A3002F58062904214D002F5806290423FF4AB
S31508009A4036AF0A2236E7012234E7022232E703223A
S31508009A5030E704222EE705222CE706222AE707220A
S31508009A6028E7082226E702B0F0BC7047704700BF17
S31508009A7000380140003C0140003802400000024026
S31508009A8012B909048161704781617047436931EAF7
S31508009A90030301D0816170470904816170470000A2
S31508009AA0024A136843F480731360704700700040DD
S31508009AB010B582B01B4B1A6C42F080521A641B6CAC
S31508009AC003F080530193019B174A136843F48033CC
S31508009AD01360FEF7B5FD0446134B5B6813F4803F2D
S31508009AE008D1FEF7ADFD001BB0F57A7FF4D9032047
S31508009AF002B010BD0C4A136843F400331360FEF736
S31508009B009FFD0446084B5B6813F4003F07D1FEF738
S31508009B1097FD001BB0F57A7FF4D90320E8E700200B
S31508009B20E6E700BF0038024000700040002800F059
S31508009B30DC8170B582B00446036813F0010F29D0A2
S31508009B40A24B9B6803F00C03042B1AD09F4B9B680F
S31508009B5003F00C03082B0FD06368B3F5803F40D0A1
S31508009B60002B54D1994B1A6822F480321A601A686D
S31508009B7022F480221A6039E0944B5B6813F4800F54
S31508009B80EAD0924B1B6813F4003F03D06368002B9E
S31508009B9000F0AD81236813F0020F75D08B4B9B68DC
S31508009BA013F00C0F5ED0894B9B6803F00C03082B4F
S31508009BB053D0E368002B00F08A80844A136843F088
S31508009BC001031360FEF73CFD0546804B1B6813F046
S31508009BD0020F73D1FEF734FD401B0228F5D9032086
S31508009BE088E17A4A136843F48033136063682BB3B9
S31508009BF0FEF726FD0546754B1B6813F4003FC9D1D1
S31508009C00FEF71EFD401B6428F5D9032072E1B3F563
S31508009C10A02F09D06D4B1A6822F480321A601A6890
S31508009C2022F480221A60E1E7684B1A6842F480221F
S31508009C301A601A6842F480321A60D7E7FEF700FD08
S31508009C400546624B1B6813F4003FA3D0FEF7F8FCE9
S31508009C50401B6428F5D903204CE15C4B5B6813F480
S31508009C60800FA6D1594B1B6813F0020F04D0E36886
S31508009C70012B01D001203DE1544A136823F0F80373
S31508009C80216943EAC1031360236813F0080F46D01D
S31508009C90636983B34D4A536F43F001035367FEF775
S31508009CA0CFFC0546494B5B6F13F0020F37D1FEF721
S31508009CB0C7FC401B0228F5D903201BE1434A136859
S31508009CC023F0F803216943EAC1031360DCE73F4A3E
S31508009CD0136823F001031360FEF7B2FC05463B4BFD
S31508009CE01B6813F0020FCFD0FEF7AAFC401B022810
S31508009CF0F5D90320FEE0354A536F23F00103536775
S31508009D00FEF79EFC0546314B5B6F13F0020F06D03B
S31508009D10FEF796FC401B0228F5D90320EAE02368E3
S31508009D2013F0040F7ED0294B1B6C13F0805F1ED1F5
S31508009D30264B1A6C42F080521A641B6C03F080534F
S31508009D400193019B0125224B1B6813F4807F10D0D9
S31508009D50A368012B21D0002B3CD11C4B1A6F22F093
S31508009D6001021A671A6F22F004021A671AE0002520
S31508009D70E9E7174A136843F480731360FEF760FC3B
S31508009D800646134B1B6813F4807FE1D1FEF758FC97
S31508009D90801B6428F5D90320ACE00C4A136F43F006
S31508009DA001031367A3685BB3FEF74AFC0646074B35
S31508009DB01B6F13F0020F34D1FEF742FC801B41F2F1
S31508009DC088339842F3D9032094E000BF0038024054
S31508009DD000700040052B09D0484B1A6F22F001028B
S31508009DE01A671A6F22F004021A67DBE7434B1A6FE9
S31508009DF042F004021A671A6F42F001021A67D1E7A5
S31508009E00FEF71EFC06463D4B1B6F13F0020F08D0EB
S31508009E10FEF716FC801B41F288339842F3D90320DB
S31508009E2068E0F5B9A369002B63D0344A926802F05A
S31508009E300C02082A60D0022B19D0304A136823F086
S31508009E4080731360FEF7FCFB04462C4B1B6813F06B
S31508009E50007F48D0FEF7F4FB001B0228F5D9032043
S31508009E6048E0264A136C23F080531364DAE7234A42
S31508009E70136823F080731360FEF7E2FB05461F4B59
S31508009E801B6813F0007F06D0FEF7DAFB401B02289A
S31508009E90F5D903202EE0E369226A1343626A43EA8E
S31508009EA08213A26A5208013A43EA0243E26A43EA83
S31508009EB00263226B43EA0273104A5360136843F045
S31508009EC080731360FEF7BCFB04460C4B1B6813F04B
S31508009ED0007F06D1FEF7B4FB001B0228F5D9032044
S31508009EE008E0002006E0002004E001207047012079
S31508009EF000E0002002B070BD0120FBE700380240F8
S31508009F00324B9B6803F00C03042B5CD0082B01D062
S31508009F102F4870472DE9F04B2C4B5A6802F03F0248
S31508009F205B6813F4800F2BD0284B5B68C3F3881348
S31508009F301E4600275C010025E41A65EB0705A90102
S31508009F4041EA9461A001001B61EB0501CB0043EADD
S31508009F505073C400A01943EB07014B0243EAD053E0
S31508009F604402204619460023FEF7D2F9174B5B68D0
S31508009F70C3F3014301335B00B0FBF3F0BDE8F08B9C
S31508009F80124B5B68C3F388131E4600275C01002545
S31508009F90E41A65EB0705A90141EA9461A001001BD3
S31508009FA061EB0501CB0043EA5073C400A01943EBEB
S31508009FB007018B0243EA9053840220461946002380
S31508009FC0FEF7A6F9D2E70348704700BF00380240FB
S31508009FD00024F40000127A00002800F0A28070B570
S31508009FE00446524B1B6803F00F038B420CD24F4AB0
S31508009FF0136823F00F030B431360136803F00F0372
S3150800A0008B4201D0012070BD236813F0020F17D0D0
S3150800A01013F0040F04D0464A936843F4E053936060
S3150800A020236813F0080F04D0414A936843F4604349
S3150800A03093603F4A936823F0F003A0680343936054
S3150800A0400D46236813F0010F31D06368012B20D029
S3150800A050022B25D0364A126812F0020F63D0344913
S3150800A0608A6822F0030213438B60FEF7E9FA064674
S3150800A0702F4B9B6803F00C036268B3EB820F16D074
S3150800A080FEF7DEFA801B41F288339842F0D90320A6
S3150800A090B9E7274A126812F4003FE0D10120B2E777
S3150800A0A0234A126812F0007FD9D10120ABE71F4B73
S3150800A0B01B6803F00F03AB420CD91C4A136823F044
S3150800A0C00F032B431360136803F00F03AB4201D051
S3150800A0D0012098E7236813F0040F06D0144A936802
S3150800A0E023F4E053E1680B439360236813F0080FE9
S3150800A0F007D00F4A936823F46043216943EAC103F2
S3150800A1009360FFF7FDFE0A4B9B68C3F30313094AE6
S3150800A110D35CD840084B186000200CF075FC002072
S3150800A12071E70120704701206DE700BF003C02403F
S3150800A1300038024048BE020858000020014B186843
S3150800A140704700BF5800002008B5FFF7F7FF044B1B
S3150800A1509B68C3F38223034AD35CD84008BD00BF7B
S3150800A1600038024058BE020808B5FFF7E7FF044B5F
S3150800A1709B68C3F34233034AD35CD84008BD00BF8B
S3150800A1800038024058BE02080F2303600B4B9A683A
S3150800A19002F0030242609A6802F0F00282609A684E
S3150800A1A002F4E052C2609B68DB0803F4E0530361E3
S3150800A1B0034B1B6803F00F030B607047003802401F
S3150800A1C0003C0240F0B583B00446036813F0010F63
S3150800A1D00CD0B54B9A6822F400029A609A68416BD3
S3150800A1E00A439A60436BC3B1002600E00026236841
S3150800A1F013F4002F15D0AC4AD2F88C3023F4401350
S3150800A200E16B0B43C2F88C30E36BB3F5801F06D0C5
S3150800A210002B00F04581002504E00126E7E701262A
S3150800A220F6E70025236813F4801F0FD09E4AD2F85C
S3150800A2308C3023F44003216C0B43C2F88C30236C1A
S3150800A240B3F5800F00F02E8103B90125236813F0BA
S3150800A250807F00D0012613F0200F40F02781236865
S3150800A26013F0100F0CD0904BD3F88C2022F080728C
S3150800A270C3F88C20D3F88C20A16B0A43C3F88C2032
S3150800A280236813F4804F08D0874AD2F8903023F415
S3150800A2904033616E0B43C2F89030236813F4004FC5
S3150800A2A008D0814AD2F8903023F44023A16E0B439C
S3150800A2B0C2F89030236813F4803F08D07A4AD2F85F
S3150800A2C0903023F44013E16E0B43C2F890302368B4
S3150800A2D013F4003F08D0744AD2F8903023F44003B0
S3150800A2E0216F0B43C2F89030236813F0400F08D053
S3150800A2F06D4AD2F8903023F00303616C0B43C2F821
S3150800A3009030236813F0800F08D0674AD2F890304F
S3150800A31023F00C03A16C0B43C2F89030236813F4A6
S3150800A320807F08D0604AD2F8903023F03003E16C81
S3150800A3300B43C2F89030236813F4007F08D05A4ABA
S3150800A340D2F8903023F0C003216D0B43C2F8903049
S3150800A350236813F4806F08D0534AD2F8903023F458
S3150800A3604073616D0B43C2F89030236813F4006F95
S3150800A37008D04D4AD2F8903023F44063A16D0B43C0
S3150800A380C2F89030236813F4805F08D0464AD2F8A2
S3150800A390903023F44053E16D0B43C2F890302368A4
S3150800A3A013F4005F08D0404AD2F8903023F44043B3
S3150800A3B0216E0B43C2F89030236813F4800F08D03F
S3150800A3C0394AD2F8903023F08063A16F0B43C2F864
S3150800A3D09030236813F4001F0DD0334AD2F890301A
S3150800A3E023F00063E16F0B43C2F89030E36FB3F1DB
S3150800A3F0006F00F0C180236813F0080F00D0012514
S3150800A40013F4802F08D0284AD2F8903023F04073EE
S3150800A410616F0B43C2F89030236813F4000F09D01C
S3150800A420214AD2F8903023F08053D4F880100B4399
S3150800A430C2F89030236813F0806F09D01A4AD2F810
S3150800A440903023F00053D4F884100B43C2F89030B0
S3150800A450236813F0006F09D0134AD2F88C3023F022
S3150800A4600073D4F888100B43C2F88C30236813F0B5
S3150800A470805F09D00C4AD2F88C3023F08063D4F878
S3150800A4808C100B43C2F88C30002E77D12368B3F1B9
S3150800A490007F73D0002D40F00481002003B0F0BD8A
S3150800A4A00125BFE60126CFE600380240B74B1A6CF5
S3150800A4B042F080521A641B6C03F080530193019B8F
S3150800A4C0B34A136843F480731360FEF7B9F8074676
S3150800A4D0AF4B1B6813F4807F06D1FEF7B1F8C01B9B
S3150800A4E06428F5D90320D9E7A84B1B6F13F44073EA
S3150800A4F015D0226B02F440729A4210D0A34B1A6F01
S3150800A50022F44072196F41F480311967196F21F4EA
S3150800A510803119671A671B6F13F0010F12D1236B6D
S3150800A52003F44072B2F5407F1DD0984A936823F42D
S3150800A530F813936095490B6F226BC2F30B02134312
S3150800A5400B678CE6FEF77CF80746904B1B6F13F0FB
S3150800A550020FE4D1FEF774F8C01B41F28833984223
S3150800A560F3D903209AE78948826822F4F8128949C0
S3150800A57019400A438260DDE701253CE7834A1368F0
S3150800A58023F080631360FEF75BF806467F4B1B6873
S3150800A59013F0006F06D0FEF753F8801B6428F5D930
S3150800A5A003207BE7236813F0010F13D0636B8BB985
S3150800A5B0764AD2F88430D2F88410606803F44033BF
S3150800A5C043EA801301F070610B43A16843EA017303
S3150800A5D0C2F88430236813F4002F03D0E26BB2F577
S3150800A5E0801F06D013F4801F1ED0236CB3F5800F8E
S3150800A5F01AD1664AD2F88430D2F88410606803F417
S3150800A600403343EA8013E06843EA006301F0E0411F
S3150800A6100B43C2F88430D2F88C3023F01F03616AEA
S3150800A62001390B43C2F88C30236813F0807F11D0B0
S3150800A630564AD2F88400D2F88410666823691B0447
S3150800A64043EA861300F07060034301F0E0410B43D0
S3150800A650C2F88430236813F0007F0DD0626823693E
S3150800A6601B0443EA8213E26843EA0263A26843EAE8
S3150800A6700273464AC2F88430444A136843F080633A
S3150800A6801360FDF7DDFF0646404B1B6813F0006FAD
S3150800A6907FF400AFFDF7D4FF801B6428F4D90320AC
S3150800A6A0FCE63A4A136823F080531360FDF7C8FFA7
S3150800A6B00546364B1B6813F0005F06D0FDF7C0FF52
S3150800A6C0401B6428F5D90320E8E6236813F4002F15
S3150800A6D001D0E26B22B113F4801F1DD0236CDBB9C5
S3150800A6E02A4AD2F88830D2F88810606903F44033D1
S3150800A6F043EA8013A06943EA006301F0E0410B4393
S3150800A700C2F88830D2F88C3023F4F853A16A01399C
S3150800A71043EA0123C2F88C30236813F4001F03D0E0
S3150800A720E36FB3F1006F37D0236813F0080F19D021
S3150800A730164AD2F88810D2F88830606903F4403394
S3150800A74043EA801301F070610B43E16943EA017340
S3150800A750C2F88830D2F88C3023F44033E16A0B43D0
S3150800A760C2F88C30094A136843F080531360FDF72A
S3150800A77067FF0446054B1B6813F0005F1FD1FDF702
S3150800A7805FFF001B6428F5D9032087E600380240DE
S3150800A79000700040FFFCFF0F0A4AD2F88800D2F882
S3150800A7A088106569236A1B0443EA851300F0706004
S3150800A7B0034301F0E0410B43C2F88830B4E70020B8
S3150800A7C06CE600BF00380240F8B505460F46164647
S3150800A7D01C462B689B6837EA03030CBF012300233A
S3150800A7E0B34237D0B4F1FF3FF3D0FDF729FF069BFC
S3150800A7F0C01AA04201D2002CEBD12A68536823F074
S3150800A800E00353606B68B3F5827F0BD0AB6AB3F590
S3150800A810005F14D0012385F85D30002385F85C308D
S3150800A820032018E0AB68B3F5806F18BFB3F5004F87
S3150800A830ECD12A68136823F040031360E6E72A6818
S3150800A840136823F4005313602A68136843F400530B
S3150800A8501360DFE70020F8BDF8B507460D46144635
S3150800A8601E4602E0B6F1FF3F0BD13A6893682B40CB
S3150800A870A3423BD0B5F5C06F08BF002CF2D1137BBD
S3150800A880F0E7FDF7DDFE069BC01AB04201D2002EA6
S3150800A890EBD13A68536823F0E00353607B68B3F55D
S3150800A8A0827F0BD0BB6AB3F5005F14D0012387F80B
S3150800A8B05D30002387F85C30032018E0BB68B3F5E9
S3150800A8C0806F18BFB3F5004FECD13A68136823F0D0
S3150800A8D040031360E6E73A68136823F400531360ED
S3150800A8E03A68136843F400531360DFE70020F8BDA5
S3150800A8F070B582B004460D46164600920B460022F5
S3150800A9004FF4C051FFF7A8FFB8B900962B460022AE
S3150800A91080212046FFF758FFB8B900962B4600223B
S3150800A9204FF4C0612046FFF797FF034650B1236EE8
S3150800A93043F020032366032304E0236E43F0200339
S3150800A94023660323184602B070BD236E43F0200326
S3150800A95023660323F6E7002858D010B504460023DB
S3150800A960836290F85D30002B45D0022384F85D3071
S3150800A9702268136823F040031360E368B3F5E06FB9
S3150800A9803ED90022B3F5706F18BFB3F5E06F01D05A
S3150800A9900021A162216B21B9B3F5E06F33D90223F7
S3150800A9A023636368A1680B4321690B4361690B4301
S3150800A9B0A16901F400710B43E1690B43216A0B435A
S3150800A9C0A06A216803430B60638B03F00403616A82
S3150800A9D00B43616B0B43E1680B43216813434B60E0
S3150800A9E02268D36923F40063D3610020206601231B
S3150800A9F084F85D3010BD80F85C300BF091FEB4E74A
S3150800AA004FF48052BEE701232363CAE7012070474B
S3150800AA102DE9F04182B090F85C40012C00F0E58009
S3150800AA201D46174688460446012380F85C30FDF724
S3150800AA3007FE064694F85D30DBB2012B09D00220EA
S3150800AA40012384F85D30002384F85C3002B0BDE849
S3150800AA50F081B7FA87F35B09B8F1000F08BF012345
S3150800AA60002B40F0B680032384F85D30002323666C
S3150800AA70C4F83880A787E7872364A4F84430A4F885
S3150800AA8046302365E364A368B3F5004F1CD02368FA
S3150800AA901A6812F0400F03D11A6842F040021A6091
S3150800AAA0E368B3F5E06F33D963680BB1012F1BD1A7
S3150800AAB0A26B23681288DA60A36B0233A363E38F61
S3150800AAC0013B9BB2E3870FE02268136843F4804397
S3150800AAD01360DCE7FDF7B4FD801BA84202D3B5F18D
S3150800AAE0FF3F78D1002D78D0E38F9BB2002B5BD047
S3150800AAF023689A6812F0020FECD0A26B1288DA600B
S3150800AB00A36B0233A363E38F013B9BB2E387EBE7B7
S3150800AB1063680BB1012F30D1E38F9BB2012B0BD9A0
S3150800AB20A26B23681288DA60A36B0233A363E38FF0
S3150800AB30023B9BB2E38720E0A26B236812781A7364
S3150800AB40A36B0133A363E38F013B9BB2E38714E056
S3150800AB50A36B1B781373A36B0133A363E38F013BCA
S3150800AB609BB2E38709E0FDF76BFD801BA84202D381
S3150800AB70B5F1FF3F33D1002D33D0E38F9BB29BB1A4
S3150800AB802268936813F0020FEDD0E38F9BB2012B76
S3150800AB90DED9A36B1B88D360A36B0233A363E38F51
S3150800ABA0023B9BB2E387E8E7324629462046FFF791
S3150800ABB09FFE08B120232366A36833B9019323684F
S3150800ABC0DA6801929B680193019B236E5BB90020AA
S3150800ABD036E7012034E7032032E7032030E7032075
S3150800ABE02EE703202CE701202AE702202EE710B4DF
S3150800ABF0036A046A24F001040462846924F0F004F8
S3150800AC0044EA021223F00A030B43826103625DF8E9
S3150800AC10044B704730B4046A24F010040462846953
S3150800AC20056A24F4407444EA022222F470421B03A3
S3150800AC309BB21A4325F0A005090101F0A00129439A
S3150800AC408261016230BC704710B4036A23F01003B6
S3150800AC5003628469036A24F4704444EA023223F0E6
S3150800AC60A00343EA0113826103625DF8044B70474F
S3150800AC7030B4046A24F480740462C469056A24F052
S3150800AC800304224322F0F0021B01DBB21A4325F427
S3150800AC902065090201F420612943C261016230BCC2
S3150800ACA0704730B4046A24F480540462C469056A9F
S3150800ACB024F4407444EA022222F470421B039BB235
S3150800ACC01A4325F42045090301F420412943C261AA
S3150800ACD0016230BC7047836823F07003194341F062
S3150800ACE00701816070470000022380F83D30026842
S3150800ACF09168084B0B40062B18BFB3F5803F03D06D
S3150800AD00136843F001031360012380F83D300020E7
S3150800AD10704700BF07000100022380F83D30036832
S3150800AD20196A41F21112114208D1196A40F24442D5
S3150800AD30114203D11A6822F001021A60012380F831
S3150800AD403D300020704700000268D36843F00103D5
S3150800AD50D36002689168064B0B40062B18BFB3F503
S3150800AD60803F03D0136843F0010313600020704747
S3150800AD70070001007047704770477047704710B565
S3150800AD80044603681A6912F0020F11D0DA6812F045
S3150800AD90020F0DD06FF002021A61012303770368D0
S3150800ADA09B6913F0030F79D0FFF7E6FF002323779B
S3150800ADB023681A6912F0040F12D0DA6812F0040F29
S3150800ADC00ED06FF004021A610223237723689B6969
S3150800ADD013F4407F68D02046FFF7CEFF0023237781
S3150800ADE023681A6912F0080F12D0DA6812F0080FF1
S3150800ADF00ED06FF008021A61042323772368DB69F3
S3150800AE0013F0030F57D02046FFF7B6FF002323772A
S3150800AE1023681A6912F0100F12D0DA6812F0100FB0
S3150800AE200ED06FF010021A61082323772368DB69B6
S3150800AE3013F4407F46D02046FFF79EFF0023237772
S3150800AE4023681A6912F0010F03D0DA6812F0010FAD
S3150800AE503FD123681A6912F0800F03D0DA6812F01E
S3150800AE60800F3DD123681A6912F4807F03D0DA680F
S3150800AE7012F0800F3BD123681A6912F0400F03D0F5
S3150800AE80DA6812F0400F39D123681A6912F0200FD8
S3150800AE9003D0DA6812F0200F37D110BDFFF76BFF29
S3150800AEA02046FFF76AFF81E72046FFF764FF204642
S3150800AEB0FFF763FF92E72046FFF75DFF2046FFF79F
S3150800AEC05CFFA3E72046FFF756FF2046FFF755FF2E
S3150800AED0B4E76FF001021A6120460BF067FBB8E78A
S3150800AEE06FF080021A61204600F023FABAE76FF481
S3150800AEF080721A61204600F01DFABCE76FF0400226
S3150800AF001A612046FFF73AFFBEE76FF020021A6182
S3150800AF10204600F00DFAC0E770B403683A4CA04228
S3150800AF2014BF00240124B0F1804F14BF224644F018
S3150800AF300102AAB9354DA84214BF00250125344E91
S3150800AF40B0420DD065B905F1804505F58235A842B0
S3150800AF5014BF0025012506F50066B04200D01DB1D4
S3150800AF6023F070034D682B43002A33D1274A9042B9
S3150800AF7014BF00220122264DA8422BD052BB02F153
S3150800AF80804202F58232904214BF0022012205F562
S3150800AF900065A8421ED0EAB91E4A904214BF002294
S3150800AFA0012205F59A35A84214D09AB91A4A904250
S3150800AFB014BF0022012205F50065A8420AD04AB945
S3150800AFC0164A904214BF00220122A5F59635A842DA
S3150800AFD000D01AB123F44073CA68134323F08003E0
S3150800AFE04A69134303608A68C2620A6882620C4B24
S3150800AFF0984214BF234644F001030BB10B6903635F
S3150800B0000123436170BC70470000014000080040FE
S3150800B01000040040004401400018004000200040A1
S3150800B02000040140A8B110B5044690F83D305BB164
S3150800B030022384F83D30211D2068FFF76DFF0123A8
S3150800B04084F83D30002010BD80F83C300BF0B2FB90
S3150800B050EEE701207047A8B110B5044690F83D30D8
S3150800B0605BB1022384F83D30211D2068FFF754FFA9
S3150800B070012384F83D30002010BD80F83C30FFF7EE
S3150800B08079FEEEE701207047F0B4046A24F0010463
S3150800B09004628469056A1D4EB0F1804F18BFB0423C
S3150800B0A023D0A6F57846B04214BF00260126184FCD
S3150800B0B0B8421AD0CEB906F1804606F58236B042B5
S3150800B0C014BF0026012607F50067B8420DD066B9F9
S3150800B0D0104EB04214BF0026012607F59A37B8422B
S3150800B0E003D016B944F0010202E024F00304224317
S3150800B0F022F0F0021B01DBB2134325F00A0201F02D
S3150800B1000A01114383610162F0BC704700000140E7
S3150800B110000400400018004038B590F83C30012B78
S3150800B12058D00D460446012380F83C30022380F8A7
S3150800B1303D30DAB1042A2AD0082A3AD0CB684A68C0
S3150800B14009680068FFF7ADFD2268D36923F44063F8
S3150800B150D3612268D369A96843EA0123D36101232D
S3150800B16084F83D30002084F83C0038BDCB684A6836
S3150800B17009680068FFF788FF2268936923F00C03C3
S3150800B180936122689369A9680B439361E7E7CB68E3
S3150800B1904A6809680068FFF73DFD2268936923F449
S3150800B1A04063936122689369A96843EA012393611E
S3150800B1B0D5E7CB684A6809680068FFF759FD226831
S3150800B1C0D36923F00C03D3612268D369A9680B43BA
S3150800B1D0D361C4E70220C8E710B4846824F47F4426
S3150800B1E042EA03230B43234383605DF8044B70470D
S3150800B1F090F83C30012B64D010B50446012380F842
S3150800B2003C30022380F83D30026890682E4B03409C
S3150800B21093600B68402B4AD013D9602B3DD01ED9BA
S3150800B220702B28D0B3F5005F30D1CB684A6889689F
S3150800B2302068FFF7D1FF2268936843F48043936040
S3150800B24024E0102B06D004D9202B03D0302B01D0B4
S3150800B2501CE0DBB919462068FFF73DFD16E0502BC8
S3150800B26014D1CA6849682068FFF7C1FC50212068D4
S3150800B270FFF731FD0AE0CB684A6889682068FFF75E
S3150800B280ABFF2268936843F077039360012384F841
S3150800B2903D30002084F83C0010BDCA684968206823
S3150800B2A0FFF7D2FC60212068FFF715FDEEE7CA68B4
S3150800B2B049682068FFF79BFC40212068FFF70BFDD3
S3150800B2C0E4E70220704700BF8800FEFF90F83C3094
S3150800B2D0012B27D070B4012380F83C30022380F874
S3150800B2E03D3003685A689D680F4E104CA34218BF3C
S3150800B2F0B34203D122F470024C68224322F0700252
S3150800B3000C68224325F08004896821435A60036843
S3150800B3109960012380F83D30002380F83C301846B8
S3150800B32070BC7047022070470000014000040140CD
S3150800B3307047704770470268136823F0C0031360AC
S3150800B3402023436770470268136823F490731360D9
S3150800B3500268936823F00103936020238367002320
S3150800B3600366704738B5446F202C42D1B2FA82F58D
S3150800B3706D09002908BF0125002D3CD190F87030D1
S3150800B380012B3AD013460446012280F87020C16486
S3150800B390A0F85030A0F852300022C2672122426736
S3150800B3A0826E8AB11649D163826E16491164826E1D
S3150800B3B01549D164826E0021116502682832C16C74
S3150800B3C0806EFDF747FB58B9236840221A620020B1
S3150800B3D084F870002268936843F08003936009E05C
S3150800B3E01023E367002384F8703020236367012065
S3150800B3F000E0022038BD0120FCE70220FAE700BF82
S3150800B40009B6000855B60008A7B6000838B5846F0F
S3150800B410202C47D1B2FA82F56D09002908BF01250B
S3150800B420002D41D190F87030012B3FD013460446C9
S3150800B430012280F870204165A0F858300022C267C2
S3150800B44022228267C26E8AB11949D163C26E19492E
S3150800B4501164C26E1849D164C26E00211165016873
S3150800B460426D2431C06EFDF7F5FA90B9002084F8D4
S3150800B47070002268136843F4807313602268936827
S3150800B48043F0010393602268936843F04003936096
S3150800B49009E01023E367002384F8703020236367EC
S3150800B4A0012000E0022038BD0120FCE70220FAE76F
S3150800B4B05FB600089DB60008A7B6000810B4446F2A
S3150800B4C0816F90F87030012B2BD0012380F87030F3
S3150800B4D003689A6812F0800F01D0212C0DD00368FA
S3150800B4E09A6812F0400F01D022290BD0002380F869
S3150800B4F0703018465DF8044B70479A6822F080024F
S3150800B5009A60ECE71A6822F480721A6002689368F7
S3150800B51023F0010393600268936823F04003936065
S3150800B520E4E70220E6E790F87030012B26D00123E5
S3150800B53080F87030436F212B07D0836F222B0AD0F7
S3150800B540002380F87030184670470268936843F005
S3150800B55080039360F1E7036808221A620268136899
S3150800B56043F4807313600268936843F001039360A1
S3150800B5700268936843F040039360E1E7022070474E
S3150800B58038B50446416F856F03689A6812F0800FD4
S3150800B59001D0212908D023689A6812F0400F30D0CC
S3150800B5A0222D17D000202DE09A6822F080029A609A
S3150800B5B0806E10B1FDF788FA18B92046FFF7BBFE72
S3150800B5C0E9E7A06EFDF7CCFB2028F6D11023E36748
S3150800B5D0032017E09A6822F040029A60E06E10B1E4
S3150800B5E0FDF772FA20B92046FFF7ADFE002009E004
S3150800B5F0E06EFDF7B5FB2028F5D11023E36703209D
S3150800B60000E0002038BD704708B5836BC269B2F503
S3150800B610807F0DD00022A3F8522019688A6822F08C
S3150800B62080028A601A68136843F04003136008BDF5
S3150800B6301846FFF7E8FFFAE708B501680A6822F036
S3150800B64040020A602022426700224266FFF7DBFFBB
S3150800B65008BD704708B5806BFFF7FBFF08BD08B546
S3150800B660836BC269B2F5807F13D00022A3F85A20F3
S3150800B67019680A6822F480720A6019688A6822F0D2
S3150800B68001028A6019688A6822F040028A602022CC
S3150800B6909A6718460AF07AFF08BD704708B5806BA6
S3150800B6A0FFF7FBFF08BD38B5846B626FA56F23688B
S3150800B6B09B6813F0800F01D0212A0ED023689B685F
S3150800B6C013F0400F01D0222D0ED0E36F43F0100384
S3150800B6D0E36720460DF0E4FD38BD0023A4F8523098
S3150800B6E02046FFF728FEE9E70023A4F85A3020464B
S3150800B6F0FFF729FEE9E7000038B504460268D36972
S3150800B7001568906813F00F010CD113F0200F09D0BB
S3150800B71015F0200F06D0236E002B00F086802046F9
S3150800B720984782E000296FD010F0010002D115F485
S3150800B730907F69D013F0010F07D015F4807F04D0ED
S3150800B74001211162E26F0A43E26713F0020F07D084
S3150800B75030B1226802211162E26F42F00402E26708
S3150800B76013F0040F07D030B1226804211162E26F8A
S3150800B77042F00202E26713F0080F09D015F0200F15
S3150800B78000D128B1226808211162E26F0A43E267F4
S3150800B790E26F002A49D013F0200F06D015F0200FCB
S3150800B7A003D0236E0BB120469847E26F23689B6847
S3150800B7B013F0400F02D112F0080F1FD02046FFF7F2
S3150800B7C0C2FD23689A6812F0400F13D09A6822F0D7
S3150800B7D040029A60E36E4BB1164A1A65E06EFDF7B1
S3150800B7E0BDF910B3E06E036D98471EE020460DF0D4
S3150800B7F057FD1AE020460DF053FD16E020460DF0E1
S3150800B8004FFD0023E36710E013F0800F07D015F013
S3150800B810800F04D0636E43B12046984705E013F0C5
S3150800B820400F02D015F0400F00D138BD2046FFF773
S3150800B83003FFFAE739B8000808B5806B0023A0F8BB
S3150800B8405A30A0F852300DF02BFD08BDC06F704776
S3150800B85010B5044683680269134342691343C269F3
S3150800B860134301680868994A024013430B6022682B
S3150800B870536823F44053E1680B435360A269236A73
S3150800B8801A4321688B6823F4306313438B6023685B
S3150800B8908F4A934218D08F4A934228D08E4A9342B1
S3150800B8A03DD08E4A934250D08D4A934262D08D4AFB
S3150800B8B0934277D08C4A934200F08C808B4A93420D
S3150800B8C000F0A0801023B6E0894BD3F8903003F03F
S3150800B8D00303032B09D8DFE803F00204AD060123AE
S3150800B8E0A9E00423A7E00823A5E01023A3E0804BE2
S3150800B8F0D3F8903003F00C030C2B0ED8DFE803F0D6
S3150800B900070D0D0D090D0D0DA90D0D0D0B000023CD
S3150800B91091E004238FE008238DE010238BE0744B1D
S3150800B920D3F8903003F03003102B0AD006D9202B19
S3150800B93000F09180302B06D108237CE01BB9002348
S3150800B94079E0042377E0102375E0694BD3F890304B
S3150800B95003F0C003402B09D005D9802B7DD0C02B1E
S3150800B96006D1082367E01BB9002364E0042362E0DC
S3150800B970102360E05E4BD3F8903003F44073B3F5C0
S3150800B980807F0BD007D9B3F5007F68D0B3F5407F29
S3150800B99006D108234FE01BB900234CE004234AE0F4
S3150800B9A0102348E0524BD3F8903003F44063B3F5C4
S3150800B9B0806F0BD007D9B3F5006F52D0B3F5406F3F
S3150800B9C006D1082337E01BB9012334E0042332E00B
S3150800B9D0102330E0464BD3F8903003F44053B3F5C8
S3150800B9E0805F0BD007D9B3F5005F3CD0B3F5405F55
S3150800B9F006D108231FE01BB900231CE004231AE024
S3150800BA00102318E03A4BD3F8903003F44043B3F5CB
S3150800BA10804F0BD007D9B3F5004F26D0B3F5404F6A
S3150800BA2006D1082307E01BB9002304E0042302E03B
S3150800BA30102300E00223E269B2F5004F17D0082B65
S3150800BA4000F2B380DFE803F0768B95B19EB1B1B111
S3150800BA50A8000223EFE70223EDE70223EBE7022320
S3150800BA60E9E70223E7E70223E5E70223E3E7082BF2
S3150800BA705DD8DFE803F0051F3F5C485C5C5C53005B
S3150800BA80FEF762FB6268530803EB4003B3FBF2F36D
S3150800BA909BB20020A3F110014FF6EF72914200F21B
S3150800BAA087809AB222F00F02C3F342031343226837
S3150800BAB0D36050E0FEF758FB6268530803EB400377
S3150800BAC0B3FBF2F39BB20020E4E700BFF369FFEF94
S3150800BAD0001001400044004000480040004C00406F
S3150800BAE0005000400014014000780040007C0040EF
S3150800BAF0003802406268304B03EB5203B3FBF2F3A3
S3150800BB009BB20020C6E7FEF7FBF96268530803EB11
S3150800BB104003B3FBF2F39BB20020BBE7626853080D
S3150800BB2003F58033B3FBF2F39BB20020B2E70120A2
S3150800BB300023AFE7FEF708FB626800EB5203B3FB8E
S3150800BB40F2F39BB20020A3F110014FF6EF72914277
S3150800BB5030D82268D36000232366636610BDFEF7DB
S3150800BB6003FB626800EB5203B3FBF2F39BB20020BF
S3150800BB70E9E76268114B03EB5203B3FBF2F39BB29E
S3150800BB800020E0E7FEF7BCF9626800EB5203B3FB5E
S3150800BB90F2F39BB20020D6E76268530803F5004328
S3150800BBA0B3FBF2F39BB20020CDE701200023CAE7DE
S3150800BBB00120D0E70120CEE70048E8010024F40080
S3150800BBC0436A13F0010F06D00268536823F4003362
S3150800BBD0816A0B435360436A13F0020F06D002686A
S3150800BBE0536823F48033C16A0B435360436A13F0E6
S3150800BBF0040F06D00268536823F48023016B0B43B5
S3150800BC005360436A13F0080F06D00268536823F49A
S3150800BC100043416B0B435360436A13F0100F06D081
S3150800BC200268936823F48053816B0B439360436ADD
S3150800BC3013F0200F06D00268936823F40053C16BF3
S3150800BC400B439360436A13F0400F0AD002685368A7
S3150800BC5023F48013016C0B435360036CB3F5801F08
S3150800BC600BD0436A13F0800F06D00268536823F49A
S3150800BC700023816C0B43536070470268536823F4B2
S3150800BC80C003416C0B435360EBE72DE9F0410546D1
S3150800BC900F4616469846069C2B68DB6937EA030367
S3150800BCA00CBF01230023B3421CD1B4F1FF3FF3D0EC
S3150800BCB0FCF7C6FCA0EB0800A04201D8002CEBD18B
S3150800BCC02A68136823F4D07313602A68936823F0EC
S3150800BCD00103936020236B67AB67002385F87030F8
S3150800BCE0032000E00020BDE8F0812DE9F04182B094
S3150800BCF01E46436F202B59D104460D469046B2FA8C
S3150800BD0082F35B09002908BF0123002B53D190F861
S3150800BD107030012B51D0012380F870300023C3679F
S3150800BD2021234367FCF78CFC0746A4F85080A4F847
S3150800BD305280A368B3F5805F02D04FF0000810E088
S3150800BD4023690BB34FF000080BE038F8023B226872
S3150800BD50C3F308039362B4F85230013B9BB2A4F8CC
S3150800BD605230B4F852309BB28BB100963B46002253
S3150800BD7080212046FFF789FF08BB002DE5D015F87E
S3150800BD80012B23689A62E6E7A8460025E9E70096AC
S3150800BD903B46002240212046FFF777FF034680B93D
S3150800BDA020226267002284F8702000E002231846E9
S3150800BDB002B0BDE8F0810123F9E70223F7E7032380
S3150800BDC0F5E70323F3E710B582B004460023C367FB
S3150800BDD0FCF736FC2268126812F0080F07D12023F8
S3150800BDE06367A367002084F8700002B010BD6FF087
S3150800BDF07E430093034600224FF400112046FFF7C6
S3150800BE0044FF0028EBD00320EFE768B310B50446DB
S3150800BE10436F03B3242363672268136823F001037F
S3150800BE2013602046FFF714FD012813D0636ABBB9D7
S3150800BE302268536823F4904353602268936823F07A
S3150800BE402A0393602268136843F0010313602046AF
S3150800BE50FFF7B9FF10BD80F870300AF02FFDD9E75B
S3150800BE602046FFF7ADFEE3E701207047842801D09E
S3150800BE700330704700207047EFF30580003018BF85
S3150800BE800120704708B501F0A1F9002008BD08B5E2
S3150800BE90FFF7F2FF10B901F0D7F908BD01F0DAF99A
S3150800BEA0FBE72DE9F04387B004460F464569A5B17F
S3150800BEB0866996B1D0F80480D0F80090B0F90800E9
S3150800BEC0FFF7D4FF22690296019500903B46494642
S3150800BED0404601F0B5F8059013E065682668D4F881
S3150800BEE01080B4F90800FFF7C1FF05AB0193009075
S3150800BEF03B461FFA88F23146284601F0E0F8012849
S3150800BF0003D1059807B0BDE8F0830020FAE708B525
S3150800BF10034600B90123184601F0A8FA002008BD17
S3150800BF2008B5416819B1012000F037FC08BD0120A9
S3150800BF3000F028FCFAE7000030B583B0002301932F
S3150800BF4050B30C460546B1F1FF3F02D019B91C465D
S3150800BF5001E04FF0FF34FFF78FFF90B101AA0021EF
S3150800BF60284600F081FE012818D1019BC3B10D4B6C
S3150800BF704FF080521A60BFF34F8FBFF36F8F0020C8
S3150800BF8006E02146284600F099FD012802D1002046
S3150800BF9003B030BDFF20FBE78020F9E7FF20F7E775
S3150800BFA00020F5E704ED00E010B582B00446002352
S3150800BFB00193FFF761FF88B101A9204600F06AFCEA
S3150800BFC0012816D1019BB3B10D4B4FF080521A6070
S3150800BFD0BFF34F8FBFF36F8F002008E000231A4688
S3150800BFE01946204600F0FCFA012806D1002002B0C6
S3150800BFF010BDFF20FBE70020F9E7FF20F7E700BFA9
S3150800C00004ED00E010B582B0436863B101291AD186
S3150800C0100322009200221146012000F05BFA044632
S3150800C020204602B010BD01290FD1032200210120AC
S3150800C03000F0ACFA04460028F2D000231A46194646
S3150800C04000F0CEFAECE70024EAE70024E8E700006F
S3150800C05030B583B00023019350B30C460546B1F1C1
S3150800C060FF3F02D019B91C4601E04FF0FF34FFF735
S3150800C07003FF90B101AA0021284600F0F5FD01282A
S3150800C08018D1019BC3B10D4B4FF080521A60BFF314
S3150800C0904F8FBFF36F8F002006E02146284600F039
S3150800C0A00DFD012802D1002003B030BDFF20FBE7BB
S3150800C0B08020F9E7FF20F7E70020F5E704ED00E028
S3150800C0C010B582B0044600230193FFF7D5FE88B168
S3150800C0D001A9204600F0DEFB012816D1019BB3B169
S3150800C0E00D4B4FF080521A60BFF34F8FBFF36F8F1F
S3150800C0F0002008E000231A461946204600F070FA88
S3150800C100012806D1002002B010BDFF20FBE7002061
S3150800C110F9E7FF20F7E700BF04ED00E010B582B0AD
S3150800C12082680AB1C36833B900224168006800F022
S3150800C1302DFA02B010BD416800680024009400F092
S3150800C140C9F9F6E730B585B0044601910023039393
S3150800C150154602B90125FFF78FFE98B1002303AAF9
S3150800C16001A9204600F028FB012818D1039BC3B17A
S3150800C1700D4B4FF080521A60BFF34F8FBFF36F8F8E
S3150800C180002008E000232A4601A9204600F028FAE4
S3150800C190012802D1002005B030BDFF20FBE7FF20B3
S3150800C1A0F9E70020F7E700BF04ED00E070B584B0BA
S3150800C1B0044602910023019349B10D461646002311
S3150800C1C00393B2F1FF3F0BD062B91E460AE004ABF7
S3150800C1D0802243F8102D93E8070084E807002AE038
S3150800C1E04FF0FF36FFF748FEB0B103AA01A928466B
S3150800C1F000F03AFD01280CD000230093039BABB155
S3150800C200114B4FF080521A60BFF34F8FBFF36F8FF9
S3150800C2100CE010230093F1E7324601A9284600F006
S3150800C2209BFB01280AD066B9002300936B4693E866
S3150800C230070084E80700204604B070BD1023009369
S3150800C240F4E74023F1E700BF04ED00E000F108033E
S3150800C25043604FF0FF328260C360036100230360CE
S3150800C260704700230361704743684B609A688A6089
S3150800C2709A685160996008610368013303607047E2
S3150800C28030B40D68B5F1FF3F02D000F1080202E0B4
S3150800C290026904E01A4653681C68AC42FAD9536826
S3150800C2A04B6099608A6051600861036801330360D6
S3150800C2B030BC70470369426881689160826841684A
S3150800C2C051605A68824206D0002202611A68013A11
S3150800C2D01A601868704782685A60F5E7436A23B19E
S3150800C2E0036B1868C0F1070070470020704710B547
S3150800C2F0044601F007FCA26BE36B9A4204D00024C3
S3150800C30001F026FC204610BD0124F9E710B50446C5
S3150800C31001F0F8FBA36B23B1002401F019FC2046B9
S3150800C32010BD0124F9E770B504461646856B026C04
S3150800C3305AB903681BB100200135A56370BD406872
S3150800C34001F0A2FA00236360F6E76EB980680DF083
S3150800C35088FA226CA3681344A3606268934219D3CF
S3150800C3602368A3600020E7E7C0680DF07AFA226C1C
S3150800C3705242E3681344E36021688B4202D2636841
S3150800C3801A44E260022E01D00020D5E725B1013D0E
S3150800C3900020D1E70020CFE70020CDE7026C72B17C
S3150800C3A010B5C3681344C3604468A34201D3036845
S3150800C3B0C3600C46C16820460DF053FA10BD70479D
S3150800C3C038B5054601F09EFB95F8454064B203E092
S3150800C3D001F0E0F9013C64B2002C08DD6B6A33B168
S3150800C3E005F1240001F044F90028F3D0F0E7FF2313
S3150800C3F085F8453001F0ACFB01F084FB95F8444024
S3150800C40064B203E001F0C6F9013C64B2002C08DD11
S3150800C4102B6933B105F1100001F02AF90028F3D091
S3150800C420F0E7FF2385F8443001F092FB38BD0000A1
S3150800C43038B550B94FF0100372B683F31188BFF3BD
S3150800C4406F8FBFF34F8F62B6FEE704460D4601F0C5
S3150800C45059FB2168E26B236C03FB02106060002025
S3150800C460A063A160013A02FB0313E360FF2384F88B
S3150800C470443084F84530A5B923691BB901F068FB37
S3150800C480012038BD04F1100001F0F2F80028F5D0BB
S3150800C490084B4FF080521A60BFF34F8FBFF36F8F70
S3150800C4A0ECE704F11000FFF7D1FE04F12400FFF7D2
S3150800C4B0CDFEE3E704ED00E010B5029B0C4639B16A
S3150800C4C01A60D8631C6401211846FFF7B1FF10BD36
S3150800C4D01B60F6E750B94FF0100372B683F3118864
S3150800C4E0BFF36F8FBFF34F8F62B6FEE710B584B008
S3150800C4F004468BB1081C18BF0120002A08BF01207A
S3150800C500A8B94FF0100372B683F31188BFF36F8F83
S3150800C510BFF34F8F62B6FEE74FF0100372B683F390
S3150800C5201188BFF36F8FBFF34F8F62B6FEE7B1FA7C
S3150800C53081F04009002A18BF012050B94FF01003B6
S3150800C54072B683F31188BFF36F8FBFF34F8F62B64E
S3150800C550FEE748200390039848280AD04FF01003B6
S3150800C56072B683F31188BFF36F8FBFF34F8F62B62E
S3150800C570FEE720461C46012384F8463000949DF8C1
S3150800C5801830FFF799FF204604B010BD50B94FF098
S3150800C590100372B683F31188BFF36F8FBFF34F8F03
S3150800C5A062B6FEE7F0B583B0064611B101FB00F0AE
S3150800C5B000E0002017460C46483001F02DFC0546E1
S3150800C5C050B1002380F8463000903B4600F14802FF
S3150800C5D021463046FFF770FF284603B0F0BD00003D
S3150800C5E0F0B585B0019270B10446B9B9026CAAB12A
S3150800C5F04FF0100372B683F31188BFF36F8FBFF342
S3150800C6004F8F62B6FEE74FF0100372B683F31188B8
S3150800C610BFF36F8FBFF34F8F62B6FEE7022B0DD1C4
S3150800C620E26B012A0AD04FF0100372B683F3118821
S3150800C630BFF36F8FBFF34F8F62B6FEE71E460F46F6
S3150800C64001F0B0F860B9019B63B14FF0100372B600
S3150800C65083F31188BFF36F8FBFF34F8F62B6FEE780
S3150800C66000253AE0002538E0324639462046FFF7ED
S3150800C6705AFE636A4BB9A8B13B4B4FF080521A6019
S3150800C680BFF34F8FBFF36F8F0CE004F1240000F067
S3150800C690EFFF38B1344B4FF080521A60BFF34F8F1B
S3150800C6A0BFF36F8F01F054FA012005B0F0BD01F019
S3150800C6B04FFA0020F9E702A801F01EF8012519E053
S3150800C6C0002384F8443021E0002384F8453023E031
S3150800C6D02046FFF775FE00F04FFE01F013FAA26B35
S3150800C6E0E36B9A42C0D3022EBED0019B002BDED04C
S3150800C6F0002DE0D001F02CFA00F09CFD01F002FAC2
S3150800C70094F844305BB2B3F1FF3FD9D094F8453082
S3150800C7105BB2B3F1FF3FD7D001F01AFA01A902A81C
S3150800C72000F0F4FFC8B92046FFF7E1FD0028CFD096
S3150800C730019904F1100000F07FFF2046FFF740FE44
S3150800C74000F01AFE0028C8D1074B4FF080521A6035
S3150800C750BFF34F8FBFF36F8FBFE72046FFF730FE5B
S3150800C76000F00AFE0020A0E704ED00E048B108B595
S3150800C770002141600160C1600B460A46FFF730FFA1
S3150800C78008BD704710B5024600210120FFF7FEFEDE
S3150800C7900446FFF7EBFF204610BD10B582B00090A7
S3150800C7A00B46002211460120FFF794FE0446FFF7C8
S3150800C7B0DDFF204602B010BD2DE9F84370B10446EE
S3150800C7C0B9B9006CA8B14FF0100372B683F311889B
S3150800C7D0BFF36F8FBFF34F8F62B6FEE74FF01003BC
S3150800C7E072B683F31188BFF36F8FBFF34F8F62B6AC
S3150800C7F0FEE7022B0DD1E06B01280AD04FF010039B
S3150800C80072B683F31188BFF36F8FBFF34F8F62B68B
S3150800C810FEE71F469046894601F07CFAEFF311863B
S3150800C8204FF0100372B683F31188BFF36F8FBFF30F
S3150800C8304F8F62B6A26BE36B9A4203D3022F01D0E5
S3150800C84000200FE094F845506DB23A464946204616
S3150800C850FFF769FDB5F1FF3F08D06B1C5BB284F8A2
S3150800C8604530012086F31188BDE8F883636A5BB119
S3150800C87004F1240000F0FCFE40B1B8F1000F07D027
S3150800C8800120C8F80000EDE70120EBE70120E9E701
S3150800C8900120E7E770B170B50446036CABB14FF001
S3150800C8A0100372B683F31188BFF36F8FBFF34F8FF0
S3150800C8B062B6FEE74FF0100372B683F31188BFF332
S3150800C8C06F8FBFF34F8F62B6FEE703683BB30E4622
S3150800C8D001F020FAEFF311854FF0100372B683F3D7
S3150800C8E01188BFF36F8FBFF34F8F62B6A26BE36BEE
S3150800C8F0934228D994F845305BB20132A263B3F16A
S3150800C900FF3F1AD1636A03B304F1240000F0B0FEB6
S3150800C910E8B1F6B10120306085F3118870BD43682F
S3150800C920002BD4D04FF0100372B683F31188BFF3EF
S3150800C9306F8FBFF34F8F62B6FEE701335BB284F8A1
S3150800C94045300120E8E70020E6E70120E4E701207A
S3150800C950E2E70120E0E70000F0B585B0019270B18A
S3150800C9600446B9B9036CABB14FF0100372B683F342
S3150800C9701188BFF36F8FBFF34F8F62B6FEE74FF094
S3150800C980100372B683F31188BFF36F8FBFF34F8F0F
S3150800C99062B6FEE70F4600F005FF60B9019B63B17A
S3150800C9A04FF0100372B683F31188BFF36F8FBFF38E
S3150800C9B04F8F62B6FEE700263EE000263CE0394689
S3150800C9C02046FFF7EBFC013DA563236923B901F077
S3150800C9D0BFF8012005B0F0BD04F1100000F048FED4
S3150800C9E00028F4D0344B4FF080521A60BFF34F8FB3
S3150800C9F0BFF36F8FEBE701F0ABF80020EAE702A878
S3150800CA0000F07AFE012621E0002384F8443029E06C
S3150800CA10002384F845302BE02046FFF7D1FC00F0D0
S3150800CA20ABFC09E02046FFF7CBFC00F0A5FC20464E
S3150800CA30FFF76CFC00283DD101F064F8A56B002DCA
S3150800CA40BDD1019B002BD6D0002ED8D001F080F89E
S3150800CA5000F0F0FB01F056F894F844305BB2B3F1FD
S3150800CA60FF3FD1D094F845305BB2B3F1FF3FCFD04A
S3150800CA7001F06EF801A902A800F048FE0028D1D1FD
S3150800CA802046FFF743FC0028C6D0019904F124008C
S3150800CA9000F0D2FD2046FFF793FC00F06DFC00285D
S3150800CAA0CAD1054B4FF080521A60BFF34F8FBFF3C0
S3150800CAB06F8FC1E700208DE704ED00E070B584B004
S3150800CAC0019150B94FF0100372B683F31188BFF382
S3150800CAD06F8FBFF34F8F62B6FEE70446036C53B100
S3150800CAE04FF0100372B683F31188BFF36F8FBFF34D
S3150800CAF04F8F62B6FEE700F055FE60B9019B6BB139
S3150800CB004FF0100372B683F31188BFF36F8FBFF32C
S3150800CB104F8F62B6FEE700252E4653E000252E46C7
S3150800CB2050E0013BA363236813B900F06FFF606010
S3150800CB30236963B104F1100000F09AFD38B1494B3E
S3150800CB404FF080521A60BFF34F8FBFF36F8F00F01C
S3150800CB50FFFF0125284604B070BD55B14FF01003FC
S3150800CB6072B683F31188BFF36F8FBFF34F8F62B628
S3150800CB70FEE700F0EDFFEDE702A800F0BDFD012697
S3150800CB802AE0002384F8443032E0002384F8453054
S3150800CB9034E000F0B7FF606800F014FE054600F0C8
S3150800CBA0D7FF3BE02046FFF70BFC00F0E5FB09E06A
S3150800CBB02046FFF705FC00F0DFFB2046FFF7A6FB43
S3150800CBC0002840D100F09EFFA36B002BA9D1019B42
S3150800CBD0002BC2D0002ECFD000F0BAFF00F02AFBFF
S3150800CBE000F090FF94F844305BB2B3F1FF3FC8D031
S3150800CBF094F845305BB2B3F1FF3FC6D000F0A8FF0A
S3150800CC0001A902A800F082FD0028D1D12046FFF72D
S3150800CC107DFB0028C6D02368002BBAD0019904F101
S3150800CC20240000F009FD2046FFF7CAFB00F0A4FB2C
S3150800CC300028C7D10B4B4FF080521A60BFF34F8FB5
S3150800CC40BFF36F8FBEE7002D84D000F05BFF204650
S3150800CC50FFF744FB0146606800F072FE00F078FFBB
S3150800CC60002577E704ED00E02DE9F84370B10446A6
S3150800CC70B9B9036CABB14FF0100372B683F31188E0
S3150800CC80BFF36F8FBFF34F8F62B6FEE74FF0100307
S3150800CC9072B683F31188BFF36F8FBFF34F8F62B6F7
S3150800CCA0FEE71746894601F035F8EFF311864FF08F
S3150800CCB0100372B683F31188BFF36F8FBFF34F8FDC
S3150800CCC062B6D4F83880B8F1000F1DD094F84450F5
S3150800CCD06DB249462046FFF761FB08F1FF33A363AF
S3150800CCE0B5F1FF3F05D06B1C5BB284F844300120D8
S3150800CCF00BE023696BB104F1100000F0B9FC50B1E8
S3150800CD005FB10120386000E0002086F31188BDE895
S3150800CD10F8830120F9E70120F7E70120F5E700008D
S3150800CD2050B141690D4A914211D1836A1432934236
S3150800CD300FD083B1002070474FF0100372B683F30B
S3150800CD401188BFF36F8FBFF34F8F62B6FEE70020DF
S3150800CD507047002070470120704700BF6802002016
S3150800CD60074B9B6A1B6833B1054B9A6AD268D2682F
S3150800CD705268DA627047024B4FF0FF32DA62704748
S3150800CD80680200202DE9F04780469946089D099FCC
S3150800CD900A9C266B6FF04043134406EB830626F085
S3150800CDA0070600230F2B07D8C85CE21882F8340060
S3150800CDB0CA5C0AB10133F5E7002384F84330062D2F
S3150800CDC000D90625E56265644FF0000AC4F848A054
S3150800CDD0201DFFF746FA04F11800FFF742FA24610E
S3150800CDE0C5F10705A5616462C4F84CA084F850A093
S3150800CDF04A464146304600F05BFE206007B13C607B
S3150800CE00BDE8F08770B5002407E004EB84029300C0
S3150800CE1010481844FFF71AFA0134062CF5D90E4CB7
S3150800CE2004F1BC063046FFF711FA04F1D00528468E
S3150800CE30FFF70CFA04F11400FFF708FA04F1E4000E
S3150800CE40FFF704FA2046FFF701FAA662C4F8F8507D
S3150800CE5070BD00BF980200206802002038B505465C
S3150800CE6000F050FE264BD3F8FC200132C3F8FC2014
S3150800CE70D3F8003173B1224BD3F804318BB9204B68
S3150800CE80D3F80031DA6AEB6A9A420AD81C4BC3F81F
S3150800CE90005106E01A4BC3F80051D3F8FC30012BB9
S3150800CEA02AD0174CD4F808310133C4F80831EB6A94
S3150800CEB001229A40D4F80C110A43C4F80C2104F153
S3150800CEC0300003EB83039A00291D1044FFF7CCF9C1
S3150800CED000F03EFED4F804316BB1D4F80031DA6ABA
S3150800CEE0EB6A9A4207D2074B4FF080521A60BFF39B
S3150800CEF04F8FBFF36F8F38BDFFF784FFD1E700BFB1
S3150800CF006802002004ED00E010B5044690F85130A0
S3150800CF1033B9006B01F000F8204600F0FDFF10BDA4
S3150800CF20012B0CD0022BFAD04FF0100372B683F304
S3150800CF301188BFF36F8FBFF34F8F62B6FEE700F01D
S3150800CF40EBFFECE738B517E000F0DCFD0D4CD4F844
S3150800CF50F030DD68281DFFF7ADF9D4F8FC30013B49
S3150800CF60C4F8FC30D4F81031013BC4F8103100F095
S3150800CF70EFFD2846FFF7C8FF024BD3F81031002B08
S3150800CF80E2D138BD6802002008B5FFF7DBFF064B83
S3150800CF901B6B012BF9D9054B4FF080521A60BFF372
S3150800CFA04F8FBFF36F8FF0E76802002004ED00E0B3
S3150800CFB070B504460E46214BD3F81451D3F8000138
S3150800CFC00430FFF777F960B91C4BD3F80021D16A12
S3150800CFD0012202FA01F1D3F80C2122EA0102C3F870
S3150800CFE00C21B4F1FF3F14BF00230123002E08BF14
S3150800CFF0002393B92C44114BD3F800315C60A54249
S3150800D00012D80E4DA86AD5F800110431FFF738F981
S3150800D010EB6AA34210D9EC620EE00848D0F800117A
S3150800D0200431FFF721F907E0044BD3F8F800D3F8E9
S3150800D03000110431FFF724F970BD00BF6802002013
S3150800D04070B586B00B9D0C9C55B94FF0100372B69F
S3150800D05083F31188BFF36F8FBFF34F8F62B6FEE776
S3150800D06054B94FF0100372B683F31188BFF36F8F6C
S3150800D070BFF34F8F62B6FEE754260496049E542EDD
S3150800D0800AD04FF0100372B683F31188BFF36F8F7F
S3150800D090BFF34F8F62B6FEE72563022584F8515029
S3150800D0A000250395029405AD01950A9D0095FFF7A5
S3150800D0B069FE2046FFF7D2FE059806B070BD2DE939
S3150800D0C0F04385B00746884615469946900000F015
S3150800D0D0A3FE08B30646542000F09EFE0446B8B1E7
S3150800D0E00663E4B1002384F85130039302940D9B40
S3150800D0F001930C9B00934B462A4641463846FFF758
S3150800D10041FE2046FFF7AAFE012005B0BDE8F083E0
S3150800D110304600F001FFE4E74FF0FF30F5E74FF047
S3150800D120FF30F2E7F8B550B94FF0100372B683F343
S3150800D1301188BFF36F8FBFF34F8F62B6FEE70446C1
S3150800D14000F0E8FDEFF311874FF0100372B683F392
S3150800D1501188BFF36F8FBFF34F8F62B62046FFF774
S3150800D160DFFD60B3174BD3F818310BBBE26A154BDA
S3150800D170D3F80031DB6A9A4218D20025261D3046BC
S3150800D180FFF798F8E06A012282400E4BD3F80C119B
S3150800D1900A43C3F80C2130333146142202FB00300F
S3150800D1A0FFF762F887F311882846F8BD0125E5E7F9
S3150800D1B004F118010448FFF757F80025F2E700259F
S3150800D1C0F0E700BF680200207C02002010B588B096
S3150800D1D000240594069407AA06A905A808F0BCFD2C
S3150800D1E0059B0293069B019300942346079A0E49D2
S3150800D1F00E48FFF725FF08B908B010BD4FF0100319
S3150800D20072B683F31188BFF36F8FBFF34F8F62B681
S3150800D210074B4FF0FF32DA620122C3F80421C3F844
S3150800D220144100F013FDE7E770BE020889CF000835
S3150800D23068020020034AD2F818310133C2F81831BF
S3150800D240704700BF68020020014BD3F814017047ED
S3150800D2506802002008B500F05DFD024BD3F8140102
S3150800D26008BD00BF680200202DE9F041414BD3F804
S3150800D2701831002B6ED13F4BD3F814510135C3F842
S3150800D2801451DDB99B6A1B6853B14FF0100372B68F
S3150800D29083F31188BFF36F8FBFF34F8F62B6FEE734
S3150800D2A0344B9A6AD3F8F8109962C3F8F820D3F881
S3150800D2B01C210132C3F81C21FFF752FD2D4BDB6AF6
S3150800D2C0AB423DD900242B4AD2F80031DB6A03EB86
S3150800D2D0830399000A44136B012B42D9012440E0C9
S3150800D2E00124244B9B6A1B6863B3224B9B6ADB6849
S3150800D2F0DE6873689D422AD306F104084046FEF7A5
S3150800D300D9FFB36A1BB106F11800FEF7D3FFF36A1B
S3150800D31001229A40174FD7F80C110A43C7F80C2177
S3150800D32007F1300003EB83039A0041461044FEF7E9
S3150800D3309BFFF26AD7F80031DB6A9A42D0D2D0E76F
S3150800D3400024CEE70B4B4FF0FF32DA62BBE7094AFF
S3150800D350D362B8E7074AD2F820310133C2F8203140
S3150800D3600024044BD3F8243103B101242046BDE838
S3150800D370F08100BF680200203A4BD3F8183153B940
S3150800D3804FF0100372B683F31188BFF36F8FBFF3A4
S3150800D3904F8F62B6FEE770B500F0B4FB314BD3F899
S3150800D3A01821013AC3F81821D3F81831002B54D1A3
S3150800D3B02C4BD3F8FC3023B9002400F0C9FB2046D7
S3150800D3C070BD0024274B5B692BB3264D2B6ADC689E
S3150800D3D004F11800FEF76EFF261D3046FEF76AFFB9
S3150800D3E0E36A01229A40D5F80C110A43C5F80C21C4
S3150800D3F005F1300003EB83039A0031461044FEF72B
S3150800D40033FFE26AD5F80031DB6A9A42DAD30122A1
S3150800D410C5F82421D6E70CB1FFF7A2FC114BD3F8C7
S3150800D420204164B1FFF720FF18B10E4B0122C3F863
S3150800D4302421013CF6D10B4B0022C3F82021094BCD
S3150800D440D3F824315BB1084B4FF080521A60BFF312
S3150800D4504F8FBFF36F8F0124AFE70024ADE7002499
S3150800D460ABE700BF6802002004ED00E010B5C0B1CC
S3150800D4700446104BD3F8183153B14FF0100372B667
S3150800D48083F31188BFF36F8FBFF34F8F62B6FEE742
S3150800D490FFF7D0FE00212046FFF78AFDFFF76CFF55
S3150800D4A038B9054B4FF080521A60BFF34F8FBFF360
S3150800D4B06F8F10BD6802002004ED00E0234BD3F8FF
S3150800D4C0183123B1214B0122C3F8242170471F4A82
S3150800D4D00023C2F82431D2F80C31B3FA83F3DBB255
S3150800D4E0C3F11F0303EB830081000A44126B52B990
S3150800D4F04FF0100372B683F31188BFF36F8FBFF333
