S01A000064656D6F70726F675F73746D3332663736372E737265638B
S31508008000000008206D8B0008BD8B0008BD8B00089A
S31508008010BD8B0008BD8B0008BD8B00080000000062
S31508008020000000000000000000000000BD8B0008F2
S31508008030BD8B000800000000BD8B0008F58B00080A
S31508008040BD8B0008BD8B0008BD8B0008BD8B0008E2
S31508008050BD8B0008BD8B0008BD8B0008BD8B0008D2
S31508008060BD8B0008BD8B0008BD8B0008BD8B0008C2
S31508008070BD8B0008BD8B0008BD8B0008BD8B0008B2
S31508008080BD8B0008BD8B0008BD8B0008BD8B0008A2
S31508008090BD8B0008BD8B0008BD8B0008BD8B000892
S315080080A0BD8B0008BD8B0008BD8B0008BD8B000882
S315080080B0BD8B0008BD8B0008BD8B0008BD8B000872
S315080080C0BD8B0008BD8B0008BD8B0008BD8B000862
S315080080D0BD8B0008BD8B0008BD8B0008BD8B000852
S315080080E0BD8B0008BD8B0008BD8B0008BD8B000842
S315080080F0BD8B0008BD8B0008BD8B0008BD8B000832
S31508008100BD8B0008BD8B0008BD8B0008BD8B000821
S31508008110BD8B0008BD8B0008BD8B0008BD8B000811
S31508008120BD8B0008BD8B0008BD8B0008BD8B000801
S31508008130BD8B0008BD8B0008BD8B0008BD8B0008F1
S31508008140BD8B0008BD8B0008BD8B0008BD8B0008E1
S31508008150BD8B0008BD8B0008BD8B0008BD8B0008D1
S31508008160BD8B0008BD8B0008BD8B0008BD8B0008C1
S31508008170BD8B0008BD8B0008BD8B00080000000001
S31508008180BD8B0008BD8B0008BD8B0008BD8B0008A1
S31508008190BD8B0008BD8B0008BD8B0008BD8B000891
S315080081A0BD8B0008BD8B0008BD8B0008BD8B000881
S315080081B0BD8B0008BD8B0008BD8B0008BD8B000871
S315080081C0BD8B0008BD8B000800000000BD8B0008B1
S315080081D0BD8B0008BD8B0008BD8B0008BD8B000851
S315080081E0BD8B0008BD8B0008BD8B0008BD8B000841
S311080081F0BD8B0008BD8B0008EE11AA55D7
S315080081FC10B5054C237833B9044B13B10448AFF3C7
S3150800820C00800123237010BD4C00002000000000E4
S3150800821C40BF000808B5034B1BB103490348AFF32D
S3150800822C008008BD000000005000002040BF000878
S3150800823C53B94AB9002908BF00281CBF4FF0FF31B3
S3150800824C4FF0FF3000F072B9ADF1080C6DE904CEB1
S3150800825C00F006F8DDF804E0DDE9022304B0704707
S3150800826C2DE9F047089E04468846002B4BD18A42D6
S3150800827C154667D9B2FA82F24AB1C2F1200701FA59
S3150800828C02F320FA07F7954047EA030894404FEAA9
S3150800829C154E230CB8FBFEF71FFA85FC0EFB178848
S315080082AC43EA084307FB0CF1994209D9EB1807F185
S315080082BCFF3080F01B81994240F21881023F2B4413
S315080082CC5B1AA4B2B3FBFEF00EFB103344EA03446C
S315080082DC00FB0CFCA44509D92C1900F1FF3380F0DE
S315080082EC0781A44540F2048102382C4440EA074031
S315080082FCA4EB0C0400271EB1D4400023C6E90043A6
S3150800830C3946BDE8F0878B4209D9002E00F0EB8080
S3150800831C0027C6E9000138463946BDE8F087B3FAA6
S3150800832C83F7002F47D18B4202D3824200F2FA80A0
S3150800833C841A61EB030301209846002EE0D0C6E9A7
S3150800834C0048DDE702B9FFDEB2FA82F2002A40F0F5
S3150800835C8F80491B4FEA154E1FFA85F80127B1FB8A
S3150800836CFEFC230C0EFB1C1143EA014308FB0CF123
S3150800837C994207D9EB180CF1FF3002D2994200F258
S3150800838CCD808446591AA3B2B1FBFEF00EFB10142D
S3150800839C43EA044408FB00F8A04507D92C1900F158
S315080083ACFF3302D2A04500F2B6801846A4EB0804A7
S315080083BC40EA0C409FE7C7F1200CBB4022FA0CFEA2
S315080083CC4EEA030E01FA07F420FA0CF521FA0CF31F
S315080083DC4FEA1E482543B3FBF8F92C0C08FB193356
S315080083EC1FFA8EFA44EA034309FB0AF49C4202FA82
S315080083FC07F200FA07F10BD91EEB030309F1FF305C
S3150800840C80F087809C4240F28480A9F1020973446B
S3150800841C1B1BADB2B3FBF8F008FB103345EA03445B
S3150800842C00FB0AFAA24508D91EEB040400F1FF3337
S3150800843C6BD2A24569D90238744440EA0940A0FBBC
S3150800844C0289A4EB0A044C45C2464B4654D351D078
S3150800845C002E69D0B1EB0A0564EB030404FA0CFC94
S3150800846CFD40FC404CEA0505C6E90054002747E7E1
S3150800847CC2F1200320FA03F7954001FA02F021FA1B
S3150800848C03F34FEA154E3843010CB3FBFEF71FFAFC
S3150800849C85F80EFB173341EA034107FB08F38B42B9
S315080084AC04FA02F407D9691807F1FF3C2FD28B425C
S315080084BC2DD9023F2944CB1A81B2B3FBFEF00EFB31
S315080084CC103341EA034100FB08F38B4207D96918BC
S315080084DC00F1FF3C17D28B4215D902382944C91A28
S315080084EC40EA07473BE73746304609E70746E7E6DB
S315080084FC1846FBE64145ABD2B8EB020A69EB0E020D
S3150800850C01381346A4E76046E9E7184695E7674637
S3150800851CD1E781467CE702382C4447E7ACF1020CDC
S3150800852C2B442FE7384608E73746E9E6704700BF7D
S3150800853C08B50948094B03604FF4614343600023AF
S3150800854C8360C36003610C2242618361C361036269
S3150800855C436201F06AFF08BD68000020004800402D
S3150800856C08B5002301220146034801F09DFC08B119
S3150800857C002008BD0120FCE76800002008B5FFF7BD
S3150800858CD7FF08BDBFF34F8F0549CA6802F4E062EE
S3150800859C044B1343CB60BFF34F8F00BFFDE700BFFF
S315080085AC00ED00E00400FA0508B5214B1B78B3B9B9
S315080085BC2048FFF7D5FF012800D008BD1D4B1B78B6
S315080085CC013BDBB23F2BF8D800F00AFB1A4B1860BC
S315080085DC174B01221A70194B00221A70EDE7174B2C
S315080085EC1B78013313481844FFF7BAFF012813D137
S315080085FC124A13780133DBB213700E4A127893427F
S3150800860CDBD10B4A002111700A4A5278FF2AD4D1C1
S3150800861C022BD2D1FFF7B6FF00F0E2FA064B1B6825
S3150800862C64339842C9D9024B00221A70C5E700BFB9
S3150800863C19010020D80000201C0100201A01002076
S3150800864C08B5FFF7B1FF08BD08B50022802102481E
S3150800865C01F086F808BD00BF0004024010B500F012
S3150800866CBFFA0D4B1B68C31A312B0CD904460B4B9E
S3150800867C1B784BB90122094B1A708021084801F066
S3150800868C6FF8054B1C6010BD0022044B1A70802134
S3150800869C034801F065F8F4E72401002020010020C6
S315080086AC00040240014A024B9A6070470080000899
S315080086BC00ED00E000B595B0214B1A6C42F08052E3
S315080086CC1A641B6C03F080530093009B1D4B1A68AD
S315080086DC42F440421A601B6803F440430193019B21
S315080086EC012307934FF48033089302230D934FF419
S315080086FC80020E9208220F924FF4D87210921193A0
S3150800870C129307A801F070F800B1FEE701F02EF8F5
S3150800871C00B1FEE70F23029302230393002304936D
S3150800872C4FF4A05305934FF480530693072102A8E0
S3150800873C01F0B0FA00B1FEE715B05DF804FB00BF16
S3150800874C003802400070004008B5FFF7ABFF00F098
S3150800875C77FAFFF7AFFF00F02DFAFFF775FF08BDA4
S3150800876C08B5FFF7F1FF00F0CFF900F0A7F8FFF70F
S3150800877C05FF0021084600F0DFF9FFF76FFF00F050
S3150800878CF7F8FFF75DFFF8E710B58EB0484B1A6C93
S3150800879C42F080521A641A6C02F080520192019AC5
S315080087AC5A6C42F480425A645A6C02F48042029221
S315080087BC029A1A6B42F001021A631A6B02F0010252
S315080087CC0392039A1A6B42F002021A631A6B02F0AE
S315080087DC02020492049A1A6B42F004021A631A6B88
S315080087EC02F004020592059A1A6B42F008021A6303
S315080087FC1A6B02F008020692069A1A6B42F04002AD
S3150800880C1A631A6B02F040020792079A1A6C42F422
S3150800881C80221A641B6C03F480230893089B03209C
S3150800882C00F040FA002211466FF00B0000F04CFAEB
S3150800883C002211466FF00A0000F046FA0022114693
S3150800884C6FF0090000F040FA002211466FF00400A0
S3150800885C00F03AFA002211466FF0030000F034FAE1
S3150800886C002211466FF0010000F02EFA0022114684
S3150800887C4FF0FF3000F028FA8023099301230A935E
S3150800888C00240B940C9409A90A4800F079FE4FF4BD
S3150800889C4073099302230A930B9403230C9307231F
S315080088AC0D9309A9044800F06BFE0EB010BD00BF6D
S315080088BC0038024000040240000C024010B501F0DA
S315080088CC71FE00F08DF900F5FA70134B186000F084
S315080088DC87F942F210730344104A136002F00CFA3B
S315080088EC0F4A0023138053800E4A138053800E4A76
S315080088FC138053804EF6030002F03EFA01F08EFE0A
S3150800890C0A4C204601F09EFE0621204602F02CF861
S3150800891C02F048F810BD00BF3401002028010020E1
S3150800892C2833002024330020203300202C0100207B
S3150800893C08B50C4B1B7813F0400F09D113F0020F36
S3150800894C06D0094B1B68094A12881B79FF2B00D0E5
S3150800895C08BD062AFCD10121002000F0EDF8FFF72E
S3150800896C11FEF5E7EC320020F4320020E03200204C
S3150800897C10B501F077FEB0B900F032F93A4B1B6826
S3150800898C984209D303F5FA73374A13600024002C6E
S3150800899C36D00024002C4AD000F022F9334B1B6841
S315080089AC984259D210BD324A1080324B9C894FF4EA
S315080089BC006002F0F9F9844213D02E4B9C8940F6DC
S315080089CC060002F0F1F98442D6D103F03FF9284BA0
S315080089DC1B88002BD0D001F06FFE254B00221A8085
S315080089ECCAE7012002F01AFA214B1B88002BC3D0C8
S315080089FC03F09CF901F060FE1D4B00221A80BBE7C0
S31508008A0CC4EB041253001C4A13441C4A136002207C
S31508008A1C02F004FA164B1B880BB90134B7E703F0BE
S31508008A2C85F901F049FE124B00221A80F5E7144B22
S31508008A3C03EB8413134A1360052002F0EFF90C4B71
S31508008A4C1B880BB90134A5E703F070F901F034FE65
S31508008A5C074B00221A80F5E742F210721A44034BB0
S31508008A6C1A6003F0BFF89DE73401002028010020A6
S31508008A7CE03200202C330020FC320020F832002093
S31508008A8C70390020F03200200B4B1B68C3F307200B
S31508008A9C50FA83F2C3F30740104400EB136000232B
S31508008AAC05E0054A1A441279104480B20133372B73
S31508008ABCF7D9404280B270470000002008B5FFF78E
S31508008ACCE3FF044B9B8F984201D0002008BD012080
S31508008ADCFCE700BF0000002008B5054B1A68054BDB
S31508008AEC9A4201D0002008BDFFF7E8FFFBE700BF5C
S31508008AFC00000020A2E742CE08B5FFF7C5FF014BE0
S31508008B0C988708BD0000002008B5FFF7E5FF68B98F
S31508008B1C074B084A1A60002304E0054A1A44002148
S31508008B2C11710133372BF8D9FFF7E6FF08BD00BFE3
S31508008B3C00000020A2E742CE70B505460E46FFF7A8
S31508008B4CCBFF044610B1372D02D90024204670BD40
S31508008B5C024B1D442E71FFF7CFFFF7E700000020EC
S31508008B6CDFF834D0002103E00C4B5B58435004313A
S31508008B7C0B480C4B42189A42F6D30B4A02E00023D8
S31508008B8C42F8043B094B9A42F9D301F081FC03F0F5
S31508008B9C8BF9FFF7E5FD70470000082090BF000829
S31508008BAC400000204C0000204C000020B03900206A
S31508008BBCFEE7000008B501F01FF9084BA3FB0030CF
S31508008BCC800900F0B3F8042000F0C6F8002211461C
S31508008BDC4FF0FF3000F078F808BD00BFD34D621097
S31508008BEC08B500F045F808BD08B500F035F800F0F2
S31508008BFCC4F808BD10B504460E4B18784FF47A73B2
S31508008C0CB3FBF0F30C4A1068B0FBF3F000F08EF8E7
S31508008C1C68B90F2C01D901200AE0002221464FF031
S31508008C2CFF3000F051F8054B1C60002000E00120D5
S31508008C3C10BD00BF40000020480000204400002062
S31508008C4C08B5032000F02EF80020FFF7D3FFFFF736
S31508008C5C9BFD002008BD0000034A1168034B1B78D6
S31508008C6C0B441360704700BFF4010020400000203D
S31508008C7C014B1868704700BFF401002038B504464C
S31508008C8CFFF7F6FF0546B4F1FF3F02D0044B1B78FD
S31508008C9C1C44FFF7EDFF401BA042FAD338BD00BFBA
S31508008CAC400000200649CB6823F4E0631B041B0C28
S31508008CBC000200F4E0600343024A1A43CA60704794
S31508008CCC00ED00E00000FA0530B4154BDB68C3F381
S31508008CDC0223C3F10704042C28BF04241D1D062DEA
S31508008CEC14D9033B4FF0FF3505FA04F421EA0401C5
S31508008CFC994005FA03F322EA03031943002807DB14
S31508008D0C0901C9B2074B195430BC70470023E9E76F
S31508008D1C00F00F000901C9B2034B1954F4E700BF60
S31508008D2C00ED00E000E400E014ED00E00138B0F1DD
S31508008D3C807F0AD2064B5860064AF02182F8231027
S31508008D4C0020986007221A6070470120704700BF00
S31508008D5C10E000E000ED00E0042805D0054A136891
S31508008D6C23F0040313607047024A136843F00403A4
S31508008D7C1360704710E000E0704708B5FFF7FCFF7A
S31508008D8C08BD00005079137943EA002307480B50B5
S31508008D9CD07893781B0443EA0063507843EA00239F
S31508008DAC12781343024A8B50704700BF408002402A
S31508008DBC44800240016841F218028B5843F4005370
S31508008DCC8B507047016841F218028B5843F0020326
S31508008DDC8B50704770B59EB0044629B14FF40063AA
S31508008DECC3604FF480438360E369002B68D14FF46A
S31508008DFC8063079321680B68374A1A40A368E068B2
S31508008E0C03430798034343F4007313430B60236827
S31508008E1C1D680120FFF732FF23681D602368402276
S31508008E2C5A6023685D680120FFF728FF23685D6098
S31508008E3C236800259D602368DD602268936923F00A
S31508008E4CBE031B041B0C43F08003936123689E69C5
S31508008E5C0120FFF713FF23689E612368DD612368F1
S31508008E6CDD690120FFF70AFF2368DD61216841F2FD
S31508008E7C18054B59194A1A40194B13434B51236879
S31508008E8C5E590120FFF7FAFE23685E51236803F545
S31508008E9C8053144A1A60236803F580531D68012011
S31508008EACFFF7ECFE236803F580531D60A369012BBD
S31508008EBC09D0626900212046FFF764FF1EB070BD19
S31508008ECC0023079396E7216841F21C028858064B43
S31508008EDC03438B50EDE700BF0F8120FF233FDEF8DD
S31508008EEC040020028020C1024000010010B582B0A7
S31508008EFC0446002301930268136843F008031360C1
S31508008F0C03681B6801930120FFF7B8FE2368019AD2
S31508008F1C1A6002B010BD10B582B004460023019346
S31508008F2C0268136843F00403136003681B68019313
S31508008F3C0120FFF7A3FE2368019A1A6002B010BD40
S31508008F4C30B583B0054600230193026841F2180434
S31508008F5C135943F48013135103681B5901930120C9
S31508008F6CFFF78CFE2B68019A1A5103B030BDF0B48A
S31508008F7C90F84540012C31D0012480F84540022454
S31508008F8C80F84440C162002401E0F96001349C4237
S31508008F9C17D265014F194FF480164E5140F2F4560C
S31508008FAC06FB0426BE60C6691EB94E5946F4400631
S31508008FBC4E515D1EA542E8D9651C01EB4515FD60B1
S31508008FCCE4E7026841F21003D150012380F84430DB
S31508008FDC002380F845301846F0BC70470220FBE7A2
S31508008FECF0B490F84540012C2ED0012480F8454069
S31508008FFC022480F844408162002401E0E9600134CF
S3150800900C9C4214D266018D194FF000478F5144F2D9
S3150800901CF4566E6040F2F45606FB0426AE605E1EED
S3150800902CA642EBD9661C01EB4616EE60E7E702682A
S3150800903C41F20C03D150012380F84430002380F808
S3150800904C45301846F0BC70470220FBE790F84530CF
S3150800905C012B00F08580012380F84530022380F827
S3150800906C4430B1B1C36A1A68002A1ADB30B440F22C
S3150800907CF45291421DD93B4AA2FB0142920A40F294
S3150800908CF45404FB121404B10132012A11D0002342
S3150800909C47E0012380F84430002280F84520184622
S315080090AC7047122380F84430002380F8453001209D
S315080090BC70471A6842F040521A60C36AC1F30C0131
S315080090CC5960C26A136843F000431360C36ADB68CD
S315080090DCC362036841F214029A5812F0040F08D0BE
S315080090EC41F2140204219950026841F2040300214A
S315080090FCD150012380F84430002380F845301846B7
S3150800910C30BC7047C56A2C6844F080542C6011E05A
S3150800911CC56A2C6844F000442C60C46AE468C462CE
S3150800912C01339A42D5D9C56A2C6824F040542C6070
S3150800913C002BE7D0C46A40F2F4556560541E9C4275
S3150800914CE6D1C56A2C6844F000542C60064C04FB26
S3150800915C021404F2F454C56AC4F30C046C60D7E721
S3150800916C022070470BB002AC0CFAFFFF90F84530A2
S3150800917C012B40D0012380F84530022380F8443077
S3150800918C836A1A68002A28DB1A6812F4807F19D0B9
S3150800919C826B01328263012A12D043631A68C2F3C6
S315080091AC0D42043AC263026B92680264DB688362FE
S315080091BC012380F84430002380F845301846704760
S315080091CC0363EAE71A6812F4007F0ED003630022E1
S315080091DC426301228263DB688362012380F8443090
S315080091EC002280F8452018467047826B013282634C
S315080091FCDB688362F1E702207047F8B590F84430D3
S3150800920CDBB2822B33D016460546822380F84430CF
S3150800921C0268136903F01C03048AE402A4B223430C
S3150800922C8C0104F4F8641C4344F001041461FFF740
S3150800923C1FFD074614F0010F10D0FFF719FDC01BD0
S3150800924CB0F5803F02D22B681C69F3E7012385F839
S3150800925C4430002385F84530032007E02B685B690A
S3150800926C9BB23360012385F844300020F8BD0220F8
S3150800927CFCE790F84430DBB2422B32D070B5054689
S3150800928C422380F844300068036903F01C032C8AD7
S3150800929CE402A4B223438C0104F4F8641C4344F09E
S315080092AC030492B242612B681C61FFF7E1FC064687
S315080092BC14F0010F10D0FFF7DBFC801BB0F5803FD4
S315080092CC02D22B681C69F3E7012385F84430002386
S315080092DC85F84530032003E0012385F84430002047
S315080092EC70BD02207047000070B582B00023019350
S315080092FC002800F00C81044690F84430002B32D03C
S3150800930C844B5A6C42F480425A645B6C03F4804377
S3150800931C0093009B804B5A6822F400025A605A68E4
S3150800932C216A0A435A60236803F580531A6842F087
S3150800933C01021A60FFF79CFC0546236803F5805268
S3150800934C126812F0010F13D0FFF792FC401BB0F510
S3150800935CFA7FF2D9032584F84450002384F8453063
S3150800936C284602B070BD80F8453001F0BDF8C7E755
S3150800937C1D6925F01C0500F03FFD684B0344684A3F
S3150800938C934255D845F0080523681D614FF40042F1
S3150800939C00212046FFF76DFF0546002860D1FF2007
S315080093ACFFF76CFC6368002B00F09180FFF760FCFC
S315080093BC064601AA01212046FFF71FFFFFF758FCB6
S315080093CC801B41F28833984252D8019B13F0040F44
S315080093DCEFD04FF4805200212046FFF74AFF0028B1
S315080093EC52D1FFF745FC064601AA01212046FFF794
S315080093FC04FFFFF73DFC801B41F2883398424BD89B
S3150800940C019B13F0200FEFD001AA10212046FFF77D
S3150800941CF4FE00284CD1019B13F0040F50D04FF4E6
S3150800942C0062E26013F0020F4DD00023A3605EE0E9
S3150800943C3C4B03443C4A934202D845F00C05A3E73F
S3150800944C3A4B03443A4A93429ED93A4B03443A4A16
S3150800945C934202D845F0040596E745F0100593E7C4
S3150800946C01212046FFF7B6FC012584F8445077E71E
S3150800947C01212046FFF7AEFC012384F84430002373
S3150800948C84F8453003256BE701212046FFF7A2FC3B
S3150800949C012584F8445063E701212046FFF79AFC1E
S315080094AC012384F84430002384F84530032557E714
S315080094BC01212046FFF78EFC012584F844504FE71E
S315080094CC0022E260AEE74FF48043A3600FE0E26847
S315080094DCC2F3CF02A368C3F34F031A4300212046F5
S315080094ECFFF7C7FE58B940F6FF70FFF7C7FB002118
S315080094FC2046FFF76FFC012384F8443030E701213E
S3150800950C2046FFF767FC012584F8445028E7012517
S3150800951C26E700BF003802400038014000D3CEFED3
S3150800952CBFE1E40040F1E9FD3F787D0100796CFC70
S3150800953CFF596202001F0AFA7FF0FA0238B590F852
S3150800954C4530012B1AD00446012580F845500223D4
S3150800955C80F84430FFF7CAFC2046FFF7DCFC2046AF
S3150800956CFFF7EEFC2046FFF725FC2046FFF72AFC02
S3150800957C84F84450002084F8450038BD0220FCE7E6
S3150800958C00230F2B00F2E280F0B482B039E00922F6
S3150800959C00E00022B2403A4302346D4E46F82420CD
S315080095AC6C4A1468EA4302EA04064F6817F4803FCB
S315080095BC01D045EA0406674C2660646802EA04068C
S315080095CC4F6817F4003F01D045EA0406614C666003
S315080095DCA46802EA04064F6817F4801F01D045EA0E
S315080095EC04065C4CA660E46822404E6816F4001F1C
S315080095FC01D045EA0402574CE26001330F2B00F206
S3150800960CA28001229A400C6804EA0205AA42F4D107
S3150800961C4C68122C18BF022C10D1DE08083650F8EC
S3150800962C26C003F00704A7000F24BC402CEA040C40
S3150800963C0C69BC4044EA0C0440F8264004685F00F8
S3150800964C0326BE40F64306EA040C4C6804F00304F1
S3150800965CBC4044EA0C0404604C6804F1FF3C112C31
S3150800966C18BFBCF1010F01D9122C11D1846806EA76
S3150800967C040CCC68BC4044EA0C048460446824EAB4
S3150800968C020C4C68C4F300129A4042EA0C0242607F
S3150800969CC26816408A68BA403243C2604A6812F0F9
S315080096AC805FAAD02C4A546C44F480445464526C9F
S315080096BC02F480420192019A9C08A61C244A52F88C
S315080096CC267003F0030296000F22B24027EA02071F
S315080096DC224A90423FF45DAF02F58062904222D056
S315080096EC02F58062904220D002F5806290421ED02C
S315080096FC02F5806290421CD002F5806290421AD024
S3150800970C02F58062904218D002F58062904216D01B
S3150800971C02F58062904214D002F5806290423FF4C2
S3150800972C36AF0A2236E7012234E7022232E7032251
S3150800973C30E704222EE705222CE706222AE7072221
S3150800974C28E7082226E702B0F0BC7047704700BF2E
S3150800975C00380140003C014000380240000002403D
S3150800976C12B90904816170478161704710B582B0DE
S3150800977C1B4B1A6C42F080521A641B6C03F0805314
S3150800978C0193019B174A136843F480331360FFF760
S3150800979C6FFA0446134B5B6813F4803F08D1FFF746
S315080097AC67FA001BB0F57A7FF4D9032002B010BD16
S315080097BC0C4A136843F400331360FFF759FA04464E
S315080097CC084B5B6813F4003F07D1FFF751FA001BEF
S315080097DCB0F57A7FF4D90320E8E70020E6E700BF66
S315080097EC0038024000700040002800F0DC8170B59B
S315080097FC82B00446036813F0010F29D0A24B9B686C
S3150800980C03F00C03042B1AD09F4B9B6803F00C0334
S3150800981C082B0FD06368B3F5803F40D0002B54D18A
S3150800982C994B1A6822F480321A601A6822F480223C
S3150800983C1A6039E0944B5B6813F4800FEAD0924BAC
S3150800984C1B6813F4003F03D06368002B00F0AD814E
S3150800985C236813F0020F75D08B4B9B6813F00C0F13
S3150800986C5ED0894B9B6803F00C03082B53D0E36836
S3150800987C002B00F08A80844A136843F001031360B6
S3150800988CFFF7F6F90546804B1B6813F0020F73D1E8
S3150800989CFFF7EEF9401B0228F5D9032088E17A4A2E
S315080098AC136843F48033136063682BB3FFF7E0F94E
S315080098BC0546754B1B6813F4003FC9D1FFF7D8F959
S315080098CC401B6428F5D9032072E1B3F5A02F09D003
S315080098DC6D4B1A6822F480321A601A6822F48022B8
S315080098EC1A60E1E7684B1A6842F480221A601A6813
S315080098FC42F480321A60D7E7FFF7BAF90546624B8D
S3150800990C1B6813F4003FA3D0FFF7B2F9401B642879
S3150800991CF5D903204CE15C4B5B6813F4800FA6D198
S3150800992C594B1B6813F0020F04D0E368012B01D0C6
S3150800993C01203DE1544A136823F0F803216943EAF0
S3150800994CC1031360236813F0080F46D0636983B309
S3150800995C4D4A536F43F001035367FFF789F90546E0
S3150800996C494B5B6F13F0020F37D1FFF781F9401B98
S3150800997C0228F5D903201BE1434A136823F0F803A0
S3150800998C216943EAC1031360DCE73F4A136823F0F5
S3150800999C01031360FFF76CF905463B4B1B6813F084
S315080099AC020FCFD0FFF764F9401B0228F5D9032024
S315080099BCFEE0354A536F23F001035367FFF758F956
S315080099CC0546314B5B6F13F0020F06D0FFF750F9C3
S315080099DC401B0228F5D90320EAE0236813F0040F8C
S315080099EC7ED0294B1B6C13F0805F1ED1264B1A6C4C
S315080099FC42F080521A641B6C03F080530193019B4E
S31508009A0C0125224B1B6813F4807F10D0A368012B09
S31508009A1C21D0002B3CD11C4B1A6F22F001021A677D
S31508009A2C1A6F22F004021A671AE00025E9E7174AAA
S31508009A3C136843F480731360FFF71AF90646134B41
S31508009A4C1B6813F4807FE1D1FFF712F9801B642899
S31508009A5CF5D90320ACE00C4A136F43F001031367E6
S31508009A6CA3685BB3FFF704F90646074B1B6F13F0A5
S31508009A7C020F34D1FFF7FCF8801B41F28833984269
S31508009A8CF3D9032094E000BF003802400070004070
S31508009A9C052B09D0484B1A6F22F001021A671A6F68
S31508009AAC22F004021A67DBE7434B1A6F42F00402F2
S31508009ABC1A671A6F42F001021A67D1E7FFF7D8F84E
S31508009ACC06463D4B1B6F13F0020F08D0FFF7D0F874
S31508009ADC801B41F288339842F3D9032068E0F5B924
S31508009AECA369002B63D0344A926802F00C02082A48
S31508009AFC60D0022B19D0304A136823F08073136098
S31508009B0CFFF7B6F804462C4B1B6813F0007F48D0B9
S31508009B1CFFF7AEF8001B0228F5D9032048E0264AC1
S31508009B2C136C23F080531364DAE7234A136823F083
S31508009B3C80731360FFF79CF805461F4B1B6813F0E0
S31508009B4C007F06D0FFF794F8401B0228F5D90320AE
S31508009B5C2EE0E369226A1343626A43EA8213A26A15
S31508009B6C5208013A43EA0243E26A43EA0263226B69
S31508009B7C43EA0273104A5360136843F08073136008
S31508009B8CFFF776F804460C4B1B6813F0007F06D1DA
S31508009B9CFFF76EF8001B0228F5D9032008E0002011
S31508009BAC06E0002004E001207047012000E00020B8
S31508009BBC02B070BD0120FBE700380240324B9B68AF
S31508009BCC03F00C03042B5CD0082B01D02F487047EC
S31508009BDC2DE9F04B2C4B5A6802F03F025B6813F4E4
S31508009BEC800F2BD0284B5B68C3F388131E460027BF
S31508009BFC5C010025E41A65EB0705A90141EA9461A5
S31508009C0CA001001B61EB0501CB0043EA5073C400AD
S31508009C1CA01943EB07014B0243EAD05344022046F2
S31508009C2C19460023FEF704FB174B5B68C3F3014385
S31508009C3C01335B00B0FBF3F0BDE8F08B124B5B68AD
S31508009C4CC3F388131E4600275C010025E41A65EB4E
S31508009C5C0705A90141EA9461A001001B61EB050106
S31508009C6CCB0043EA5073C400A01943EB07018B02DF
S31508009C7C43EA90538402204619460023FEF7D8FA85
S31508009C8CD2E70348704700BF003802400024F400AE
S31508009C9C00127A00002800F0A28070B50446524BD8
S31508009CAC1B6803F00F038B420CD24F4A136823F040
S31508009CBC0F030B431360136803F00F038B4201D099
S31508009CCC012070BD236813F0020F17D013F0040F90
S31508009CDC04D0464A936843F4E0539360236813F020
S31508009CEC080F04D0414A936843F4604393603F4A93
S31508009CFC936823F0F003A068034393600D4623682A
S31508009D0C13F0010F31D06368012B20D0022B25D01C
S31508009D1C364A126812F0020F63D034498A6822F068
S31508009D2C030213438B60FEF7A3FF06462F4B9B6873
S31508009D3C03F00C036268B3EB820F16D0FEF798FF9C
S31508009D4C801B41F288339842F0D90320B9E7274A99
S31508009D5C126812F4003FE0D10120B2E7234A1268D8
S31508009D6C12F0007FD9D10120ABE71F4B1B6803F01B
S31508009D7C0F03AB420CD91C4A136823F00F032B4371
S31508009D8C1360136803F00F03AB4201D0012098E768
S31508009D9C236813F0040F06D0144A936823F4E0538F
S31508009DACE1680B439360236813F0080F07D00F4A3A
S31508009DBC936823F46043216943EAC1039360FFF770
S31508009DCCFDFE0A4B9B68C3F30313094AD35CD840C0
S31508009DDC084B18600020FEF70DFF002071E70120E4
S31508009DEC704701206DE700BF003C02400038024076
S31508009DFC58BF000848000020014B1868704700BF80
S31508009E0C4800002008B5FFF7F7FF044B9B68C3F31F
S31508009E1C8223034AD35CD84008BD00BF00380240F1
S31508009E2C68BF000808B5FFF7E7FF044B9B68C3F348
S31508009E3C4233034AD35CD84008BD00BF0038024001
S31508009E4C68BF000870472DE9F04105460F461646CF
S31508009E5C9846069C2B68DB6937EA03030CBF01237B
S31508009E6C0023B3421DD1B4F1FF3FF3D02CB1FEF75A
S31508009E7CFFFEA0EB0800A042ECD32A68136823F473
S31508009E8CD07313602A68936823F001039360202328
S31508009E9C85F8693085F86A30002385F86830032020
S31508009EAC00E00020BDE8F0812DE9F04182B01E46A5
S31508009EBC90F86A30DBB2202B75D104460D469046D5
S31508009ECCB2FA82F35B09002908BF0123002B6ED175
S31508009EDC90F86830012B6CD0012380F86830002389
S31508009EECC366222380F86A30FEF7C2FE0746A4F83A
S31508009EFC5880A4F85A80A368B3F5805F06D0A3B936
S31508009F0C236973B9FF23A4F85C3011E0236923B9DC
S31508009F1C40F2FF13A4F85C300AE0FF23A4F85C3087
S31508009F2C06E07F23A4F85C3002E0B3F1805F02D030
S31508009F3CB4F85C8010E023691BB97F23A4F85C3065
S31508009F4CF6E73F23A4F85C30F2E723685A6A5FFA0F
S31508009F5C88F313402B700135B4F85A309BB2DBB139
S31508009F6CB4F85A30013B9BB2A4F85A3000963B46DB
S31508009F7C002220212046FFF766FFE0B9A368B3F557
S31508009F8C805FE2D12369002BDFD123685B6A08EA7C
S31508009F9C030325F8023BDFE7202384F86A30002008
S31508009FAC84F8680000E0022002B0BDE8F0810120C8
S31508009FBCFAE70220F8E70320F6E7000010B5044696
S31508009FCC83680269134342691343C26913430168E0
S31508009FDC08689D4A024013430B602268536823F4B1
S31508009FEC4053E1680B435360A369226A1A432168FC
S31508009FFC8B6823F4306313438B602368934A93422C
S3150800A00C19D0934A93422AD0924A934240D0924A04
S3150800A01C934255D0914A93426AD0914A934200F0A2
S3150800A02C8280904A934200F099808F4A934200F0BE
S3150800A03CB0801022C9E002F59432D2F8902002F0D2
S3150800A04C0302032A03D8DFE802F0BF06040810222D
S3150800A05CBBE00222B9E00422B7E00822B5E002F51B
S3150800A06CFA32D2F8902002F00C020C2A08D8DFE853
S3150800A07C02F0BA0707070B070707090707070D00BA
S3150800A08C1022A2E00222A0E004229EE008229CE014
S3150800A09C02F5F832D2F8902002F03002102A0DD0D0
S3150800A0AC05D9202A08D0302A04D108228DE00AB90D
S3150800A0BC00228AE0102288E0022286E0042284E04C
S3150800A0CC02F5F632D2F8902002F0C002402A0DD0E2
S3150800A0DC05D9802A08D0C02A04D1082275E00AB905
S3150800A0EC002272E0102270E002226EE004226CE07C
S3150800A0FC02F5F432D2F8902002F44072B2F5807F61
S3150800A10C0FD007D9B2F5007F09D0B2F5407F04D13C
S3150800A11C08225AE00AB9002257E0102255E002221A
S3150800A12C53E0042251E002F59232D2F8902002F460
S3150800A13C4062B2F5806F0FD007D9B2F5006F09D01F
S3150800A14CB2F5406F04D108223FE00AB901223CE07F
S3150800A15C10223AE0022238E0042236E002F5E03218
S3150800A16CD2F8902002F44052B2F5805F0FD007D98E
S3150800A17CB2F5005F09D0B2F5405F04D1082224E09D
S3150800A18C0AB9002221E010221FE002221DE0042257
S3150800A19C1BE002F5DE32D2F8902002F44042B2F50A
S3150800A1AC804F0FD007D9B2F5004F09D0B2F5404F02
S3150800A1BC04D1082209E00AB9002206E0102204E0BC
S3150800A1CC022202E0042200E00122E169B1F5004F07
S3150800A1DC0BD0082A00F29B80DFE802F0616D7999B2
S3150800A1EC839999998F000022EFE7082A54D8DFE85B
S3150800A1FC02F0051722533F5353534A00FFF702FE4A
S3150800A20C6268530803EB4003B3FBF2F39BB20020DE
S3150800A21C23F00F02C3F3420313432268D36010BD25
S3150800A22CFFF700FE6268530803EB4003B3FBF2F337
S3150800A23C9BB20020ECE762680C4B03EB5203B3FBB2
S3150800A24CF2F39BB20020E3E7F369FFEF001001403D
S3150800A25C0044004000480040004C004000500040BC
S3150800A26C0014014000780040007C00400048E801DA
S3150800A27CFFF7A4FC6268530803EB4003B3FBF2F345
S3150800A28C9BB20020C4E76268530803F58033B3FB1E
S3150800A29CF2F39BB20020BBE701200023B8E7FFF7D7
S3150800A2ACB1FD636800EB5300B0FBF3F0236880B292
S3150800A2BCD8600020B3E7FFF7B5FD636800EB5300E1
S3150800A2CCB0FBF3F0236880B2D8600020A7E761687A
S3150800A2DC104A02EB5102B2FBF1F292B2DA6000209C
S3150800A2EC9DE7FFF76BFC636800EB5300B0FBF3F0DC
S3150800A2FC236880B2D860002091E761684A0802F5A5
S3150800A30C0042B2FBF1F292B2DA60002087E7012034
S3150800A31C85E700BF0024F400436A13F0010F06D04A
S3150800A32C0268536823F40033816A0B435360436A0B
S3150800A33C13F0020F06D00268536823F48033C16AFF
S3150800A34C0B435360436A13F0040F06D00268536834
S3150800A35C23F48023016B0B435360436A13F0080FF5
S3150800A36C06D00268536823F40043416B0B435360D1
S3150800A37C436A13F0100F06D00268936823F48053CF
S3150800A38C816B0B439360436A13F0200F06D0026867
S3150800A39C936823F40053C16B0B439360436A13F021
S3150800A3AC400F0AD00268536823F48013016C0B43E0
S3150800A3BC5360036CB3F5801F0BD0436A13F0800F00
S3150800A3CC06D00268536823F40023816C0B43536050
S3150800A3DC70470268536823F4C003416C0B435360FF
S3150800A3ECEBE710B582B004460023C366FEF740FCC3
S3150800A3FC2268126812F0080F09D1202384F86930F4
S3150800A40C84F86A30002084F8680002B010BD6FF03A
S3150800A41C7E430093034600224FF400112046FFF7B3
S3150800A42C12FD0028E9D00320EFE778B310B50446EF
S3150800A43C90F869300BB3242384F8693022681368C2
S3150800A44C23F0010313602046FFF7B8FD012813D04B
S3150800A45C636ABBB92268536823F490435360226835
S3150800A46C936823F02A0393602268136843F0010368
S3150800A47C13602046FFF7B5FF10BD80F86830FFF76C
S3150800A48CE1FCD8E72046FFF747FFE3E701207047D2
S3150800A49C10B40F4AD2F8883043F47003C2F88830E7
S3150800A4AC0C4B196841F001011960002098601C6872
S3150800A4BC09492140196009495960196821F4802114
S3150800A4CC1960D8604FF0006393605DF8044B7047D1
S3150800A4DC00ED00E000380240FFFFF6FE10300024C5
S3150800A4EC08B5FEF77DFB08BD0268294B9A4200D0D9
S3150800A4FC7047F0B589B0A3F590431A6B42F0007219
S3150800A50C1A631A6B02F000720092009A1A6B42F0E8
S3150800A51C80621A631A6B02F080620192019A1A6BB6
S3150800A52C42F000621A631B6B03F000630293029BF2
S3150800A53C32230393022704970026059603250695CE
S3150800A54C0B24079403A91348FFF71AF886230393D9
S3150800A55C049705960695079403A90F48FFF710F874
S3150800A56C4FF400530393049705960695079403A98D
S3150800A57C0A48FFF705F84FF42053039304970596FA
S3150800A58C0695079403A90648FEF7FAFF09B0F0BD2D
S3150800A59C008002400008024000000240000402400D
S3150800A5AC0018024010B5164B08221A7000225A7071
S3150800A5BC272199706921D9705B2119714521597127
S3150800A5CC104C114921600121616022826361A261EC
S3150800A5DCE2614FF4000323622046FEF785FE04234E
S3150800A5EC0A4A0B492046FEF7C2FC0423094A0A49C3
S3150800A5FC2046FEF7F5FC2046FEF7A0FF10BD00BF6F
S3150800A60C38010020C81A002000800240101B0020C8
S3150800A61CF801002078020020481A0020074A117811
S3150800A62C074B19705178597091789970D178D970FF
S3150800A63C1179197152795A71704700BF3801002087
S3150800A64C80010020064B1A7802705A7842709A7864
S3150800A65C8270DA78C2701A7902715B794371704725
S3150800A66C3801002038B51248FEF780FD10B10024D9
S3150800A67C204638BD0E4DAC8F2246296C0D4801F08C
S3150800A68C46FC2A6B136843F0004313600023AB6344
S3150800A69C2B6841F214029A5812F0800FE8D041F256
S3150800A6AC14028021995041F2080200219950DFE7E3
S3150800A6BCC81A00202C33002038B5184BDC6AFEF774
S3150800A6CC8FFA00F1FA052368002B05DAFEF788FAEB
S3150800A6DCA842F8D9002300E0012383B90F4B1B6865
S3150800A6EC41F214029A5812F0200F07D041F21402C4
S3150800A6FC2021995041F204020021995038BD084B8B
S3150800A70C1D88064CE36A2A460649986801F0FFFB41
S3150800A71C29462046FEF79AFCE0E700BFC81A002037
S3150800A72CE03200202C3300203523037001234370BC
S3150800A73C817003307047000036230370042343707E
S3150800A74C024BDB69C0F80230063070474001002026
S3150800A75C3223037004234370024B5B6AC0F8023041
S3150800A76C06307047400100203723037003234370DB
S3150800A77C01228270C3700623037105307047FF23CC
S3150800A78C03700130704700000346014400208B42D9
S3150800A79C34D210B410E0362A23D0FF2A2BD0352A0F
S3150800A7AC05D1987803E0D3F80240154A94625A7892
S3150800A7BC023213448B421ED21A78332A16D0EAD8A0
S3150800A7CC032A04D0062A07D0012AF0D1EBE7D3F8DE
S3150800A7DC02400B4A1463EAE7D3F80240084AD462EB
S3150800A7ECE5E7D3F80240064AD461E0E7D3F802401D
S3150800A7FC034A1462DBE75DF8044B7047704700BFE9
S3150800A80C40010020074B828C1A80C28C5A80064B5A
S3150800A81C028D1A80428D5A80044B028E1A80428E03
S3150800A82C5A80704728330020243300202033002018
S3150800A83CF8B50446012303704370184B9A69827065
S3150800A84C0025C570164A1268426005818027478123
S3150800A85C144A1268C2600561456185619E69324673
S3150800A86C59691C3001F053FB06F118002044C6F157
S3150800A87C10022946043001F055FB4022294604F102
S3150800A88C2C0001F04FFB3A46294604F16C0001F006
S3150800A89C49FB054B1B68C4F8EC30F8BD4001002099
S3150800A8AC74BF00082833002070BF000838B50A4C5E
S3150800A8BC25682846FFF7BCFF012105F1F000FFF7D4
S3150800A8CC33FFFFF751FFFFF75AFF2368C11A1846E3
S3150800A8DC01F0F4F838BD00BFF432002038B50B4C43
S3150800A8EC25682846FFF7A4FF032105F1F000FFF7BA
S3150800A8FC1BFFFFF721FFFFF72BFFFFF740FF23682E
S3150800A90CC11A184601F0DAF838BD00BFF432002037
S3150800A91C10B5114B1C682378022B01D0002010BDF2
S3150800A92C04220E49A01801F0E3FA98B90C4B9A695F
S3150800A93C596904F11C0001F0DBFA08B10020EEE7B6
S3150800A94C2269074B5A62074B198804F1F000FFF786
S3150800A95C1BFFE4E70020E2E7F432002074BF00088E
S3150800A96C40010020E032002010B582B00C4C60612A
S3150800A97CA1610023A3704FF6FF73ADF80430ADF850
S3150800A98C06304FF4864101A801F048F8606010B112
S3150800A99C4FF488438380024B00221A8002B010BD04
S3150800A9AC40010020024B00221A805A80704700BFD3
S3150800A9BC2833002038B5984B1B88B3F5937F15D0F0
S3150800A9CC59D840F20F12934200F09A80B3F5887F5B
S3150800A9DC47D3B3F5887F00F0978040F2251293424F
S3150800A9EC40F015818C4B4FF493721A808B4B1B7865
S3150800A9FC13F0020F00F0CB80884B1B7813F0020F74
S3150800AA0C40F0CD80844B1B6942F21072934200F3DE
S3150800AA1CCF80814A03F57A7313619378032B40F040
S3150800AA2CA9807D48FFF7EEFE7B4D288C00F0BCF91B
S3150800AA3C0404688C00F0B8F9204340084FF47A7483
S3150800AA4C04FB00F00028C0F2B7802861724C21691B
S3150800AA5C04F1080001F014FA40F255132380032080
S3150800AA6C75E0002B40F0D3806B4B01229A704FF4A3
S3150800AA7C7A721A615FE0B3F5AB7F3AD030D9B3F589
S3150800AA8CB57F00F0A78040F26B12934240F0BF806E
S3150800AA9C624B1B7813F0020F00F0A1805F4B1B78FA
S3150800AAAC13F0020F40F0A3805B4B1B6942F2107245
S3150800AABC934200F3A880584A03F57A731361937886
S3150800AACC032B00F09C80FFF709FF534C216904F116
S3150800AADC080001F0D5F94FF4B5732380032036E04E
S3150800AAEC40F25512934240F092804B4B4FF4AB72A6
S3150800AAFC1A804B4801F0CBF9002862D1002026E0D9
S3150800AB0C454B4FF488721A80444B1B7813F0020F8E
S3150800AB1C1ED0424B1B7813F0020F20D13E4B1B69FB
S3150800AB2C4EF65F22934202DC5B003B4A13613A4BBA
S3150800AB3C9B78022B1AD0FFF7B9FE374C216904F122
S3150800AB4C080001F09DF940F20F132380032038BD4D
S3150800AB5C334801F09CF90028DBD10020F7E7FFF712
S3150800AB6CD7FE0228DAD12C4B02229A702A4B4FF4C4
S3150800AB7C7A721A61FFF7B2FE274C216904F10800B4
S3150800AB8C01F07EF940F2251323800320DFE72448E1
S3150800AB9C01F07DF900287FF42FAF0020D7E7FFF7E7
S3150800ABACB7FE05287FF42EAF1B4B03229A7038E7A5
S3150800ABBC0020194B1880CAE7174B6FF000421A6130
S3150800ABCC44E7154B02229A704FF47A721A61FFF712
S3150800ABDCE9FE78E7104B40F26B121A8058E71048DA
S3150800ABEC01F055F900287FF459AF0020AFE7FFF7BD
S3150800ABFC8FFE05287FF458AF074B03229A70064838
S3150800AC0CFFF700FE10E70020034B18809FE7024B66
S3150800AC1C00221A8002209AE740010020EC3200201C
S3150800AC2C4801002008B5FFF7C5FE08BD10B4013A67
S3150800AC3C0A4400E0023191420BD20C784B7803EBB4
S3150800AC4C04239BB2184480B28342F3D9013080B2F4
S3150800AC5CF0E702D05DF8044B70470B781B021844DA
S3150800AC6C80B28342F6D9013080B2F3E770B4C57866
S3150800AC7C0D44EDB2134CE57083780E0A3344DBB2FF
S3150800AC8CA37042786270007820709CB2A64206D9EE
S3150800AC9C0132D2B20B4C62700AB901302070C9B2BB
S3150800ACAC8D420CDA0133DBB2064A93703BB9537802
S3150800ACBC0133DBB2537013B913780133137070BCBC
S3150800ACCC704700BFE832002010B5094C23680146CE
S3150800ACDC03F10800FFF7CAFF2368064A11781972B0
S3150800ACEC5178597291789972D278DA7210BD00BF80
S3150800ACFCF8320020E83200201A4B00221A7006E0BF
S3150800AD0C194A002122F813100133164A1370154BF1
S3150800AD1C1B78002BF4D0134B00221A7009E0C3EBF6
S3150800AD2C03125100114A0A440021517601330D4A87
S3150800AD3C13700C4B1B78002BF1D00D4B4FF4806223
S3150800AD4C1A80084B00221A7007E00A4A02EB831293
S3150800AD5C002191800133034A1370024B1B78002B98
S3150800AD6CF3D07047740100201C330020FC320020FD
S3150800AD7C7C01002070390020094B00221A70084B00
S3150800AD8C1B7863B91946074A32F813201AB10133EE
S3150800AD9C034A1370F3E7034B23F811007047704707
S3150800ADAC740100201C330020030A43EA002080B2F9
S3150800ADBC7047000008B5142205490020FFF736FF36
S3150800ADCC10B1FFF7F1FF08BD4FF6FF70FBE700BFA8
S3150800ADDC3A33002038B50D4D2B7C6C7C04EB0324E0
S3150800ADECA4B2143CA4B22044082205F11A0180B27C
S3150800ADFCFFF71CFF224605F12201FFF717FF10B1DA
S3150800AE0CFFF7D2FF38BD4FF6FF70FBE72C33002057
S3150800AE1C08B50620FFF7DEFF08BD000070B5B24B7B
S3150800AE2C1C68042800F09681B04BB14A1360B14AED
S3150800AE3C1360032859D0022800F0C880052800F0B2
S3150800AE4C7281AD4B9B7B452B54D1AB4A157C537CFD
S3150800AE5C03EB0521A94A128891424BDC8DB2A74B0C
S3150800AE6C1D80A54B1B7D13F03F0F43D1A24B5B7D79
S3150800AE7C002B3FD1A24B1C880CB95B884BB19E4B5F
S3150800AE8CDB8B9C4236D19C4B1A8C9D4B5B889A4229
S3150800AE9C30D1FFF78FFF4FF6FF7398422AD1964BA6
S3150800AEACDB7D062B00F0E981112B00F09F81012B2D
S3150800AEBC20D1914B93F82230082B1BD18E4B0022B4
S3150800AECC83F822209B8C4FF6F672934240F28A81C5
S3150800AEDC0933894A9384884B5A8BDA839A8B1A845A
S3150800AEEC5C83874A52889A8378E1637E03F00F0362
S3150800AEFC032B05D00023814A1380824A137070BD38
S3150800AF0C238A002BF6D17F4B08221A70FDF710FD09
S3150800AF1C7C4B1B7813F0200F00F0A48400237A4A8C
S3150800AF2C13806376744B142283F82F20734B2822D4
S3150800AF3C1A80714B502283F82E20227A6E4B83F896
S3150800AF4C2A20627A83F82B20A27A83F82C20E27ABC
S3150800AF5C83F82D20227B83F82620627B83F8272012
S3150800AF6CA27B83F82820E27B83F829200622DA754F
S3150800AF7CA2885A84E2889A84614A1188598352882D
S3150800AF8C9A832288DA8362881A84637E13F0100FF8
S3150800AF9C00F03485584B002283F8312083F8302092
S3150800AFAC554C4023A375554B1B881A0A2274637497
S3150800AFBC002384F8353084F8343084F8323084F839
S3150800AFCC3330FFF725FFC0436086F2E04F4AD3784B
S3150800AFDC0133DBB2D37063B993780133DBB2937068
S3150800AFEC3BB953780133DBB2537013B91378013379
S3150800AFFC13700023414A1380434A1380637E052B42
S3150800B00C18BF072B09D1A37E0133DBB2A376782BA5
S3150800B01C7FF470AF002363766CE7002B3FF46AAFBE
S3150800B02C228A002A74D0A27E511EA176002A7FF4A9
S3150800B03C61AFE27E082A27D0591EC9B2012921D947
S3150800B04C1046042A28BF042003218140A176013228
S3150800B05CE27603F00F03013B072B3FF64BAF01A239
S3150800B06C52F823F031B50008ADB00008E9B0000875
S3150800B07CE5B7000801AF0008E5B7000801AF0008FE
S3150800B08CE5B70008052ADBD1002363761D4B802221
S3150800B09C1A70FDF74DFC184B142283F82F2045E740
S3150800B0AC154B002283F82F20134B93F82F2042F0D0
S3150800B0BC020283F82F20022283F83620042283F812
S3150800B0CC3720062283F838200A2283F839200B4ABF
S3150800B0DC2C211180602283F82E202EE7094B04229E
S3150800B0EC1A70FDF725FCE2E3F832002062330020E3
S3150800B0FCF4320020E43200202C330020E032002009
S3150800B10C28330020EC3200206E390020780100200C
S3150800B11C03F00F03032B7FF4EDAEAC4B08221A7029
S3150800B12CFDF706FCF4E6AA4B1B689B88002B3FF43C
S3150800B13CE1AE0023A74A1360A74AA8490A60A849A2
S3150800B14C0A60A84A1380A84A1380A04B08221A70D2
S3150800B15CFFF768FDA34B1A88002A3FF4CBAE02F121
S3150800B16C1C0189B2A04B1980A04B080A1874597493
S3150800B17C97490968087A98751120D875083292B2D9
S3150800B18C100A40EA0222DA84002283F8282083F87F
S3150800B19C29208A885A84CA889A84954A108858839A
S3150800B1AC52889A830A88DA834A881A8436338B4AF1
S3150800B1BC13608E4C4523A3730022E27362752275C5
S3150800B1CC8C490B8801339BB20B80190AA174E37462
S3150800B1DC22766276FFF7EEFDC04320837B4B002276
S3150800B1EC1A708CE60833814A938474E61C3D7E4BB0
S3150800B1FC1D80774B804A1A600EE01A880AB959885E
S3150800B20C29B34FF6FF718A421ED07849498B8A4278
S3150800B21C2DD040336E4A13606D4B1B68774A9342A8
S3150800B22CBFF468AE9A88002AF3D07049898C8A4292
S3150800B23CEFD1DA88002AE0D06C49498C8A42DCD0F6
S3150800B24CB2F58A4FE5D1D8E758888842DDD1002374
S3150800B25C604A13605D4A022111705F4A5F490A60B1
S3150800B26C5F490A605F4A1380FFF7DCFC72E75F4AA6
S3150800B27C918B5A889142CCD1E9E7FFF7C9FD4FF675
S3150800B28CFF7398427FF436AE5D4C5D4B9C425AD99F
S3150800B29C564B93F82F3003F03F03022B7FD0534BBA
S3150800B2AC93F82F3013F0040F7FF424AE4F49142370
S3150800B2BC81F82F304C4B28221A80502381F82E30D7
S3150800B2CC91F8290091F82D3081F8293091F8282029
S3150800B2DC91F82C3081F8283081F82C2091F82730F9
S3150800B2EC91F82B4081F8274081F82B3091F82640AD
S3150800B2FC444D2C7091F82A5081F8265081F82A4032
S3150800B30C0130C0B281F82D0060B90132D2B281F891
S3150800B31C2C203AB90133DBB281F82B3013B901343E
S3150800B32C81F82A40314B5A8C37490A80998C5984B2
S3150800B33C9A845A8BDA839A8B1A842D4A11885983E4
S3150800B34C52889A832CE6617E21B1284B9A8CA38865
S3150800B35C9A4201D01E3498E7244B5A8CE3889A42B9
S3150800B36CF8D1224B5A8B23889A42F3D11F4B9A8BCE
S3150800B37C63889A42EED1174B1C60144B00221A7044
S3150800B38C1A4B93F82F2012F0040F00F0DA800023E2
S3150800B39C63760E4B20221A70FDF7CAFAAAE5134BF0
S3150800B3AC9B8C99B2184A1380164B00221A70154BAF
S3150800B3BC1B78002B7FF473AF144A32F81320914292
S3150800B3CC26D001330F4A1370F1E700BFEC32002088
S3150800B3DCF0320020F832002056330020F4320020D8
S3150800B3ECE43200206E390020E03200202C33002095
S3150800B3FC283300207601002070390020B03900204F
S3150800B40CFC320020740100207E0100201C33002031
S3150800B41C00249A4B1C700BE0194699481E2202FB15
S3150800B42C0302527E4AB1072A56D00133934A137047
S3150800B43C924B1B78002BEFD002E01E2404FB010470
S3150800B44C002C3FF457AD8F4B1C600323A376237651
S3150800B45C0023A3750422E275E3768B4DAB8CA3808F
S3150800B46C6B8CE3806B8B2380AB8B638001206076BF
S3150800B47C864B1A7822735A7862739A78A273DB7899
S3150800B48CE373208295F82930E37295F82830A37275
S3150800B49C95F82730637295F826302372FFF714FC5B
S3150800B4AC95F82E0000F0F003502B3BD9734B002275
S3150800B4BC1A70724B1B781A4601090539B3EB810FC2
S3150800B4CC30DA03F13601704D695C59B3012911D193
S3150800B4DC01336A4A1370ECE73CB169491E2202FB38
S3150800B4EC0312917EA27E91429FD91E24644A04FBC4
S3150800B4FC03249AE702291AD103F13701624D695CD4
S3150800B50C042914D102F13801695C3932AB5C43EA7F
S3150800B51C01235F4A138040F20A62934228BF1346FE
S3150800B52C6382A382584B102283F82F20BCE503F1C3
S3150800B53C370255498A5C002AF4D013444F4A1370D3
S3150800B54CB7E7514B93F82E301B099B004B480370F9
S3150800B55CEB1A9BB2143B9BB24E48038001F00F01C9
S3150800B56C022903D102F03F0112290FD013B912F0A8
S3150800B57C030F0BD0444BD98C2389994240F0E781B1
S3150800B58C414B198D6389994240F0E18112F0100FF5
S3150800B59C47D0218A002944D004F10C00FFF766FB3A
S3150800B5AC394B93F82A303C4A1078834239D1364BBA
S3150800B5BC93F82B3051788B4233D1334B93F82C308C
S3150800B5CC927893422DD1304B93F82D50324BDB7831
S3150800B5DC9D4226D120736173A273E373E37ECBB9C4
S3150800B5EC237EA27E9B1ADBB2A17DA3EBD103DBB231
S3150800B5FC5AB21944C9B2A175002A01DA5B425AB289
S3150800B60CE07DA2EB900350FA83F3DBB2E37503EB10
S3150800B61CD1032376214B01221A70237EA3760023AD
S3150800B62C2382617E01F00F03013B072B3FF662ACC8
S3150800B63CDFE813F008003800AC007001BA01D80135
S3150800B64C8D016101154B1B7813F0010F3FF452ACB9
S3150800B65C03236376114B40221A70002323820D4B69
S3150800B66C188820B10D4B42221A70FFF72DFB0C4B94
S3150800B67C00221A80FDF75CF94AE400BF7401002029
S3150800B68CFC320020F83200202C33002078010020F0
S3150800B69C7E010020E0320020E8320020EC32002047
S3150800B6AC6E390020AD4B1B7813F0010F64D0AC4BF0
S3150800B6BC93F82F3003F03F03122B5DD1A84B93F868
S3150800B6CC2E0000F0F003502B2DD9A64B00221A7031
S3150800B6DCA44B1B781A4601090539B3EB810F22DAFC
S3150800B6EC03F136019E4D695CE9B1012903D1013399
S3150800B6FC9C4A1370ECE7022934D103F13701984DB3
S3150800B70C695C04292ED102F13801695C3932AB5CCB
S3150800B71C43EA0123944A138040F20A62934228BFF3
S3150800B72C13466382A382032363768D4B93F82620F4
S3150800B73C227293F82720627293F82820A27293F843
S3150800B74C2930E3720120FFF7BFFA844B42221A70A4
S3150800B75C00232382854A1380854A1380FDF7E8F86F
S3150800B76CFFF7D6BB03F137027D498A5C002ADAD08B
S3150800B77C13447C4A1370ABE7784B20221A70FDF7FA
S3150800B78CD7F87C4B1B6800225A7688E5744B93F8DD
S3150800B79C2F3013F0010F25D011F0100F22D1238A68
S3150800B7AC002B7FF4A7AB714D2888013080B2FFF7C8
S3150800B7BC8BFA6A4A137843F0100313702A881AB165
S3150800B7CC43F00203654A1370FDF7B2F8012323828E
S3150800B7DC082363760023E376614B112283F82F2026
S3150800B7ECFFF7A4BB13F0200F0FD05D4890F8343048
S3150800B7FC1A0290F8353042EA03065F4D2868304441
S3150800B80C28605A480288931B0380584B188848B1FD
S3150800B81C11F0100F06D1514A137843F00203137036
S3150800B82CFFF752FA4E4B93F8302093F8313003EB6E
S3150800B83C02239BB24C4A1380A28A934200D80BB9B6
S3150800B84C494B1A80484B1B886382444B1B7813F070
S3150800B85C030F3FF44FAB464B00221A80FDF768F8EE
S3150800B86CFFF756BB13F0100F0DD00023404A138078
S3150800B87C0122228204226276E376394B112283F85E
S3150800B88C2F20FFF753BB3A4A128872B113F0010FF7
S3150800B89C01D000232382238ADBB9638A9A4201D911
S3150800B8AC334A1380324B1B8823820023E376334BAF
S3150800B8BC1A68314B1A602E4B1B886BB1238A5BB105
S3150800B8CC28332A4A1380264B182283F82F20FFF791
S3150800B8DC30BB274A1380E8E7204B1B7813F0020F7E
S3150800B8EC3FF408AB214B28221A801D4B102283F8F3
S3150800B8FC2F20FFF71EBB194B1B7813F0010F3FF4D3
S3150800B90CF9AA00236376154B10221A70FDF710F866
S3150800B91CFFF7F0BA154B188808B1FFF7D5F9104B95
S3150800B92C93F82F3013F0010F2DD00C4B1B7813F016
S3150800B93C010F25D0072363760023A37623820120E3
S3150800B94CFFF7C2F9054B10221A70FCF7F1FF044BEE
S3150800B95C102283F82F20FFF7E9BA00BFEC3200203B
S3150800B96C2C330020740100207E010020E0320020D8
S3150800B97C6E390020F8320020F4320020E432002020
S3150800B98C06236376DBE7224B1B7813F0010F05D0F1
S3150800B99C0523637600232382FFF7ACBA1D4B1B885D
S3150800B9AC002BD4D1FFF7A6BA1A4B188808B1FFF7A3
S3150800B9BC8BF9194B93F82F3013F0010F0CD0072382
S3150800B9CC63760023A3760120FFF77EF9104B10222D
S3150800B9DC1A70FCF7ADFFBAE70E4B1B88002BB6D1D5
S3150800B9ECFFF788BA0A4B1B7813F0010F3FF482AAAB
S3150800B9FC072363760023A376FFF77CBA064B062249
S3150800BA0C83F830200A2283F83120FFF7C9BA00BF21
S3150800BA1CEC320020E03200202C330020F8B5054625
S3150800BA2C0E46234A138801339BB21380B3F5FA4F9B
S3150800BA3C03D313464FF480521A801E4B00221A70F9
S3150800BA4C1C4B1C786CB91C4B03EB84139F88184B46
S3150800BA5C1888FFF7A9F98742E3D00134154B1C70F7
S3150800BA6CEEE700221A70134B1B7863B9124A02EBE5
S3150800BA7C831292881AB101330E4A1370F3E70E48F3
S3150800BA8C00EB831000E0002068B1094B1A88130AF2
S3150800BA9C43EA02238380C68035B12B8803806B88E2
S3150800BAAC438040230372F8BD00230360F9E700BF07
S3150800BABC7C010020740100207039002000290CDD5F
S3150800BACC08B58AB2054B1A80054B1B68834203D00E
S3150800BADC0146184600F01BFA08BD70476E3900205F
S3150800BAECE4320020F0B43A4B00221A70394E02E0C8
S3150800BAFC0133374A1370364B1B78072B18D8354D3C
S3150800BB0C5A001A4494002E192A5B002AF0D074881D
S3150800BB1C002CEDD00588AA42EAD142889442E7D196
S3150800BB2C0C687460898831812B4B1B78B37222E0C0
S3150800BB3C274B00221A7002E00133254A1370244B56
S3150800BB4C1B78072B0AD8234D5A001A4494002E1931
S3150800BB5C2A5B002AF0D17288002AEDD1082B0CD06A
S3150800BB6C0268334643F8042B0A6872608A889A80FE
S3150800BB7C194B1B78B372F0BC70470023174A137025
S3150800BB8C174A1370124A137002E00133104A1370E5
S3150800BB9C0F4B1B78072B11D80F4A147803EB43026B
S3150800BBAC95000C4A2A44927AA61A0C4D2D78AE4268
S3150800BBBCEBDD0A4A16700A4A1370E6E7084B1B783F
S3150800BBCC034A137003EB43039A00024E1644C7E765
S3150800BBDCEA01002088010020E8010020F00100207D
S3150800BBECE901002010B4164B1C780134E4B21C7021
S3150800BBFC144B00221A7002E00133124A1370114BCF
S3150800BC0C1B78072B18D810485A001A44910042186A
S3150800BC1C415A52880A43EFD003EB4302910002467D
S3150800BC2C0A44927AA21A772AE6DD03EB43018A00C4
S3150800BC3C014600208850DFE75DF8044B704700BFCB
S3150800BC4CE8010020EA01002088010020324B1B88FD
S3150800BC5C292B0CD910B5304B00221A802F4B9B8AF6
S3150800BC6CB3F5807F07D0B3F5007F43D010BD2A4BC0
S3150800BC7C00221A807047294BDA8C294B1B889A426A
S3150800BC8CF4D1264B1A8D264B5B889A42EED1254C5D
S3150800BC9C2146A01DFFF726FF002204F8022C0222DB
S3150800BCAC04F8012C2168C4F80A10A188E1811E4900
S3150800BCBC086820608988A18044F8100C24F80C1CAC
S3150800BCCCD4F80A1044F8161CE28924F8122CE288D7
S3150800BCDC228222896282124A1188E1805288228144
S3150800BCEC082204F80A2C062204F8092C0A4B2A22E4
S3150800BCFC1A80BBE7094BDA8C094B1B889A42B5D1DB
S3150800BD0C064B1A8D064B5B889A42AFD105480146FD
S3150800BD1C0630FFF7E7FEA9E7E03200202C330020B7
S3150800BD2C28330020423300208001002030B4494BD0
S3150800BD3CDA8B4FF6FF739A421AD0474B1B88474942
S3150800BD4C09885340194208D1424B198C424B5B88DF
S3150800BD5C424840884B40184217D0414B414A1188FB
S3150800BD6C198052885A80404B00221A703F4D13E0B6
S3150800BD7C384B198C4FF6FF739942DED1354B3C4A3A
S3150800BD8C1068186092889A8021E0354B1A80598081
S3150800BD9CE9E70133344A1370334B1B78072B0ED85B
S3150800BDAC32485A001A44910045182D4A1488425AAA
S3150800BDBC9442EED12A4A50886A889042E9D1082BD7
S3150800BDCC16D0244B55F8042F1A60AA889A80214B52
S3150800BDDC284A1168C3F8061092885A8108221A73E1
S3150800BDEC00225A73244A13880E33138030BC7047CA
S3150800BDFC184B4FF0FF321A609A8000221A629A8406
S3150800BE0C1C490868C3F8060089885981C3F81600C6
S3150800BE1C598313490888D884498819850E4908888E
S3150800BE2C98834988D9831A75012159759A73D973D8
S3150800BE3C082119745A7406229A740422DA7419732E
S3150800BE4C06225A7336330D4A13600B4B2A221A8074
S3150800BE5CCCE700BF2C3300202833002024330020E5
S3150800BE6CEC01002020330020EA0100208801002084
S3150800BE7C78BF000880010020E0320020F432002050
S3150800BE8C10B504464160FEF72BFB206010BD10B5BB
S3150800BE9C0446FEF725FB2368C01A63689842B4BFAC
S3150800BEAC0020012010BD000070B50D4E0D4CA41BD2
S3150800BEBCA4100025A54209D10B4E0C4C00F03AF8FB
S3150800BECCA41BA4100025A54205D170BD56F8253033
S3150800BEDC98470135EEE756F8253098470135F2E7CD
S3150800BEEC88BF000888BF000888BF00088CBF0008F8
S3150800BEFC30B50024A24201D1002007E0035D0134CD
S3150800BF0C0D1915F8015CAB42F4D0581B30BD10B5B1
S3150800BF1C431E0A44914200D110BD11F8014B03F897
S3150800BF2C014FF7E702440346934200D1704703F8E2
S3150800BF3C011BF9E7F8B500BFF8BC08BC9E4670476C
S3110800BF4CF8B500BFF8BC08BC9E4670475C
S3150800BF5800000000000000000102030406070809A3
S3150800BF68000000000102030463825363ADDE122356
S30D0800BF78FFFFFFFFFFFF0000B9
S30D0800BF80ECC2FF7F010000007E
S3090800BF8821820008FC
S3090800BF8CFD8100081D
S3110800BF9001000000100000000024F4006E
S70508008B6DFA
