S01900006F70656E626C745F73746D3332663736372E73726563F5
S3150800000000000820912C0008E12C0008E12C0008CB
S31508000010E12C0008E12C0008E12C00080000000093
S31508000020000000000000000000000000E12C0008AD
S31508000030E12C000800000000E12C0008D5090008A2
S31508000040E12C0008E12C0008E12C0008E12C00084E
S31508000050E12C0008E12C0008E12C0008E12C00083E
S31508000060E12C0008E12C0008E12C0008E12C00082E
S31508000070E12C0008E12C0008E12C0008E12C00081E
S31508000080E12C0008E12C0008E12C0008E12C00080E
S31508000090E12C0008E12C0008E12C0008E12C0008FE
S315080000A0E12C0008E12C0008E12C0008E12C0008EE
S315080000B0E12C0008E12C0008E12C0008E12C0008DE
S315080000C0E12C0008E12C0008E12C0008E12C0008CE
S315080000D0E12C0008E12C0008E12C0008E12C0008BE
S315080000E0E12C0008E12C0008E12C0008E12C0008AE
S315080000F0E12C0008E12C0008E12C0008E12C00089E
S31508000100E12C0008E12C0008E12C0008E12C00088D
S31508000110E12C0008E12C0008E12C0008E12C00087D
S31508000120E12C0008E12C0008E12C0008E12C00086D
S31508000130E12C0008E12C0008E12C0008E12C00085D
S31508000140E12C0008E12C0008E12C0008E12C00084D
S31508000150E12C0008E12C0008E12C0008E12C00083D
S31508000160E12C0008E12C0008E12C0008E12C00082D
S31508000170E12C0008E12C0008E12C00080000000032
S31508000180E12C0008E12C0008E12C0008E12C00080D
S31508000190E12C0008E12C0008E12C0008E12C0008FD
S315080001A0E12C0008E12C0008E12C0008E12C0008ED
S315080001B0E12C0008E12C0008E12C0008E12C0008DD
S315080001C0E12C0008E12C000800000000E12C0008E2
S315080001D0E12C0008E12C0008E12C0008E12C0008BD
S315080001E0E12C0008E12C0008E12C0008E12C0008AD
S30D080001F0E12C0008E12C0008CF
S315080001F810B5054C237833B9044B13B10448AFF34B
S3150800020800800123237010BD4C0000200000000068
S31508000218EC47000808B5034B1BB103490348AFF37D
S31508000228008008BD0000000050000020EC470008C8
S3150800023853B94AB9002908BF00281CBF4FF0FF3137
S315080002484FF0FF3000F072B9ADF1080C6DE904CE35
S3150800025800F006F8DDF804E0DDE9022304B070478B
S315080002682DE9F047089E04468846002B4BD18A425A
S31508000278154667D9B2FA82F24AB1C2F1200701FADD
S3150800028802F320FA07F7954047EA030894404FEA2D
S31508000298154E230CB8FBFEF71FFA85FC0EFB1788CC
S315080002A843EA084307FB0CF1994209D9EB1807F109
S315080002B8FF3080F01B81994240F21881023F2B4497
S315080002C85B1AA4B2B3FBFEF00EFB103344EA0344F0
S315080002D800FB0CFCA44509D92C1900F1FF3380F062
S315080002E80781A44540F2048102382C4440EA0740B5
S315080002F8A4EB0C0400271EB1D4400023C6E900432A
S315080003083946BDE8F0878B4209D9002E00F0EB8004
S315080003180027C6E9000138463946BDE8F087B3FA2A
S3150800032883F7002F47D18B4202D3824200F2FA8024
S31508000338841A61EB030301209846002EE0D0C6E92B
S315080003480048DDE702B9FFDEB2FA82F2002A40F079
S315080003588F80491B4FEA154E1FFA85F80127B1FB0E
S31508000368FEFC230C0EFB1C1143EA014308FB0CF1A7
S31508000378994207D9EB180CF1FF3002D2994200F2DC
S31508000388CD808446591AA3B2B1FBFEF00EFB1014B1
S3150800039843EA044408FB00F8A04507D92C1900F1DC
S315080003A8FF3302D2A04500F2B6801846A4EB08042B
S315080003B840EA0C409FE7C7F1200CBB4022FA0CFE26
S315080003C84EEA030E01FA07F420FA0CF521FA0CF3A3
S315080003D84FEA1E482543B3FBF8F92C0C08FB1933DA
S315080003E81FFA8EFA44EA034309FB0AF49C4202FA06
S315080003F807F200FA07F10BD91EEB030309F1FF30E0
S3150800040880F087809C4240F28480A9F102097344EF
S315080004181B1BADB2B3FBF8F008FB103345EA0344DF
S3150800042800FB0AFAA24508D91EEB040400F1FF33BB
S315080004386BD2A24569D90238744440EA0940A0FB40
S315080004480289A4EB0A044C45C2464B4654D351D0FC
S31508000458002E69D0B1EB0A0564EB030404FA0CFC18
S31508000468FD40FC404CEA0505C6E90054002747E765
S31508000478C2F1200320FA03F7954001FA02F021FA9F
S3150800048803F34FEA154E3843010CB3FBFEF71FFA80
S3150800049885F80EFB173341EA034107FB08F38B423D
S315080004A804FA02F407D9691807F1FF3C2FD28B42E0
S315080004B82DD9023F2944CB1A81B2B3FBFEF00EFBB5
S315080004C8103341EA034100FB08F38B4207D9691840
S315080004D800F1FF3C17D28B4215D902382944C91AAC
S315080004E840EA07473BE73746304609E70746E7E65F
S315080004F81846FBE64145ABD2B8EB020A69EB0E0291
S3150800050801381346A4E76046E9E7184695E76746BB
S31508000518D1E781467CE702382C4447E7ACF1020C60
S315080005282B442FE7384608E73746E9E6704700BF01
S3150800053872B6704708B5FFF7FBFF08BD08B500F0A7
S31508000548FDF990B100F0C8FA00F00CFA02F0C6FB03
S3150800055800F0F8F9064B0340064A936000F0F2F9F2
S315080005684368984700F0E8FA08BD00F0E5FAFBE7A3
S3150800057880FFFF1F00ED00E070B508E04D1C461C23
S315080005880B78037000F0E8FA304629462246531ECF
S315080005989CB2002AF2D170BD38B50546002401E0A0
S315080005A80134E4B20A2C15D800F0D6FA04EB440252
S315080005B89300094AD358AB42F2D804EB4402910097
S315080005C8054A0A4452681344AB42E9D9024B0B441C
S315080005D8187A00E0FF2038BD0448000808B5C1F3BA
S315080005E8080353B903688B4209D040F8041B4FF433
S315080005F80072FFF7C1FF012000E0002008BD0120B6
S31508000608FCE72DE9F041074603F0A8F800247F2CFB
S3150800061814D83E68A30006EB03083B445D6800F05F
S315080006289BFA2A4600234146022003F0EDF838B91A
S3150800063856F82430AB4209D10134E8E7012400E032
S31508000648002403F0A3F82046BDE8F0810024F8E763
S3150800065838B50D460C4B984211D004460B4B9942B7
S3150800066807D1094C29462046FFF7B8FF48B1204666
S3150800067838BDFFF7C6FF0028F4D10024F7E7044C75
S31508000688F0E70024F3E700BF6C02002000800008AA
S31508000698680000202DE9F04106460C4617461D4617
S315080006A8DFF8748001EA08080368B3F1FF3F07D04A
S315080006B8336843450BD13368E41A3444043415E0E7
S315080006C84146FFF78BFF03460028F1D11FE0414654
S315080006D83046FFF7BDFF06460028ECD1002316E092
S315080006E817F8013B04F8013B013D0FD000F034FA36
S315080006F8331DE31AB3F5007FF2D308F500713046C7
S31508000708FFF7A6FF064628B1041DE9E701231846A0
S31508000718BDE8F0810023FAE700FEFFFF70B586B052
S3150800072804460E4600230093884219D80125ECB1E1
S315080007380B2E1FD8DDB1002301930223059301234D
S31508000748049303F00BF8B4420DD800F005FA0394A5
S31508000758694601A803F0F0F820B90134E4B2F2E7D3
S315080007680025E4E7002503F011F800E000252846EF
S3150800077806B070BD0025FAE74FF0FF33024A13604A
S31508000788024A1360704700BF680000206C02002008
S3150800079870B54B1E144C241AA34201D9002070BD0B
S315080007A816460D460446FFF7F7FEFF2818D02819FF
S315080007B80138FFF7F1FEFF2814D00C4B23400C4AEA
S315080007C8934206D02B46324621460A48FFF762FF6F
S315080007D8E5E72B46324621460748FFF75BFFDEE783
S315080007E80020DCE70020DAE7FFFF1F0800FEFFFF0E
S315080007F800800008680000206C0200204A1E0D4B85
S315080008081B1A9A4201D90020704770B50C4605464E
S31508000818FFF7C2FE064660190138FFF7BDFEFF2836
S3150800082818BFFF2E01D1002070BD01463046FFF7DC
S3150800083875FFF9E7FFFF1F08104B1B68B3F1FF3F69
S315080008481AD000B583B00D4A536891680B44D1682D
S315080008580B4411690B4451690B4491690B44D269DD
S3150800086813445B4202AA42F8043D04210448FFF7F0
S315080008788FFF03B05DF804FB012070476C02002067
S31508000888F88100080D4B1B680D4A12681A440D4B6F
S315080008981B6813440C4A126813440C4A12681A4413
S315080008A80B4B1B681A440B4B1B6813440A4A1268FD
S315080008B8DA4201D0002070470120704700800008FE
S315080008C804800008088000080C80000810800008CA
S315080008D81480000818800008F881000808B50D4B30
S315080008E81B68B3F1FF3F0BD10B4B1B68B3F1FF3FF6
S315080008F80DD00948FFF785FE034648B1012307E0EE
S315080009080448FFF77EFE03460028EDD100E00123E0
S31508000918184608BD6C020020680000200048704789
S315080009280080000808B5FFF727FF08BD08B5FFF7D8
S315080009382FFF08BD08B5FFF761FF08BD08B5FFF723
S31508000948A1FF08BD08B5FFF7E9FF08BD08B5FFF719
S3150800095873FF034608B9184608BDFFF7BFFF0346E5
S31508000968F9E70000014B00221A60704710E000E022
S3150800097808B5FFF7F7FF054B054A5A6000229A6043
S3150800098805211960034B1A6008BD00BF10E000E096
S31508000998BF4B030070040020044B1B6813F4803F08
S315080009A803D0034A136801331360704710E000E068
S315080009B87004002008B5FFF7EFFF014B186808BD5B
S315080009C87004002008B5FFF7F5FF08BD704708B59D
S315080009D800F0C2F8FCE7000008B500F0A5F8012801
S315080009E803D00B4B1B78012B00D008BDFFF7E2FF9D
S315080009F8084B1B68084A1268134403F5FA639842B9
S31508000A08F3D3034B00221A70FFF798FDEDE700BFF2
S31508000A1878040020740400207C040020014B186028
S31508000A28704700BF74040020014B1868704700BF60
S31508000A387404002008B5054B1B78012B00D008BDA7
S31508000A48FFF7B8FF024B1860F9E700BF78040020E3
S31508000A587C04002008B5044B01221A70FFF7EAFF48
S31508000A68FFF7BAFF08BD00BF7804002008B5FFF7EE
S31508000A7861FD00F06DF8FFF77BFFFFF753FF00F005
S31508000A880DF8FFF7E7FF08BD08B500F065F8FFF7AA
S31508000A9883FF00F007F8FFF79FFF08BD08B500F0C9
S31508000AA855FB08BD00B583B00DF10701084800F0ED
S31508000AB87BF9012802D003B05DF804FB054B032235
S31508000AC81A709DF80710024800F060FBF3E700BFAC
S31508000AD880040020400000207047000008B5054B38
S31508000AE81B78032B02D000F049FB08BDC9B200F0F9
S31508000AF837F9F8E740000020044B1B78013B012B27
S31508000B0801D9402070470020704700BF40000020E8
S31508000B18044B1B78013B012B01D940207047002064
S31508000B28704700BF4000002008B500F01DFB0346CB
S31508000B3800B10123184608BD08B500F001F9034BB2
S31508000B4803221A70FFF776FF08BD00BF4000002091
S31508000B5808B501F0DEFE08BD08B501F0DFFE08BDE0
S31508000B6810B503F095FDB8B9FFF724FF464B1B6887
S31508000B78984209D303F5FA73434A13600024002CF4
S31508000B8837D00024002C4AD0FFF714FF3F4B1B68C8
S31508000B98984259D2002460E03D4A10803D4B9C8912
S31508000BA84FF4006000F086FE844213D0394B9C89C6
S31508000BB840F6060000F07EFE8442D5D101F07CFDA1
S31508000BC8334B1B88002BCFD003F08CFD304B00220B
S31508000BD81A80C9E7012000F0A7FE2D4B1B88002BB9
S31508000BE8C2D001F0D9FD03F07DFD294B00221A80F9
S31508000BF8BAE76823284A03FB0423284A1360022015
S31508000C0800F092FE224B1B880BB90134B7E701F0B6
S31508000C18C3FD03F067FD1E4B00221A80F5E7204B3B
S31508000C2803EB84131F4A1360052000F07DFE184B5A
S31508000C381B880BB90134A5E701F0AEFD03F052FD98
S31508000C48134B00221A80F5E742F210721A440F4B2A
S31508000C581A6001F0FDFC9DE70134A4B968230E4A21
S31508000C6803FB04230D4A1360032000F05DFE084BBE
S31508000C781B88002BF0D001F08FFD03F033FD044BE1
S31508000C8800221A80E8E710BDC8040020C004002026
S31508000C98DC05002070060020F8050020F405002071
S31508000CA8B40C0020EC05002008B51E4B1B7803B1D0
S31508000CB808BD03F0A1FCFFF77DFE00F5FA701A4B94
S31508000CC81860FFF777FE42F210730344174A136059
S31508000CD800F098FD164B4AF6C0021A8044F20161E4
S31508000CE85980144B4FF6FF711980FF215980124B12
S31508000CF81A8040F201125A804EF6030000F0C2FD2F
S31508000D0803F0B2FCFFF790FE44F61F63984203D936
S31508000D180A4B01221A70CBE744F62060FFF77EFEDD
S31508000D28F6E700BF41000020C8040020C0040020E0
S31508000D386C0600206806002064060020C40400200B
S31508000D4808B5054B00221A70044B1B7803B108BD79
S31508000D58FFF7AAFFFBE700BF41000020C4040020F4
S31508000D680F4B1B78012B00D0704770B40D4B1C68CD
S31508000D78E6692662002306E01A1DC55C224482F845
S31508000D88205001339BB28AB29A42F5D80432A4F8A5
S31508000D986420012384F866301E44E66170BC7047F7
S31508000DA8C4040020F405002008B5044B1B78012B61
S31508000DB801D0002008BDFFF7D3FEFAE7C4040020D7
S31508000DC810B5294B1C68294B1B7813F0400F2AD1FC
S31508000DD813F0010F02D0002284F8672013F0040FDD
S31508000DE803D094F86730012B27D0204B1B7813F0D3
S31508000DF8080F03D094F86630012B25D01B4B1B78B7
S31508000E0813F0020F18D01A4B19880B1F402B13DC46
S31508000E1894F8673083B9174B18680439C9B204308F
S31508000E2800F0B4F908E00123E3610023A4F864306C
S31508000E3884F8663084F8673010BDB4F8641004F195
S31508000E48200001F071FBD0E7002384F86630B4F877
S31508000E5864100029D2D0012384F8673004F12000F1
S31508000E6801F062FBCAE700BFF4050020E805002088
S31508000E78DC050020F0050020014B00225A70704757
S31508000E88CC040020034BFE22DA7018710222A3F85C
S31508000E9844207047CC04002010B5054C0023237065
S31508000EA8FFF7EAFFFF23E3700123A4F8443010BDD7
S31508000EB8CC040020064BFF22DA7000221A715978F2
S31508000EC859719A71DA711A720622A3F84420704782
S31508000ED8CC04002008B50020FFF7D4FF08BD0000A1
S31508000EE8074BFF22DA70074A9A6400221A715A7168
S31508000EF89A710722C3F807200822A3F844207047E6
S31508000F08CC04002088480008044BFF22DA7042689F
S31508000F189A640122A3F84420704700BFCC04002035
S31508000F2808B53120FFF7AEFF08BD000038B5084CF4
S31508000F38FF23E370002525716571FFF7DDFDA071B4
S31508000F48E571257265720723A4F8443038BD00BFD9
S31508000F58CC04002038B5FFF78FFF0E4C0125257005
S31508000F68FF23E3701023237100236371FFF7C4FD81
S31508000F78A071FFF7CDFDE071FFF7CAFDC0F30720A2
S31508000F8820726572A5720823A4F84430FFF7CAFCD4
S31508000F9838BD00BFCC04002038B505464478FFF7AD
S31508000FA8ABFD0138844210DC0A4C6A78A16C201D16
S31508000FB8FFF7E2FAFF23E3706A78A36C1344A36485
S31508000FC86B780133A4F8443038BD2220FFF75AFF5E
S31508000FD8FAE700BFCC04002038B504464578FFF781
S31508000FE88BFD0138854211DC61680A4DA96462786F
S31508000FF8281DFFF7C1FAFF23EB706278AB6C134420
S31508001008AB6463780133A5F8443038BD2220FFF76E
S3150800101839FFFAE7CC040020F8B505461746002438
S3150800102806E015F8013B1C44E4B2FFF795FD314686
S315080010384E1E0029F5D13C600120F8BD10B5084CB4
S31508001048FF23E370E21D4168A06CFFF7E5FF2071F6
S3150800105800236371A3710823A4F8443010BD00BFA8
S31508001068CC04002038B505460D4B9C6CFFF744FDAB
S315080010786A1C411E2046FFF759FC60B1084CFF233D
S31508001088E370FFF739FD0138A36C0344A364012311
S31508001098A4F8443038BD3120FFF7F4FEFAE700BF5C
S315080010A8CC04002038B504464578FFF725FD0238F4
S315080010B885420EDC114BFF22DA700122A3F8442080
S315080010C8617851B9FFF742FC30B93120FFF7DAFEEB
S315080010D802E02220FFF7D6FE38BDA21C074B986C03
S315080010E8FFF724FC28B16178044A936C0B4493648F
S315080010F8F2E73120FFF7C6FEEEE700BFCC04002072
S3150800110808B54168074B986CFFF714FC30B1054BD6
S31508001118FF22DA700122A3F8442008BD3120FFF720
S31508001128B1FEFAE7CC04002008B5FFF707FA034B27
S31508001138FF22DA700122A3F8442008BDCC04002057
S3150800114808B589B2FFF7CAFC08BD0000054B00229E
S315080011581A709A6483F84320A3F844209A705A7040
S31508001168704700BFCC040020034B1B780BB1012045
S3150800117870470020704700BFCC040020024B0022AD
S3150800118883F84320704700BFCC04002008B50378CD
S31508001198FF2B04D0354A1278012A14D008BDFFF768
S315080011A8D9FE324B93F84330012B5AD02F4BB3F95B
S315080011B844100029F2DD1846012380F8433003302D
S315080011C8FFF7BEFFEAE7C93B352B46D8DFE803F049
S315080011D83345454245453F363C39454545454545E8
S315080011E84545454545454545454545454545454599
S315080011F845454545454545454545241E1B2145451F
S315080012084527452A2D30FFF7C7FECAE7FFF7E4FE4C
S31508001218C7E7FFF779FEC4E7FFF710FFC1E7FFF74F
S315080012285FFEBEE7FFF756FEBBE7FFF743FEB8E7E4
S31508001238FFF732FEB5E7FFF715FFB2E7FFF732FF0C
S31508001248AFE7FFF773FEACE7FFF75AFFA9E7FFF723
S315080012586BFFA6E7FFF764FEA3E72020FFF712FE59
S315080012689FE71020FFF70EFEA0E700BFCC0400207A
S3150800127835230370012343708170033070470000DB
S315080012883623037004234370024BDB69C0F8023027
S31508001298063070471805002032230370042343706C
S315080012A8024B5B6AC0F80230063070471805002002
S315080012B8372303700323437001228270C370062301
S315080012C8037105307047FF2303700130704700002B
S315080012D80346014400208B4234D210B410E0362A63
S315080012E823D0FF2A2BD0352A05D1987803E0D3F8DE
S315080012F80240154A94625A78023213448B421ED227
S315080013081A78332A16D0EAD8032A04D0062A07D028
S31508001318012AF0D1EBE7D3F802400B4A1463EAE74F
S31508001328D3F80240084AD462E5E7D3F80240064AE9
S31508001338D461E0E7D3F80240034A1462DBE75DF8B4
S31508001348044B7047704700BF18050020074B828C6E
S315080013581A80C28C5A80064B028D1A80428D5A8092
S31508001368044B028E1A80428E5A8070476C060020FB
S315080013786806002064060020F8B5044601230370B1
S315080013884370184B9A6982700025C570164A126808
S315080013984260058180274781144A1268C260056140
S315080013A8456185619E69324659691C3003F007FA1A
S315080013B806F118002044C6F110022946043003F045
S315080013C809FA4022294604F12C0003F003FA3A46A2
S315080013D8294604F16C0003F0FDF9054B1B68C4F8AF
S315080013E8EC30F8BD18050020944800086C06002063
S315080013F89048000838B50A4C25682846FFF7BCFF08
S31508001408012105F1F000FFF733FFFFF751FFFFF75A
S315080014185AFF2368C11A184601F086F838BD00BF76
S31508001428F005002038B50B4C25682846FFF7A4FFB9
S31508001438032105F1F000FFF71BFFFFF721FFFFF770
S315080014482BFFFFF740FF2368C11A184601F06CF80E
S3150800145838BD00BFF005002010B5114B1C6823786D
S31508001468022B01D0002010BD04220E49A01803F053
S3150800147897F998B90C4B9A69596904F11C0003F055
S315080014888FF908B10020EEE72269074B5A62074B25
S31508001498198804F1F000FFF71BFFE4E70020E2E7EC
S315080014A8F00500209448000818050020DC050020EF
S315080014B8024B00221A805A80704700BF6C0600202B
S315080014C838B5984B1B88B3F5937F15D059D840F291
S315080014D80F12934200F09A80B3F5887F47D3B3F585
S315080014E8887F00F0978040F22512934240F01581D4
S315080014F88C4B4FF493721A808B4B1B7813F0020FA0
S3150800150800F0CB80884B1B7813F0020F40F0CD8093
S31508001518844B1B6942F21072934200F3CF80814ACA
S3150800152803F57A7313619378032B40F0A9807D48F5
S31508001538FFF70CFF7B4D288C00F0BCF90404688C77
S3150800154800F0B8F9204340084FF47A7404FB00F019
S315080015580028C0F2B7802861724C216904F1080096
S3150800156801F0C4F940F255132380032075E0002BD7
S3150800157840F0D3806B4B01229A704FF47A721A6145
S315080015885FE0B3F5AB7F3AD030D9B3F5B57F00F055
S31508001598A78040F26B12934240F0BF80624B1B78DB
S315080015A813F0020F00F0A1805F4B1B7813F0020FAF
S315080015B840F0A3805B4B1B6942F21072934200F31A
S315080015C8A880584A03F57A7313619378032B00F0B9
S315080015D89C80FFF727FF534C216904F1080001F0A6
S315080015E885F94FF4B5732380032036E040F2551287
S315080015F8934240F092804B4B4FF4AB721A804B489B
S3150800160801F07BF9002862D1002026E0454B4FF40B
S3150800161888721A80444B1B7813F0020F1ED0424B6F
S315080016281B7813F0020F20D13E4B1B694EF65F223A
S31508001638934202DC5B003B4A13613A4B9B78022BC8
S315080016481AD0FFF7D7FE374C216904F1080001F0D4
S315080016584DF940F20F132380032038BD334801F0B3
S315080016684CF90028DBD10020F7E7FFF7F5FE02283A
S31508001678DAD12C4B02229A702A4B4FF47A721A61E5
S31508001688FFF7D0FE274C216904F1080001F02EF96E
S3150800169840F2251323800320DFE7244801F02DF9BB
S315080016A800287FF42FAF0020D7E7FFF7D5FE0528D7
S315080016B87FF42EAF1B4B03229A7038E70020194B8C
S315080016C81880CAE7174B6FF000421A6144E7154BB2
S315080016D802229A704FF47A721A61FFF7E9FE78E7E0
S315080016E8104B40F26B121A8058E7104801F005F9BA
S315080016F800287FF459AF0020AFE7FFF7ADFE0528AD
S315080017087FF458AF074B03229A700648FFF71EFE68
S3150800171810E70020034B18809FE7024B00221A8027
S3150800172802209AE718050020E80500202005002071
S3150800173808B5FFF7C5FE08BD10B4013A0A4400E02B
S31508001748023191420BD20C784B7803EB04239BB2F7
S31508001758184480B28342F3D9013080B2F0E702D048
S315080017685DF8044B70470B781B02184480B2834215
S31508001778F6D9013080B2F3E770B4C5780D44EDB2F6
S31508001788134CE57083780E0A3344DBB2A3704278AB
S315080017986270007820709CB2A64206D90132D2B28D
S315080017A80B4C62700AB901302070C9B28D420CDA46
S315080017B80133DBB2064A93703BB953780133DBB27F
S315080017C8537013B913780133137070BC704700BF90
S315080017D8E405002010B5094C2368014603F1080002
S315080017E8FFF7CAFF2368064A1178197251785972A1
S315080017F891789972D278DA7210BD00BFF405002084
S31508001808E40500201A4B00221A7006E0194A00213E
S3150800181822F813100133164A1370154B1B78002B40
S31508001828F4D0134B00221A7008E01349682202FB09
S3150800183803120021517601330D4A13700C4B1B789D
S31508001848002BF2D00D4B4FF480621A80084B002209
S315080018581A7007E00A4A02EB8312002191800133C5
S31508001868034A1370024B1B78002BF3D0704700BF4E
S315080018784C05002060060020F805002054050020C5
S31508001888B40C0020094B00221A70084B1B7863B960
S315080018981946074A32F813201AB10133034A137056
S315080018A8F3E7034B23F81100704770474C050020EF
S315080018B860060020030A43EA002080B27047000049
S315080018C808B5142205490020FFF736FF10B1FFF7BF
S315080018D8F1FF08BD4FF6FF70FBE700BF7E06002044
S315080018E838B50D4D2B7C6C7C04EB0324A4B2143C50
S315080018F8A4B22044082205F11A0180B2FFF71CFF9A
S31508001908224605F12201FFF717FF10B1FFF7D2FFAC
S3150800191838BD4FF6FF70FBE77006002008B50620AD
S31508001928FFF7DEFF08BD000070B5B24B1C68042837
S3150800193800F09681B04BB14A1360B14A1360032888
S3150800194859D0022800F0C880052800F07281AD4BEE
S315080019589B7B452B54D1AB4A157C537C03EB05215D
S31508001968A94A128891424BDC8DB2A74B1D80A54B1C
S315080019781B7D13F03F0F43D1A24B5B7D002B3FD154
S31508001988A24B1C880CB95B884BB19E4BDB8B9C42DF
S3150800199836D19C4B1A8C9D4B5B889A4230D1FFF7FF
S315080019A88FFF4FF6FF7398422AD1964BDB7D062B9D
S315080019B800F0E981112B00F09F81012B20D1914B72
S315080019C893F82230082B1BD18E4B002283F822204D
S315080019D89B8C4FF6F672934240F28A810933894AFC
S315080019E89384884B5A8BDA839A8B1A845C83874A42
S315080019F852889A8378E1637E03F00F03032B05D098
S31508001A080023814A1380824A137070BD238A002BEB
S31508001A18F6D17F4B08221A70FFF7D2F97C4B1B7850
S31508001A2813F0200F00F0A48400237A4A1380637603
S31508001A38744B142283F82F20734B28221A80714B73
S31508001A48502283F82E20227A6E4B83F82A20627A4F
S31508001A5883F82B20A27A83F82C20E27A83F82D20A3
S31508001A68227B83F82620627B83F82720A27B83F8CB
S31508001A782820E27B83F829200622DA75A2885A8468
S31508001A88E2889A84614A1188598352889A832288F7
S31508001A98DA8362881A84637E13F0100F00F034859F
S31508001AA8584B002283F8312083F83020554C4023C0
S31508001AB8A375554B1B881A0A22746374002384F885
S31508001AC8353084F8343084F8323084F83330FFF708
S31508001AD825FFC0436086F2E04F4AD3780133DBB26C
S31508001AE8D37063B993780133DBB293703BB95378F3
S31508001AF80133DBB2537013B913780133137000231B
S31508001B08414A1380434A1380637E052B18BF072B67
S31508001B1809D1A37E0133DBB2A376782B7FF470AFA5
S31508001B28002363766CE7002B3FF46AAF228A002A03
S31508001B3874D0A27E511EA176002A7FF461AFE27E98
S31508001B48082A27D0591EC9B2012921D91046042ABC
S31508001B5828BF042003218140A1760132E27603F0EA
S31508001B680F03013B072B3FF64BAF01A252F823F0B0
S31508001B7839200008B51B0008F11B0008ED220008EB
S31508001B88091A0008ED220008091A0008ED220008BB
S31508001B98052ADBD1002363761D4B80221A70FFF7CE
S31508001BA80FF9184B142283F82F2045E7154B002206
S31508001BB883F82F20134B93F82F2042F0020283F85C
S31508001BC82F20022283F83620042283F8372006229B
S31508001BD883F838200A2283F839200B4A2C211180E9
S31508001BE8602283F82E202EE7094B04221A70FFF785
S31508001BF8E7F8E2E3F4050020A6060020F005002031
S31508001C08E005002070060020DC0500206C06002090
S31508001C18E8050020B20C00205005002003F00F0349
S31508001C28032B7FF4EDAEAC4B08221A70FFF7C8F801
S31508001C38F4E6AA4B1B689B88002B3FF4E1AE002309
S31508001C48A74A1360A74AA8490A60A8490A60A84A81
S31508001C581380A84A1380A04B08221A70FFF768FD5C
S31508001C68A34B1A88002A3FF4CBAE02F11C0189B2AD
S31508001C78A04B1980A04B080A187459749749096823
S31508001C88087A98751120D875083292B2100A40EA6F
S31508001C980222DA84002283F8282083F829208A88F1
S31508001CA85A84CA889A84954A1088588352889A8387
S31508001CB80A88DA834A881A8436338B4A13608E4C24
S31508001CC84523A3730022E273627522758C490B8833
S31508001CD801339BB20B80190AA174E37422766276E3
S31508001CE8FFF7EEFDC04320837B4B00221A708CE673
S31508001CF80833814A938474E61C3D7E4B1D80774BD6
S31508001D08804A1A600EE01A880AB9598829B34FF624
S31508001D18FF718A421ED07849498B8A422DD04033B2
S31508001D286E4A13606D4B1B68774A9342BFF468AED8
S31508001D389A88002AF3D07049898C8A42EFD1DA88C2
S31508001D48002AE0D06C49498C8A42DCD0B2F58A4F21
S31508001D58E5D1D8E758888842DDD10023604A136060
S31508001D685D4A022111705F4A5F490A605F490A6045
S31508001D785F4A1380FFF7DCFC72E75F4A918B5A8843
S31508001D889142CCD1E9E7FFF7C9FD4FF6FF739842B0
S31508001D987FF436AE5D4C5D4B9C425AD9564B93F848
S31508001DA82F3003F03F03022B7FD0534B93F82F3085
S31508001DB813F0040F7FF424AE4F49142381F82F300B
S31508001DC84C4B28221A80502381F82E3091F8290086
S31508001DD891F82D3081F8293091F8282091F82C307F
S31508001DE881F8283081F82C2091F8273091F82B4073
S31508001DF881F8274081F82B3091F82640444D2C70FD
S31508001E0891F82A5081F8265081F82A400130C0B244
S31508001E1881F82D0060B90132D2B281F82C203AB97E
S31508001E280133DBB281F82B3013B9013481F82A4023
S31508001E38314B5A8C37490A80998C59849A845A8B1B
S31508001E48DA839A8B1A842D4A1188598352889A8379
S31508001E582CE6617E21B1284B9A8CA3889A4201D038
S31508001E68683498E7244B5A8CE3889A42F8D1224B6F
S31508001E785A8B23889A42F3D11F4B9A8B63889A42C6
S31508001E88EED1174B1C60144B00221A701A4B93F8A4
S31508001E982F2012F0040F00F0DA80002363760E4B29
S31508001EA820221A70FEF78CFFAAE5134B9B8C99B271
S31508001EB8184A1380164B00221A70154B1B78002BEC
S31508001EC87FF473AF144A32F81320914226D00133AF
S31508001ED80F4A1370F1E700BFE8050020EC0500205B
S31508001EE8F40500209A060020F0050020E0050020E9
S31508001EF8B20C0020DC050020700600206C060020C5
S31508001F084E050020B40C0020F40C0020F80500202B
S31508001F184C050020560500206006002000249A4B30
S31508001F281C700BE019469948682202FB0302527E88
S31508001F384AB1072A56D00133934A1370924B1B7835
S31508001F48002BEFD002E0682404FB0104002C3FF4C0
S31508001F5857AD8F4B1C600323A37623760023A375FE
S31508001F680422E275E3768B4DAB8CA3806B8CE380F9
S31508001F786B8B2380AB8B638001206076864B1A783F
S31508001F8822735A7862739A78A273DB78E37320828D
S31508001F9895F82930E37295F82830A37295F8273012
S31508001FA8637295F826302372FFF714FC95F82E000D
S31508001FB800F0F003502B3BD9734B00221A70724B72
S31508001FC81B781A4601090539B3EB810F30DA03F194
S31508001FD83601704D695C59B3012911D101336A4A32
S31508001FE81370ECE73CB16949682202FB0312917E3B
S31508001FF8A27E91429FD96824644A04FB03249AE77F
S3150800200802291AD103F13701624D695C042914D1F2
S3150800201802F13801695C3932AB5C43EA01235F4A4D
S31508002028138040F20A62934228BF13466382A3824A
S31508002038584B102283F82F20BCE503F1370255497F
S315080020488A5C002AF4D013444F4A1370B7E7514BF9
S3150800205893F82E301B099B004B480370EB1A9BB26A
S31508002068143B9BB24E48038001F00F01022903D1A5
S3150800207802F03F0112290FD013B912F0030F0BD043
S31508002088444BD98C2389994240F0E781414B198DF5
S315080020986389994240F0E18112F0100F47D0218AEE
S315080020A8002944D004F10C00FFF766FB394B93F876
S315080020B82A303C4A1078834239D1364B93F82B306C
S315080020C851788B4233D1334B93F82C30927893421C
S315080020D82DD1304B93F82D50324BDB789D4226D1C3
S315080020E820736173A273E373E37ECBB9237EA27E62
S315080020F89B1ADBB2A17DA3EBD103DBB25AB2194412
S31508002108C9B2A175002A01DA5B425AB2E07DA2EB90
S31508002118900350FA83F3DBB2E37503EBD103237616
S31508002128214B01221A70237EA37600232382617E1F
S3150800213801F00F03013B072B3FF662ACDFE813F00B
S3150800214808003800AC007001BA01D8018D01610198
S31508002158154B1B7813F0010F3FF452AC0323637633
S31508002168114B40221A70002323820D4B188820B180
S315080021780D4B42221A70FFF72DFB0C4B00221A80D2
S31508002188FEF71EFE4AE400BF4C050020F8050020AD
S31508002198F40500207006002050050020560500208A
S315080021A8DC050020E4050020E8050020B20C002024
S315080021B8AD4B1B7813F0010F64D0AC4B93F82F3056
S315080021C803F03F03122B5DD1A84B93F82E0000F0BD
S315080021D8F003502B2DD9A64B00221A70A44B1B7856
S315080021E81A4601090539B3EB810F22DA03F13601DC
S315080021F89E4D695CE9B1012903D101339C4A1370E4
S31508002208ECE7022934D103F13701984D695C0429B2
S315080022182ED102F13801695C3932AB5C43EA0123F5
S31508002228944A138040F20A62934228BF134663828F
S31508002238A382032363768D4B93F82620227293F89C
S315080022482720627293F82820A27293F82930E3723D
S315080022580120FFF7BFFA844B42221A700023238213
S31508002268854A1380854A1380FEF7AAFDFFF7D6BB71
S3150800227803F137027D498A5C002ADAD013447C4A7E
S315080022881370ABE7784B20221A70FEF799FD7C4B42
S315080022981B6800225A7688E5744B93F82F3013F09A
S315080022A8010F25D011F0100F22D1238A002B7FF4B5
S315080022B8A7AB714D2888013080B2FFF78BFA6A4AB6
S315080022C8137843F0100313702A881AB143F00203EF
S315080022D8654A1370FEF774FD012323820823637683
S315080022E80023E376614B112283F82F20FFF7A4BB5E
S315080022F813F0200F0FD05D4890F834301A0290F882
S31508002308353042EA03065F4D2868304428605A4843
S315080023180288931B0380584B188848B111F0100F90
S3150800232806D1514A137843F002031370FFF752FA9D
S315080023384E4B93F8302093F8313003EB02239BB2C7
S315080023484C4A1380A28A934200D80BB9494B1A8083
S31508002358484B1B886382444B1B7813F0030F3FF4E2
S315080023684FAB464B00221A80FEF72AFDFFF756BBED
S3150800237813F0100F0DD00023404A13800122228241
S3150800238804226276E376394B112283F82F20FFF769
S3150800239853BB3A4A128872B113F0010F01D00023D1
S315080023A82382238ADBB9638A9A4201D9334A13807E
S315080023B8324B1B8823820023E376334B1A68314B4A
S315080023C81A602E4B1B886BB1238A5BB128332A4ABD
S315080023D81380264B182283F82F20FFF730BB274A8D
S315080023E81380E8E7204B1B7813F0020F3FF408AB7D
S315080023F8214B28221A801D4B102283F82F20FFF71D
S315080024081EBB194B1B7813F0010F3FF4F9AA0023DA
S315080024186376154B10221A70FEF7D2FCFFF7F0BA4E
S31508002428154B188808B1FFF7D5F9104B93F82F30D4
S3150800243813F0010F2DD00C4B1B7813F0010F25D084
S31508002448072363760023A37623820120FFF7C2F9C0
S31508002458054B10221A70FEF7B3FC044B102283F8BA
S315080024682F20FFF7E9BA00BFE8050020700600200C
S315080024784C05002056050020DC050020B20C00207B
S31508002488F4050020F0050020E00500200623637601
S31508002498DBE7224B1B7813F0010F05D0052363767B
S315080024A800232382FFF7ACBA1D4B1B88002BD4D117
S315080024B8FFF7A6BA1A4B188808B1FFF78BF9194B14
S315080024C893F82F3013F0010F0CD0072363760023F7
S315080024D8A3760120FFF77EF9104B10221A70FEF733
S315080024E86FFCBAE70E4B1B88002BB6D1FFF788BAE4
S315080024F80A4B1B7813F0010F3FF482AA0723637669
S315080025080023A376FFF77CBA064B062283F8302009
S315080025180A2283F83120FFF7C9BA00BFE805002068
S31508002528DC0500207006002000290CDD08B58AB2F3
S31508002538054B1A80054B1B68834203D0014618468B
S3150800254802F03DF908BD7047B20C0020E0050020EE
S31508002558F0B43A4B00221A70394E02E00133374A72
S315080025681370364B1B78072B18D8354D5A001A4462
S3150800257894002E192A5B002AF0D07488002CEDD016
S315080025880588AA42EAD142889442E7D10C68746061
S31508002598898831812B4B1B78B37222E0274B00229E
S315080025A81A7002E00133254A1370244B1B78072B4F
S315080025B80AD8234D5A001A4494002E192A5B002A71
S315080025C8F0D17288002AEDD1082B0CD00268334660
S315080025D843F8042B0A6872608A889A80194B1B7814
S315080025E8B372F0BC70470023174A1370174A137062
S315080025F8124A137002E00133104A13700F4B1B7806
S31508002608072B11D80F4A147803EB430295000C4A96
S315080026182A44927AA61A0C4D2D78AE42EBDD0A4A60
S3150800262816700A4A1370E6E7084B1B78034A1370B4
S3150800263803EB43039A00024E1644C7E7C205002077
S3150800264860050020C0050020C8050020C105002037
S3150800265810B4164B1C780134E4B21C70144B0022D3
S315080026681A7002E00133124A1370114B1B78072BB4
S3150800267818D810485A001A4491004218415A5288E4
S315080026880A43EFD003EB4302910002460A44927AC2
S31508002698A21A772AE6DD03EB43018A0001460020E1
S315080026A88850DFE75DF8044B704700BFC005002077
S315080026B8C205002060050020324B1B88292B0CD93F
S315080026C810B5304B00221A802F4B9B8AB3F5807FB2
S315080026D807D0B3F5007F43D010BD2A4B00221A80D5
S315080026E87047294BDA8C294B1B889A42F4D1264B1A
S315080026F81A8D264B5B889A42EED1254C2146A01D99
S31508002708FFF726FF002204F8022C022204F8012CFF
S315080027182168C4F80A10A188E1811E490868206062
S315080027288988A18044F8100C24F80C1CD4F80A10DF
S3150800273844F8161CE28924F8122CE2882282228997
S315080027486282124A1188E18052882281082204F896
S315080027580A2C062204F8092C0A4B2A221A80BBE7F7
S31508002768094BDA8C094B1B889A42B5D1064B1A8D48
S31508002778064B5B889A42AFD1054801460630FFF7F3
S31508002788E7FEA9E7DC050020700600206C06002095
S31508002798860600205805002030B4494BDA8B4FF6D8
S315080027A8FF739A421AD0474B1B88474909885340F2
S315080027B8194208D1424B198C424B5B8842484088DB
S315080027C84B40184217D0414B414A11881980528804
S315080027D85A80404B00221A703F4D13E0384B198C2B
S315080027E84FF6FF739942DED1354B3C4A106818609C
S315080027F892889A8021E0354B1A805980E9E7013397
S31508002808344A1370334B1B78072B0ED832485A00B4
S315080028181A44910045182D4A1488425A9442EED112
S315080028282A4A50886A889042E9D1082B16D0244B40
S3150800283855F8042F1A60AA889A80214B284A1168E5
S31508002848C3F8061092885A8108221A7300225A7306
S31508002858244A13880E33138030BC7047184B4FF040
S31508002868FF321A609A8000221A629A841C490868FC
S31508002878C3F8060089885981C3F81600598313498D
S315080028880888D884498819850E4908889883498804
S31508002898D9831A75012159759A73D9730821197438
S315080028A85A7406229A740422DA74197306225A7319
S315080028B836330D4A13600B4B2A221A80CCE700BF21
S315080028C8700600206C06002068060020C405002053
S315080028D864060020C2050020600500209848000804
S315080028E858050020DC050020F005002010B5044630
S315080028F8416001F01FFE206010BD10B5044601F0C6
S3150800290819FE2368C01A63689842B4BF00200120DC
S3150800291810BD08B5642000F005F808BD08B500F034
S3150800292807F808BD014B1880704700BFCA05002084
S3150800293808B5FEF73FF80F4B1B68984210D30E4BA5
S315080029481B7873B901220C4B1A7080210B4801F0C9
S31508002958CDF9FEF72FF80A4B1B881844054B186063
S3150800296808BD0022044B1A708021044801F0BEF9FC
S31508002978EFE700BFD0050020CC0500200004024080
S31508002988CA05002000B595B0274B1A6C42F080524C
S315080029981A641B6C03F080530093009B234B1A6838
S315080029A842F440421A601B6803F440430193019BB2
S315080029B8012307934FF48033089302230D934FF4AA
S315080029C880020E9208220F924FF4D8721092119331
S315080029D8129307A801F078FAB0B901F08DF9C0B9D1
S315080029E80F23029302230393002304934FF4A0535F
S315080029F805934FF480530693072102A801F0BAFC01
S31508002A0860B915B05DF804FB96210948FDF7DFFFA4
S31508002A18E3E79E210648FDF7DAFFE1E7AD2104481A
S31508002A28FDF7D5FFEDE700BF00380240007000400B
S31508002A38A048000808B500F08DF9FFF7A3FF08BD00
S31508002A4800B583B0002502AC04F8015DFFF7F2FF74
S31508002A5800F0EAF8FEF70AF82146284600F0FCF8DE
S31508002A689DF80730012B02D0FEF70EF8FCE7FEF7B3
S31508002A7863F8F9E770B58CB02D4B1A6C42F08052A2
S31508002A881A641A6C02F080520092009A5A6C42F440
S31508002A9880425A645A6C02F480420192019A1A6B6F
S31508002AA842F001021A631A6B02F001020292029AB4
S31508002AB81A6B42F002021A631A6B02F002020392B8
S31508002AC8039A1A6B42F004021A631A6B02F004029C
S31508002AD80492049A1A6B42F008021A631A6B02F0F7
S31508002AE808020592059A1A6B42F040021A631B6B94
S31508002AF803F040030693069B80260796012308934E
S31508002B08002409940A940B4D07A9284600F060FF8B
S31508002B1822463146284601F0E9F84FF40053079350
S31508002B280894099407A9044800F052FF0CB070BD30
S31508002B3800380240000402400008024010B501F0BF
S31508002B4819F9164C00228021204601F0CFF8802179
S31508002B58204601F02DF84FF40051114801F028F8E5
S31508002B68104B1A6B22F040021A631A6B22F00802FD
S31508002B781A631A6B22F004021A631A6B22F002020D
S31508002B881A631A6B22F001021A631A6C22F0805231
S31508002B981A645A6C22F480425A6410BD0004024032
S31508002BA800080240003802400B4B1B68C3F3072095
S31508002BB850FA83F2C3F30740104400EB136000236E
S31508002BC805E0054A1A441279104480B20133372BB6
S31508002BD8F7D9404280B270470000002008B5FFF7D1
S31508002BE8E3FF044B9B8F984201D0002008BD0120C3
S31508002BF8FCE700BF0000002008B5054B1A68054B1E
S31508002C089A4201D0002008BDFFF7E8FFFBE700BF9E
S31508002C1800000020A2E742CE08B5FFF7C5FF014B22
S31508002C28988708BD0000002008B5FFF7E5FF68B9D2
S31508002C38074B084A1A60002304E0054A1A4400218B
S31508002C4811710133372BF8D9FFF7E6FF08BD00BF26
S31508002C5800000020A2E742CE38B505460C46FFF725
S31508002C68CBFF034658B1372D8CBF00230123002C10
S31508002C7808BF00231BB1034A15442A79227018464F
S31508002C8838BD00BF00000020DFF834D0002103E07B
S31508002C980C4B5B58435004310B480C4B42189A426C
S31508002CA8F6D30B4A02E0002342F8043B094B9A4242
S31508002CB8F9D301F017FC01F04FFDFFF7C1FE704785
S31508002CC800000820CC480008400000204C000020DE
S31508002CD84C000020F83D0020FEE7000010B5094B1F
S31508002CE84FF0FF321A6200241C625A625C621A614B
S31508002CF81C615A615C619A619C61FFF71FFF204657
S31508002D0810BD00BF0038024010B504460E4B1878AF
S31508002D184FF47A73B3FBF0F30C4A1068B0FBF3F080
S31508002D2800F07CF868B90F2C01D901200AE00022C6
S31508002D3821464FF0FF3000F03FF8054B1C60002095
S31508002D4800E0012010BD00BF420000204800002016
S31508002D584400002008B5032000F01CF80020FFF7FF
S31508002D68D3FFFFF787FE002008BD000038B50446E4
S31508002D78FDF728FE0546B4F1FF3F02D0044B1B7841
S31508002D881C44FDF71FFE401BA042FAD338BD00BFFE
S31508002D98420000200649CB6823F4E0631B041B0C99
S31508002DA8000200F4E0600343024A1A43CA60704707
S31508002DB800ED00E00000FA0530B4154BDB68C3F3F4
S31508002DC80223C3F10704042C28BF04241D1D062D5D
S31508002DD814D9033B4FF0FF3505FA04F421EA040138
S31508002DE8994005FA03F322EA03031943002807DB87
S31508002DF80901C9B2074B195430BC70470023E9E7E3
S31508002E0800F00F000901C9B2034B1954F4E700BFD3
S31508002E1800ED00E000E400E014ED00E00138B0F150
S31508002E28807F0AD2064B5860064AF02182F823109A
S31508002E380020986007221A6070470120704700BF73
S31508002E4810E000E000ED00E05079137943EA00232A
S31508002E5807480B50D07893781B0443EA00635078E8
S31508002E6843EA002312781343024A8B50704700BF7F
S31508002E784080024044800240016841F218028B589B
S31508002E8843F400538B507047016841F218028B5877
S31508002E9843F002038B50704770B59EB0044629B1BB
S31508002EA84FF40063C3604FF480438360E369002BE3
S31508002EB868D14FF48063079321680B68374A1A402C
S31508002EC8A368E06803430798034343F4007313436E
S31508002ED80B6023681D680120FFF748FF23681D60FB
S31508002EE8236840225A6023685D680120FFF73EFF81
S31508002EF823685D60236800259D602368DD60226875
S31508002F08936923F0BE031B041B0C43F080039361EB
S31508002F1823689E690120FFF729FF23689E612368B5
S31508002F28DD612368DD690120FFF720FF2368DD617D
S31508002F38216841F218054B59194A1A40194B134387
S31508002F484B5123685E590120FFF710FF23685E512D
S31508002F58236803F58053144A1A60236803F58053D7
S31508002F681D680120FFF702FF236803F580531D60DB
S31508002F78A369012B09D0626900212046FFF764FF7F
S31508002F881EB070BD0023079396E7216841F21C021C
S31508002F988858064B03438B50EDE700BF0F8120FF87
S31508002FA8233FDEF8040020028020C1024000010009
S31508002FB810B582B00446002301930268136843F0EB
S31508002FC80803136003681B6801930120FFF7CEFE08
S31508002FD82368019A1A6002B010BD10B582B004467B
S31508002FE8002301930268136843F004031360036817
S31508002FF81B6801930120FFF7B9FE2368019A1A6036
S3150800300802B010BD30B583B00546002301930268A7
S3150800301841F21804135943F48013135103681B59D2
S3150800302801930120FFF7A2FE2B68019A1A5103B0F3
S3150800303830BDF0B490F84540012C31D0012480F811
S315080030484540022480F84440C162002401E0F96042
S3150800305801349C4217D265014F194FF480164E5118
S3150800306840F2F45606FB0426BE60C6691EB94E59D8
S3150800307846F440064E515D1EA542E8D9651C01EB8B
S315080030884515FD60E4E7026841F21003D1500123B3
S3150800309880F84430002380F845301846F0BC70475D
S315080030A80220FBE7F0B490F84540012C2ED0012405
S315080030B880F84540022480F844408162002401E0F3
S315080030C8E96001349C4214D266018D194FF0004715
S315080030D88F5144F2F4566E6040F2F45606FB042605
S315080030E8AE605E1EA642EBD9661C01EB4616EE607C
S315080030F8E7E7026841F20C03D150012380F844300F
S31508003108002380F845301846F0BC70470220FBE7D4
S3150800311890F84530012B00F08580012380F845306A
S31508003128022380F84430B1B1C36A1A68002A1ADB48
S3150800313830B440F2F45291421DD93B4AA2FB0142EF
S31508003148920A40F2F45404FB121404B10132012A1B
S3150800315811D0002347E0012380F84430002280F884
S31508003168452018467047122380F84430002380F813
S315080031784530012070471A6842F040521A60C36AFF
S31508003188C1F30C015960C26A136843F0004313601F
S31508003198C36ADB68C362036841F214029A5812F0DC
S315080031A8040F08D041F2140204219950026841F22A
S315080031B804030021D150012380F84430002380F805
S315080031C84530184630BC7047C56A2C6844F08054A8
S315080031D82C6011E0C56A2C6844F000442C60C46A67
S315080031E8E468C46201339A42D5D9C56A2C6824F0C2
S315080031F840542C60002BE7D0C46A40F2F455656049
S31508003208541E9C42E6D1C56A2C6844F000542C60CA
S31508003218064C04FB021404F2F454C56AC4F30C04FD
S315080032286C60D7E7022070470BB002AC0CFAFFFFB8
S3150800323890F84530012B40D0012380F84530022309
S3150800324880F84430836A1A68002A28DB1A6812F458
S31508003258807F19D0826B01328263012A12D04363B8
S315080032681A68C2F30D42043AC263026B9268026492
S31508003278DB688362012380F84430002380F84530F0
S31508003288184670470363EAE71A6812F4007F0ED0F7
S3150800329803630022426301228263DB688362012397
S315080032A880F84430002280F8452018467047826B1B
S315080032B801328263DB688362F1E702207047F8B55A
S315080032C890F84430DBB2822B33D016460546822363
S315080032D880F844300268136903F01C03048AE40280
S315080032E8A4B223438C0104F4F8641C4344F0010493
S315080032F81461FDF767FB074614F0010F10D0FDF7B8
S3150800330861FBC01BB0F5803F02D22B681C69F3E746
S31508003318012385F84430002385F84530032007E063
S315080033282B685B699BB23360012385F8443000201B
S31508003338F8BD0220FCE790F84430DBB2422B32D0C5
S3150800334870B50546422380F844300068036903F0DF
S315080033581C032C8AE402A4B223438C0104F4F864FF
S315080033681C4344F0030492B242612B681C61FDF7C2
S3150800337829FB064614F0010F10D0FDF723FB801B26
S31508003388B0F5803F02D22B681C69F3E7012385F85C
S315080033984430002385F84530032003E0012385F8E7
S315080033A84430002070BD02207047000070B582B016
S315080033B800230193002800F00C81044690F8443055
S315080033C8002B32D0844B5A6C42F480425A645B6CA8
S315080033D803F480430093009B804B5A6822F400024A
S315080033E85A605A68216A0A435A60236803F5805363
S315080033F81A6842F001021A60FDF7E4FA05462368DE
S3150800340803F58052126812F0010F13D0FDF7DAFAA5
S31508003418401BB0F5FA7FF2D9032584F844500023F7
S3150800342884F84530284602B070BD80F8453001F06A
S3150800343885F8C7E71D6925F01C0501F04DF8684BA6
S315080034480344684A934255D845F0080523681D6120
S315080034584FF4004200212046FFF76DFF0546002875
S3150800346860D1FF20FFF782FC6368002B00F091808B
S31508003478FDF7A8FA064601AA01212046FFF71FFF0D
S31508003488FDF7A0FA801B41F28833984252D8019B6F
S3150800349813F0040FEFD04FF4805200212046FFF7AF
S315080034A84AFF002852D1FDF78DFA064601AA0121DE
S315080034B82046FFF704FFFDF785FA801B41F288339B
S315080034C898424BD8019B13F0200FEFD001AA102180
S315080034D82046FFF7F4FE00284CD1019B13F0040F91
S315080034E850D04FF40062E26013F0020F4DD000236B
S315080034F8A3605EE03C4B03443C4A934202D845F03D
S315080035080C05A3E73A4B03443A4A93429ED93A4BE9
S3150800351803443A4A934202D845F0040596E745F02B
S31508003528100593E701212046FFF7B6FC012584F824
S31508003538445077E701212046FFF7AEFC012384F8BB
S315080035484430002384F8453003256BE701212046DB
S31508003558FFF7A2FC012584F8445063E701212046B9
S31508003568FFF79AFC012384F84430002384F8453091
S31508003578032557E701212046FFF78EFC012584F825
S3150800358844504FE70022E260AEE74FF48043A36059
S315080035980FE0E268C2F3CF02A368C3F34F031A43E6
S315080035A800212046FFF7C7FE58B940F6FF70FFF717
S315080035B8DDFB00212046FFF76FFC012384F8443021
S315080035C830E701212046FFF767FC012584F84450B7
S315080035D828E7012526E700BF0038024000380140E1
S315080035E800D3CEFEBFE1E40040F1E9FD3F787D0156
S315080035F800796CFCFF596202001F0AFA7FF0FA028A
S3150800360838B590F84530012B1AD00446012580F8BC
S315080036184550022380F84430FFF7CAFC2046FFF7D6
S31508003628DCFC2046FFF7EEFC2046FFF725FC204683
S31508003638FFF72AFC84F84450002084F8450038BD72
S315080036480220FCE710B40A490C6924F440740C619A
S315080036580C6944F440740C610C6944F001040C616B
S3150800366802604360BFF34F8F5DF8044B704700BF95
S31508003678003C0240084B1A6922F440721A611A691A
S3150800368842F400721A611A6942F001021A6101606D
S31508003698BFF34F8F704700BF003C0240084B1A69BA
S315080036A822F440721A611A6942F480721A611A6918
S315080036B842F001021A610180BFF34F8F704700BFBD
S315080036C8003C0240074B1A6922F440721A611A69CB
S315080036D81A611A6942F001021A610170BFF34F8F25
S315080036E8704700BF003C02401A4BDB6813F0020F14
S315080036F804D0194A936943F020039361154BDB6894
S3150800370813F0100F04D0144A936943F01003936119
S31508003718104BDB6813F0200F04D00F4A936943F067
S31508003728080393610B4BDB6813F0400F04D00A4A71
S31508003738936943F004039361064BDB6813F0800F23
S3150800374804D0054A936943F002039361014BF222B8
S31508003758DA607047003C0240F40C0020094B1B69EC
S31508003768002B01DB00207047064B074A5A6002F116
S3150800377888325A601B69002B01DB0020704701203C
S31508003788704700BF003C024023016745034A136996
S3150800379843F0004313610020704700BF003C024015
S315080037A838B50446164B00229A61FDF70BF905460B
S315080037B8144BDB6813F4803F0AD0B4F1FF3FF7D007
S315080037C8CCB1FDF7FFF8401BA042F1D903200DE064
S315080037D80C4BDB6813F0F20F09D10A4BDB6813F0C0
S315080037E8010F0AD0074B0122DA60002038BDFFF71F
S315080037F87BFF0120FAE70320F8E70020F6E700BF79
S31508003808F40C0020003C0240F8B51E4C247D012C1F
S3150800381835D01F4616460D4604461A4B01221A7518
S315080038284CF25030FFF7BCFF014698B9032C07D86D
S31508003838DFE804F002151A1FF1B22846FFF742FF1F
S315080038484CF25030FFF7ACFF01460F4A136923F0D4
S31508003858010313610B4B00221A750846F8BDB1B26D
S315080038682846FFF71BFFEBE731462846FFF702FF16
S31508003878E6E732463B462846FFF7E4FEE0E702213C
S31508003888EBE700BFF40C0020003C0240114A13691C
S3150800389823F440731361032910D0022914D00D4A62
S315080038A8136943F0040313610A4A136943EA0020BB
S315080038B840F480301061BFF34F8F7047116948F2A2
S315080038C804030B431361EFE7024A136943F4004301
S315080038D81361E9E7003C024010B449B1012926D032
S315080038E8022902D04FF4407403E04FF4007400E054
S315080038F800240B2800D904300E4B196921F44071AD
S3150800390819611A6922431A611A6922F0F8021A61BA
S315080039181A6942EAC00040F0020018611A6942F4BE
S3150800392880321A61BFF34F8F5DF8044B70474FF426
S315080039388074DEE7003C0240224B1B7D012B3DD0FC
S3150800394870B50E4604461F4B01221A754CF25030C4
S31508003958FFF726FF024660BB4FF0FF333360236844
S31508003968012B16D0A568E368A1680B44AB4220D999
S31508003978217C2846FFF7B0FF4CF25030FFF710FFBE
S31508003988114A136923F0FA031361024680B901350F
S31508003998E9E76168207CFFF779FF4CF25030FFF7BA
S315080039A8FFFE024608490869084B03400B6100E018
S315080039B83560044B00211975104670BD0222104661
S315080039C8704700BFF40C0020003C0240FB7FFFFF55
S315080039D800230F2B00F2E280F0B482B039E0092206
S315080039E800E00022B2403A4302346D4E46F82420DD
S315080039F86C4A1468EA4302EA04064F6817F4803FDB
S31508003A0801D045EA0406674C2660646802EA04069B
S31508003A184F6817F4003F01D045EA0406614C666012
S31508003A28A46802EA04064F6817F4801F01D045EA1D
S31508003A3804065C4CA660E46822404E6816F4001F2B
S31508003A4801D045EA0402574CE26001330F2B00F215
S31508003A58A28001229A400C6804EA0205AA42F4D117
S31508003A684C68122C18BF022C10D1DE08083650F8FC
S31508003A7826C003F00704A7000F24BC402CEA040C50
S31508003A880C69BC4044EA0C0440F8264004685F0008
S31508003A980326BE40F64306EA040C4C6804F0030401
S31508003AA8BC4044EA0C0404604C6804F1FF3C112C41
S31508003AB818BFBCF1010F01D9122C11D1846806EA86
S31508003AC8040CCC68BC4044EA0C048460446824EAC4
S31508003AD8020C4C68C4F300129A4042EA0C0242608F
S31508003AE8C26816408A68BA403243C2604A6812F009
S31508003AF8805FAAD02C4A546C44F480445464526CAF
S31508003B0802F480420192019A9C08A61C244A52F89B
S31508003B18267003F0030296000F22B24027EA02072E
S31508003B28224A90423FF45DAF02F58062904222D065
S31508003B3802F58062904220D002F5806290421ED03B
S31508003B4802F5806290421CD002F5806290421AD033
S31508003B5802F58062904218D002F58062904216D02B
S31508003B6802F58062904214D002F5806290423FF4D2
S31508003B7836AF0A2236E7012234E7022232E7032261
S31508003B8830E704222EE705222CE706222AE7072231
S31508003B9828E7082226E702B0F0BC7047704700BF3E
S31508003BA800380140003C014000380240000002404D
S31508003BB800230F2B00F29280F0B50AE0092500E0F1
S31508003BC8002505FA02F2A2426FD001330F2B00F244
S31508003BD8848001229A4002EA0106B242F5D10568B4
S31508003BE85F000324BC40E443254005604FEAD30C34
S31508003BF80CF1080C50F82CE003F00705AD000F2768
S31508003C0807FA05F52EEA050540F82C50856825407B
S31508003C188560456825EA02024260C2681440C460A5
S31508003C284FEA930C0CF102042D4A52F8244003F08B
S31508003C380302920097403C402A4DA842C0D005F599
S31508003C488065A84221D005F58065A8421FD005F5EC
S31508003C588065A8421DD005F58065A8421BD005F5E4
S31508003C688065A84219D005F58065A84217D005F5DC
S31508003C788065A84215D005F58065A84213D005F5D4
S31508003C888065A8429AD00A259BE7012599E7022567
S31508003C9897E7032595E7042593E7052591E706257C
S31508003CA88FE707258DE708258BE70D4D0CF10202EE
S31508003CB855F8224024EA070745F822700A4C256871
S31508003CC8F24315402560656815406560A568154086
S31508003CD8A560E5682A40E26077E7F0BD704700BF4F
S31508003CE80038014000000240003C014012B90904AE
S31508003CF8816170478161704710B582B01B4B1A6C99
S31508003D0842F080521A641B6C03F080530193019B9E
S31508003D18174A136843F480331360FCF753FE0446C6
S31508003D28134B5B6813F4803F08D1FCF74BFE001B66
S31508003D38B0F57A7FF4D9032002B010BD0C4A13688F
S31508003D4843F400331360FCF73DFE0446084B5B68F2
S31508003D5813F4003F07D1FCF735FE001BB0F57A7F50
S31508003D68F4D90320E8E70020E6E700BF0038024058
S31508003D780070004038B5FCF725FE04464E4A13681D
S31508003D8843F0010313604C4B1B6813F0020F07D16D
S31508003D98FCF718FE001B0228F5D90323184638BD78
S31508003DA8454D2B6843F080032B60FCF70BFE044651
S31508003DB80023AB60404B9B6813F00C0F08D0FCF748
S31508003DC801FE001B41F288339842F3D90323E5E73D
S31508003DD8FCF7F8FD0446384A136823F450231360A1
S31508003DE8354B1B6813F4003F06D0FCF7EBFD001BA8
S31508003DF86428F5D90323D1E7FCF7E4FD04462E4ADF
S31508003E08136823F0807313602B4B1B6813F0007F2D
S31508003E1806D0FCF7D7FD001B0228F5D90323BDE712
S31508003E28FCF7D0FD0446244A136823F08063136020
S31508003E38214B1B6813F0006F06D0FCF7C3FD001B67
S31508003E486428F5D90323A9E7FCF7BCFD04461A4AF2
S31508003E58136823F080531360174B1B6813F0005F31
S31508003E6806D0FCF7AFFD001B6428F5D9032395E7B0
S31508003E78114B124A5A60103AC3F88420C3F88820AE
S31508003E88DA6822F4FE42DA60DA6842F47F02DA6017
S31508003E985A6F22F001025A675A6F42F080725A67BF
S31508003EA8074B084A1A600020FEF72EFF034600282B
S31508003EB83FF474AF012371E700380240103000243C
S31508003EC8480000200024F400002800F0DC8170B5C2
S31508003ED882B00446036813F0010F29D0A24B9B68E9
S31508003EE803F00C03042B1AD09F4B9B6803F00C03B2
S31508003EF8082B0FD06368B3F5803F40D0002B54D108
S31508003F08994B1A6822F480321A601A6822F48022B9
S31508003F181A6039E0944B5B6813F4800FEAD0924B29
S31508003F281B6813F4003F03D06368002B00F0AD81CB
S31508003F38236813F0020F75D08B4B9B6813F00C0F90
S31508003F485ED0894B9B6803F00C03082B53D0E368B3
S31508003F58002B00F08A80844A136843F00103136033
S31508003F68FCF730FD0546804B1B6813F0020F73D12A
S31508003F78FCF728FD401B0228F5D9032088E17A4A70
S31508003F88136843F48033136063682BB3FCF71AFD90
S31508003F980546754B1B6813F4003FC9D1FCF712FD9B
S31508003FA8401B6428F5D9032072E1B3F5A02F09D080
S31508003FB86D4B1A6822F480321A601A6822F4802235
S31508003FC81A60E1E7684B1A6842F480221A601A6890
S31508003FD842F480321A60D7E7FCF7F4FC0546624BD0
S31508003FE81B6813F4003FA3D0FCF7ECFC401B6428BD
S31508003FF8F5D903204CE15C4B5B6813F4800FA6D116
S31508004008594B1B6813F0020F04D0E368012B01D043
S3150800401801203DE1544A136823F0F803216943EA6D
S31508004028C1031360236813F0080F46D0636983B386
S315080040384D4A536F43F001035367FCF7C3FC054623
S31508004048494B5B6F13F0020F37D1FCF7BBFC401BDB
S315080040580228F5D903201BE1434A136823F0F8031D
S31508004068216943EAC1031360DCE73F4A136823F072
S3150800407801031360FCF7A6FC05463B4B1B6813F0C7
S31508004088020FCFD0FCF79EFC401B0228F5D9032067
S31508004098FEE0354A536F23F001035367FCF792FC99
S315080040A80546314B5B6F13F0020F06D0FCF78AFC06
S315080040B8401B0228F5D90320EAE0236813F0040F09
S315080040C87ED0294B1B6C13F0805F1ED1264B1A6CC9
S315080040D842F080521A641B6C03F080530193019BCB
S315080040E80125224B1B6813F4807F10D0A368012B87
S315080040F821D0002B3CD11C4B1A6F22F001021A67FB
S315080041081A6F22F004021A671AE00025E9E7174A27
S31508004118136843F480731360FCF754FC0646134B84
S315080041281B6813F4807FE1D1FCF74CFC801B6428DC
S31508004138F5D90320ACE00C4A136F43F00103136763
S31508004148A3685BB3FCF73EFC0646074B1B6F13F0E8
S31508004158020F34D1FCF736FC801B41F288339842AB
S31508004168F3D9032094E000BF0038024000700040ED
S31508004178052B09D0484B1A6F22F001021A671A6FE5
S3150800418822F004021A67DBE7434B1A6F42F004026F
S315080041981A671A6F42F001021A67D1E7FCF712FC90
S315080041A806463D4B1B6F13F0020F08D0FCF70AFCB6
S315080041B8801B41F288339842F3D9032068E0F5B9A1
S315080041C8A369002B63D0344A926802F00C02082AC5
S315080041D860D0022B19D0304A136823F08073136015
S315080041E8FCF7F0FB04462C4B1B6813F0007F48D0FD
S315080041F8FCF7E8FB001B0228F5D9032048E0264A05
S31508004208136C23F080531364DAE7234A136823F000
S3150800421880731360FCF7D6FB05461F4B1B6813F023
S31508004228007F06D0FCF7CEFB401B0228F5D90320F1
S315080042382EE0E369226A1343626A43EA8213A26A92
S315080042485208013A43EA0243E26A43EA0263226BE6
S3150800425843EA0273104A5360136843F08073136085
S31508004268FCF7B0FB04460C4B1B6813F0007F06D11D
S31508004278FCF7A8FB001B0228F5D9032008E0002054
S3150800428806E0002004E001207047012000E0002035
S3150800429802B070BD0120FBE700380240324B9B682C
S315080042A803F00C03042B5CD0082B01D02F48704769
S315080042B82DE9F04B2C4B5A6802F03F025B6813F461
S315080042C8800F2BD0284B5B68C3F388131E4600273C
S315080042D85C010025E41A65EB0705A90141EA946122
S315080042E8A001001B61EB0501CB0043EA5073C4002B
S315080042F8A01943EB07014B0243EAD0534402204670
S3150800430819460023FBF794FF174B5B68C3F3014371
S3150800431801335B00B0FBF3F0BDE8F08B124B5B682A
S31508004328C3F388131E4600275C010025E41A65EBCB
S315080043380705A90141EA9461A001001B61EB050183
S31508004348CB0043EA5073C400A01943EB07018B025C
S3150800435843EA90538402204619460023FBF768FF70
S31508004368D2E70348704700BF003802400024F4002B
S3150800437800127A00002800F0A28070B50446524B55
S315080043881B6803F00F038B420CD24F4A136823F0BD
S315080043980F030B431360136803F00F038B4201D016
S315080043A8012070BD236813F0020F17D013F0040F0D
S315080043B804D0464A936843F4E0539360236813F09D
S315080043C8080F04D0414A936843F4604393603F4A10
S315080043D8936823F0F003A068034393600D462368A7
S315080043E813F0010F31D06368012B20D0022B25D09A
S315080043F8364A126812F0020F63D034498A6822F0E6
S31508004408030213438B60FCF7DDFA06462F4B9B68BD
S3150800441803F00C036268B3EB820F16D0FCF7D2FAE6
S31508004428801B41F288339842F0D90320B9E7274A16
S31508004438126812F4003FE0D10120B2E7234A126855
S3150800444812F0007FD9D10120ABE71F4B1B6803F098
S315080044580F03AB420CD91C4A136823F00F032B43EE
S315080044681360136803F00F03AB4201D0012098E7E5
S31508004478236813F0040F06D0144A936823F4E0530C
S31508004488E1680B439360236813F0080F07D00F4AB7
S31508004498936823F46043216943EAC1039360FFF7ED
S315080044A8FDFE0A4B9B68C3F30313094AD35CD8403D
S315080044B8084B18600020FEF727FC002071E701204A
S315080044C8704701206DE700BF003C024000380240F3
S315080044D8AC48000848000020014B1868704700BF20
S315080044E84800002010B40F4AD2F8883043F4700305
S315080044F8C2F888300C4B196841F001011960002090
S3150800450898601C6809492140196009495960196861
S3150800451821F480211960D8604FF0006393605DF834
S31508004528044B704700ED00E000380240FFFFF6FE36
S315080045381030002408B5FCF73DFA08BD0268294B77
S315080045489A4200D07047F0B589B0A3F590431A6B24
S3150800455842F000721A631A6B02F000720092009A0F
S315080045681A6B42F080621A631A6B02F08062019233
S31508004578019A1A6B42F000621A631B6B03F0006318
S315080045880293029B32230393022704970026059673
S31508004598032506950B24079403A91348FFF718FA69
S315080045A886230393049705960695079403A90F4847
S315080045B8FFF70EFA4FF400530393049705960695EA
S315080045C8079403A90A48FFF703FA4FF420530393FD
S315080045D8049705960695079403A90648FFF7F8F978
S315080045E809B0F0BD00800240000802400000024001
S315080045F8000402400018024010B5144A002313703C
S3150800460880215170E1219170D37013715371104C48
S31508004618104921600121616023826261A361E36117
S315080046284FF4000323622046FEF7C0FE04230A4A15
S315080046380A492046FEF7FDFC0423094A094920468B
S31508004648FEF730FD2046FEF7DBFF10BDD405002037
S31508004658E02500200080024028260020100D0020B2
S31508004668900D002060250020074A1178074B19701D
S315080046785178597091789970D178D97011791971DA
S3150800468852795A71704700BFD40500205805002092
S3150800469838B51248FEF7CCFD10B10024204638BDBF
S315080046A80E4DAC8F2246296C0D4800F088F82A6B07
S315080046B8136843F0004313600023AB632B6841F289
S315080046C814029A5812F0800FE8D041F21402802199
S315080046D8995041F2080200219950DFE7E0250020A9
S315080046E87006002038B5194BDC6AFCF763F900F147
S315080046F8FA052368002B07DAFCF72EFAFCF75AF9AD
S31508004708A842F6D9002300E0012383B90F4B1B689A
S3150800471841F214029A5812F0200F07D041F21402F7
S315080047282021995041F204020021995038BD084BBE
S315080047381D88064CE36A2A460649986800F03FF839
S3150800474829462046FEF7E4FCE0E700BFE0250020FE
S31508004758DC0500207006002070B50D4E0D4CA41B14
S31508004768A4100025A54209D10B4E0C4C00F03AF8C6
S31508004778A41BA4100025A54205D170BD56F82530FE
S3150800478898470135EEE756F8253098470135F2E798
S31508004798C4480008C4480008C4480008C8480008AF
S315080047A830B50024A24201D1002007E0035D013498
S315080047B80D1915F8015CAB42F4D0581B30BD10B57D
S315080047C8431E0A44914200D110BD11F8014B03F863
S315080047D8014FF7E702440346934200D1704703F8AE
S315080047E8011BF9E7F8B500BFF8BC08BC9E46704738
S311080047F8F8B500BFF8BC08BC9E46704728
S315080048040080000800800000010000000000010884
S3150800481400800000020000000080010800800000FB
S315080048240300000000000208000002000400000063
S315080048340000040800000400050000000000080841
S31508004844000004000600000000000C080000040034
S31508004854070000000000100800000400080000001B
S3150800486400001408000004000900000000001808ED
S31508004874000004000A00000000001C0800000400F0
S315080048840B0000004F70656E424C540063825363FC
S31508004894ADDE1223FFFFFFFFFFFF00002E2E2F6D54
S315080048A461696E2E6300000000000000000000002D
S30D080048B40102030406070809C6
S30D080048BCACB9FF7F0100000002
S309080048C41D020008BB
S309080048C8F9010008DC
S311080048CC04010100100000000024F400A4
S70508002C9135
