S01200004D61696E456E67696E652E7372656337
S3150800800000000820D5B1000859AE000867AE000880
S315080080106DAE000873AE000879AE000800000000D7
S3150800802000000000000000000000000011420108E6
S315080080307FAE000800000000114401088DAE00085C
S3150800804025B2000825B2000825B2000825B20008A6
S3150800805025B2000825B2000825B2000825B2000896
S3150800806025B2000825B2000825B2000825B2000886
S3150800807025B2000825B2000825B2000825B2000876
S3150800808025B2000825B2000825B2000825B2000866
S3150800809025B2000825B2000825B2000825B2000856
S315080080A025B20008A9AE000825B2000825B20008C6
S315080080B025B20008BDAE000825B2000825B20008A2
S315080080C025B2000825B2000825B2000825B2000826
S315080080D025B20008DDAE000825B2000825B2000862
S315080080E025B2000825B2000825B2000825B2000806
S315080080F025B2000825B2000825B2000825B20008F6
S3150800810025B2000825B20008F1AE000825B200081D
S3150800811025B2000825B2000805AF000821AF0008FF
S3150800812025B20008F9AF00080DB0000825B200080E
S3150800813025B2000821B0000825B2000825B20008BB
S3150800814025B2000825B2000825B2000825B20008A5
S3150800815025B2000835B0000825B2000825B2000887
S3150800816025B2000825B2000825B2000825B2000885
S3150800817025B2000825B2000825B200080000000054
S3150800818025B2000825B2000825B2000825B2000865
S3150800819025B2000825B2000825B2000825B2000855
S315080081A025B2000825B2000825B2000825B2000845
S315080081B025B2000825B2000825B2000825B2000835
S315080081C025B2000825B200080000000025B2000804
S315080081D025B2000825B2000825B2000825B2000815
S315080081E025B2000825B2000825B2000825B2000805
S311080081F025B2000825B20008EE11AA55B9
S3150800820010B5054C237833B9044B13B10448AFF3C2
S3150800821000800123237010BDC40000200000000068
S315080082205018020808B5034B1BB103490348AFF3BE
S31508008230008008BD00000000C80000205018020891
S3150800824010F8012B11F8013B012A28BF9A42F7D0F2
S31508008250D01A7047034613F8012B002AFBD1181AC7
S315080082600138704700000000000000000000000010
S3150800827001F0FF01102A2BDB10F0070F08D010F8C9
S31508008280013B013A8B422DD010F0070F42B3F6D1CD
S31508008290F0B441EA012141EA014122F007047FF0E6
S315080082A000070023F0E80256083C85EA010586EA3D
S315080082B0010685FA47F5A3FA87F586FA47F6A5FA79
S315080082C087F68EB9EED1F0BC01F0FF0102F0070285
S315080082D032B110F8013B013A83EA010313B1F8D130
S315080082E00020704701387047002D06BF3546033811
S315080082F0073815F0010F07D1013015F4807F02BF4A
S31508008300013015F4C03F0130F0BC0138704700BF9A
S3150800831053B94AB9002908BF00281CBF4FF0FF31DE
S315080083204FF0FF3000F072B9ADF1080C6DE904CEDC
S3150800833000F006F8DDF804E0DDE9022304B0704732
S315080083402DE9F047089E04468846002B4BD18A4201
S31508008350154667D9B2FA82F24AB1C2F1200701FA84
S3150800836002F320FA07F7954047EA030894404FEAD4
S31508008370154E230CB8FBFEF71FFA85FC0EFB178873
S3150800838043EA084307FB0CF1994209D9EB1807F1B0
S31508008390FF3080F01B81994240F21881023F2B443E
S315080083A05B1AA4B2B3FBFEF00EFB103344EA034497
S315080083B000FB0CFCA44509D92C1900F1FF3380F009
S315080083C00781A44540F2048102382C4440EA07405C
S315080083D0A4EB0C0400271EB1D4400023C6E90043D1
S315080083E03946BDE8F0878B4209D9002E00F0EB80AC
S315080083F00027C6E9000138463946BDE8F087B3FAD2
S3150800840083F7002F47D18B4202D3824200F2FA80CB
S31508008410841A61EB030301209846002EE0D0C6E9D2
S315080084200048DDE702B9FFDEB2FA82F2002A40F020
S315080084308F80491B4FEA154E1FFA85F80127B1FBB5
S31508008440FEFC230C0EFB1C1143EA014308FB0CF14E
S31508008450994207D9EB180CF1FF3002D2994200F283
S31508008460CD808446591AA3B2B1FBFEF00EFB101458
S3150800847043EA044408FB00F8A04507D92C1900F183
S31508008480FF3302D2A04500F2B6801846A4EB0804D2
S3150800849040EA0C409FE7C7F1200CBB4022FA0CFECD
S315080084A04EEA030E01FA07F420FA0CF521FA0CF34A
S315080084B04FEA1E482543B3FBF8F92C0C08FB193381
S315080084C01FFA8EFA44EA034309FB0AF49C4202FAAD
S315080084D007F200FA07F10BD91EEB030309F1FF3087
S315080084E080F087809C4240F28480A9F10209734497
S315080084F01B1BADB2B3FBF8F008FB103345EA034487
S3150800850000FB0AFAA24508D91EEB040400F1FF3362
S315080085106BD2A24569D90238744440EA0940A0FBE7
S315080085200289A4EB0A044C45C2464B4654D351D0A3
S31508008530002E69D0B1EB0A0564EB030404FA0CFCBF
S31508008540FD40FC404CEA0505C6E90054002747E70C
S31508008550C2F1200320FA03F7954001FA02F021FA46
S3150800856003F34FEA154E3843010CB3FBFEF71FFA27
S3150800857085F80EFB173341EA034107FB08F38B42E4
S3150800858004FA02F407D9691807F1FF3C2FD28B4287
S315080085902DD9023F2944CB1A81B2B3FBFEF00EFB5C
S315080085A0103341EA034100FB08F38B4207D96918E7
S315080085B000F1FF3C17D28B4215D902382944C91A53
S315080085C040EA07473BE73746304609E70746E7E606
S315080085D01846FBE64145ABD2B8EB020A69EB0E0238
S315080085E001381346A4E76046E9E7184695E7674663
S315080085F0D1E781467CE702382C4447E7ACF1020C08
S315080086002B442FE7384608E73746E9E6704700BFA8
S3150800861080B582B000AF0346FB71FB79002B08D00A
S31508008620012B00D00BE001220221074805F03EF895
S3150800863005E000220221044805F038F800BF00BF13
S315080086400837BD4680BD00BF0018024080B582B01D
S3150800865000AF0346FB71FB79002B08D0012B00D035
S315080086600BE001220121074805F020F805E0002269
S315080086700121044805F01AF800BF00BF0837BD46B7
S3150800868080BD00BF0018024080B582B000AF034627
S31508008690FB71FB79002B02D0012B07D00DE00122DC
S315080086A04FF40041074805F001F806E000224FF4B0
S315080086B00041044804F0FAFF00BF00BF0837BD4672
S315080086C080BD00BF0018024080B582B000AF0346E7
S315080086D00A46FB711346BB71FB79012B10D0022B9E
S315080086E01BD0002B26D100224FF480511D4804F0E0
S315080086F0DDFF00224FF400711A4804F0D7FF19E095
S3150800870001224FF48051174804F0D0FF00224FF49D
S315080087100071144804F0CAFF0CE000224FF480519F
S31508008720104804F0C3FF01224FF400710D4804F00D
S31508008730BDFF00BFBB79002B02D0012B07D00DE08F
S3150800874001224FF48061074804F0B0FF06E00022DA
S315080087504FF48061034804F0A9FF00BF00BF083743
S31508008760BD4680BD0018024080B582B000AF10F04B
S31508008770C3FA0246124B1A60114B1B68002B1BD01A
S315080087800F4B1B6807220F4918460FF015FA0346C8
S31508008790FB7197F90730002B0ED1094B1B68FF2197
S315080087A018460FF0C1FA0246054B1A60044B1B68BF
S315080087B00549184610F02EFB00BF0837BD4680BD98
S315080087C0E000002070520308CD87000880B586B007
S315080087D000AFF860B9601346FB710121B86810F064
S315080087E099F80C200DF0DCFB38613B69002B1CD096
S315080087F03B6901221A703B69BA685A603B690022D4
S315080088005A703B6900229A603969B86810F08AFA8A
S315080088100A49B86810F098FA094B00221A60002332
S31508008820FB75084806F0FCFA01E0FF23FB7597F98B
S31508008830173018461837BD4680BD00BF498800085E
S31508008840E400002058960120B0B588B000AFF86063
S31508008850B9607A60FB707B68002B08D1B8680FF0A6
S31508008860B5F80021B86810F06FFA002386E07B6837
S315080088705B891946B8680FF06DFB78680EF004FC42
S315080088807B685B891A463F4B1B6813443D4A136055
S315080088900023FB6107E03C4AFB69134400221A7077
S315080088A0FB690133FB61FB69632BF4DD374807F08D
S315080088B033FA364BDB6E1B6864225A6064223249EF
S315080088C0324807F0A5F97B6859687B685A890A23F4
S315080088D02E4807F00BF97B6858896B461D460346F8
S315080088E0013BBB6181B24FF000024FF000034FF02D
S315080088F00004D40044EA5174CB0081B24FF0000260
S315080089004FF000034FF00004D40044EA5174CB0042
S3150800891003460733DB08DB00ADEB030D6B4600337C
S315080089207B6178697B6859687B685B891A4617F0AA
S31508008930DEFD7B695B78D12B0BD07B695B78D02B0E
S3150800894007D07B695B78F62B03D07B695B780F2BA6
S3150800895005D100BF0C4B5B78002BFBD002E00A2048
S3150800896002F03AFD084B1B789BB201339AB20123F9
S315080089700549B86813F012F90023AD4618462037A2
S31508008980BD46B0BDE40000208CB2002080950120D1
S3150800899080B588B000AFC04B1B881BB207EE903A73
S315080089A0B8EEE77B9FEDBA6B27EE067BBB4B1B68E1
S315080089B0F7EEC77BBA4A9B001344C3ED007AB74B60
S315080089C01B68B74A9B001344D3ED007AF5EEC07ACC
S315080089D0F1EE10FA13D5B14B1B68B14A9B0013444C
S315080089E0D3ED007AB7EEE77AF7EEC77BAB4B1B6899
S315080089F0F1EE677AAA4A9B001344C3ED007AA74BA7
S31508008A001B68A74A9B00134493ED007AA34B1B6887
S31508008A10A34A9B001344D3ED007A27EE277AA14B8D
S31508008A20D3ED007A77EE277A9E4BC3ED007A9A4B00
S31508008A305B881BB207EE903AB8EEE77B9FED946B26
S31508008A4027EE067B954B1B68F7EEC77B964A9B007D
S31508008A501344C3ED007A914B1B68934A9B00134459
S31508008A60D3ED007AF5EEC07AF1EE10FA13D58B4BFA
S31508008A701B688D4A9B001344D3ED007AB7EEE77A5C
S31508008A80F7EEC77B854B1B68F1EE677A864A9B0033
S31508008A901344C3ED007A814B1B68834A9B00134439
S31508008AA093ED007A7D4B1B687F4A9B001344D3EDF8
S31508008AB0007A27EE277A7D4BD3ED007A77EE277A70
S31508008AC07A4BC3ED007A744B9B881BB207EE903A3B
S31508008AD0B8EEE77B9FED6E6B27EE067B6F4B1B6848
S31508008AE0F7EEC77B724A9B001344C3ED007A6B4BC3
S31508008AF01B686F4A9B001344D3ED007AF5EEC07AE3
S31508008B00F1EE10FA13D5654B1B68694A9B001344AE
S31508008B10D3ED007AB7EEE77AF7EEC77B5F4B1B68B3
S31508008B20F1EE677A624A9B001344C3ED007A5B4B09
S31508008B301B685F4A9B00134493ED007A574B1B68EA
S31508008B405B4A9B001344D3ED007A27EE277A594BEC
S31508008B50D3ED007A77EE277A564BC3ED007A4E4B63
S31508008B60DB881BB207EE903AB8EEE77B9FED486BC1
S31508008B7027EE067B494B1B68F7EEC77B4E4A9B00E0
S31508008B801344C3ED007A454B1B684B4A9B001344BC
S31508008B90D3ED007AF5EEC07AF1EE10FA13D53F4B15
S31508008BA01B68454A9B001344D3ED007AB7EEE77A73
S31508008BB0F7EEC77B394B1B68F1EE677A3E4A9B0096
S31508008BC01344C3ED007A354B1B683B4A9B0013449C
S31508008BD093ED007A314B1B68374A9B001344D3ED5B
S31508008BE0007A27EE277A354BD3ED007A77EE277A87
S31508008BF0324BC3ED007A284B1B891BB207EE903A1D
S31508008C00B8EEE77B9FED226B27EE067B234B1B68AE
S31508008C10F7EEC77B2A4A9B001344C3ED007A1F4B25
S31508008C201B68274A9B001344D3ED007AF5EEC07AF9
S31508008C30F1EE10FA13D5194B1B68214A9B00134411
S31508008C40D3ED007AB7EEE77AF7EEC77B134B1B68CE
S31508008C50F1EE677A1A4A9B001344C3ED007A0F4B6C
S31508008C601B68174A9B00134493ED007A0B4B1B684D
S31508008C70134A9B001344D3ED007A27EE277A114B4B
S31508008C80D3ED007A77EE277A0E4BC3ED007A1BE018
S31508008C90A00050002800343F840A0120141D01203A
S31508008CA02C1D0120EC2F0120C85601202856012032
S31508008CB02843012024560120507C0120E44201204B
S31508008CC0FC2F0120108F0120B54B5B891BB207EEE4
S31508008CD0903AB8EEE77B9FEDAE6B27EE067BB14B7D
S31508008CE01B68F7EEC77BB04A9B001344C3ED007AB6
S31508008CF0AC4B1B68AC4A9B001344D3ED007AF5EEE7
S31508008D00C07AF1EE10FA13D5A64B1B68A64A9B004B
S31508008D101344D3ED007AB7EEE77AF7EEC77BA14B9B
S31508008D201B68F1EE677AA04A9B001344C3ED007AEC
S31508008D309C4B1B689C4A9B00134493ED007A994B05
S31508008D401B68994A9B001344D3ED007A27EE277ACD
S31508008D50964BD3ED007A77EE277A944BC3ED007ADB
S31508008D60934B1B68013B052B00F2F18301A252F8D5
S31508008D7023F000BF8D8D0008818F0008F190000850
S31508008D80EF9100082393000821940008894B4FF0BF
S31508008D9000021A600023FB611FE0824B1B685A1F02
S31508008DA0FB691344844A9B00134493ED007A814B74
S31508008DB0D3ED007AB4EEE77AF1EE10FA0ADD794BD4
S31508008DC01B685A1FFB6913447B4A9B0013441B68A4
S31508008DD0784A1360FB690133FB61FB69052BDCDD0F
S31508008DE0744BD3ED007AB7EEE77A9FED6B6B87EE9F
S31508008DF0065BB0EE450B18F0CDFAB0EE406BB3EE5D
S31508008E00047B26EE077BF7EEC77B6C4BC3ED007A37
S31508008E106B4B93ED007A674BD3ED007AB4EEE77AA5
S31508008E20F1EE10FA03D5634B1B68654A1360654B70
S31508008E3093ED007A644BD3ED007AB4EEE77AF1EE5F
S31508008E4010FA03D5604B1B685E4A13605F4B93EDBF
S31508008E50007A5F4BD3ED007AB4EEE77AF1EE10FABA
S31508008E6003D55B4B1B68594A13605A4B93ED007A3E
S31508008E70594BD3ED007AB4EEE77AF1EE10FA03D542
S31508008E80554B1B68534A1360544B93ED007A544B69
S31508008E90D3ED007AB4EEE77AF1EE10FA03D5504B2B
S31508008EA01B684E4A13604F4B93ED007A4E4BD3ED39
S31508008EB0007AB4EEE77AF1EE10FA03D54A4B1B684E
S31508008EC0484A1360494B93ED007A3C4BD3ED007A40
S31508008ED0B4EEE77AF1EE10FA03D5384B1B68434A2D
S31508008EE01360424B93ED017A414BD3ED007AB4EE11
S31508008EF0E77AF1EE10FA03D53D4B1B683B4A5360FF
S31508008F003A4B93ED027A3B4BD3ED007AB4EEE77A0F
S31508008F10F1EE10FA03D5374B1B68344A9360334B8E
S31508008F2093ED037A344BD3ED007AB4EEE77AF1EE9B
S31508008F3010FA03D5304B1B682C4AD3602B4B93EDA4
S31508008F40047A2E4BD3ED007AB4EEE77AF1EE10FAF6
S31508008F5003D52A4B1B68254A1361244B93ED057AE2
S31508008F60274BD3ED007AB4EEE77AF1EE10FA03D583
S31508008F70234B1B681D4A53610D4B02221A60E6E219
S31508008F80114B4FF000021A600023BB6191E000BF4D
S31508008F90A00050002800343F85EB51B81E85F13FEC
S31508008FA0840A0120141D01208C690120F82F012054
S31508008FB0244301201C1D01202C1D01205856012088
S31508008FC0B0DC002014B70020F04201208CF100200C
S31508008FD0241D01207CE50020C056012080ED0020DC
S31508008FE0D41C01209C0A0120D8420120A41A012081
S31508008FF0F02F0120C4560120081D0120EC42012053
S31508009000F42F01209C4B1B68002B32D1BB69002B27
S3150800901015DC9A4ABB699B00134493ED007A984B7A
S31508009020D3ED007AB4EEE77AF1EE10FA3EDD934A14
S31508009030BB699B0013441B68924A136036E0BB6900
S31508009040C3F596638D4A9B00134493ED007A8C4BC7
S31508009050D3ED007AB4EEE77AF1EE10FA26DDBB69B5
S31508009060C3F59663854A9B0013441B68844A1360BC
S315080090701CE0814B1B689A1FBB6913447F4A9B00FF
S31508009080134493ED007A7E4BD3ED007AB4EEE77A7B
S31508009090F1EE10FA0ADD784B1B689A1FBB69134478
S315080090A0764A9B0013441B68754A1360BB690133F3
S315080090B0BB61BB69052BA5DD714BD3ED007AB7EE15
S315080090C0E77A9FED6B6B87EE065BB0EE450B18F003
S315080090D061F9B0EE406BB3EE047B26EE077BF7EE44
S315080090E0C77B694BC3ED007A684B03221A602EE2F0
S315080090F0674B4FF000021A6000237B6158E05E4B15
S315080091001B68012B34D17B69012B15DC614A7B690D
S315080091109B00134493ED007A5D4BD3ED007AB4EED1
S31508009120E77AF1EE10FA40DD5A4A7B699B00134450
S315080091301B68574A136038E07A6940F2B1439B1AB4
S31508009140544A9B00134493ED007A514BD3ED007AB1
S31508009150B4EEE77AF1EE10FA27DD7A6940F2B14308
S315080091609B1A4C4A9B0013441B68494A13601CE02F
S31508009170414B1B689A1F7B691344464A9B0013445C
S3150800918093ED007A424BD3ED007AB4EEE77AF1EE2E
S3150800919010FA0ADD384B1B689A1F7B6913443D4A4F
S315080091A09B0013441B683A4A13607B6901337B6151
S315080091B07B69052BA3DD364BD3ED007AB7EEE77A4C
S315080091C09FED2B6B87EE065BB0EE450B18F0E2F8C9
S315080091D0B0EE406BB3EE047B26EE077BF7EEC77B5B
S315080091E02D4BC3ED007A294B04221A60AFE12B4BB5
S315080091F04FF000021A6000233B6173E01E4B1B68A8
S31508009200022B4FD13B69022B15DC254A3B699B0093
S31508009210134493ED007A214BD3ED007AB4EEE77A46
S31508009220F1EE10FA5BDD1E4A3B699B0013441B688E
S315080092301A4A136053E03A6940F2B2439B1A184A35
S315080092409B00134493ED007A144BD3ED007AB4EEE9
S31508009250E77AF1EE10FA42DD3A6940F2B2439B1A18
S315080092600F4A9B0013441B680C4A136037E000BF83
S3150800927085EB51B81E85F13F141D0120C856012003
S31508009280F04201201C1D0120F02F0120244301205B
S31508009290241D012028430120C4560120C056012060
S315080092A0507C0120804B1B689A1F3B6913447F4AF8
S315080092B09B00134493ED007A7D4BD3ED007AB4EE10
S315080092C0E77AF1EE10FA0ADD774B1B689A1F3B69BD
S315080092D01344764A9B0013441B68754A13603B691E
S315080092E001333B613B69052B88DD714BD3ED007A71
S315080092F0B7EEE77A9FED6A6B87EE065BB0EE450B35
S3150800930018F048F8B0EE406BB3EE047B26EE077B08
S31508009310F7EEC77B674BC3ED007A674B05221A60E9
S3150800932015E1664B4FF000021A600023FB6058E017
S315080093305D4B1B68032B34D1FB68032B15DC604A95
S31508009340FB689B00134493ED007A5C4BD3ED007ADF
S31508009350B4EEE77AF1EE10FA40DD594AFB689B0055
S3150800936013441B68554A136038E0FA6840F2B34361
S315080093709B1A534A9B00134493ED007A4F4BD3ED47
S31508009380007AB4EEE77AF1EE10FA27DDFA6840F2D1
S31508009390B3439B1A4A4A9B0013441B68474A136007
S315080093A01CE0414B1B689A1FFB681344444A9B0008
S315080093B0134493ED007A414BD3ED007AB4EEE77A85
S315080093C0F1EE10FA0ADD384B1B689A1FFB68134446
S315080093D03B4A9B0013441B68384A1360FB680133F9
S315080093E0FB60FB68052BA3DD344BD3ED007AB7EEA3
S315080093F0E77A9FED2B6B87EE065BB0EE450B17F011
S31508009400C9FFB0EE406BB3EE047B26EE077BF7EEA2
S31508009410C77B2C4BC3ED007A274B06221A6096E0D1
S31508009420294B4FF000021A600023BB6070E01E4B08
S315080094301B68042B4CD1BB68042B15DC234ABB687C
S315080094409B00134493ED007A1F4BD3ED007AB4EEDC
S31508009450E77AF1EE10FA58DD1C4ABB689B00134404
S315080094601B68194A136050E0BA6840F2B4439B1A65
S31508009470164A9B00134493ED007A134BD3ED007AFA
S31508009480B4EEE77AF1EE10FA3FDDBA6840F2B4437B
S315080094909B1A0E4A9B0013441B680B4A136034E060
S315080094A085EB51B81E85F13F141D0120507C012023
S315080094B0C0560120081D012024430120D41C012088
S315080094C0FC2F0120EC420120D84201208C690120A2
S315080094D0A74B1B689A1FBB681344A64A9B001344F4
S315080094E093ED007AA44BD3ED007AB4EEE77AF1EE69
S315080094F010FA0ADD9E4B1B689A1FBB6813449D4AE7
S315080095009B0013441B689C4A1360BB680133BB600D
S31508009510BB68052B8BDD984BD3ED007AB7EEE77A5F
S315080095209FED916B87EE065BB0EE450B17F032FFA9
S31508009530B0EE406BB3EE047B26EE077BF7EEC77BF7
S315080095408E4BC3ED007A8E4B01221A6000BF884B02
S315080095501B680133864A1360854B1B68B3F5966F03
S31508009560C0F23F82824B00221A60864B93ED007A46
S31508009570DFED856AC7EE267AB7EEE77AB0EE470BD7
S3150800958017F076FFB0EE405B9FED777B85EE076BB5
S31508009590B0EE460B17F0FEFEB0EE406BB3EE047B62
S315080095A026EE077BB0EE086B37EE067BF7EEC77B39
S315080095B0764BC3ED007A764B93ED007ADFED726A4F
S315080095C0C7EE267AB7EEE77AB0EE470B17F050FFEC
S315080095D0B0EE405B9FED647B85EE076BB0EE460B05
S315080095E017F0D8FEB0EE406BB3EE047B26EE077B91
S315080095F0B0EE086B37EE067BF7EEC77B654BC3ED1F
S31508009600007A654B93ED007ADFED5F6AC7EE267A3E
S31508009610B7EEE77AB0EE470B17F02AFFB0EE405BDD
S315080096209FED517B85EE076BB0EE460B17F0B2FE49
S31508009630B0EE406BB3EE047B26EE077BB0EE086B0C
S3150800964037EE067BF7EEC77B544BC3ED007A544BD7
S3150800965093ED007ADFED4C6AC7EE267AB7EEE77A25
S31508009660B0EE470B17F004FFB0EE405B9FED3E7B74
S3150800967085EE076BB0EE460B17F08CFEB0EE406B2E
S31508009680B3EE047B26EE077BB0EE086B37EE067B5F
S31508009690F7EEC77B434BC3ED007A434B93ED007A55
S315080096A0DFED396AC7EE267AB7EEE77AB0EE470BF2
S315080096B017F0DEFEB0EE405B9FED2B7B85EE076B69
S315080096C0B0EE460B17F066FEB0EE406BB3EE047BC9
S315080096D026EE077BB0EE086B37EE067BF7EEC77B08
S315080096E0324BC3ED007A324B93ED007ADFED266AF2
S315080096F0C7EE267AB7EEE77AB0EE470B17F0B8FE54
S31508009700B0EE405B9FED187B85EE076BB0EE460B1F
S3150800971017F040FEB0EE406BB3EE047B26EE077BF7
S31508009720B0EE086B37EE067BF7EEC77B214BC3ED31
S31508009730007A164B1B68204AD360164B1B681F4AD3
S31508009740D360164B1B681E4AD360164B1B681D4A0E
S31508009750D360164B1B681C4AD360164B1B681B4A02
S31508009760D36000237B60CCE085EB51B81E85F13FC2
S31508009770141D01208C690120D8420120F42F0120F4
S3150800978024430120EC2F0120000096445C5601205A
S3150800979028560120E855012024560120041D0120E1
S315080097A0E44201204C7C0120108F0120D442012084
S315080097B0F82F012090560120F85501202C5601203B
S315080097C0F4420120D81C0120945601206456012039
S315080097D07B6801339C4A9B0013441A689A497B6844
S315080097E09B000B441A60984A7B689B00134493EDD0
S315080097F0007A964BD3ED007A77EE277A934BC3ED32
S31508009800007A7B680133924A9B0013441A68904990
S315080098107B689B000B441A608D4A7B689B00134447
S3150800982093ED007A8B4BD3ED007A77EE277A894B46
S31508009830C3ED007A7B680133874A9B0013441A6894
S3150800984085497B689B000B441A60834A7B689B00AA
S31508009850134493ED007A814BD3ED007A77EE277A9D
S315080098607E4BC3ED007A7B6801337D4A9B00134427
S315080098701A687B497B689B000B441A60784A7B68A8
S315080098809B00134493ED007A764BD3ED007A77EE7E
S31508009890277A744BC3ED007A7B680133724A9B00C2
S315080098A013441A6870497B689B000B441A606E4A19
S315080098B07B689B00134493ED007A6C4BD3ED007ADA
S315080098C077EE277A694BC3ED007A7B680133684ADD
S315080098D09B0013441A6866497B689B000B441A6010
S315080098E0634A7B689B00134493ED007A614BD3ED82
S315080098F0007A77EE277A5F4BC3ED007A7B680133EF
S315080099007B607B68022B7FF763AF504B93ED007A41
S31508009910F0EE086AC7EE267A574BC3ED007A4D4B30
S3150800992093ED007AF0EE086AC7EE267A534BC3ED3C
S31508009930007A4A4B93ED007AF0EE086AC7EE267A6B
S315080099404F4BC3ED007A474B93ED007AF0EE086A69
S31508009950C7EE267A4B4BC3ED007A444B93ED007A5B
S31508009960F0EE086AC7EE267A474BC3ED007A414BFC
S3150800997093ED007AF0EE086AC7EE267A434BC3EDFC
S31508009980007A434B4FF000021A60424B4FF0000238
S315080099901A60414B4FF000021A60404B4FF000022C
S315080099A01A603F4B4FF000021A603E4B4FF0000220
S315080099B01A60264B4FF000021A60264B4FF0000241
S315080099C01A60264B4FF000021A60264B4FF0000231
S315080099D01A60264B4FF000021A60264B4FF0000221
S315080099E01A60314B1B78012B29D12F4B00221A7094
S315080099F02E4B4FF000021A602D4B4FF000021A60F2
S31508009A002C4B4FF000021A602B4B4FF000021A60E5
S31508009A102A4B4FF000021A60294B4FF000021A60D9
S31508009A2000233B6008E0274A3B689B001344264A0C
S31508009A301A603B6801333B603B68072BF3DD00BFC8
S31508009A402037BD4680BD00BFF8550120605601206D
S31508009A502C560120101D0120F4420120886901209E
S31508009A60D81C0120E842012094560120DC4201203E
S31508009A7064560120F0550120C8420120E042012029
S31508009A80F4550120D04201200C1D0120C0420120BE
S31508009A90EC2F01202856012024560120E4420120FB
S31508009AA0108F0120F82F0120A00A0120B0DC002029
S31508009AB014B700208CF100207CE5002080ED002002
S31508009AC09C0A0120A41A0120000002C380B400AF3A
S31508009AD0BFF34F8F054BDB6803F4E0620349044B81
S31508009AE01343CB60BFF34F8F00BFFDE700ED00E0E7
S31508009AF00400FA0580B500AFFFF7E8FF80B485B02B
S31508009B0000AFF860B9607A60FB68074A1A60BB68FC
S31508009B10064A1A607B6880221A6000BF1437BD4661
S31508009B205DF8047B704700BFE80000203C01002078
S31508009B30B0B590B000AF00F0DFFC01F0EFFB00F02D
S31508009B4079F800F0BFFB00F08FFB00F0FFFA00F099
S31508009B505DFB00F07BF900F0C9FA00F039F900F076
S31508009B6025FB00F001F900F0C1F900F00DFA00F04C
S31508009B7041FA00F075FA0021002000F06BFD284B31
S31508009B8007F11C041D460FCD0FC495E8070084E8AD
S31508009B90070007F11C030021184607F0F6FF0246E6
S31508009BA0204B1A60204B3C461D460FCD0FC495E846
S31508009BB0070084E807003B460021184607F0E5FF42
S31508009BC002461A4B1A6007F0C9FF0023FB630BE035
S31508009BD044F28101164803F082FD4FF4FA7001F051
S31508009BE0FBFBFB6B0133FB63FB6B092BF0DD0023EF
S31508009BF0BB630AE044F281010D4803F070FD322090
S31508009C0001F0EAFBBB6B0133BB63BB6B092BF1DDD0
S31508009C100121002000F01EFDFFF76CFFD5E700BF0D
S31508009C2074180208188F012098180208148F01204A
S31508009C300004024080B5B8B000AF07F1AC03342287
S31508009C400021184616F05EFC07F1980300221A60F8
S31508009C505A609A60DA601A6107F1080390220021B7
S31508009C60184616F04FFC03F09DFE3C4B1B6C3B4A16
S31508009C7043F080531364394B1B6C03F080537B60AD
S31508009C807B68374B1B68364A43F440431360344BB2
S31508009C901B6803F440433B603B680123C7F8AC30BC
S31508009CA04FF4A023C7F8B0300223C7F8C4304FF4E6
S31508009CB08003C7F8C8300423C7F8CC30D823C7F8C0
S31508009CC0D0300223C7F8D4300923C7F8D83007F1B3
S31508009CD0AC03184603F0C6FE0346002B01D000F07D
S31508009CE0B1FC03F06FFE0346002B01D000F0AAFC7E
S31508009CF00F23C7F898300223C7F89C300023C7F80B
S31508009D00A0304FF4A053C7F8A4304FF48053C7F8D7
S31508009D10A83007F198030721184604F051F90346BD
S31508009D20002B01D000F08EFC0E4BBB600023FB64B9
S31508009D3000237B6500233B660023C7F8843007F1C0
S31508009D400803184604F034FB0346002B01D000F044
S31508009D5079FC00BFE037BD4680BD00BF0038024031
S31508009D60007000404009200080B582B000AF3B4635
S31508009D7000221A605A60144B144A1A60124801F0FD
S31508009D805EFC0346002B01D000F05CFC00233B6020
S31508009D9000237B603B46002219460B4801F0C5FCB0
S31508009DA00346002B01D000F04DFC3B461022194615
S31508009DB0054801F0BAFC0346002B01D000F042FC2E
S31508009DC000BF0837BD4680BD0096012000740040DC
S31508009DD080B500AF1B4B1C4A1A601A4B4FF48272AF
S31508009DE05A60184B00229A60164B4FF44072DA609C
S31508009DF0144B00221A61134B00225A61114B4FF47F
S31508009E0000729A610F4B0022DA610E4B00221A6229
S31508009E100C4B00225A620B4B00229A62094B07220E
S31508009E20DA62084B00221A63064B08225A63054871
S31508009E3004F0E4FE0346002B01D000F003FC00BF4B
S31508009E4080BD00BF90A800200038004080B588B0CB
S31508009E5000AF07F1100300221A605A609A60DA60B0
S31508009E603B1D00221A605A609A601D4B1D4A1A60F3
S31508009E701B4BD8225A601A4B00229A60184B1A4A72
S31508009E80DA60174B00221A61154B00229A611448B2
S31508009E9004F046FF0346002B01D000F0D3FB4FF435
S31508009EA080533B6107F1100319460D4805F0D4F9B4
S31508009EB00346002B01D000F0C5FB00237B6000237E
S31508009EC0FB603B1D1946064805F016FD0346002BA8
S31508009ED001D000F0B7FB00BF2037BD4680BD00BFEC
S31508009EE08094012000040040A086010080B588B057
S31508009EF000AF07F1100300221A605A609A60DA6010
S31508009F003B1D00221A605A609A601D4B1D4A1A6052
S31508009F101B4BD8225A601A4B00229A60184B4FF4F2
S31508009F207A72DA60164B00221A61154B00229A6182
S31508009F30134804F0F5FE0346002B01D000F082FB1F
S31508009F404FF480533B6107F1100319460C4805F09E
S31508009F5083F90346002B01D000F074FB20237B60B5
S31508009F600023FB603B1D1946054805F0C5FC034662
S31508009F70002B01D000F066FB00BF2037BD4680BD30
S31508009F8040940120000C004080B584B000AF3B1D12
S31508009F9000221A605A609A60144B154A1A60134BCD
S31508009FA06B225A60114B00229A60104B4FF6FF72D3
S31508009FB0DA600E4B00229A610C4804F0B1FE0346A3
S31508009FC0002B01D000F03EFB00237B600023FB60E2
S31508009FD03B1D1946054805F08FFC0346002B01D0AA
S31508009FE000F030FB00BF1037BD4680BD1896012033
S31508009FF00010004080B584B000AF3B1D00221A60F7
S3150800A0005A609A60144B154A1A60134B6B225A60B1
S3150800A010114B00229A60104B1322DA600E4B002275
S3150800A0209A610D4804F07CFE0346002B01D000F02F
S3150800A03009FB00237B600023FB603B1D194606488D
S3150800A04005F05AFC0346002B01D000F0FBFA00BFCE
S3150800A0501037BD4680BD00BF589601200014004049
S3150800A06080B584B000AF3B4600221A605A609A60F9
S3150800A070DA601C4B1C4A1A601A4B6B225A60194B41
S3150800A08000229A60174B0022DA60164B00221A61EA
S3150800A090144B00229A61134804F042FE0346002B33
S3150800A0A001D000F0CFFA0F4804F0E5FE0346002B76
S3150800A0B001D000F0C7FA02233B6001237B6000232E
S3150800A0C0BB600023FB603B4600221946054805F0A5
S3150800A0D026F80346002B01D000F0B4FA00BF10376B
S3150800A0E0BD4680BDFC8F01200044014080B500AF0D
S3150800A0F0134B144A1A60124B134A5A60104B00222B
S3150800A1009A600F4B0022DA600D4B00221A610C4B45
S3150800A1100C225A610A4B00229A61094B0022DA6125
S3150800A120074B00221A62064B00225A62044805F0C1
S3150800A1308FFC0346002B01D000F084FA00BF80BDD7
S3150800A140809501200010014090C3010080B500AF42
S3150800A150144B154A1A60134B4FF4E1325A60114BEF
S3150800A16000229A600F4B0022DA600E4B00221A6119
S3150800A1700C4B0C225A610B4B00229A61094B0022A8
S3150800A180DA61084B00221A62064B00225A62054819
S3150800A19005F05EFC0346002B01D000F053FA00BF21
S3150800A1A080BD00BF7C8F01200048004080B500AF0D
S3150800A1B0144B154A1A60134B4FF4E1325A60114B8F
S3150800A1C000229A600F4B0022DA600E4B00221A61B9
S3150800A1D00C4B0C225A610B4B00229A61094B002248
S3150800A1E0DA61084B00221A62064B00225A620548B9
S3150800A1F005F02EFC0346002B01D000F023FA00BF21
S3150800A20080BD00BF8C1B01200014014080B500AF43
S3150800A210144B4FF0A0421A60124B06225A60114B9B
S3150800A2200222DA600F4B00221A610E4B02229A6153
S3150800A2300C4B0122DA610B4B00221A62094B0022F1
S3150800A2405A62084B0122DA62064B00221A63054855
S3150800A25003F05FFA0346002B01D000F0F3F900BFC4
S3150800A26080BD00BF3C90012080B582B000AF144B82
S3150800A2701B6B134A43F480031363114B1B6B03F4E4
S3150800A28080037B607B6800220121392001F0A1F957
S3150800A290392001F0BAF9002201213A2001F099F992
S3150800A2A03A2001F0B2F900220121452001F091F986
S3150800A2B0452001F0AAF900BF0837BD4680BD00BF9A
S3150800A2C00038024080B58EB000AF07F124030022A3
S3150800A2D01A605A609A60DA601A617F4B1B6B7E4A75
S3150800A2E043F0100313637C4B1B6B03F010033B62B4
S3150800A2F03B6A794B1B6B784A43F004031363764B2E
S3150800A3001B6B03F00403FB61FB69734B1B6B724AFF
S3150800A31043F020031363704B1B6B03F02003BB61F0
S3150800A320BB696D4B1B6B6C4A43F0800313636A4B26
S3150800A3301B6B03F080037B617B69674B1B6B664A6B
S3150800A34043F001031363644B1B6B03F001033B618A
S3150800A3503B69614B1B6B604A43F0020313635E4B18
S3150800A3601B6B03F00203FB60FB685B4B1B6B5A4AD3
S3150800A37043F040031363584B1B6B03F04003BB6069
S3150800A380BB68554B1B6B544A43F008031363524B87
S3150800A3901B6B03F008037B607B6800224FF4007197
S3150800A3A04E4803F083F9002245F2B1014C4803F008
S3150800A3B07DF9002240F686414A4803F077F90022E3
S3150800A3C049F24461484803F071F900224FF4F85104
S3150800A3D0464803F06BF94FF6FF737B620023BB62B6
S3150800A3E00023FB6207F124031946414802F0B4FF33
S3150800A3F04FF400537B623F4BBB620023FB6207F1BD
S3150800A40024031946394802F0A7FF4FF400737B620C
S3150800A4100123BB620023FB6200233B6307F124038D
S3150800A42019462E4802F098FF45F2B1037B620123D4
S3150800A430BB620023FB6200233B6307F12403194632
S3150800A440274802F089FF8B237B620023BB62002327
S3150800A450FB6207F124031946234802F07DFF40F604
S3150800A46086437B620123BB620023FB6200233B63B6
S3150800A47007F1240319461B4802F06EFF49F24463AC
S3150800A4807B620123BB620023FB6200233B6307F167
S3150800A49024031946144802F05FFF4FF4F8537B6211
S3150800A4A00123BB620023FB6200233B6307F12403FD
S3150800A4B019460E4802F050FF40237B620023BB6218
S3150800A4C00023FB6207F124031946064802F044FFFD
S3150800A4D000BF3837BD4680BD003802400014024030
S3150800A4E000040240000C0240001802400008024026
S3150800A4F0001002400000111080B400AF034B044A5C
S3150800A5009A6000BFBD465DF8047B704700ED00E029
S3150800A5100080000880B592B000AFF860B9607A6034
S3150800A520FB707B685B891946B8680DF013FD7B687C
S3150800A53059687B685B891A4607F11403184615F0B3
S3150800A540D6FF78680CF0A0FD00BF18464837BD4610
S3150800A55080BD000080B584B000AFF860B9601346CE
S3150800A560FB710021B8680EF0DDFB0749B8680EF0EC
S3150800A570EBFB0121002000F06DF8FFF7BBFA00BFE6
S3150800A58018461037BD4680BD15A5000880B586B0AB
S3150800A59000AF786006F040FD0BF078F9244804F027
S3150800A5A015FCFEF7E1F80EF0A7FB0246214B1A60F0
S3150800A5B0204B1B684FF47A721F4918460DF0FCFAB7
S3150800A5C00346FB731B4B1B68002118460EF0AAFBBB
S3150800A5D0184B1B68FF2118460DF0A6FB0246154BC3
S3150800A5E01A60144B1B68154918460EF013FC002315
S3150800A5F07B6109E00121124803F071F8FA2000F0A6
S3150800A600EBFE7B6901337B617B691D2BF2DD002341
S3150800A6103B6109E001210A4803F061F8322000F0A5
S3150800A620DBFE3B6901333B613B69092BF2DDDEE763
S3150800A630809401203C0300207052030855A50008A9
S3150800A6400004024080B400AF00BFBD465DF8047B3D
S3150800A6507047000080B584B000AF78600B46FB7089
S3150800A6600023FB7300F018F80346002B0CD07B6818
S3150800A670372B09D8074A7B6813440433FA781A70CB
S3150800A68000F024F80123FB73FB7B18461037BD4600
S3150800A69080BD00BF0000002080B582B000AF002357
S3150800A6A0FB71084B1B68084A934206D100F01AF85A
S3150800A6B00346002B01D00123FB71FB7918460837A6
S3150800A6C0BD4680BD00000020A2E742CE80B500AF9F
S3150800A6D000F01EF803461A46014B9A8700BF80BD54
S3150800A6E00000002080B582B000AF0023FB7100F0A7
S3150800A6F00FF803461A46054B9B8F9A4201D1012350
S3150800A700FB71FB7918460837BD4680BD000000205E
S3150800A71080B483B000AF0023FB801F4B1B68DBB2FD
S3150800A7209AB2FB881344FB801B4B1B681B0ADBB2DF
S3150800A7309AB2FB881344FB80174B1B681B0CDBB2D1
S3150800A7409AB2FB881344FB80134B1B681B0EDBB2C3
S3150800A7509AB2FB881344FB8000233B600BE00E4A49
S3150800A7603B68134404331B789AB2FB881344FB8076
S3150800A7703B6801333B603B68372BF0D9FB88DB43EA
S3150800A780FB80FB880133FB80FB8818460C37BD46E7
S3150800A7905DF8047B704700BF0000002080B582B0DA
S3150800A7A000AF1D4B1B6C1C4A43F0805313641A4BB5
S3150800A7B01B6C03F080537B607B68174B5B6C164AF7
S3150800A7C043F480435364144B5B6C03F480433B604F
S3150800A7D03B6800220A216FF00B0000F0FAFE002207
S3150800A7E00A216FF00A0000F0F4FE00220A216FF039
S3150800A7F0090000F0EEFE00220A216FF0030000F0C7
S3150800A800E8FE00220F216FF0010000F0E2FE00BF13
S3150800A8100837BD4680BD00BF0038024080B58AB003
S3150800A82000AF786007F1140300221A605A609A6034
S3150800A830DA601A617B681B68194A93422BD1194B57
S3150800A8401B6C184A43F000531364164B1B6C03F039
S3150800A85000533B613B69134B1B6B124A43F00103E0
S3150800A8601363104B1B6B03F00103FB60FB6830237B
S3150800A8707B610323BB610023FB6107F114031946BF
S3150800A880094802F069FD00220121362000F0A1FEE8
S3150800A890362000F0BAFE00BF2837BD4680BD00BF8F
S3150800A8A000740040003802400000024080B58AB0BB
S3150800A8B000AF786007F1140300221A605A609A60A4
S3150800A8C0DA601A617B681B68254A934244D1254B96
S3150800A8D01B6C244A43F480431364224B1B6C03F419
S3150800A8E080433B613B691F4B1B6B1E4A43F00403C5
S3150800A8F013631C4B1B6B03F00403FB60FB68194BCB
S3150800A9001B6B184A43F002031363164B1B6B03F0C9
S3150800A9100203BB60BB6808237B610223BB6100237B
S3150800A920FB6103233B6205237B6207F11403194687
S3150800A9300D4802F011FD4FF480637B610223BB6171
S3150800A9400023FB6103233B6205237B6207F11403A3
S3150800A9501946064802F000FD00BF2837BD4680BDEF
S3150800A9600038004000380240000802400004024057
S3150800A97080B58EB000AF786007F1240300221A6014
S3150800A9805A609A60DA601A617B681B684F4A93427C
S3150800A99014D14F4B1B6C4E4A43F0020313644C4BC5
S3150800A9A01B6C03F002033B623B6A002203211D2055
S3150800A9B000F00FFE1D2000F028FE82E07B681B6871
S3150800A9C0444A934214D1424B1B6C414A43F0080354
S3150800A9D013643F4B1B6C03F00803FB61FB69002201
S3150800A9E00121322000F0F5FD322000F00EFE68E06D
S3150800A9F07B681B68384A934214D1354B1B6C344A22
S3150800AA0043F010031364324B1B6C03F01003BB6155
S3150800AA10BB6900220121362000F0DBFD362000F05C
S3150800AA20F4FD4EE07B681B682C4A934214D1284BF0
S3150800AA301B6C274A43F020031364254B1B6C03F059
S3150800AA4020037B617B6900220121372000F0C1FDCC
S3150800AA50372000F0DAFD34E07B681B68204A934211
S3150800AA602FD11B4B5B6C1A4A43F400335364184BC3
S3150800AA705B6C03F400333B613B69154B1B6B144A53
S3150800AA8043F020031363124B1B6B03F02003FB6098
S3150800AA90FB6840237B620223BB620023FB62002320
S3150800AAA03B6303237B6307F1240319460D4802F031
S3150800AAB053FC00220021192000F08BFD192000F01C
S3150800AAC0A4FD00BF3837BD4680BD00BF0004004066
S3150800AAD000380240000C00400010004000140040FE
S3150800AAE0004401400014024080B58EB000AF786083
S3150800AAF007F1240300221A605A609A60DA601A6124
S3150800AB007B681B68994A934270D1994B5B6C984A4B
S3150800AB1043F010035364964B5B6C03F010033B62DF
S3150800AB203B6A934B1B6B924A43F002031363904BA9
S3150800AB301B6B03F00203FB61FB694FF400437B6266
S3150800AB400223BB620023FB6203233B6304237B636C
S3150800AB5007F124031946874802F0FEFB40237B626F
S3150800AB600223BB620023FB6203233B6307237B6349
S3150800AB7007F1240319467F4802F0EEFB7E4B7F4A15
S3150800AB801A607D4B4FF000625A607B4B00229A6038
S3150800AB90794B0022DA60784B4FF480621A61764B63
S3150800ABA000225A61744B00229A61734B4FF48072EB
S3150800ABB0DA61714B00221A626F4B00225A626E48A4
S3150800ABC000F030FE0346002B01D0FFF73BFD7B6803
S3150800ABD0694ADA66684A7B68936300220121252060
S3150800ABE000F0F7FC252000F010FDBAE07B681B6832
S3150800ABF0634A934229D15E4B1B6C5D4A43F480231A
S3150800AC0013645B4B1B6C03F48023BB61BB69584B15
S3150800AC101B6B574A43F008031363554B1B6B03F032
S3150800AC2008037B617B694FF440737B620223BB6236
S3150800AC300023FB6203233B6307237B6307F124039B
S3150800AC401946504802F088FB8BE07B681B684E4A21
S3150800AC50934240F08680464B5B6C454A43F020039E
S3150800AC605364434B5B6C03F020033B613B69404BE9
S3150800AC701B6B3F4A43F0040313633D4B1B6B03F006
S3150800AC800403FB60FB68C0237B620223BB620023CC
S3150800AC90FB6203233B6308237B6307F124031946FE
S3150800ACA03A4802F059FB3A4B3A4A1A60384B4FF089
S3150800ACB020625A60364B00229A60354B0022DA60D1
S3150800ACC0334B4FF480621A61314B00225A61304B84
S3150800ACD000229A612E4B4FF48072DA612C4B0022C7
S3150800ACE01A622B4B00225A62294800F09BFD034644
S3150800ACF0002B01D0FFF7A6FC7B68254ADA66244AB2
S3150800AD007B689363244B254A1A60234B4FF02062D5
S3150800AD105A60214B40229A601F4B0022DA601E4B74
S3150800AD204FF480621A611C4B00225A611A4B0022AA
S3150800AD309A61194B4FF48072DA61174B00221A6236
S3150800AD40154B00225A62144800F06CFD0346002B8E
S3150800AD5001D0FFF777FC7B680F4A9A660E4A7B6834
S3150800AD60936300BF3837BD4680BD00BF0010014061
S3150800AD700038024000040240209501204064024049
S3150800AD8000480040000C0240001401400008024040
S3150800AD901C8F012028640240C0940120A064024050
S3150800ADA080B58AB000AF786007F1140300221A60F4
S3150800ADB05A609A60DA601A617B681B68B3F1A04F23
S3150800ADC041D1234B1B6B224A43F001031363204BEB
S3150800ADD01B6B03F001033B613B694FF4E8537B614E
S3150800ADE00223BB610023FB6103233B620A237B62C8
S3150800ADF007F114031946174802F0AEFA4FF4007328
S3150800AE007B610023BB610023FB6107F1140319462C
S3150800AE10104802F0A1FA0E4B5B6B0D4A43F0800313
S3150800AE2053630B4B5B6B03F08003FB60FB68084BBB
S3150800AE305B6C074A43F480435364054B5B6C03F42D
S3150800AE408043BB60BB6800BF2837BD4680BD00BFD6
S3150800AE50003802400000024080B400AF00BFBD4683
S3150800AE605DF8047B704780B400AFFEE780B400AF9E
S3150800AE70FEE780B400AFFEE780B400AFFEE780B41B
S3150800AE8000AF00BFBD465DF8047B704780B500AFD4
S3150800AE9000F082FA08F018FF0346012B01D009F0EA
S3150800AEA0EBFA00BF80BD000080B500AF024804F091
S3150800AEB017F800BF80BD00BFFC8F012080B500AF2A
S3150800AEC0044804F00DF84FF48041034802F007FCEB
S3150800AED000BF80BD809401200004024080B500AF09
S3150800AEE0024804F085FF00BF80BD00BF80950120A1
S3150800AEF080B500AF024803F0F3FF00BF80BD00BF76
S3150800AF004094012080B500AF034800F0BAFB03481F
S3150800AF1003F0E6FF00BF80BD0096012018960120C9
S3150800AF2080B582B000AF2C4803F0DAFF01224FF457
S3150800AF3000712A4802F0BAFB00224FF480512848D3
S3150800AF4002F0B4FB002000F07FF801224FF4805194
S3150800AF50234802F0ABFB00237B601BE0012204219F
S3150800AF60204802F0A3FB002204211E4802F09EFBA3
S3150800AF70002280211B4802F099FB002000F064F8AB
S3150800AF80194B1B6999B2194A7B6822F813107B681A
S3150800AF9001337B607B68052BE0DD012280211148A7
S3150800AFA002F084FB00224FF400710C4802F07EFB8D
S3150800AFB00F4BDB796D33002200210E4800F002FCAE
S3150800AFC00B4B5B7A6333002210210A4800F0FAFB28
S3150800AFD000BF0837BD4680BD5896012000140240C0
S3150800AFE000080240000C024000100240840A0120BA
S3150800AFF0FCF900200096012080B500AF024800F059
S3150800B000B1FD00BF80BD00BF1C8F012080B500AF19
S3150800B010024800F0A7FD00BF80BD00BF20950120B3
S3150800B02080B500AF024801F0F5FB00BF80BD00BF48
S3150800B030C0AF012080B500AF024800F093FD00BF05
S3150800B04080BD00BFC094012080B483B000AF786093
S3150800B05000BF084B1B685A6A7B689A42F9D3054BAE
S3150800B0601B6800225A6200BF0C37BD465DF8047B98
S3150800B070704700BF1896012080B586B000AFF8600B
S3150800B080B9607A6000237B610AE0AFF3008001466D
S3150800B090BB685A1CBA60CAB21A707B6901337B61F5
S3150800B0A07A697B689A42F0DB7B6818461837BD4692
S3150800B0B080BD80B586B000AFF860B9607A600023BD
S3150800B0C07B6109E0BB685A1CBA601B781846AFF367
S3150800B0D000807B6901337B617A697B689A42F1DB80
S3150800B0E07B6818461837BD4680BD80B483B000AF6C
S3150800B0F078604FF0FF3318460C37BD465DF8047B81
S3150800B100704780B483B000AF786039603B684FF40D
S3150800B11000525A60002318460C37BD465DF8047B7A
S3150800B120704780B483B000AF7860012318460C37A7
S3150800B130BD465DF8047B704780B485B000AFF86003
S3150800B140B9607A60002318461437BD465DF8047B5B
S3150800B1507047000080B485B000AF7860114B1B685B
S3150800B160002B02D10F4B104A1A600E4B1B68FB606E
S3150800B1700C4B1A687B6813446A46934205D90B4BF5
S3150800B1800C221A604FF0FF3306E0064B1A687B68FC
S3150800B1901344044A1360FB6818461437BD465DF825
S3150800B1A0047B70474003002014FF01200CFF012098
S3150800B1B080B400AF064BD3F88830054A43F47003D1
S3150800B1C0C2F8883000BFBD465DF8047B704700BFF3
S3150800B1D000ED00E0DFF834D0002103E00C4B5B58AB
S3150800B1E0435004310B480C4B42189A42F6D30B4A8B
S3150800B1F002E0002342F8043B094B9A42F9D3FFF7D1
S3150800B200D7FF15F041F9FEF793FC704700000820B8
S3150800B2104053030840000020C4000020C40000205A
S3150800B22014FF0120FEE7000080B584B000AF786007
S3150800B2300120FDF7EDF90120FDF708FA0120FDF7D9
S3150800B24023FA01210020FDF73FFA00224FF480710E
S3150800B2502B4802F02BFA00224FF40071284802F01E
S3150800B26025FA00224FF48061254802F01FFA0122D0
S3150800B2704FF40061224802F019FA01224FF4805176
S3150800B2801F4802F013FA012280211E4802F00EFA26
S3150800B290012204211B4802F009FA0A2000F09CF852
S3150800B2A001220421184802F001FA0A2000F094F855
S3150800B2B000220421144802F0F9F90A2000F08CF85B
S3150800B2C0124803F059FD124803F056FD114803F0E1
S3150800B2D07DFD0023FB604FF47A7000F07DF80122B3
S3150800B2E00221084802F0E2F9FDF752FB80210A48DC
S3150800B2F002F0F5F900220221024802F0D7F9EAE73E
S3150800B30000080240000C0240001802404094012048
S3150800B31018960120589601200004024080B500AF17
S3150800B320032000F04BF90F2000F006F8FFF736FA75
S3150800B3300023184680BD000080B582B000AF786053
S3150800B340124B1A68124B1B7819464FF47A73B3FBE3
S3150800B350F1F3B2FBF3F3184600F065F90346002B48
S3150800B36001D001230EE07B680F2B0AD800227968EA
S3150800B3704FF0FF3000F02DF9064A7B681360002372
S3150800B38000E0012318460837BD4680BD400000206E
S3150800B390480000204400002080B400AF064B1B780C
S3150800B3A01A46064B1B681344044A136000BFBD4681
S3150800B3B05DF8047B704700BF48000020989601207E
S3150800B3C080B400AF034B1B681846BD465DF8047B86
S3150800B3D0704700BF9896012080B584B000AF7860AA
S3150800B3E0FFF7EEFFB8607B68FB60FB68B3F1FF3FD1
S3150800B3F005D0094B1B781A46FB681344FB6000BF4F
S3150800B400FFF7DEFF0246BB68D31AFA689A42F7D8F6
S3150800B41000BF1037BD4680BD4800002080B485B007
S3150800B42000AF78607B6803F00703FB600B4BDB68B3
S3150800B430BB60BA684FF6FF031340BB60FB681A028D
S3150800B440BB681A43064B1343BB60044ABB68D36008
S3150800B45000BF1437BD465DF8047B704700ED00E079
S3150800B4600000FA0580B400AF044BDB681B0A03F042
S3150800B47007031846BD465DF8047B704700ED00E0FB
S3150800B48080B483B000AF0346FB7197F90730002BF1
S3150800B4900BDBFB7903F01F02074997F907305B09B5
S3150800B4A0012000FA02F241F8232000BF0C37BD46FE
S3150800B4B05DF8047B704700BF00E100E080B483B00C
S3150800B4C000AF03463960FB7197F90730002B0ADB9A
S3150800B4D03B68DAB20C4997F907301201D2B20B442D
S3150800B4E083F800230AE03B68DAB20849FB7903F0DF
S3150800B4F00F03043B1201D2B20B441A7600BF0C3775
S3150800B500BD465DF8047B704700E100E000ED00E011
S3150800B51080B489B000AFF860B9607A60FB6803F060
S3150800B5200703FB61FB69C3F10703042B28BF042348
S3150800B530BB61FB690433062B02D9FB69033B00E0B8
S3150800B54000237B614FF0FF32BB6902FA03F3DA434B
S3150800B550BB681A407B699A404FF0FF317B6901FA54
S3150800B56003F3D9437B680B40134318462437BD467B
S3150800B5705DF8047B7047000080B582B000AF786044
S3150800B5807B68013BB3F1807F01D301230FE00A4AB0
S3150800B5907B68013B53600F214FF0FF30FFF78EFFAA
S3150800B5A0054B00229A60044B07221A6000231846AE
S3150800B5B00837BD4680BD00BF10E000E080B582B008
S3150800B5C000AF78607868FFF729FF00BF0837BD46E7
S3150800B5D080BD80B586B000AF0346B9607A60FB735C
S3150800B5E000237B61FFF73EFF78617A68B96878695E
S3150800B5F0FFF78EFF024697F90F3011461846FFF7F8
S3150800B6005DFF00BF1837BD4680BD80B582B000AF6C
S3150800B6100346FB7197F907301846FFF731FF00BF5D
S3150800B6200837BD4680BD80B582B000AF78607868BF
S3150800B630FFF7A2FF034618460837BD4680BD80B50A
S3150800B64082B000AF78607B68002B01D1012314E03B
S3150800B6507B681B79DBB2002B05D17B6800225A7107
S3150800B6607868FFF7DBF87B6802221A717B6800228C
S3150800B6701A617B6801221A71002318460837BD46ED
S3150800B68080BD80B582B000AF78607B681B685B6B55
S3150800B69003F40053B3F5005F18D17B6804221A71CE
S3150800B6A07B681B6943F001027B681A617B681B682B
S3150800B6B04FF400525A637B681B681A687B681B68DC
S3150800B6C022F480521A60786800F025F87B681B68B7
S3150800B6D05B6B03F00053B3F1005F18D17B6804225B
S3150800B6E01A717B681B6943F002027B681A617B68E2
S3150800B6F01B684FF000525A637B681B681A687B68A0
S3150800B7001B6822F080521A60786800F080F800BF43
S3150800B7100837BD4680BD80B483B000AF786000BFEF
S3150800B7200C37BD465DF8047B704780B487B000AF20
S3150800B730F860B9607A6000237B6100233B61FB688F
S3150800B7405B79012B01D1022336E0FB6801225A718D
S3150800B750FB6802221A71FB681B681B687B6140F64E
S3150800B760FE727B6802FA03F3DB437A6913407B6156
S3150800B770BB681A68BB685B6813433B613A697B68B8
S3150800B78002FA03F37A6913437B61FB681B687A69DB
S3150800B7901A60FB681B681968C0227B6802FA03F303
S3150800B7A0DA43FB681B680A401A60FB6801221A71B3
S3150800B7B0FB6800225A71002318461C37BD465DF8FF
S3150800B7C0047B704780B487B000AFF860B9607A60D0
S3150800B7D03B6000237B61FB681B687B61BB68002BB1
S3150800B7E005D17A697B68134408337B6104E07A697A
S3150800B7F07B68134414337B617B691A463B68136084
S3150800B800002318461C37BD465DF8047B704780B494
S3150800B81083B000AF786000BF0C37BD465DF8047B87
S3150800B8207047000080B586B000AF786000237B6162
S3150800B830FFF7C6FD38617B68002B01D1012399E02B
S3150800B8407B68002283F834207B68022283F835203F
S3150800B8507B681B681A687B681B6822F001021A60FD
S3150800B8600FE0FFF7ADFD02463B69D31A052B08D951
S3150800B8707B6820225A657B68032283F835200323D8
S3150800B88078E07B681B681B6803F00103002BE8D18E
S3150800B8907B681B681B687B617A69384B13407B6140
S3150800B8A07B685A687B689B681A437B68DB681A431F
S3150800B8B07B681B691A437B685B691A437B689B69CB
S3150800B8C01A437B68DB691A437B681B6A13437A69E8
S3150800B8D013437B617B685B6A042B07D17B68DA6A52
S3150800B8E07B681B6B13437A6913437B617B681B6810
S3150800B8F07A691A607B681B685B697B617B6923F0E0
S3150800B90007037B617B685B6A7A6913437B617B68A3
S3150800B9105B6A042B17D17B689B6A7A6913437B6140
S3150800B9207B68DB6A002B0ED0786800F015FB0346AF
S3150800B930002B08D07B6840225A657B68012283F871
S3150800B9403520012316E07B681B687A695A61786896
S3150800B95000F0CCFA0346FB607B68DB6D3F229A4019
S3150800B960FB689A607B6800225A657B68012283F827
S3150800B9703520002318461837BD4680BD3F8010E0A5
S3150800B98080B586B000AFF860B9607A603B60002386
S3150800B990FB75FB689B6D3B61FB6893F83430012BA4
S3150800B9A001D1022348E0FB68012283F83420FB68B2
S3150800B9B093F83530DBB2012B37D1FB68022283F8C6
S3150800B9C03520FB6800225A653B687A68B968F868CA
S3150800B9D000F05EFAFB68DB6D3F229A403B699A608D
S3150800B9E0FB681B681A68FB681B6842F016021A6037
S3150800B9F0FB681B685A69FB681B6842F080025A613B
S3150800BA00FB681B6C002B07D0FB681B681A68FB6871
S3150800BA101B6842F008021A60FB681B681A68FB6814
S3150800BA201B6842F001021A6005E0FB68002283F8F1
S3150800BA3034200223FB75FB7D18461837BD4680BDAA
S3150800BA4080B584B000AF78607B689B6DFB60FFF7BC
S3150800BA50B7FCB8607B6893F83530DBB2022B08D0A8
S3150800BA607B6880225A657B68002283F8342001238C
S3150800BA7052E07B681B681A687B681B6822F016020E
S3150800BA801A607B681B685A697B681B6822F080020B
S3150800BA905A617B681B6C002B03D17B689B6C002B5F
S3150800BAA007D07B681B681A687B681B6822F0080247
S3150800BAB01A607B681B681A687B681B6822F001029B
S3150800BAC01A6013E0FFF77CFC0246BB68D31A052B05
S3150800BAD00CD97B6820225A657B68002283F83420BB
S3150800BAE07B68032283F83520032315E07B681B68EF
S3150800BAF01B6803F00103002BE4D17B68DB6D3F2252
S3150800BB009A40FB689A607B68002283F834207B6839
S3150800BB10012283F83520002318461037BD4680BD1C
S3150800BB2080B483B000AF78607B6893F83530DBB2B9
S3150800BB30022B04D07B6880225A6501230CE07B68BF
S3150800BB40052283F835207B681B681A687B681B68A2
S3150800BB5022F001021A60002318460C37BD465DF82C
S3150800BB60047B704780B586B000AF78600023BB6061
S3150800BB70924B1B68924AA2FB03239B0A7B617B6854
S3150800BB809B6D3B613B691B68FB607B68DB6D08222C
S3150800BB909A40FB681340002B1AD07B681B681B6809
S3150800BBA003F00403002B13D07B681B681A687B68B4
S3150800BBB01B6822F004021A607B68DB6D08229A4033
S3150800BBC03B699A607B685B6D43F001027B685A6546
S3150800BBD07B68DB6D01229A40FB681340002B12D06C
S3150800BBE07B681B685B6903F08003002B0BD07B68BE
S3150800BBF0DB6D01229A403B699A607B685B6D43F076
S3150800BC0002027B685A657B68DB6D04229A40FB68F2
S3150800BC101340002B12D07B681B681B6803F00203D5
S3150800BC20002B0BD07B68DB6D04229A403B699A6037
S3150800BC307B685B6D43F004027B685A657B68DB6D45
S3150800BC4010229A40FB681340002B43D07B681B6880
S3150800BC501B6803F00803002B3CD07B68DB6D1022C1
S3150800BC609A403B699A607B681B681B6803F48023CB
S3150800BC70002B18D07B681B681B6803F40023002B75
S3150800BC8008D17B681B6C002B24D07B681B6C7868FA
S3150800BC9098471FE07B689B6C002B1BD07B689B6CCE
S3150800BCA07868984716E07B681B681B6803F48073FE
S3150800BCB0002B07D17B681B681A687B681B6822F013
S3150800BCC008021A607B681B6C002B03D07B681B6C10
S3150800BCD0786898477B68DB6D20229A40FB6813409A
S3150800BCE0002B00F08E807B681B681B6803F010032E
S3150800BCF0002B00F086807B68DB6D20229A403B692A
S3150800BD009A607B6893F83530DBB2052B36D17B68B1
S3150800BD101B681A687B681B6822F016021A607B6823
S3150800BD201B685A697B681B6822F080025A617B6827
S3150800BD301B6C002B03D17B689B6C002B07D07B68A0
S3150800BD401B681A687B681B6822F008021A607B6801
S3150800BD50DB6D3F229A403B699A607B68002283F834
S3150800BD6034207B68012283F835207B681B6D002B05
S3150800BD707DD07B681B6D7868984778E07B681B6880
S3150800BD801B6803F48023002B1CD07B681B681B6888
S3150800BD9003F40023002B08D17B685B6C002B30D0A2
S3150800BDA07B685B6C786898472BE07B68DB6B002BBD
S3150800BDB027D07B68DB6B7868984722E04000002034
S3150800BDC0B5814E1B7B681B681B6803F48073002BC8
S3150800BDD00FD17B681B681A687B681B6822F0100203
S3150800BDE01A607B68002283F834207B68012283F876
S3150800BDF035207B68DB6B002B03D07B68DB6B7868B0
S3150800BE0098477B685B6D002B32D07B685B6D03F0CF
S3150800BE100103002B22D07B68052283F835207B6836
S3150800BE201B681A687B681B6822F001021A60BB68E7
S3150800BE300133BB607A699A4207D37B681B681B6823
S3150800BE4003F00103002BF2D100E000BF7B6800225B
S3150800BE5083F834207B68012283F835207B68DB6C05
S3150800BE60002B05D07B68DB6C7868984700E000BF3C
S3150800BE701837BD4680BD00BF80B483B000AF786078
S3150800BE807B685B6D18460C37BD465DF8047B7047CA
S3150800BE9080B485B000AFF860B9607A603B60FB6833
S3150800BEA01B681A68FB681B6822F480221A60FB6804
S3150800BEB01B683A685A60FB689B68402B08D1FB6888
S3150800BEC01B687A689A60FB681B68BA68DA6007E0DC
S3150800BED0FB681B68BA689A60FB681B687A68DA6050
S3150800BEE000BF1437BD465DF8047B704780B485B043
S3150800BEF000AF78607B681B68DBB2103B134AA2FB75
S3150800BF0003231B09FB60124AFB6813441B781A4675
S3150800BF107B68DA65FB68032B08D97B681B681A46B9
S3150800BF200C4B13401A1D7B689A6506E07B681B68F4
S3150800BF301A46084B13407A6893657B689B6D1846CA
S3150800BF401437BD465DF8047B704700BFABAAAAAAA2
S3150800BF501846020800FCFFFF80B485B000AF786081
S3150800BF600023FB737B689B6ABB607B689B69002B1D
S3150800BF701FD1BB68032B55D801A252F823F000BF86
S3150800BF8091BF0008A3BF000891BF000825C000089C
S3150800BF907B68DB6A03F08073002B45D00123FB73B3
S3150800BFA042E07B68DB6AB3F1C07F3FD10123FB73B4
S3150800BFB03CE07B689B69B3F5005F21D1BB68032B26
S3150800BFC036D801A252F823F0D9BF0008DFBF00080F
S3150800BFD0D9BF0008F1BF00080123FB732FE07B6877
S3150800BFE0DB6A03F08073002B24D00123FB7321E066
S3150800BFF07B68DB6AB3F1C07F1ED10123FB731BE0AC
S3150800C000BB68022B02D9032B03D018E00123FB736C
S3150800C01015E07B68DB6A03F08073002B0ED00123E2
S3150800C020FB730BE000BF0AE000BF08E000BF06E0B4
S3150800C03000BF04E000BF02E000BF00E000BFFB7BDA
S3150800C04018461437BD465DF8047B704780B588B03E
S3150800C05000AF78600023FB610023FB60A94BBB613E
S3150800C06000237B6100233B617B68002B01D1012300
S3150800C07083E17B6893F84430DBB2002B06D17B68FA
S3150800C080002283F84520786805F024F99E4B5B6CFE
S3150800C0909D4A43F4804353649B4B5B6C03F4804393
S3150800C0A0BB60BB68994B5B68984A23F400035360EE
S3150800C0B0964B5A687B681B6A944913434B607B68A6
S3150800C0C01B6803F580531A687B681B6842F00102F7
S3150800C0D003F580531A60FFF773F9786111E0FFF7EB
S3150800C0E06FF902467B69D31AB3F5FA7F09D97B68DB
S3150800C0F0032283F844207B68002283F84520032323
S3150800C1003BE17B681B6803F580531B6803F001035A
S3150800C110002BE4D17B681B681B69FB61FB6923F074
S3150800C1201C03FB6102F010F9B861BB69784A9342B7
S3150800C13008D9BB69774A934204D8FB6943F00803D8
S3150800C140FB6127E0BB69734A934208D9BB69724A07
S3150800C150934204D8FB6943F00C03FB611AE0BB6900
S3150800C1606D4A934203D9BB696C4A934211D9BB699C
S3150800C1706A4A934208D9BB69694A934204D8FB695B
S3150800C18043F00403FB6105E0FB6943F01003FB6120
S3150800C19000E000BF7B681B68FA691A614FF4004229
S3150800C1A00021786800F019FC0346002B0BD0012308
S3150800C1B03B613969786800F0CFFD7B68012283F816
S3150800C1C044200123D9E0FF20FFF706F97B685B6866
S3150800C1D0002B00F0A780FFF7F3F8786107F10C034E
S3150800C1E01A460121786800F090FBFFF7E9F8024645
S3150800C1F07B69D31A41F2883293420FD901233B61F6
S3150800C2003969786800F0A8FD7B68012283F8442024
S3150800C2107B68002283F845200323AEE0FB6803F021
S3150800C2200403002BDAD04FF480520021786800F01E
S3150800C230D4FB0346002B0BD001233B613969786890
S3150800C24000F08AFD7B68012283F84420012394E0EC
S3150800C250FFF7B6F8786107F10C031A4601217868EA
S3150800C26000F053FBFFF7ACF802467B69D31A41F29C
S3150800C270883293420FD901233B613969786800F007
S3150800C2806BFD7B68012283F844207B68002283F8D3
S3150800C2904520032371E0FB6803F02003002BDAD066
S3150800C2A007F10C031A461F21786800F02EFB034697
S3150800C2B0002B0BD001233B613969786800F04CFDEF
S3150800C2C07B68012283F84420012356E0FB6803F0CB
S3150800C2D01003002B04D07B684FF40062DA6002E09A
S3150800C2E07B680022DA60FB6803F00403002B03D0A6
S3150800C2F07B6800229A6037E07B684FF480429A6038
S3150800C30032E000BF0087930300380240003801403E
S3150800C310FF2C3101BF0E1602FF869303FFE0F505D9
S3150800C3207FD1F0087B68DB68DB089AB27B689B687C
S3150800C3305B089BB213439BB21A460021786800F04B
S3150800C3404CFB0346002B0BD001233B613969786807
S3150800C35000F002FD7B68012283F8442001230CE0EB
S3150800C36040F6FF70FFF738F83969786800F0F4FC92
S3150800C3707B68012283F84420002318462037BD46EF
S3150800C38080BD00BF80B487B000AFF860B9607A603E
S3150800C3903B6000237B61FB6893F84530012B01D194
S3150800C3A0022352E0FB68012283F84520FB6802223B
S3150800C3B083F84420FB68BA68DA6200237B6130E0C0
S3150800C3C07B695B01BA6813443B613B694FF4801291
S3150800C3D01A607B6940F2F45202FB03F37A6813444D
S3150800C3E01A463B699A60FB68DB69002B05D13B69F5
S3150800C3F01B6843F440023B691A603B68013B7A6953
S3150800C4009A4208D27B6901335B01BA6813441A461B
S3150800C4103B69DA6002E0BA683B69DA607B69013336
S3150800C4207B617A693B689A42CAD3FB681968BA681D
S3150800C43041F210030B441A60FB68012283F844207A
S3150800C440FB68002283F84520002318461C37BD46A2
S3150800C4505DF8047B704780B487B000AFF860B960B8
S3150800C4607A603B6000237B61FB6893F84530012BBB
S3150800C47001D1022356E0FB68012283F84520FB68B8
S3150800C480022283F84420FB68BA689A6200237B611B
S3150800C49034E07B695B01BA6813443B613B694FF042
S3150800C4A000421A603B6944F2F4525A607B6940F2D2
S3150800C4B0F45202FB03F37A6813441A463B699A60FE
S3150800C4C0FB689B69012B05D13B695B6823F0004239
S3150800C4D03B695A603B68013B7A699A4208D27B6994
S3150800C4E001335B01BA6813441A463B69DA6002E015
S3150800C4F0BA683B69DA607B6901337B617A693B68B4
S3150800C5009A42C6D3FB681968BA6841F20C030B4411
S3150800C5101A60FB68012283F84420FB68002283F82E
S3150800C5204520002318461C37BD465DF8047B704736
S3150800C53080B487B000AF7860396000237B61002340
S3150800C540FB6000233B617B6893F84530012B01D1E2
S3150800C5500223CDE07B68012283F845207B6802220E
S3150800C56083F844203B68002B09D17B68012283F8B5
S3150800C57044207B68002283F845200123B8E07B68C5
S3150800C580DB6A1B68002B09DA7B68122283F84420D1
S3150800C5907B68002283F845200123A9E03B6840F226
S3150800C5A0F452934215D93B68544AA2FB03239B0ACB
S3150800C5B07B613A68514BA3FB02139B0A40F2F45184
S3150800C5C001FB03F3D31A002B05D07B6901337B618A
S3150800C5D001E001237B617B69012B1CD17B68DB6A47
S3150800C5E01A687B68DB6A42F040521A607B68DB6A2D
S3150800C5F03A68C2F30C025A607B68DB6A1A687B6881
S3150800C600DB6A42F000421A607B68DB6ADB681A461E
S3150800C6107B68DA624BE000233B6144E07B68DB6AB7
S3150800C6201A687B68DB6A22F040521A603B69002B65
S3150800C63007D17B68DB6A1A687B68DB6A42F080523E
S3150800C6401A607B68DB6A40F2F4525A607B69013BE8
S3150800C6503A699A4216D17B68DB6A1A687B68DB6A94
S3150800C66042F000521A607B69254A02FB03F23B68D6
S3150800C670134403F2F453FB607B68DB6AFA68C2F37F
S3150800C6800C025A607B68DB6A1A687B68DB6A42F0D0
S3150800C69000421A607B68DB6ADB681A467B68DA62E6
S3150800C6A03B6901333B613A697B699A42B6D37B6839
S3150800C6B01A6841F2140313441B6803F00403002BA1
S3150800C6C00DD07B681A6841F21403134404221A60D9
S3150800C6D07B681A6841F20403134400221A607B68D7
S3150800C6E0012283F844207B68002283F84520002332
S3150800C6F018461C37BD465DF8047B70470BB002AC84
S3150800C7000CFAFFFF80B485B000AF78600023FB60A9
S3150800C7107B6893F84530012B01D1022374E07B68CE
S3150800C720012283F845207B68022283F844205AE0D8
S3150800C730FB680133FB607B689B6A1B6803F44073E4
S3150800C740B3F5007F0DD17B689A6A7B681A637B68AC
S3150800C75001229A637B689B6ADB681A467B689A6241
S3150800C76041E07B689B6A1B6803F44073002B0BD17E
S3150800C7707B689B6B5A1C7B689A637B689B6ADB6841
S3150800C7801A467B689A622EE07B689A6A7B685A63C7
S3150800C7907B689B6B5A1C7B689A637B689B6B012B37
S3150800C7A003D17B689A6A7B681A637B689B6A1B68F5
S3150800C7B01B0CC3F30D031A1F7B68DA637B681B6BBC
S3150800C7C09A687B681A647B689B6ADB681A467B688A
S3150800C7D09A627B68012283F844207B68002283F8EA
S3150800C7E04520002310E07B689B6A1B68002B02DB50
S3150800C7F0FB68032B9CD97B68012283F844207B685D
S3150800C800002283F84520012318461437BD465DF8F3
S3150800C810047B704780B582B000AF78607B681A6881
S3150800C82041F2140313441B6803F04003402B12D152
S3150800C830786804F00FFE7B681A6841F21403134403
S3150800C84040221A607B68012283F844207B68002214
S3150800C85083F845201BE07B681A6841F214031344E9
S3150800C8601B6803F00103012B11D1786800F039F831
S3150800C8707B681A6841F21403134401221A607B6824
S3150800C880012283F844207B68002283F845207B68D0
S3150800C8901A6841F2140313444FF480321A607B6815
S3150800C8A01A6841F2140313441B6803F40043B3F5F2
S3150800C8B0004F12D1786800F01EF87B681A6841F2BA
S3150800C8C0140313444FF400421A607B68012283F86C
S3150800C8D044207B68002283F8452000BF0837BD4600
S3150800C8E080BD80B483B000AF786000BF0C37BD460A
S3150800C8F05DF8047B704780B483B000AF786000BFF2
S3150800C9000C37BD465DF8047B704780B586B000AF2E
S3150800C910F8600B467A607B8100237B6100233B61CC
S3150800C920FB6893F84430DBB2822B01D1022350E036
S3150800C930FB68822283F84420FB681B681B697B61BD
S3150800C9407B6903F01C037B61FB681B8ADB029BB2D5
S3150800C9507A6913437B617B899B0103F4F8637A69DF
S3150800C96013437B617B6923F002037B617B6943F098
S3150800C97001037B61FB681B687A691A61FEF720FD73
S3150800C980386115E0FEF71CFD02463B69D31AB3F57C
S3150800C990803F09D3FB68012283F84420FB68002204
S3150800C9A083F84520032314E0FB681B681B697B6139
S3150800C9B07B6903F00103002BE4D1FB681B685B6904
S3150800C9C09BB21A467B681A60FB68012283F84420EA
S3150800C9D0002318461837BD4680BD80B586B000AF1F
S3150800C9E0F8600B467A607B8100237B6100233B61FC
S3150800C9F0FB6893F84430DBB2422B01D102234EE0A8
S3150800CA00FB68422283F84420FB681B681B697B612C
S3150800CA107B6903F01C037B61FB681B8ADB029BB204
S3150800CA207A6913437B617B899B0103F4F8637A690E
S3150800CA3013437B617B6943F002037B617B6943F0A7
S3150800CA4001037B617B689AB2FB681B685A61FB68C5
S3150800CA501B687A691A61FEF7B3FC386115E0FEF7C0
S3150800CA60AFFC02463B69D31AB3F5803F09D3FB688E
S3150800CA70012283F84420FB68002283F8452003231B
S3150800CA800DE0FB681B681B697B617B6903F001038A
S3150800CA90002BE4D1FB68012283F8442000231846C2
S3150800CAA01837BD4680BD80B582B000AF78607B6818
S3150800CAB093F84530012B01D102231FE07B68012240
S3150800CAC083F845207B68022283F84420786800F0C2
S3150800CAD045FB786800F07CFB786800F013FC786802
S3150800CAE000F0B0FB786800F0DDFB7B68012283F874
S3150800CAF044207B68002283F845200023184608371F
S3150800CB00BD4680BD80B582B000AF78607B6893F87B
S3150800CB104530012B01D102231FE07B68012283F8EF
S3150800CB2045207B68022283F84420786800F0A2FB3F
S3150800CB30786800F0CFFB786800F067FB786800F04B
S3150800CB40E1FB786800F027FB7B68012283F8442024
S3150800CB507B68002283F84520002318460837BD461F
S3150800CB6080BD000080B584B000AF786039600023CE
S3150800CB70FB607B6893F84530012B01D10223E4E082
S3150800CB807B68012283F845207B68022283F84420CB
S3150800CB903B68002B00F0B1807B681B681B68FB6054
S3150800CBA0FA686C4B1340FB603B681A683B685B6825
S3150800CBB01A433B689B681A433B68DB681A437B68E1
S3150800CBC09B681A433B681B691A433B685B691A43AF
S3150800CBD07B68DB681A433B689B691A433B68DB69D9
S3150800CBE01A433B681B6A1A433B685B6A1A433B68ED
S3150800CBF09B6A1343FA681343FB607B681B68FA68F1
S3150800CC001A607B681B681B68FB600120FEF7E4FB63
S3150800CC107B681B68FA681A603B68DA6A3B681B6BB4
S3150800CC201A433B685B6B1A433B689B6B1A433B682A
S3150800CC30DB6B1A433B681B6C1A433B685B6C42EA26
S3150800CC4003013B689A6C7B681B680A435A607B68D9
S3150800CC501B685B68FB600120FEF7BEFB7B681B68F0
S3150800CC60FA685A607B681B683A68D26C9A607B6877
S3150800CC701B683A68126DDA607B681B689B69FB6003
S3150800CC80FA684FF641731340FB603B685B6D1A0404
S3150800CC903B689B6D1A433B68DB6D1A433B681B6E0A
S3150800CCA01A433B685B6E1A433B689B6E1343FA68EC
S3150800CCB01343FB607B681B68FA689A617B681B688C
S3150800CCC09B69FB600120FEF787FB7B681B68FA6897
S3150800CCD09A613B68D96E3B681A6F7B681B680A4382
S3150800CCE0DA617B681B68DB69FB600120FEF774FB71
S3150800CCF07B681B68FA68DA611EE07B681B681B683C
S3150800CD00FB60FB6823F49043FB607B689A687B684A
S3150800CD10DB681343FA681343FB607B681B68FA6891
S3150800CD201A607B681B681B68FB600120FEF754FBD2
S3150800CD307B681B68FA681A607B68012283F84420BE
S3150800CD407B68002283F84520002318461037BD4625
S3150800CD5080BD00BF0F8120FF80B5B0B000AF7860FE
S3150800CD6039600023C7F8BC303B68002B07D07B68C6
S3150800CD704FF40062DA607B684FF480429A600023C1
S3150800CD80BB640023FB6400233B6500237B6500230B
S3150800CD90BB650023FB657B68DB69002B03D14FF479
S3150800CDA080633B6601E000233B664FF400737B66B5
S3150800CDB00023BB660023FB6600233B6700237B67D3
S3150800CDC00023BB674023FB670023C7F88030002396
S3150800CDD0C7F884300023C7F888300023C7F88C309A
S3150800CDE00023C7F890300023C7F894300023C7F80B
S3150800CDF098300023C7F89C308023C7F8A03000235A
S3150800CE00C7F8A4300023C7F8A8300023C7F8AC3009
S3150800CE100023C7F8B0300023C7F8B4300023C7F89A
S3150800CE20B8307B681B681B68C7F8BC30D7F8BC20CD
S3150800CE30AB4B1340C7F8BC30BA6CFB6C1A433B6D5E
S3150800CE401A437B6D1A437B689B681A43BB6D1A436A
S3150800CE50FB6D1A437B68DB681A433B6E1A437B6E8D
S3150800CE601A43BB6E1A43FB6E1A433B6F1343D7F83C
S3150800CE70BC201343C7F8BC307B681B68D7F8BC20B6
S3150800CE801A607B681B681B68C7F8BC300120FEF770
S3150800CE90A3FA7B681B68D7F8BC201A607A6FBB6F49
S3150800CEA01A43FB6F1A43D7F880301A43D7F88430F1
S3150800CEB01A43D7F888301A43D7F88C3042EA030168
S3150800CEC0D7F890207B681B680A435A607B681B6802
S3150800CED05B68C7F8BC300120FEF77EFA7B681B68E2
S3150800CEE0D7F8BC205A607B681B68D7F894209A60EC
S3150800CEF07B681B68D7F89820DA607B681B689B6993
S3150800CF00C7F8BC30D7F8BC204FF641731340C7F8B2
S3150800CF10BC30D7F89C301A04D7F8A0301A43D7F893
S3150800CF20A4301A43D7F8A8301A43D7F8AC301A43B6
S3150800CF30D7F8B0301343D7F8BC201343C7F8BC3032
S3150800CF407B681B68D7F8BC209A617B681B689B695D
S3150800CF50C7F8BC300120FEF73FFA7B681B68D7F894
S3150800CF60BC209A61D7F8B410D7F8B8207B681B683C
S3150800CF700A43DA617B681B68DB69C7F8BC300120A5
S3150800CF80FEF72AFA7B681B68D7F8BC20DA6100230B
S3150800CF90BB604FF00073FB6000233B614FF4001346
S3150800CFA07B610023BB610023FB6100233B620023F6
S3150800CFB07B620423BB624FF00073FB624FF480333D
S3150800CFC03B634FF480037B634FF40053BB638023BA
S3150800CFD0FB6300233B6400237B647B681A6841F289
S3150800CFE0180313441B68C7F8BC30D7F8BC203D4B60
S3150800CFF01340C7F8BC30BA68FB681A433B691A4342
S3150800D0007B691A43BB691A43FB691A433B6A1A438D
S3150800D0107B6A1A43BB6A1343D7F8BC201343C7F885
S3150800D020BC307B681A6841F218031344D7F8BC2051
S3150800D0301A607B681A6841F2180313441B68C7F81C
S3150800D040BC300120FEF7C8F97B681A6841F218035C
S3150800D0501344D7F8BC201A60FA6A3B6B1A437B6BF9
S3150800D0601A43BB6B1A43FB6B1A433B6C9B001A4370
S3150800D0707B6C1A437B681B6842F4000203F58053F5
S3150800D0801A607B681B6803F580531B68C7F8BC30B9
S3150800D0900120FEF7A1F97B681B6803F58053D7F8D2
S3150800D0A0BC201A607B689B69012B0DD17B681A68C6
S3150800D0B041F21C0313441B687A6811680A4A1A432A
S3150800D0C041F21C030B441A607B685B691A4600210F
S3150800D0D0786800F00BF800BFC037BD4680BD00BFBA
S3150800D0E00F8120FF233FDEF84000010080B487B09F
S3150800D0F000AFF860B9607A607B6805331B781B025D
S3150800D1007A680432127813437B61BA68114B134468
S3150800D1101A467B6913607B6803331B781A067B689B
S3150800D12002331B781B041A437B6801331B781B02E6
S3150800D13013437A68127813437B61BA68064B134423
S3150800D1401A467B69136000BF1C37BD465DF8047B31
S3150800D150704700BF408002404480024080B584B0DA
S3150800D16000AF78600023FB607B681B681A687B68E1
S3150800D1701B6842F008021A607B681B681B68FB6024
S3150800D1800120FEF729F97B681B68FA681A6000BF58
S3150800D1901037BD4680BD80B584B000AF78600023E7
S3150800D1A0FB607B681B681A687B681B6822F00802AC
S3150800D1B01A607B681B681B68FB600120FEF70CF988
S3150800D1C07B681B68FA681A6000BF1037BD4680BDC9
S3150800D1D080B584B000AF78600023FB607B681B686D
S3150800D1E01A687B681B6842F004021A607B681B6831
S3150800D1F01B68FB600120FEF7EFF87B681B68FA687E
S3150800D2001A6000BF1037BD4680BD80B584B000AF38
S3150800D21078600023FB607B681B681A687B681B685C
S3150800D22022F004021A607B681B681B68FB600120F9
S3150800D230FEF7D2F87B681B68FA681A6000BF1037D9
S3150800D240BD4680BD80B483B000AF78607B681A683D
S3150800D25041F2180313441B687A68116843F40052B4
S3150800D26041F218030B441A6000BF0C37BD465DF83F
S3150800D270047B704780B483B000AF78607B681A6817
S3150800D28041F2180313441B687A68116823F40052A4
S3150800D29041F218030B441A6000BF0C37BD465DF80F
S3150800D2A0047B704780B483B000AF78607B681A68E7
S3150800D2B041F2180313441B687A68116843F00202A6
S3150800D2C041F218030B441A6000BF0C37BD465DF8DF
S3150800D2D0047B704780B483B000AF78607B681A68B7
S3150800D2E041F2180313441B687A68116823F0020296
S3150800D2F041F218030B441A6000BF0C37BD465DF8AF
S3150800D300047B704780B584B000AF78600023FB606B
S3150800D3107B681A6841F2180313441B687A68116817
S3150800D32043F4801241F218030B441A607B681A68AA
S3150800D33041F2180313441B68FB600120FEF74CF802
S3150800D3407B681968FA6841F218030B441A6000BF33
S3150800D3501037BD4680BD000080B489B000AF786044
S3150800D36039600023FB6100237B6100233B610023B6
S3150800D370BB610023FB6175E10122FB6902FA03F335
S3150800D3807B613B681B687A6913403B613A697B6934
S3150800D3909A4240F064813B685B68012B0BD03B687E
S3150800D3A05B68022B07D03B685B68112B03D03B6890
S3150800D3B05B68122B30D17B689B68BB61FB695B009D
S3150800D3C0032202FA03F3DB43BA691340BB613B68E5
S3150800D3D0DA68FB695B0002FA03F3BA691343BB61B7
S3150800D3E07B68BA699A607B685B68BB610122FB69E6
S3150800D3F002FA03F3DB43BA691340BB613B685B6817
S3150800D4001B0903F00102FB6902FA03F3BA69134325
S3150800D410BB617B68BA695A607B68DB68BB61FB697C
S3150800D4205B00032202FA03F3DB43BA691340BB61CC
S3150800D4303B689A68FB695B0002FA03F3BA6913430F
S3150800D440BB617B68BA69DA603B685B68022B03D00C
S3150800D4503B685B68122B23D1FB69DA087B680832C4
S3150800D46053F82230BB61FB6903F007039B000F22C8
S3150800D47002FA03F3DB43BA691340BB613B681A69D6
S3150800D480FB6903F007039B0002FA03F3BA69134327
S3150800D490BB61FB69DA087B680832B96943F8221070
S3150800D4A07B681B68BB61FB695B00032202FA03F316
S3150800D4B0DB43BA691340BB613B685B6803F0030250
S3150800D4C0FB695B0002FA03F3BA691343BB617B6825
S3150800D4D0BA691A603B685B6803F08053002B00F05A
S3150800D4E0BE80654B5B6C644A43F480435364624B6D
S3150800D4F05B6C03F48043FB60FB68604AFB699B082E
S3150800D500023352F82330BB61FB6903F003039B0027
