S01500007570646174696E675F746573742E7372656394
S3150800800000000820A1950008D98F0008E78F00080E
S31508008010ED8F0008F38F0008F98F000800000000B4
S31508008020000000000000000000000000610D0108CB
S31508008030FF8F000800000000610F01080D9000087E
S31508008040F1950008F1950008F1950008F1950008EA
S31508008050F1950008F1950008F1950008F1950008DA
S31508008060F1950008F1950008F1950008F1950008CA
S31508008070F1950008F1950008F1950008F1950008BA
S31508008080F1950008F1950008F1950008F1950008AA
S31508008090F1950008F1950008F1950008F19500089A
S315080080A0F1950008F1950008F1950008F19500088A
S315080080B0F195000829900008F1950008F195000847
S315080080C0F1950008F1950008F1950008F19500086A
S315080080D0F1950008F1950008F1950008F19500085A
S315080080E0F1950008F1950008F1950008F19500084A
S315080080F0F1950008F1950008F1950008F19500083A
S31508008100F1950008F1950008F1950008F195000829
S31508008110F1950008F1950008F1950008F195000819
S31508008120F1950008F1950008F1950008F195000809
S31508008130F195000849900008F1950008F1950008A6
S31508008140F1950008F1950008F1950008F1950008E9
S31508008150F1950008F1950008F1950008F1950008D9
S31508008160F1950008F1950008F1950008F1950008C9
S31508008170F1950008F1950008F19500080000000047
S31508008180F1950008F1950008F1950008F1950008A9
S31508008190F1950008F1950008F1950008F195000899
S315080081A0F1950008F1950008F1950008F195000889
S315080081B0F1950008F1950008F1950008F195000879
S315080081C0F1950008F195000800000000F1950008F7
S315080081D0F1950008F1950008F1950008F195000859
S315080081E0F1950008F1950008F1950008F195000849
S311080081F0F1950008F1950008EE11AA555B
S3150800820010B5054C237833B9044B13B10448AFF3C2
S3150800821000800123237010BDC0000020000000006C
S3150800822004DF010808B5034B1BB103490348AFF344
S31508008230008008BD00000000C400002004DF01081B
S3150800824010F8012B11F8013B012A28BF9A42F7D0F2
S31508008250D01A7047034613F8012B002AFBD1181AC7
S315080082600138704700000000000000000000000010
S3150800827001F0FF01102A2BDB10F0070F08D010F8C9
S31508008280013B013A8B422DD010F0070F42B3F6D1CD
S31508008290F0B441EA012141EA014122F007047FF0E6
S315080082A000070023F0E80256083C85EA010586EA3D
S315080082B0010685FA47F5A3FA87F586FA47F6A5FA79
S315080082C087F68EB9EED1F0BC01F0FF0102F0070285
S315080082D032B110F8013B013A83EA010313B1F8D130
S315080082E00020704701387047002D06BF3546033811
S315080082F0073815F0010F07D1013015F4807F02BF4A
S31508008300013015F4C03F0130F0BC0138704700BF9A
S3150800831053B94AB9002908BF00281CBF4FF0FF31DE
S315080083204FF0FF3000F072B9ADF1080C6DE904CEDC
S3150800833000F006F8DDF804E0DDE9022304B0704732
S315080083402DE9F047089E04468846002B4BD18A4201
S31508008350154667D9B2FA82F24AB1C2F1200701FA84
S3150800836002F320FA07F7954047EA030894404FEAD4
S31508008370154E230CB8FBFEF71FFA85FC0EFB178873
S3150800838043EA084307FB0CF1994209D9EB1807F1B0
S31508008390FF3080F01B81994240F21881023F2B443E
S315080083A05B1AA4B2B3FBFEF00EFB103344EA034497
S315080083B000FB0CFCA44509D92C1900F1FF3380F009
S315080083C00781A44540F2048102382C4440EA07405C
S315080083D0A4EB0C0400271EB1D4400023C6E90043D1
S315080083E03946BDE8F0878B4209D9002E00F0EB80AC
S315080083F00027C6E9000138463946BDE8F087B3FAD2
S3150800840083F7002F47D18B4202D3824200F2FA80CB
S31508008410841A61EB030301209846002EE0D0C6E9D2
S315080084200048DDE702B9FFDEB2FA82F2002A40F020
S315080084308F80491B4FEA154E1FFA85F80127B1FBB5
S31508008440FEFC230C0EFB1C1143EA014308FB0CF14E
S31508008450994207D9EB180CF1FF3002D2994200F283
S31508008460CD808446591AA3B2B1FBFEF00EFB101458
S3150800847043EA044408FB00F8A04507D92C1900F183
S31508008480FF3302D2A04500F2B6801846A4EB0804D2
S3150800849040EA0C409FE7C7F1200CBB4022FA0CFECD
S315080084A04EEA030E01FA07F420FA0CF521FA0CF34A
S315080084B04FEA1E482543B3FBF8F92C0C08FB193381
S315080084C01FFA8EFA44EA034309FB0AF49C4202FAAD
S315080084D007F200FA07F10BD91EEB030309F1FF3087
S315080084E080F087809C4240F28480A9F10209734497
S315080084F01B1BADB2B3FBF8F008FB103345EA034487
S3150800850000FB0AFAA24508D91EEB040400F1FF3362
S315080085106BD2A24569D90238744440EA0940A0FBE7
S315080085200289A4EB0A044C45C2464B4654D351D0A3
S31508008530002E69D0B1EB0A0564EB030404FA0CFCBF
S31508008540FD40FC404CEA0505C6E90054002747E70C
S31508008550C2F1200320FA03F7954001FA02F021FA46
S3150800856003F34FEA154E3843010CB3FBFEF71FFA27
S3150800857085F80EFB173341EA034107FB08F38B42E4
S3150800858004FA02F407D9691807F1FF3C2FD28B4287
S315080085902DD9023F2944CB1A81B2B3FBFEF00EFB5C
S315080085A0103341EA034100FB08F38B4207D96918E7
S315080085B000F1FF3C17D28B4215D902382944C91A53
S315080085C040EA07473BE73746304609E70746E7E606
S315080085D01846FBE64145ABD2B8EB020A69EB0E0238
S315080085E001381346A4E76046E9E7184695E7674663
S315080085F0D1E781467CE702382C4447E7ACF1020C08
S315080086002B442FE7384608E73746E9E6704700BFA8
S3150800861080B483B000AF03463960FB71054AFB7925
S315080086201370054A3B68136000BF0C37BD465DF8FA
S31508008630047B7047E0000020DC00002080B400AF17
S31508008640BFF34F8F054BDB6803F4E0620349044B25
S315080086501343CB60BFF34F8F00BFFDE700ED00E08B
S315080086600400FA0580B500AFFFF7E8FF80B485B0CF
S3150800867000AFF860B9607A60FB68074A1A60BB68A1
S31508008680064A1A607B6880221A6000BF1437BD4606
S315080086905DF8047B704700BFE40000203801002025
S315080086A0B0B58AB000AF00F03BFA00F0A2FF00F0C8
S315080086B051F800F093F900F033F900F061F900F091
S315080086C0DFF820490520FFF7A3FF1F4B3C1D1D4679
S315080086D00FCD0FC495E8070084E807003B1D00216D
S315080086E0184605F0FAFF0246184B1A6005F0DEFF39
S315080086F000237B620BE044F28101154802F053FC2B
S315080087004FF4FA7000F0D2FF7B6A01337B627B6A12
S31508008710092BF0DD00233B620AE044F281010C4894
S3150800872002F041FC322000F0C1FF3B6A01333B6294
S315080087303B6A092BF1DD0121002000F0A3FAFFF7BF
S3150800874091FFD5E70000040828DF010870460020DD
S315080087500004024080B5B8B000AF07F1AC0334227C
S315080087600021184614F086FC07F1980300221A60C7
S315080087705A609A60DA601A6107F1080390220021AC
S31508008780184614F077FC02F071FD3A4B1B6C394A17
S3150800879043F080531364374B1B6C03F080537B60A4
S315080087A07B68354B1B68344A43F440431360324BAD
S315080087B01B6803F440433B603B680123C7F8AC30B1
S315080087C04FF4A023C7F8B0300223C7F8C4304FF4DB
S315080087D08003C7F8C8300423C7F8CC30D823C7F8B5
S315080087E0D0300223C7F8D4300923C7F8D83007F1A8
S315080087F0AC03184602F09AFD0346002B01D000F0A0
S3150800880039FA02F043FD0346002B01D000F032FA94
S315080088100F23C7F898300223C7F89C300023C7F8FF
S31508008820A0304FF4A053C7F8A4304FF48053C7F8CC
S31508008830A83007F198030721184603F025F80346E0
S31508008840002B01D000F016FA0C4BBB6000237B65A9
S315080088500023C7F8843007F10803184603F00CFA1A
S315080088600346002B01D000F005FA00BFE037BD46ED
S3150800887080BD00BF003802400070004000012000A3
S3150800888080B588B000AF07F1100300221A605A605D
S315080088909A60DA603B1D00221A605A609A601D4B86
S315080088A01D4A1A601B4BD8225A601A4B00229A603E
S315080088B0184B1A4ADA60174B00221A61154B002228
S315080088C09A61144803F0FEFD0346002B01D000F020
S315080088D0D1F94FF480533B6107F1100319460D484F
S315080088E003F066FF0346002B01D000F0C3F900230E
S315080088F07B600023FB603B1D1946064804F07EF9A1
S315080089000346002B01D000F0B5F900BF2037BD465D
S3150800891080BD00BFF84A002000040040A086010080
S3150800892080B500AF144B154A1A60134B4FF4E13269
S315080089305A60114B00229A600F4B0022DA600E4BE8
S3150800894000221A610C4B0C225A610B4B00229A61C9
S31508008950094B0022DA61084B00221A62064B0022F4
S315080089605A62054804F0F6F90346002B01D000F0D8
S3150800897081F900BF80BD00BF744600200048004052
S3150800898080B500AF144B4FF0A0421A60124B062276
S315080089905A60114B0222DA600F4B00221A610E4B05
S315080089A002229A610C4B0122DA610B4B00221A62F1
S315080089B0094B00225A62084B0122DA62064B002252
S315080089C01A63054802F009FB0346002B01D000F0A4
S315080089D051F900BF80BD00BFF446002080B58CB0B9
S315080089E000AF07F11C0300221A605A609A60DA6029
S315080089F01A61464B1B6B454A43F004031363434B0A
S31508008A001B6B03F00403BB61BB69404B1B6B3F4AFE
S31508008A1043F0800313633D4B1B6B03F080037B61BC
S31508008A207B693A4B1B6B394A43F001031363374B97
S31508008A301B6B03F001033B613B69344B1B6B334AE9
S31508008A4043F002031363314B1B6B03F00203FB6015
S31508008A50FB682E4B1B6B2D4A43F0080313632B4B05
S31508008A601B6B03F00803BB60BB68284B1B6B274ACC
S31508008A7043F040031363254B1B6B03F040037B60F5
S31508008A807B68002244F28101214802F073FA002231
S31508008A904021204802F06EFA4FF40053FB611E4B4A
S31508008AA03B6200237B6207F11C0319461B4802F050
S31508008AB0B7F844F28103FB6101233B6200237B6222
S31508008AC00023BB6207F11C031946114802F0A8F8F7
S31508008AD04023FB6101233B6200237B620023BB62C8
S31508008AE007F11C0319460B4802F09AF88023FB612C
S31508008AF000233B6200237B6207F11C0319460548E5
S31508008B0002F08EF800BF3037BD4680BD00380240FF
S31508008B10000402400018024000001110000802403C
S31508008B2080B400AF034B044A9A6000BFBD465DF8A7
S31508008B30047B704700ED00E00080000880B592B025
S31508008B4000AFF860B9607A60FB707B685B8919468C
S31508008B50B8680BF0B7FF7B6859687B685B891A466B
S31508008B6007F11403184614F07AFA78680BF034F80B
S31508008B7000BF18464837BD4680BD000080B584B0A2
S31508008B8000AFF860B9601346FB710021B8680CF0B5
S31508008B9081FE0749B8680CF08FFE0121002000F01D
S31508008BA071F8FFF75FFD00BF18461037BD4680BD58
S31508008BB03D8B000880B586B000AF786004F0D4FF1E
S31508008BC009F00CFC264803F0A9FC00F0F5FA0CF0B5
S31508008BD04BFE0246234B1A60224B1B684FF47A72EF
S31508008BE0214918460BF0A0FD0346FB731D4B1B6875
S31508008BF0002118460CF04EFE1A4B1B68FF2118463A
S31508008C000BF04AFE0246174B1A60164B1B681749AB
S31508008C1018460CF0B7FE00237B6109E001211448D1
S31508008C2002F0C1F9FA2000F041FD7B6901337B614E
S31508008C307B691D2BF2DD00233B610DE001210C4809
S31508008C4002F0B1F980210A4802F0ADF9322000F0AD
S31508008C502DFD3B6901333B613B69092BEEDDDAE704
S31508008C60F84A0020380300204C1903087D8B0008B9
S31508008C700004024080B400AF00BFBD465DF8047B27
S31508008C807047000080B584B000AF78600B46FB7073
S31508008C900023FB7300F018F80346002B0CD07B6802
S31508008CA0372B09D8074A7B6813440433FA781A70B5
S31508008CB000F024F80123FB73FB7B18461037BD46EA
S31508008CC080BD00BF0000002080B582B000AF002341
S31508008CD0FB71084B1B68084A934206D100F01AF844
S31508008CE00346002B01D00123FB71FB791846083790
S31508008CF0BD4680BD00000020A2E742CE80B500AF89
S31508008D0000F01EF803461A46014B9A8700BF80BD3D
S31508008D100000002080B582B000AF0023FB7100F090
S31508008D200FF803461A46054B9B8F9A4201D1012339
S31508008D30FB71FB7918460837BD4680BD0000002048
S31508008D4080B483B000AF0023FB801F4B1B68DBB2E7
S31508008D509AB2FB881344FB801B4B1B681B0ADBB2C9
S31508008D609AB2FB881344FB80174B1B681B0CDBB2BB
S31508008D709AB2FB881344FB80134B1B681B0EDBB2AD
S31508008D809AB2FB881344FB8000233B600BE00E4A33
S31508008D903B68134404331B789AB2FB881344FB8060
S31508008DA03B6801333B603B68372BF0D9FB88DB43D4
S31508008DB0FB80FB880133FB80FB8818460C37BD46D1
S31508008DC05DF8047B704700BF0000002080B582B0C4
S31508008DD000AF1D4B1B6C1C4A43F0805313641A4B9F
S31508008DE01B6C03F080537B607B68174B5B6C164AE1
S31508008DF043F480435364144B5B6C03F480433B6039
S31508008E003B6800220A216FF00B0000F04CFD00229F
S31508008E100A216FF00A0000F046FD00220A216FF0D1
S31508008E20090000F040FD00220A216FF0030000F05F
S31508008E303AFD00220F216FF0010000F034FD00BF5B
S31508008E400837BD4680BD00BF0038024080B584B0F3
S31508008E5000AF78607B681B680D4A934213D10D4BAF
S31508008E601B6C0C4A43F0020313640A4B1B6C03F099
S31508008E700203FB60FB68002203211D2000F013FD9E
S31508008E801D2000F02CFD00BF1037BD4680BD00BF79
S31508008E90000400400038024080B58AB000AF786010
S31508008EA007F1140300221A605A609A60DA601A61A0
S31508008EB07B681B68174A934228D1174B1B6C164AC6
S31508008EC043F480231364144B1B6C03F480233B6127
S31508008ED03B69114B1B6B104A43F0080313630E4B97
S31508008EE01B6B03F00803FB60FB684FF440737B6160
S31508008EF00223BB610023FB6103233B6207237B62DA
S31508008F0007F114031946054801F08AFE00BF283701
S31508008F10BD4680BD0048004000380240000C0240B3
S31508008F2080B58AB000AF786007F1140300221A6092
S31508008F305A609A60DA601A617B681B68B3F1A04FC1
S31508008F4041D1234B1B6B224A43F001031363204B89
S31508008F501B6B03F001033B613B694FF4E8537B61EC
S31508008F600223BB610023FB6103233B620A237B6266
S31508008F7007F114031946174801F052FE4FF400731F
S31508008F807B610023BB610023FB6107F114031946CB
S31508008F90104801F045FE0E4B5B6B0D4A43F080030B
S31508008FA053630B4B5B6B03F08003FB60FB68084B5A
S31508008FB05B6C074A43F480435364054B5B6C03F4CC
S31508008FC08043BB60BB6800BF2837BD4680BD00BF75
S31508008FD0003802400000024080B400AF00BFBD4622
S31508008FE05DF8047B704780B400AFFEE780B400AF3D
S31508008FF0FEE780B400AFFEE780B400AFFEE780B4BA
S3150800900000AF00BFBD465DF8047B704780B500AF72
S3150800901000F02CFB07F000FC0346012B01D007F0FB
S31508009020D3FF00BF80BD000080B500AF044803F041
S315080090309FFA4FF48041034801F0B5FF00BF80BD99
S31508009040F84A00200004024080B500AF024801F04B
S3150800905045F800BF80BD00BF9464002080B586B087
S3150800906000AFF860B9607A6000237B610AE0AFF36D
S3150800907000800146BB685A1CBA60CAB21A707B697E
S3150800908001337B617A697B689A42F0DB7B68184614
S315080090901837BD4680BD80B586B000AFF860B960A8
S315080090A07A6000237B6109E0BB685A1CBA601B78AA
S315080090B01846AFF300807B6901337B617A697B6868
S315080090C09A42F1DB7B6818461837BD4680BD80B4E6
S315080090D083B000AF78604FF0FF3318460C37BD46B3
S315080090E05DF8047B704780B483B000AF7860396060
S315080090F03B684FF400525A60002318460C37BD46A9
S315080091005DF8047B704780B483B000AF78600123B4
S3150800911018460C37BD465DF8047B704780B485B0A9
S3150800912000AFF860B9607A60002318461437BD4668
S315080091305DF8047B7047000080B485B000AF7860A6
S31508009140114B1B68002B02D10F4B104A1A600E4BAD
S315080091501B68FB600C4B1A687B6813446A4693428B
S3150800916005D90B4B0C221A604FF0FF3306E0064B6D
S315080091701A687B681344044A1360FB681846143758
S31508009180BD465DF8047B70473C030020E8B3002029
S31508009190E0B3002080B400AF064BD3F88830054A08
S315080091A043F47003C2F8883000BFBD465DF8047BFF
S315080091B0704700BF00ED00E080B582B000AF0CF04C
S315080091C053FB0246124B1A60114B1B68002B1BD02F
S315080091D00F4B1B6807220F4918460BF0A5FA0346E2
S315080091E0FB7197F90730002B0ED1094B1B68FF213D
S315080091F018460BF051FB0246054B1A60044B1B68D8
S31508009200054918460CF0BEFB00BF0837BD4680BDB1
S31508009210400300204C1903081D92000880B586B04B
S3150800922000AFF860B9601346FB710121B8680CF00D
S3150800923029F90C2009F05CFC38613B69002B1FD02A
S315080092403B6901221A703B69BA685A603B69002279
S315080092505A703B6900229A603969B8680CF01AFBA3
S315080092600B49B8680CF028FB0A49B8680CF068FB8B
S3150800927000220949B8680CF09DFB0023FB7501E044
S31508009280FF23FB7597F9173018461837BD4680BD7A
S315080092909D920008D9930008FD93000880B588B010
S315080092A000AFF860B9607A60FB70FB68002B05D1E7
S315080092B0454B77224549464813F0E4FEFB68BB61F7
S315080092C07B68002B16D1BB6903221A70BB699B68A1
S315080092D0002B04D1B969B86800F03BF907E03D49AD
S315080092E0B8680CF00BFBB969B86800F0DFF8002322
S315080092F0FB7763E097F90330002B0BD07B68002BD4
S3150800930005D0BB6900229A6078680AF065FCFB788C
S31508009310FB7753E0BB691B78012B10D1BB6902228E
S315080093201A70BB697A689A602A49B8680CF0E6FA36
S31508009330B969B86800F0BAF80023FB773EE0BB6964
S315080093401B78022B19D1BB699B68002B0BD1BB6913
S315080093507A689A601F49B8680CF0D0FAB969B86893
S3150800936000F0A4F806E0BB699B687B6179687869B8
S315080093700AF056FD0023FB7720E0BB691B78032B18
S315080093800ED17B681B891946B8680BF09BFBBB6935
S3150800939000229A6078680AF01FFC0023FB770DE02C
S315080093A07B681B891946B8680BF08CFBBB690022E1
S315080093B09A6078680AF010FC0023FB7797F91F304B
S315080093C018462037BD4680BD44DF010864DF010822
S315080093D070DF01085D94000880B584B000AF78603E
S315080093E00B46FB707B68FB60FB68002B02D0F868B5
S315080093F009F0E4F900BF1037BD4680BD80B584B0DA
S3150800940000AF786039607B68BB60BB68002B17D0FB
S31508009410BB689B68002B08D00F4938680CF06EFAB9
S31508009420B968386800F042F807E0BB681B78032B78
S3150800943003D1B968386800F08CF80023FB7304E0A0
S3150800944038680BF065F9F323FB7397F90F30184664
S315080094501037BD4680BD00BF5D94000880B586B054
S3150800946000AFF860B9601346FB80FB687B617B69D7
S3150800947000225A707B699B68002B08D00A49B86895
S315080094800CF03CFA7969B86800F010F807E07B69D7
S315080094901B78032B03D17969B86800F05AF80023C2
S315080094A018461837BD4680BD5D94000880B586B05D
S315080094B000AF786039600023FB7536E03B689B682F
S315080094C03B613B6959683B695A89012378680FF003
S315080094D01DF90346FB7597F91730002B1DD13B691B
S315080094E05B89FB813B691A683B689A603B689B68A5
S315080094F0002B04D03B689B6818460AF013FC3869B1
S315080095000AF06AFB03467B737B7B002BF7D0FB894B
S31508009510194678680BF0D6FA07E097F91730B3F1D1
S31508009520FF3F02D13B683A699A6097F91730002BDA
S315080095300BD13B689B68002B07D03B689B685A8910
S315080095407B68B3F864309A42B8D900BF1837BD466D
S3150800955080BD80B582B000AF786039600021786838
S315080095600CF098F9002178680CF0C8F900217868A1
S315080095700CF0A2F9002178680CF0E2F9002200212B
S3150800958078680CF017FA3B68002B02D0386809F0A7
S3150800959015F978680AF0D2FF00BF0837BD4680BDC6
S315080095A0DFF834D0002103E00C4B5B5843500431FC
S315080095B00B480C4B42189A42F6D30B4A02E000239A
S315080095C042F8043B094B9A42F9D3FFF7E3FD13F03F
S315080095D013FDFFF765F8704700000820101A030806
S315080095E040000020C0000020C0000020E8B3002092
S315080095F0FEE780B500AF032000F04AF90F2000F01F
S3150800960005F8FFF7E3FB0023184680BD80B582B056
S3150800961000AF7860124B1A68124B1B7819464FF444
S315080096207A73B3FBF1F3B2FBF3F3184600F065F96E
S315080096300346002B01D001230EE07B680F2B0AD8C6
S31508009640002279684FF0FF3000F02DF9064A7B6852
S315080096501360002300E0012318460837BD4680BD85
S3150800966040000020480000204400002080B400AFDD
S31508009670064B1B781A46064B1B681344044A1360AC
S3150800968000BFBD465DF8047B704700BF4800002058
S315080096906C4B002080B400AF034B1B681846BD46D0
S315080096A05DF8047B704700BF6C4B002080B584B022
S315080096B000AF7860FFF7EEFFB8607B68FB60FB6879
S315080096C0B3F1FF3F05D0094B1B781A46FB681344D4
S315080096D0FB6000BFFFF7DEFF0246BB68D31AFA68D5
S315080096E09A42F7D800BF1037BD4680BD4800002013
S315080096F080B485B000AF78607B6803F00703FB6031
S315080097000B4BDB68BB60BA684FF6FF031340BB60C0
S31508009710FB681A02BB681A43064B1343BB60044A2C
S31508009720BB68D36000BF1437BD465DF8047B70473D
S3150800973000ED00E00000FA0580B400AF044BDB68DA
S315080097401B0A03F007031846BD465DF8047B7047FD
S3150800975000ED00E080B483B000AF0346FB7197F9D3
S315080097600730002B0BDBFB7903F01F02074997F93B
S3150800977007305B09012000FA02F241F8232000BFF6
S315080097800C37BD465DF8047B704700BF00E100E07A
S3150800979080B483B000AF03463960FB7197F9073090
S315080097A0002B0ADB3B68DAB20C4997F9073012013D
S315080097B0D2B20B4483F800230AE03B68DAB20849C0
S315080097C0FB7903F00F03043B1201D2B20B441A765D
S315080097D000BF0C37BD465DF8047B704700E100E02A
S315080097E000ED00E080B489B000AFF860B9607A6037
S315080097F0FB6803F00703FB61FB69C3F10703042B4E
S3150800980028BF0423BB61FB690433062B02D9FB6915
S31508009810033B00E000237B614FF0FF32BB6902FA8D
S3150800982003F3DA43BB681A407B699A404FF0FF316D
S315080098307B6901FA03F3D9437B680B401343184647
S315080098402437BD465DF8047B7047000080B582B0BA
S3150800985000AF78607B68013BB3F1807F01D30123B9
S315080098600FE00A4A7B68013B53600F214FF0FF3037
S31508009870FFF78EFF054B00229A60044B07221A60F9
S31508009880002318460837BD4680BD00BF10E000E03B
S3150800989080B582B000AF78607868FFF729FF00BF0F
S315080098A00837BD4680BD80B586B000AF0346B960AF
S315080098B07A60FB7300237B61FFF73EFF78617A6865
S315080098C0B9687869FFF78EFF024697F90F30114697
S315080098D01846FFF75DFF00BF1837BD4680BD80B547
S315080098E082B000AF0346FB7197F907301846FFF7B9
S315080098F031FF00BF0837BD4680BD80B582B000AFD6
S3150800990078607868FFF7A2FF034618460837BD4611
S3150800991080BD000080B588B000AF78600023FB6189
S315080099200023FB60A94BBB6100237B6100233B61DD
S315080099307B68002B01D1012383E17B6893F84430CF
S31508009940DBB2002B06D17B68002283F845207868B5
S3150800995004F068FA9E4B5B6C9D4A43F4804353645B
S315080099609B4B5B6C03F48043BB60BB68994B5B689D
S31508009970984A23F400035360964B5A687B681B6A1F
S31508009980944913434B607B681B6803F580531A6838
S315080099907B681B6842F0010203F580531A60FFF7E3
S315080099A079FE786111E0FFF775FE02467B69D31AE6
S315080099B0B3F5FA7F09D97B68032283F844207B68CC
S315080099C0002283F8452003233BE17B681B6803F5E7
S315080099D080531B6803F00103002BE4D17B681B68E6
S315080099E01B69FB61FB6923F01C03FB6102F010F99C
S315080099F0B861BB69784A934208D9BB69774A9342EA
S31508009A0004D8FB6943F00803FB6127E0BB69734A86
S31508009A10934208D9BB69724A934204D8FB6943F05A
S31508009A200C03FB611AE0BB696D4A934203D9BB6913
S31508009A306C4A934211D9BB696A4A934208D9BB69F1
S31508009A40694A934204D8FB6943F00403FB6105E0C5
S31508009A50FB6943F01003FB6100E000BF7B681B68ED
S31508009A60FA691A614FF400420021786800F019FC7F
S31508009A700346002B0BD001233B613969786800F057
S31508009A80CFFD7B68012283F844200123D9E0FF201B
S31508009A90FFF70CFE7B685B68002B00F0A780FFF7DA
S31508009AA0F9FD786107F10C031A460121786800F080
S31508009AB090FBFFF7EFFD02467B69D31A41F2883225
S31508009AC093420FD901233B613969786800F0A8FDF4
S31508009AD07B68012283F844207B68002283F84520AE
S31508009AE00323AEE0FB6803F00403002BDAD04FF43F
S31508009AF080520021786800F0D4FB0346002B0BD077
S31508009B0001233B613969786800F08AFD7B68012288
S31508009B1083F84420012394E0FFF7BCFD786107F140
S31508009B200C031A460121786800F053FBFFF7B2FDD3
S31508009B3002467B69D31A41F2883293420FD9012330
S31508009B403B613969786800F06BFD7B68012283F810
S31508009B5044207B68002283F84520032371E0FB68D4
S31508009B6003F02003002BDAD007F10C031A461F2155
S31508009B70786800F02EFB0346002B0BD001233B61CF
S31508009B803969786800F04CFD7B68012283F8442027
S31508009B90012356E0FB6803F01003002B04D07B6812
S31508009BA04FF40062DA6002E07B680022DA60FB6844
S31508009BB003F00403002B03D07B6800229A6037E089
S31508009BC07B684FF480429A6032E000BF00879303B7
S31508009BD00038024000380140FF2C3101BF0E160242
S31508009BE0FF869303FFE0F5057FD1F0087B68DB6805
S31508009BF0DB089AB27B689B685B089BB213439BB2EF
S31508009C001A460021786800F04CFB0346002B0BD05F
S31508009C1001233B613969786800F002FD7B680122FF
S31508009C2083F8442001230CE040F6FF70FFF73EFD61
S31508009C303969786800F0F4FC7B68012283F84420CF
S31508009C40002318462037BD4680BD00BF80B487B0C4
S31508009C5000AFF860B9607A603B6000237B61FB68FF
S31508009C6093F84530012B01D1022352E0FB6801220B
S31508009C7083F84520FB68022283F84420FB68BA680B
S31508009C80DA6200237B6130E07B695B01BA681344C2
S31508009C903B613B694FF480121A607B6940F2F452CB
S31508009CA002FB03F37A6813441A463B699A60FB6819
S31508009CB0DB69002B05D13B691B6843F440023B690D
S31508009CC01A603B68013B7A699A4208D27B6901337C
S31508009CD05B01BA6813441A463B69DA6002E0BA685F
S31508009CE03B69DA607B6901337B617A693B689A4232
S31508009CF0CAD3FB681968BA6841F210030B441A60A4
S31508009D00FB68012283F84420FB68002283F845207B
S31508009D10002318461C37BD465DF8047B704780B49F
S31508009D2087B000AFF860B9607A603B6000237B615A
S31508009D30FB6893F84530012B01D1022356E0FB68F6
S31508009D40012283F84520FB68022283F84420FB6839
S31508009D50BA689A6200237B6134E07B695B01BA6862
S31508009D6013443B613B694FF000421A603B6944F279
S31508009D70F4525A607B6940F2F45202FB03F37A68A4
S31508009D8013441A463B699A60FB689B69012B05D107
S31508009D903B695B6823F000423B695A603B68013BBC
S31508009DA07A699A4208D27B6901335B01BA6813441F
S31508009DB01A463B69DA6002E0BA683B69DA607B6991
S31508009DC001337B617A693B689A42C6D3FB68196896
S31508009DD0BA6841F20C030B441A60FB68012283F847
S31508009DE04420FB68002283F84520002318461C37C8
S31508009DF0BD465DF8047B704780B487B000AF7860D5
S31508009E00396000237B610023FB6000233B617B688C
S31508009E1093F84530012B01D10223CDE07B6801225E
S31508009E2083F845207B68022283F844203B68002B90
S31508009E3009D17B68012283F844207B68002283F8D5
S31508009E4045200123B8E07B68DB6A1B68002B09DA2A
S31508009E507B68122283F844207B68002283F8452019
S31508009E600123A9E03B6840F2F452934215D93B68B6
S31508009E70544AA2FB03239B0A7B613A68514BA3FB16
S31508009E8002139B0A40F2F45101FB03F3D31A002B89
S31508009E9005D07B6901337B6101E001237B617B6926
S31508009EA0012B1CD17B68DB6A1A687B68DB6A42F087
S31508009EB040521A607B68DB6A3A68C2F30C025A6041
S31508009EC07B68DB6A1A687B68DB6A42F000421A60C4
S31508009ED07B68DB6ADB681A467B68DA624BE000233C
S31508009EE03B6144E07B68DB6A1A687B68DB6A22F0C0
S31508009EF040521A603B69002B07D17B68DB6A1A68F7
S31508009F007B68DB6A42F080521A607B68DB6A40F243
S31508009F10F4525A607B69013B3A699A4216D17B68CA
S31508009F20DB6A1A687B68DB6A42F000521A607B6952
S31508009F30254A02FB03F23B68134403F2F453FB6021
S31508009F407B68DB6AFA68C2F30C025A607B68DB6AD4
S31508009F501A687B68DB6A42F000421A607B68DB6A33
S31508009F60DB681A467B68DA623B6901333B613A690A
S31508009F707B699A42B6D37B681A6841F21403134484
S31508009F801B6803F00403002B0DD07B681A6841F2A6
S31508009F901403134404221A607B681A6841F2040306
S31508009FA0134400221A607B68012283F844207B68E8
S31508009FB0002283F84520002318461C37BD465DF865
S31508009FC0047B70470BB002AC0CFAFFFF80B485B077
S31508009FD000AF78600023FB607B6893F84530012B5F
S31508009FE001D1022374E07B68012283F845207B684F
S31508009FF0022283F844205AE0FB680133FB607B6841
S3150800A0009B6A1B6803F44073B3F5007F0DD17B6828
S3150800A0109A6A7B681A637B6801229A637B689B6AE3
S3150800A020DB681A467B689A6241E07B689B6A1B6814
S3150800A03003F44073002B0BD17B689B6B5A1C7B681F
S3150800A0409A637B689B6ADB681A467B689A622EE08D
S3150800A0507B689A6A7B685A637B689B6B5A1C7B6829
S3150800A0609A637B689B6B012B03D17B689A6A7B6832
S3150800A0701A637B689B6A1B681B0CC3F30D031A1FC4
S3150800A0807B68DA637B681B6B9A687B681A647B68F3
S3150800A0909B6ADB681A467B689A627B68012283F8AA
S3150800A0A044207B68002283F84520002310E07B6863
S3150800A0B09B6A1B68002B02DBFB68032B9CD97B6819
S3150800A0C0012283F844207B68002283F84520012377
S3150800A0D018461437BD465DF8047B704780B582B0D4
S3150800A0E000AF78607B681A6841F2140313441B6852
S3150800A0F003F04003402B12D1786803F053FF7B68C6
S3150800A1001A6841F21403134440221A607B6801223C
S3150800A11083F844207B68002283F845201BE07B688F
S3150800A1201A6841F2140313441B6803F00103012B58
S3150800A13011D1786800F039F87B681A6841F214037F
S3150800A140134401221A607B68012283F844207B6845
S3150800A150002283F845207B681A6841F214031344E9
S3150800A1604FF480321A607B681A6841F2140313446C
S3150800A1701B6803F40043B3F5004F12D1786800F06A
S3150800A1801EF87B681A6841F2140313444FF4004220
S3150800A1901A607B68012283F844207B68002283F8D2
S3150800A1A0452000BF0837BD4680BD80B483B000AFE8
S3150800A1B0786000BF0C37BD465DF8047B704780B4F5
S3150800A1C083B000AF786000BF0C37BD465DF8047BEE
S3150800A1D0704780B586B000AFF8600B467A607B8121
S3150800A1E000237B6100233B61FB6893F84430DBB2B4
S3150800A1F0822B01D1022350E0FB68822283F8442097
S3150800A200FB681B681B697B617B6903F01C037B6128
S3150800A210FB681B8ADB029BB27A6913437B617B89E5
S3150800A2209B0103F4F8637A6913437B617B6923F026
S3150800A23002037B617B6943F001037B61FB681B6852
S3150800A2407A691A61FFF726FA386115E0FFF722FAEC
S3150800A25002463B69D31AB3F5803F09D3FB6801224E
S3150800A26083F84420FB68002283F84520032314E082
S3150800A270FB681B681B697B617B6903F00103002B84
S3150800A280E4D1FB681B685B699BB21A467B681A6057
S3150800A290FB68012283F84420002318461837BD4678
S3150800A2A080BD80B586B000AFF8600B467A607B81CA
S3150800A2B000237B6100233B61FB6893F84430DBB2E3
S3150800A2C0422B01D102234EE0FB68422283F8442048
S3150800A2D0FB681B681B697B617B6903F01C037B6158
S3150800A2E0FB681B8ADB029BB27A6913437B617B8915
S3150800A2F09B0103F4F8637A6913437B617B6943F036
S3150800A30002037B617B6943F001037B617B689AB238
S3150800A310FB681B685A61FB681B687A691A61FFF754
S3150800A320B9F9386115E0FFF7B5F902463B69D31A62
S3150800A330B3F5803F09D3FB68012283F84420FB6804
S3150800A340002283F8452003230DE0FB681B681B6980
S3150800A3507B617B6903F00103002BE4D1FB680122D2
S3150800A36083F84420002318461837BD4680BD80B5BB
S3150800A37082B000AF78607B6893F84530012B01D135
S3150800A38002231FE07B68012283F845207B680222AE
S3150800A39083F84420786800F045FB786800F07CFB79
S3150800A3A0786800F013FC786800F0B0FB786800F075
S3150800A3B0DDFB7B68012283F844207B68002283F852
S3150800A3C04520002318460837BD4680BD80B582B0B3
S3150800A3D000AF78607B6893F84530012B01D10223E2
S3150800A3E01FE07B68012283F845207B68022283F8F8
S3150800A3F04420786800F0A2FB786800F0CFFB786804
S3150800A40000F067FB786800F0E1FB786800F027FB4E
S3150800A4107B68012283F844207B68002283F8452064
S3150800A420002318460837BD4680BD000080B584B0B5
S3150800A43000AF786039600023FB607B6893F845308D
S3150800A440012B01D10223E4E07B68012283F8452031
S3150800A4507B68022283F844203B68002B00F0B18019
S3150800A4607B681B681B68FB60FA686C4B1340FB60D3
S3150800A4703B681A683B685B681A433B689B681A43E3
S3150800A4803B68DB681A437B689B681A433B681B6911
S3150800A4901A433B685B691A437B68DB681A433B6867
S3150800A4A09B691A433B68DB691A433B681B6A1A4374
S3150800A4B03B685B6A1A433B689B6A1343FA68134313
S3150800A4C0FB607B681B68FA681A607B681B681B68F8
S3150800A4D0FB600120FFF7EAF87B681B68FA681A60D8
S3150800A4E03B68DA6A3B681B6B1A433B685B6B1A432B
S3150800A4F03B689B6B1A433B68DB6B1A433B681B6CD8
S3150800A5001A433B685B6C42EA03013B689A6C7B68BA
S3150800A5101B680A435A607B681B685B68FB600120FE
S3150800A520FFF7C4F87B681B68FA685A607B681B6883
S3150800A5303A68D26C9A607B681B683A68126DDA6072
S3150800A5407B681B689B69FB60FA684FF6417313408A
S3150800A550FB603B685B6D1A043B689B6D1A433B685E
S3150800A560DB6D1A433B681B6E1A433B685B6E1A43E6
S3150800A5703B689B6E1343FA681343FB607B681B6852
S3150800A580FA689A617B681B689B69FB600120FFF784
S3150800A5908DF87B681B68FA689A613B68D96E3B68D8
S3150800A5A01A6F7B681B680A43DA617B681B68DB697C
S3150800A5B0FB600120FFF77AF87B681B68FA68DA61A6
S3150800A5C01EE07B681B681B68FB60FB6823F49043EE
S3150800A5D0FB607B689A687B68DB681343FA681343F9
S3150800A5E0FB607B681B68FA681A607B681B681B68D7
S3150800A5F0FB600120FFF75AF87B681B68FA681A6047
S3150800A6007B68012283F844207B68002283F8452072
S3150800A610002318461037BD4680BD00BF0F8120FFB6
S3150800A62080B5B0B000AF786039600023C7F8BC3099
S3150800A6303B68002B07D07B684FF40062DA607B68C2
S3150800A6404FF480429A600023BB640023FB64002316
S3150800A6503B6500237B650023BB650023FB657B68A0
S3150800A660DB69002B03D14FF480633B6601E00023CE
S3150800A6703B664FF400737B660023BB660023FB66CC
S3150800A68000233B6700237B670023BB674023FB67E8
S3150800A6900023C7F880300023C7F884300023C7F8A2
S3150800A6A088300023C7F88C300023C7F89030002381
S3150800A6B0C7F894300023C7F898300023C7F89C30B1
S3150800A6C08023C7F8A0300023C7F8A4300023C7F8B2
S3150800A6D0A8300023C7F8AC300023C7F8B0300023F1
S3150800A6E0C7F8B4300023C7F8B8307B681B681B6806
S3150800A6F0C7F8BC30D7F8BC20AB4B1340C7F8BC3002
S3150800A700BA6CFB6C1A433B6D1A437B6D1A437B6824
S3150800A7109B681A43BB6D1A43FB6D1A437B68DB685B
S3150800A7201A433B6E1A437B6E1A43BB6E1A43FB6E83
S3150800A7301A433B6F1343D7F8BC201343C7F8BC3002
S3150800A7407B681B68D7F8BC201A607B681B681B6887
S3150800A750C7F8BC300120FEF7A9FF7B681B68D7F84D
S3150800A760BC201A607A6FBB6F1A43FB6F1A43D7F87F
S3150800A77080301A43D7F884301A43D7F888301A43FA
S3150800A780D7F88C3042EA0301D7F890207B681B681B
S3150800A7900A435A607B681B685B68C7F8BC300120AF
S3150800A7A0FEF784FF7B681B68D7F8BC205A607B6875
S3150800A7B01B68D7F894209A607B681B68D7F898209E
S3150800A7C0DA607B681B689B69C7F8BC30D7F8BC2081
S3150800A7D04FF641731340C7F8BC30D7F89C301A04BB
S3150800A7E0D7F8A0301A43D7F8A4301A43D7F8A830B8
S3150800A7F01A43D7F8AC301A43D7F8B0301343D7F812
S3150800A800BC201343C7F8BC307B681B68D7F8BC204C
S3150800A8109A617B681B689B69C7F8BC300120FEF704
S3150800A82045FF7B681B68D7F8BC209A61D7F8B41037
S3150800A830D7F8B8207B681B680A43DA617B681B680F
S3150800A840DB69C7F8BC300120FEF730FF7B681B6860
S3150800A850D7F8BC20DA610023BB604FF00073FB60B9
S3150800A86000233B614FF400137B610023BB61002387
S3150800A870FB6100233B6200237B620423BB624FF02B
S3150800A8800073FB624FF480333B634FF480037B63B2
S3150800A8904FF40053BB638023FB6300233B64002310
S3150800A8A07B647B681A6841F2180313441B68C7F86F
S3150800A8B0BC30D7F8BC203D4B1340C7F8BC30BA684B
S3150800A8C0FB681A433B691A437B691A43BB691A43F7
S3150800A8D0FB691A433B6A1A437B6A1A43BB6A1343EA
S3150800A8E0D7F8BC201343C7F8BC307B681A6841F216
S3150800A8F018031344D7F8BC201A607B681A6841F21B
S3150800A900180313441B68C7F8BC300120FEF7CEFEB7
S3150800A9107B681A6841F218031344D7F8BC201A60FA
S3150800A920FA6A3B6B1A437B6B1A43BB6B1A43FB6B86
S3150800A9301A433B6C9B001A437B6C1A437B681B6863
S3150800A94042F4000203F580531A607B681B6803F51E
S3150800A95080531B68C7F8BC300120FEF7A7FE7B684A
S3150800A9601B6803F58053D7F8BC201A607B689B697F
S3150800A970012B0DD17B681A6841F21C0313441B682E
S3150800A9807A6811680A4A1A4341F21C030B441A6092
S3150800A9907B685B691A460021786800F00BF800BFEF
S3150800A9A0C037BD4680BD00BF0F8120FF233FDEF8BC
S3150800A9B04000010080B487B000AFF860B9607A60E3
S3150800A9C07B6805331B781B027A68043212781343B6
S3150800A9D07B61BA68114B13441A467B6913607B681E
S3150800A9E003331B781A067B6802331B781B041A4349
S3150800A9F07B6801331B781B0213437A68127813436A
S3150800AA007B61BA68064B13441A467B69136000BF1C
S3150800AA101C37BD465DF8047B704700BF4080024086
S3150800AA204480024080B584B000AF78600023FB60A4
S3150800AA307B681B681A687B681B6842F008021A6004
S3150800AA407B681B681B68FB600120FEF72FFE7B688E
S3150800AA501B68FA681A6000BF1037BD4680BD80B50E
S3150800AA6084B000AF78600023FB607B681B681A68B7
S3150800AA707B681B6822F008021A607B681B681B68E3
S3150800AA80FB600120FEF712FE7B681B68FA681A60F5
S3150800AA9000BF1037BD4680BD80B584B000AF786072
S3150800AAA00023FB607B681B681A687B681B6842F09A
S3150800AAB004021A607B681B681B68FB600120FEF7AE
S3150800AAC0F5FD7B681B68FA681A6000BF1037BD463B
S3150800AAD080BD80B584B000AF78600023FB607B68DA
S3150800AAE01B681A687B681B6822F004021A607B6878
S3150800AAF01B681B68FB600120FEF7D8FD7B681B6896
S3150800AB00FA681A6000BF1037BD4680BD80B483B0AE
S3150800AB1000AF78607B681A6841F2180313441B6813
S3150800AB207A68116843F4005241F218030B441A601C
S3150800AB3000BF0C37BD465DF8047B704780B483B010
S3150800AB4000AF78607B681A6841F2180313441B68E3
S3150800AB507A68116823F4005241F218030B441A600C
S3150800AB6000BF0C37BD465DF8047B704780B483B0E0
S3150800AB7000AF78607B681A6841F2180313441B68B3
S3150800AB807A68116843F0020241F218030B441A600E
S3150800AB9000BF0C37BD465DF8047B704780B483B0B0
S3150800ABA000AF78607B681A6841F2180313441B6883
S3150800ABB07A68116823F0020241F218030B441A60FE
S3150800ABC000BF0C37BD465DF8047B704780B584B07E
S3150800ABD000AF78600023FB607B681A6841F21803AF
S3150800ABE013441B687A68116843F4801241F218030B
S3150800ABF00B441A607B681A6841F2180313441B68F1
S3150800AC00FB600120FEF752FD7B681968FA6841F27D
S3150800AC1018030B441A6000BF1037BD4680BD0000FC
S3150800AC2080B489B000AF786039600023FB610023E7
S3150800AC307B6100233B610023BB610023FB6175E157
S3150800AC400122FB6902FA03F37B613B681B687A6998
S3150800AC5013403B613A697B699A4240F064813B68DC
S3150800AC605B68012B0BD03B685B68022B07D03B68FF
S3150800AC705B68112B03D03B685B68122B30D17B686D
S3150800AC809B68BB61FB695B00032202FA03F3DB43A3
S3150800AC90BA691340BB613B68DA68FB695B0002FA74
S3150800ACA003F3BA691343BB617B68BA699A607B6828
S3150800ACB05B68BB610122FB6902FA03F3DB43BA69ED
S3150800ACC01340BB613B685B681B0903F00102FB6923
S3150800ACD002FA03F3BA691343BB617B68BA695A601F
S3150800ACE07B68DB68BB61FB695B00032202FA03F33E
S3150800ACF0DB43BA691340BB613B689A68FB695B0032
S3150800AD0002FA03F3BA691343BB617B68BA69DA606E
S3150800AD103B685B68022B03D03B685B68122B23D128
S3150800AD20FB69DA087B68083253F82230BB61FB6995
S3150800AD3003F007039B000F2202FA03F3DB43BA6909
S3150800AD401340BB613B681A69FB6903F007039B0064
S3150800AD5002FA03F3BA691343BB61FB69DA087B6835
S3150800AD600832B96943F822107B681B68BB61FB6926
S3150800AD705B00032202FA03F3DB43BA691340BB61A3
S3150800AD803B685B6803F00302FB695B0002FA03F3A6
S3150800AD90BA691343BB617B68BA691A603B685B682A
S3150800ADA003F08053002B00F0BE80654B5B6C644A51
S3150800ADB043F480435364624B5B6C03F48043FB604B
S3150800ADC0FB68604AFB699B08023352F82330BB6173
S3150800ADD0FB6903F003039B000F2202FA03F3DB432C
S3150800ADE0BA691340BB617B68574A934237D07B6880
S3150800ADF0564A934231D07B68554A93422BD07B689A
S3150800AE00544A934225D07B68534A93421FD07B68A5
S3150800AE10524A934219D07B68514A934213D07B68B1
S3150800AE20504A93420DD07B684F4A934207D07B68BD
S3150800AE304E4A934201D1092312E00A2310E008235F
S3150800AE400EE007230CE006230AE0052308E00423A6
S3150800AE5006E0032304E0022302E0012300E00023C6
S3150800AE60FA6902F0030292009340BA691343BB6180
S3150800AE703449FB699B080233BA6941F823203C4BE5
S3150800AE801B68BB613B69DB43BA691340BB613B681E
S3150800AE905B6803F48033002B03D0BA693B6913431C
S3150800AEA0BB61334ABB691360314B5B68BB613B6965
S3150800AEB0DB43BA691340BB613B685B6803F4003344
S3150800AEC0002B03D0BA693B691343BB61284ABB69A7
S3150800AED05360274B9B68BB613B69DB43BA691340E8
S3150800AEE0BB613B685B6803F48013002B03D0BA6927
S3150800AEF03B691343BB611E4ABB6993601C4BDB6805
S3150800AF00BB613B69DB43BA691340BB613B685B685D
S3150800AF1003F40013002B03D0BA693B691343BB61E2
S3150800AF20134ABB69D360FB690133FB61FB690F2BCD
S3150800AF307FF686AE00BF2437BD465DF8047B7047B2
S3150800AF400038024000380140000002400004024078
S3150800AF5000080240000C02400010024000140240A3
S3150800AF6000180240001C0240002002400024024053
S3150800AF70003C014080B483B000AF78600B467B800C
S3150800AF8013467B707B78002B03D07A887B689A619E
S3150800AF9003E07B881A047B689A6100BF0C37BD46BC
S3150800AFA05DF8047B704780B483B000AF78600B46C9
S3150800AFB07B807B685A697B881340002B04D07B888A
S3150800AFC01A047B689A6102E07A887B689A6100BFF6
S3150800AFD00C37BD465DF8047B7047F0B58FB00AAFF5
S3150800AFE078607B68002B01D1012316E17B681B681A
S3150800AFF0BB607B6893F8BD33DBB2002B06D17B6858
S3150800B000002283F8BC237868FDF78AFF7B68032251
S3150800B01083F8BD23BB68DB6B03F48073002B02D176
S3150800B0207B6800221A617B681B68184602F044FB9D
S3150800B0307B681B683B607E686D4606F110040FCC82
S3150800B0400FC50FCC0FC594E8030085E80300331D30
S3150800B0500ECB386802F0D8FA0346002B05D07B6879
S3150800B060022283F8BD230123D7E07B681B680021F1
S3150800B070184602F032FB0023FB734AE0FA7B796834
S3150800B0801346DB009B1A9B000B443D3301221A70C2
S3150800B090FA7B79681346DB009B1A9B000B443C330A
S3150800B0A0FA7B1A70FA7BFB7B98B279681346DB0049
S3150800B0B09B1A9B000B44423302461A80FA7B796836
S3150800B0C01346DB009B1A9B000B443F3300221A7081
S3150800B0D0FA7B79681346DB009B1A9B000B444433C2
S3150800B0E000221A60FA7B79681346DB009B1A9B00DC
S3150800B0F00B44483300221A60FA7B79681346DB0052
S3150800B1009B1A9B000B44503300221A60FB7B0133C9
S3150800B110FB73FA7B7B685B689A42AFD30023FB73A9
S3150800B12044E0FA7B79681346DB009B1A9B000B44C4
S3150800B13003F2FD1300221A70FA7B79681346DB00C6
S3150800B1409B1A9B000B4403F5FE73FA7B1A70FA7B75
S3150800B15079681346DB009B1A9B000B4403F2FF1326
S3150800B16000221A70FA7B79681346DB009B1A9B004B
S3150800B1700B4403F5017300221A60FA7B79681346BB
S3150800B180DB009B1A9B000B4403F5027300221A602E
S3150800B190FA7B79681346DB009B1A9B000B4403F580
S3150800B1A0047300221A60FB7B0133FB73FA7B7B680E
S3150800B1B05B689A42B5D37B681B683B607E686D46C0
S3150800B1C006F110040FCC0FC50FCC0FC594E8030089
S3150800B1D085E80300331D0ECB386802F0A9FA03464A
S3150800B1E0002B05D07B68022283F8BD23012314E0D7
S3150800B1F07B68002283F838207B68012283F8BD2308
S3150800B2007B685B6A012B02D1786800F00BF87B68D3
S3150800B2101B68184602F05BFC002318461437BD4627
S3150800B220F0BD000080B485B000AF78607B681B680D
S3150800B230FB607B680122C3F8FC237B68002283F845
S3150800B240F423FB689B6943F00062FB689A61FB681C
S3150800B2505A6D054B1343FA6853650023184614378D
S3150800B260BD465DF8047B70470300001080B400AF4C
S3150800B270054B1B68044A43F48073136000BFBD4640
S3150800B2805DF8047B704700BF0070004080B582B04F
S3150800B29000AF00237B60234B1B6C224A43F080538C
S3150800B2A01364204B1B6C03F080533B603B681E4BBA
S3150800B2B01B681D4A43F480331360FEF7EBF9786088
S3150800B2C009E0FEF7E7F902467B68D31AB3F57A7FF9
S3150800B2D001D9032322E0144B5B6803F48033B3F5EA
S3150800B2E0803FEED1104B1B680F4A43F400331360BE
S3150800B2F0FEF7D0F9786009E0FEF7CCF902467B68DC
S3150800B300D31AB3F57A7F01D9032307E0064B5B68A6
S3150800B31003F40033B3F5003FEED10023184608378F
S3150800B320BD4680BD003802400070004080B586B03A
S3150800B33000AF78600023FB757B68002B01D10123E1
S3150800B3409BE27B681B6803F00103002B00F08780F3
S3150800B350964B9B6803F00C03042B0CD0934B9B680D
S3150800B36003F00C03082B12D1904B5B6803F480039F
S3150800B370B3F5800F0BD18D4B1B6803F40033002BFC
S3150800B3806CD07B685B68002B68D1012375E27B680B
S3150800B3905B68B3F5803F06D1844B1B68834A43F448
S3150800B3A0803313602EE07B685B68002B0CD17F4BE3
S3150800B3B01B687E4A23F4803313607C4B1B687B4AE8
S3150800B3C023F4802313601DE07B685B68B3F5A02F28
S3150800B3D00CD1764B1B68754A43F480231360734B74
S3150800B3E01B68724A43F4803313600BE06F4B1B688B
S3150800B3F06E4A23F4803313606C4B1B686B4A23F444
S3150800B400802313607B685B68002B13D0FEF742F934
S3150800B410386108E0FEF73EF902463B69D31A642B09
S3150800B42001D9032329E2614B1B6803F40033002B7F
S3150800B430F0D014E0FEF72EF9386108E0FEF72AF995
S3150800B44002463B69D31A642B01D9032315E2574BED
S3150800B4501B6803F40033002BF0D100E000BF7B68C3
S3150800B4601B6803F00203002B69D0504B9B6803F05E
S3150800B4700C03002B0BD04D4B9B6803F00C03082BD9
S3150800B4801CD14A4B5B6803F48003002B16D1474B4B
S3150800B4901B6803F00203002B05D07B68DB68012BD1
S3150800B4A001D00123E9E1414B1B6823F0F8027B68D0
S3150800B4B01B69DB003D4913430B6040E07B68DB6892
S3150800B4C0002B23D0394B1B68384A43F0010313601D
S3150800B4D0FEF7E0F8386108E0FEF7DCF802463B695B
S3150800B4E0D31A022B01D90323C7E1304B1B6803F09B
S3150800B4F00203002BF0D02D4B1B6823F0F8027B6863
S3150800B5001B69DB00294913430B6018E0274B1B68AE
S3150800B510264A23F001031360FEF7BCF8386108E0F9
S3150800B520FEF7B8F802463B69D31A022B01D9032362
S3150800B530A3E11E4B1B6803F00203002BF0D17B68C6
S3150800B5401B6803F00803002B38D07B685B69002B67
S3150800B55019D0164B5B6F154A43F001035367FEF784
S3150800B56099F8386108E0FEF795F802463B69D31A60
S3150800B570022B01D9032380E10C4B5B6F03F0020316
S3150800B580002BF0D01AE0094B5B6F084A23F0010341
S3150800B5905367FEF77FF838610AE0FEF77BF8024644
S3150800B5A03B69D31A022B03D9032366E1003802400C
S3150800B5B0924B5B6F03F00203002BEED17B681B688E
S3150800B5C003F00403002B00F0A4808C4B1B6C03F0E3
S3150800B5D08053002B0DD1894B1B6C884A43F080534E
S3150800B5E01364864B1B6C03F08053BB60BB68012356
S3150800B5F0FB75834B1B6803F48073002B18D1804BB3
S3150800B6001B687F4A43F480731360FEF743F838617A
S3150800B61008E0FEF73FF802463B69D31A642B01D9C6
S3150800B62003232AE1764B1B6803F48073002BF0D0C2
S3150800B6307B689B68012B06D1704B1B6F6F4A43F0E2
S3150800B640010313672DE07B689B68002B0CD16B4BBD
S3150800B6501B6F6A4A23F001031367684B1B6F674A1F
S3150800B66023F0040313671CE07B689B68052B0CD149
S3150800B670624B1B6F614A43F0040313675F4B1B6FF2
S3150800B6805E4A43F0010313670BE05C4B1B6F5B4A92
S3150800B69023F001031367594B1B6F584A23F0040321
S3150800B6A013677B689B68002B15D0FDF7F3FF38619D
S3150800B6B00AE0FDF7EFFF02463B69D31A41F28832EA
S3150800B6C0934201D90323D8E04C4B1B6F03F00203C6
S3150800B6D0002BEED014E0FDF7DDFF38610AE0FDF738
S3150800B6E0D9FF02463B69D31A41F28832934201D9FF
S3150800B6F00323C2E0414B1B6F03F00203002BEED17C
S3150800B700FB7D012B05D13D4B1B6C3C4A23F0805336
S3150800B71013647B689B69002B00F0AE80374B9B68EF
S3150800B72003F00C03082B6DD07B689B69022B4BD169
S3150800B730324B1B68314A23F080731360FDF7AAFF6A
S3150800B740386108E0FDF7A6FF02463B69D31A022BCB
S3150800B75001D9032391E0294B1B6803F00073002BE2
S3150800B760F0D17B68DA697B681B6A1A437B685B6A77
S3150800B7709B011A437B689B6A5B08013B1B041A43BF
S3150800B7807B68DB6A1B061A437B681B6B1B071B4916
S3150800B79013434B60194B1B68184A43F080731360B8
S3150800B7A0FDF778FF386108E0FDF774FF02463B694C
S3150800B7B0D31A022B01D903235FE0104B1B6803F051
S3150800B7C00073002BF0D057E00C4B1B680B4A23F094
S3150800B7D080731360FDF75EFF386108E0FDF75AFFD6
S3150800B7E002463B69D31A022B01D9032345E0034BD2
S3150800B7F01B6803F00073002BF0D13DE000380240CF
S3150800B800007000401F4B5B68FB607B689B69012BDF
S3150800B81030D0FB6803F480027B68DB699A4229D141
S3150800B820FB6803F03F027B681B6A9A4222D1FA68DA
S3150800B83047F6C07313407A68526A9201934219D147
S3150800B840FB6803F440327B689B6A5B08013B1B0478
S3150800B8509A420FD1FB6803F070627B68DB6A1B06AD
S3150800B8609A4207D1FB6803F0E0427B681B6B1B0713
S3150800B8709A4201D0012300E0002318461837BD4636
S3150800B88080BD00BF0038024080B584B000AF786044
S3150800B89039600023FB607B68002B01D10123D0E0CF
S3150800B8A06A4B1B6803F00F033A689A4210D9674B34
S3150800B8B01B6823F00F0265493B6813430B60634B13
S3150800B8C01B6803F00F033A689A4201D00123B8E0D7
S3150800B8D07B681B6803F00203002B20D07B681B687B
S3150800B8E003F00403002B05D0594B9B68584A43F4D0
S3150800B8F0E05393607B681B6803F00803002B05D0B0
S3150800B900534B9B68524A43F460439360504B9B6881
S3150800B91023F0F0027B689B684D4913438B607B6874
S3150800B9201B6803F00103002B40D07B685B68012B82
S3150800B93007D1474B1B6803F40033002B15D10123AD
S3150800B9407FE07B685B68022B07D1414B1B6803F0DD
S3150800B9500073002B09D1012373E03D4B1B6803F0EC
S3150800B9600203002B01D101236BE0394B9B6823F0BE
S3150800B97003027B685B68364913438B60FDF78AFED2
S3150800B980F8600AE0FDF786FE0246FB68D31A41F224
S3150800B9908832934201D9032353E02D4B9B6803F069
S3150800B9A00C027B685B689B009A42EBD1274B1B68AD
S3150800B9B003F00F033A689A4210D2244B1B6823F00F
S3150800B9C00F0222493B6813430B60204B1B6803F0A8
S3150800B9D00F033A689A4201D0012332E07B681B685C
S3150800B9E003F00403002B08D0194B9B6823F4E0529C
S3150800B9F07B68DB68164913438B607B681B6803F01A
S3150800BA000803002B09D0124B9B6823F460427B681D
S3150800BA101B69DB000E4913438B6000F021F80146D1
S3150800BA200B4B9B681B0903F00F030A4AD35C21FAE8
S3150800BA3003F3094A1360094B1B681846FDF7E6FD30
S3150800BA40002318461037BD4680BD00BF003C0240A3
S3150800BA5000380240E40C02084000002044000020A0
S3150800BA60F0B585B000AF00237B600023FB600023A0
S3150800BA703B600023BB60634B9B6803F00C03042BFD
S3150800BA8007D0082B08D0002B40F0B4805E4BBB6073
S3150800BA90B3E05E4BBB60B0E05A4B5B6803F03F0314
S3150800BAA07B60584B5B6803F48003002B4AD0554BE8
S3150800BAB05B689B094FF0000440F2FF114FF000024B
S3150800BAC003EA010504EA0206294632464FF0000356
S3150800BAD04FF00004540144EAD1644B01194622464A
S3150800BAE0491B62EB06024FF000034FF00004940175
S3150800BAF044EA91648B015B1A64EB02044FF000017F
S3150800BB004FF00002E20042EA5372D9000B4614468F
S3150800BB105B1944EB06044FF000014FF00002620285
S3150800BB2042EAD35259020B461446184621467B6808
S3150800BB304FF000041A462346FCF7EAFB03460C4678
S3150800BB40FB6049E02F4B5B689B094FF0000440F20D
S3150800BB50FF114FF0000203EA010504EA020629462E
S3150800BB6032464FF000034FF00004540144EAD16412
S3150800BB704B0119462246491B62EB06024FF00003A9
S3150800BB804FF00004940144EA91648B015B1A64EB5C
S3150800BB9002044FF000014FF00002E20042EA53723D
S3150800BBA0D9000B4614465B1944EB06044FF0000116
S3150800BBB04FF00002A20242EA935299020B4614463B
S3150800BBC0184621467B684FF000041A462346FCF7C0
S3150800BBD09FFB03460C46FB600A4B5B681B0C03F095
S3150800BBE0030301335B003B60FA683B68B2FBF3F37F
S3150800BBF0BB6002E0044BBB6000BFBB681846143745
S3150800BC00BD46F0BD003802400024F40000127A0058
S3150800BC1080B400AF034B1B681846BD465DF8047B2D
S3150800BC20704700BF4000002080B500AFFFF7F0FF67
S3150800BC300146054B9B689B0A03F00703034AD35C3E
S3150800BC4021FA03F3184680BD00380240F40C0208B6
S3150800BC5080B500AFFFF7DCFF0146054B9B685B0B21
S3150800BC6003F00703034AD35C21FA03F3184680BDA1
S3150800BC7000380240F40C020880B588B000AF78603E
S3150800BC8000237B6100233B610023FB600023FB61EB
S3150800BC900023BB617B681B6803F00103002B12D0ED
S3150800BCA0694B9B68684A23F400039360664B9A685D
S3150800BCB07B685B6B644913438B607B685B6B002B0B
S3150800BCC001D10123FB617B681B6803F40023002B69
S3150800BCD017D05D4BD3F88C3023F440127B68DB6BAE
S3150800BCE059491343C1F88C307B68DB6BB3F5801F69
S3150800BCF001D10123FB617B68DB6B002B01D101239A
S3150800BD00BB617B681B6803F48013002B17D04E4B6E
S3150800BD10D3F88C3023F440027B681B6C4A491343E2
S3150800BD20C1F88C307B681B6CB3F5800F01D10123F9
S3150800BD30FB617B681B6C002B01D10123BB617B680F
S3150800BD401B6803F08073002B01D00123FB617B681D
S3150800BD501B6803F02003002B00F08B803A4B1B6C0A
S3150800BD60394A43F080531364374B1B6C03F08053F6
S3150800BD70BB60BB68354B1B68344A43F48073136059
S3150800BD80FDF788FC786108E0FDF784FC02467B69CC
S3150800BD90D31A642B01D903238DE32C4B1B6803F4B8
S3150800BDA08073002BF0D0284B1B6F03F440733B6164
S3150800BDB03B69002B35D07B681B6B03F440733A69EB
S3150800BDC09A422ED0204B1B6F23F440733B611E4BC7
S3150800BDD01B6F1D4A43F4803313671B4B1B6F1A4AAC
S3150800BDE023F480331367184A3B691367164B1B6F96
S3150800BDF003F00103012B14D1FDF74CFC78610AE02E
S3150800BE00FDF748FC02467B69D31A41F28832934211
S3150800BE1001D903234FE30C4B1B6F03F00203002BDE
S3150800BE20EED07B681B6B03F44073B3F5407F11D1EA
S3150800BE30054B9B6823F4F8127B68196B044B0B407F
S3150800BE40014913438B600BE0003802400070004044
S3150800BE50FFFCFF0FB34B9B68B24A23F4F8139360B9
S3150800BE60B04B1A6F7B681B6BC3F30B03AD491343C7
S3150800BE700B677B681B6803F01003002B10D0A94BD7
S3150800BE80D3F88C30A74A23F08073C2F88C30A54BC0
S3150800BE90D3F88C207B689B6BA2491343C1F88C307E
S3150800BEA07B681B6803F48043002B0AD09D4BD3F8AC
S3150800BEB0903023F440327B685B6E9A491343C1F88D
S3150800BEC090307B681B6803F40043002B0AD0954B1F
S3150800BED0D3F8903023F440227B689B6E9149134334
S3150800BEE0C1F890307B681B6803F48033002B0AD0B6
S3150800BEF08C4BD3F8903023F440127B68DB6E89496B
S3150800BF001343C1F890307B681B6803F40033002B99
S3150800BF100AD0844BD3F8903023F440027B681B6F19
S3150800BF2080491343C1F890307B681B6803F04003CF
S3150800BF30002B0AD07B4BD3F8903023F003027B68A2
S3150800BF405B6C78491343C1F890307B681B6803F033
S3150800BF508003002B0AD0734BD3F8903023F00C02E1
S3150800BF607B689B6C6F491343C1F890307B681B68EC
S3150800BF7003F48073002B0AD06A4BD3F8903023F071
S3150800BF8030027B68DB6C67491343C1F890307B68E5
S3150800BF901B6803F40073002B0AD0624BD3F8903069
S3150800BFA023F0C0027B681B6D5E491343C1F89030CD
S3150800BFB07B681B6803F48063002B0AD0594BD3F8BF
S3150800BFC0903023F440727B685B6D56491343C1F881
S3150800BFD090307B681B6803F40063002B0AD0514B32
S3150800BFE0D3F8903023F440627B689B6D4D49134328
S3150800BFF0C1F890307B681B6803F48053002B0AD085
S3150800C000484BD3F8903023F440527B68DB6D4549A2
S3150800C0101343C1F890307B681B6803F40053002B68
S3150800C0200AD0404BD3F8903023F440427B681B6E0D
S3150800C0303C491343C1F890307B681B6803F48003BE
S3150800C040002B0AD0374BD3F8903023F080627B68F8
S3150800C0509B6F34491343C1F890307B681B6803F41F
S3150800C0600013002B11D02F4BD3F8903023F0006229
S3150800C0707B68DB6F2B491343C1F890307B68DB6F15
S3150800C080B3F1006F01D10123BB617B681B6803F024
S3150800C0900803002B01D00123BB617B681B6803F4EE
S3150800C0A08023002B0AD01F4BD3F8903023F0407220
S3150800C0B07B685B6F1B491343C1F890307B681B682C
S3150800C0C003F40003002B0BD0164BD3F8903023F063
S3150800C0D080527B68D3F8803012491343C1F89030F8
S3150800C0E07B681B6803F08063002B0BD00D4BD3F8DD
S3150800C0F0903023F000527B68D3F884300949134303
S3150800C100C1F890307B681B6803F00063002B0FD0E2
S3150800C110044BD3F88C3023F000727B68D3F8883050
S3150800C12002E000BF0038024085491343C1F88C304D
S3150800C1307B681B6803F08053002B0BD0804BD3F829
S3150800C1408C3023F080627B68D3F88C307C491343AB
S3150800C150C1F88C30FB69012B05D07B681B68B3F1ED
S3150800C160007F40F0D680764B1B68754A23F08063C3
S3150800C1701360FDF78FFA786108E0FDF78BFA02463F
S3150800C1807B69D31A642B01D9032394E16C4B1B6892
S3150800C19003F00063002BF0D17B681B6803F00103F2
S3150800C1A0002B21D07B685B6B002B1DD1644BD3F829
S3150800C1B084301B0C03F003033B61614BD3F88430D6
S3150800C1C01B0E03F00F03FB607B685B689A013B69F3
S3150800C1D01B041A43FB681B061A437B689B681B07EC
S3150800C1E057491343C1F884307B681B6803F400235E
S3150800C1F0002B04D07B68DB6BB3F5801F0AD07B6805
S3150800C2001B6803F48013002B2ED07B681B6CB3F5D8
S3150800C210800F29D14A4BD3F884301B0C03F0030353
S3150800C2203B61474BD3F884301B0F03F00703FB60D1
S3150800C2307B685B689A013B691B041A437B68DB6869
S3150800C2401B061A43FB681B073D491343C1F8843094
S3150800C2503B4BD3F88C3023F01F027B685B6A013BAB
S3150800C26037491343C1F88C307B681B6803F0807329
S3150800C270002B1DD0324BD3F884301B0E03F00F036E
S3150800C2803B612F4BD3F884301B0F03F00703FB6089
S3150800C2907B685B689A017B681B691B041A433B69C8
S3150800C2A01B061A43FB681B0725491343C1F884304C
S3150800C2B07B681B6803F00073002B11D07B685B68F2
S3150800C2C09A017B681B691B041A437B68DB681B069B
S3150800C2D01A437B689B681B0719491343C1F88430C6
S3150800C2E0174B1B68164A43F080631360FDF7D2F9B3
S3150800C2F0786108E0FDF7CEF902467B69D31A642B0C
S3150800C30001D90323D7E00E4B1B6803F00063002B0B
S3150800C310F0D0BB69012B40F0CD80094B1B68084A59
S3150800C32023F080531360FDF7B5F978610AE0FDF74D
S3150800C330B1F902467B69D31A642B03D90323BAE001
S3150800C340003802405E4B1B6803F00053B3F1005FF0
S3150800C350EDD07B681B6803F40023002B03D07B68B1
S3150800C360DB6B002B09D07B681B6803F48013002B5A
S3150800C3702ED07B681B6C002B2AD1514BD3F8883002
S3150800C3801B0C03F003033B614D4BD3F888301B0F9E
S3150800C39003F00703FB607B685B699A013B691B0432
S3150800C3A01A437B689B691B061A43FB681B074449AB
S3150800C3B01343C1F88830424BD3F88C3023F4F85233
S3150800C3C07B689B6A013B1B023D491343C1F88C30CD
S3150800C3D07B681B6803F40013002B22D07B68DB6F95
S3150800C3E0B3F1006F1DD1364BD3F888301B0E03F01E
S3150800C3F00F033B61324BD3F888301B0F03F007035A
S3150800C400FB607B685B699A017B681B6A1B041A439D
S3150800C4103B691B061A43FB681B0729491343C1F8E6
S3150800C42088307B681B6803F00803002B28D0244B50
S3150800C430D3F888301B0E03F00F033B61204BD3F86B
S3150800C44088301B0C03F00303FB607B685B699A0169
S3150800C450FB681B041A433B691B061A437B68DB69A6
S3150800C4601B0717491343C1F88830154BD3F88C308E
S3150800C47023F440327B68DB6A11491343C1F88C30D8
S3150800C4800F4B1B680E4A43F080531360FDF702F901
S3150800C490786108E0FDF7FEF802467B69D31A642B3B
S3150800C4A001D9032307E0064B1B6803F00053B3F1D9
S3150800C4B0005FEFD1002318462037BD4680BD00BF78
S3150800C4C00038024080B582B000AF78607B68002BE8
S3150800C4D001D101231DE07B6893F83D30DBB2002BC8
S3150800C4E006D17B68002283F83C207868FCF7AEFC0E
S3150800C4F07B68022283F83D207B681A687B680433D0
S3150800C5001946104600F040FA7B68012283F83D2060
S3150800C510002318460837BD4680BD000080B485B0A4
S3150800C52000AF78607B681B68DA687B681B6842F036
S3150800C5300102DA607B681B689A680C4B1340FB6043
S3150800C540FB68062B0BD0FB68B3F5803F07D07B68EA
S3150800C5501B681A687B681B6842F001021A60002390
S3150800C56018461437BD465DF8047B7047070001007E
S3150800C57080B582B000AF78607B681B681B6903F0E2
S3150800C5800203022B22D17B681B68DB6803F00203D7
S3150800C590022B1BD17B681B686FF002021A617B684D
S3150800C5A001221A777B681B689B6903F00303002B3B
S3150800C5B003D0786800F0CAF905E0786800F0BCF99D
S3150800C5C0786800F0CDF97B6800221A777B681B68CB
S3150800C5D01B6903F00403042B22D17B681B68DB6804
S3150800C5E003F00403042B1BD17B681B686FF004025D
S3150800C5F01A617B6802221A777B681B689B6903F4B9
S3150800C6004073002B03D0786800F0A0F905E078683D
S3150800C61000F092F9786800F0A3F97B6800221A778F
S3150800C6207B681B681B6903F00803082B22D17B680B
S3150800C6301B68DB6803F00803082B1BD17B681B68A3
S3150800C6406FF008021A617B6804221A777B681B68F8
S3150800C650DB6903F00303002B03D0786800F076F952
S3150800C66005E0786800F068F9786800F079F97B6881
S3150800C67000221A777B681B681B6903F01003102BCE
S3150800C68022D17B681B68DB6803F01003102B1BD1D3
S3150800C6907B681B686FF010021A617B6808221A779C
S3150800C6A07B681B68DB6903F44073002B03D078684A
S3150800C6B000F04CF905E0786800F03EF9786800F07B
S3150800C6C04FF97B6800221A777B681B681B6903F0A1
S3150800C6D00103012B0ED17B681B68DB6803F001039D
S3150800C6E0012B07D17B681B686FF001021A61786815
S3150800C6F000F018F97B681B681B6903F08003802B20
S3150800C7000ED17B681B68DB6803F08003802B07D19A
S3150800C7107B681B686FF080021A61786800F006FB78
S3150800C7207B681B681B6903F48073B3F5807F0ED1A1
S3150800C7307B681B68DB6803F08003802B07D17B6866
S3150800C7401B686FF480721A61786800F0F9FA7B68E2
S3150800C7501B681B6903F04003402B0ED17B681B68DE
S3150800C760DB6803F04003402B07D17B681B686FF03A
S3150800C77040021A61786800F0FDF87B681B681B693F
S3150800C78003F02003202B0ED17B681B68DB6803F0BF
S3150800C7902003202B07D17B681B686FF020021A61E3
S3150800C7A0786800F0B9FA00BF0837BD4680BD0000BA
S3150800C7B080B584B000AF786039607B6893F83C3008
S3150800C7C0012B01D10223A6E07B68012283F83C20D5
S3150800C7D07B68022283F83D207B681B689B68FB60A8
S3150800C7E0FA684F4B1340FB60FB6823F47F43FB60FA
S3150800C7F07B681B68FA689A603B681B68402B67D0A1
S3150800C800402B0BD8102B73D0102B02D8002B6FD0CF
S3150800C81078E0202B6CD0302B6AD073E0702B0DD0CB
S3150800C820702B04D8502B33D0602B41D06AE0B3F577
S3150800C830805F66D0B3F5005F17D063E07B68186841
S3150800C8403B6899683B685A683B68DB6800F0B6F94C
S3150800C8507B681B689B68FB60FB6843F07703FB609B
S3150800C8607B681B68FA689A604CE07B6818683B68C6
S3150800C87099683B685A683B68DB6800F09FF97B68F3
S3150800C8801B689A687B681B6842F480429A6039E0A4
S3150800C8907B6818683B6859683B68DB681A4600F08D
S3150800C8A013F97B681B685021184600F06CF929E0DB
S3150800C8B07B6818683B6859683B68DB681A4600F06D
S3150800C8C032F97B681B686021184600F05CF919E0AC
S3150800C8D07B6818683B6859683B68DB681A4600F04D
S3150800C8E0F3F87B681B684021184600F04CF909E00C
S3150800C8F07B681A683B681B681946104600F043F9BE
S3150800C90000E000BF7B68012283F83D207B68002297
S3150800C91083F83C20002318461037BD4680BD00BF6B
S3150800C92088FFFEFF80B483B000AF786000BF0C3785
S3150800C930BD465DF8047B704780B483B000AF78606D
S3150800C94000BF0C37BD465DF8047B704780B483B0E2
S3150800C95000AF786000BF0C37BD465DF8047B7047B2
S3150800C96080B483B000AF786000BF0C37BD465DF871
S3150800C970047B704780B483B000AF786000BF0C3783
S3150800C980BD465DF8047B704780B485B000AF78601B
S3150800C99039607B681B68FB607B68404A934213D00A
S3150800C9A07B68B3F1804F0FD07B683D4A93420BD02A
S3150800C9B07B683C4A934207D07B683B4A934203D044
S3150800C9C07B683A4A934208D1FB6823F07003FB6000
S3150800C9D03B685B68FA681343FB607B682F4A93429F
S3150800C9E02BD07B68B3F1804F27D07B682C4A9342C3
S3150800C9F023D07B682B4A93421FD07B682A4A9342EE
S3150800CA001BD07B68294A934217D07B68284A9342F1
S3150800CA1013D07B68274A93420FD07B68264A9342F5
S3150800CA200BD07B68254A934207D07B68244A9342F9
S3150800CA3003D07B68234A934208D1FB6823F44073EA
S3150800CA40FB603B68DB68FA681343FB60FB6823F00E
S3150800CA5080023B685B691343FB607B68FA681A606F
S3150800CA603B689A687B68DA623B681A687B689A62F0
S3150800CA707B680A4A934203D07B680C4A934203D1E7
S3150800CA803B681A697B681A637B6801225A6100BF92
S3150800CA901437BD465DF8047B704700BF00000140AF
S3150800CAA00004004000080040000C0040000401405B
S3150800CAB00040014000440140004801400018004081
S3150800CAC0001C00400020004080B487B000AFF8602A
S3150800CAD0B9607A60FB681B6A7B61FB681B6A23F096
S3150800CAE00102FB681A62FB689B693B613B6923F09C
S3150800CAF0F0033B617B681B013A6913433B617B6921
S3150800CB0023F00A037B617A69BB6813437B61FB6880
S3150800CB103A699A61FB687A691A6200BF1C37BD4692
S3150800CB205DF8047B704780B487B000AFF860B960E1
S3150800CB307A60FB681B6A23F01002FB681A62FB68BE
S3150800CB409B697B61FB681B6A3B617B6923F47043C5
S3150800CB507B617B681B037A6913437B613B6923F01E
S3150800CB60A0033B61BB681B013A6913433B61FB6841
S3150800CB707A699A61FB683A691A6200BF1C37BD4632
S3150800CB805DF8047B704780B485B000AF7860396083
S3150800CB907B689B68FB60FB6823F07003FB603A6860
S3150800CBA0FB68134343F00703FB607B68FA689A60E7
S3150800CBB000BF1437BD465DF8047B704780B487B064
S3150800CBC000AFF860B9607A603B60FB689B687B6180
S3150800CBD07B6923F47F437B613B681A027B681A43AF
S3150800CBE0BB6813437A6913437B61FB687A699A6069
S3150800CBF000BF1C37BD465DF8047B704780B485B01E
S3150800CC0000AF786039607B6893F83C30012B01D11E
S3150800CC1002236DE07B68012283F83C207B680222B0
S3150800CC2083F83D207B681B685B68FB607B681B6834
S3150800CC309B68BB607B681B68304A934204D07B685C
S3150800CC401B682F4A934208D1FB6823F47003FB60E4
S3150800CC503B685B68FA681343FB60FB6823F0700364
S3150800CC60FB603B681B68FA681343FB607B681B68BC
S3150800CC70FA685A607B681B68204A934222D07B6810
S3150800CC801B68B3F1804F1DD07B681B681D4A934211
S3150800CC9018D07B681B681C4A934213D07B681B68B4
S3150800CCA01A4A93420ED07B681B68154A934209D0EC
S3150800CCB07B681B68164A934204D07B681B68154A32
S3150800CCC093420CD1BB6823F08003BB603B689B682A
S3150800CCD0BA681343BB607B681B68BA689A607B684E
S3150800CCE0012283F83D207B68002283F83C2000233C
S3150800CCF018461437BD465DF8047B704700000140AE
S3150800CD00000401400004004000080040000C0040F8
S3150800CD10004001400018004080B483B000AF78603E
S3150800CD2000BF0C37BD465DF8047B704780B483B0FE
S3150800CD3000AF786000BF0C37BD465DF8047B7047CE
S3150800CD4080B483B000AF786000BF0C37BD465DF88D
S3150800CD50047B704780B582B000AF78607B68002B93
S3150800CD6001D1012340E07B685B6F002B06D17B680D
S3150800CD70002283F870207868FCF78EF87B682422F6
S3150800CD805A677B681B681A687B681B6822F0010271
S3150800CD901A60786800F02CF80346012B01D10123AC
S3150800CDA022E07B685B6A002B02D0786800F0CAFA3A
S3150800CDB07B681B685A687B681B6822F490425A6035
S3150800CDC07B681B689A687B681B6822F02A029A604F
S3150800CDD07B681B681A687B681B6842F001021A6048
S3150800CDE0786800F051FB034618460837BD4680BDF3
S3150800CDF080B588B000AF78600023BB610023FB755F
S3150800CE007B689A687B681B691A437B685B691A4367
S3150800CE107B68DB6913433B617B681B681A68B14B07
S3150800CE2013407A68126839690B4313607B681B687C
S3150800CE305B6823F440517B68DA687B681B680A43A1
S3150800CE405A607B689B693B617B681B6A3A69134336
S3150800CE503B617B681B689B6823F430617B681B68B1
S3150800CE603A690A439A607B681B689F4A934221D1B4
S3150800CE709E4BD3F8903003F00303032B16D801A278
S3150800CE8052F823F095CE0008A1CE00089BCE0008E4
S3150800CE90A7CE00080123FB7751E10223FB774EE179
S3150800CEA00423FB774BE10823FB7748E11023FB7744
S3150800CEB000BF44E17B681B688D4A934234D18B4B93
S3150800CEC0D3F8903003F00C030C2B29D801A252F8A2
S3150800CED023F000BF09CF000821CF000821CF0008A2
S3150800CEE021CF000815CF000821CF000821CF000860
S3150800CEF021CF00080FCF000821CF000821CF000856
S3150800CF0021CF00081BCF00080023FB7717E1022377
S3150800CF10FB7714E10423FB7711E10823FB770EE185
S3150800CF201023FB7700BF0AE17B681B68714A9342AE
S3150800CF3020D16E4BD3F8903003F03003102B0FD06E
S3150800CF40102B02D8002B05D010E0202B05D0302B53
S3150800CF5009D00BE00023FB77F1E00223FB77EEE034
S3150800CF600423FB77EBE00823FB77E8E01023FB7745
S3150800CF7000BFE4E07B681B685F4A934220D15B4BA5
S3150800CF80D3F8903003F0C003402B0FD0402B02D8C3
S3150800CF90002B05D010E0802B05D0C02B09D00BE064
S3150800CFA00023FB77CBE00223FB77C8E00423FB775B
S3150800CFB0C5E00823FB77C2E01023FB7700BFBEE07D
S3150800CFC07B681B684D4A934224D1484BD3F890306E
S3150800CFD003F44073B3F5807F12D0B3F5807F02D88F
S3150800CFE0002B07D012E0B3F5007F06D0B3F5407FDB
S3150800CFF009D00BE00023FB77A1E00223FB779EE034
S3150800D0000423FB779BE00823FB7798E01023FB7744
S3150800D01000BF94E07B681B68394A934224D1334B9E
S3150800D020D3F8903003F44063B3F5806F12D0B3F5AC
S3150800D030806F02D8002B07D012E0B3F5006F06D038
S3150800D040B3F5406F09D00BE00123FB7777E00223A5
S3150800D050FB7774E00423FB7771E00823FB776EE027
S3150800D0601023FB7700BF6AE07B681B68254A93425A
S3150800D07024D11E4BD3F8903003F44053B3F5805FA8
S3150800D08012D0B3F5805F02D8002B07D012E0B3F5B3
S3150800D090005F06D0B3F5405F09D00BE00023FB77AD
S3150800D0A04DE00223FB774AE00423FB7747E0082399
S3150800D0B0FB7744E01023FB7700BF40E07B681B68E2
S3150800D0C0114A934239D1094BD3F8903003F44043BF
S3150800D0D0B3F5804F27D0B3F5804F17D8002B1CD057
S3150800D0E027E000BFF369FFEF001001400038024057
S3150800D0F00044004000480040004C004000500040FA
S3150800D1000014014000780040007C0040B3F5004F51
S3150800D11006D0B3F5404F09D00BE00023FB770EE0AD
S3150800D1200223FB770BE00423FB7708E00823FB7751
S3150800D13005E01023FB7700BF01E01023FB777B682F
S3150800D140DB69B3F5004F7FD1FB7F082B5CD801A2C2
S3150800D15052F823F079D1000899D10008B9D100080E
S3150800D16009D20008D1D1000809D2000809D200085E
S3150800D17009D20008F1D10008FEF756FDF860FB68F1
S3150800D1805A007B685B685B081A447B685B68B2FB7D
S3150800D190F3F39BB2BB613AE0FEF75AFDF860FB6811
S3150800D1A05A007B685B685B081A447B685B68B2FB5D
S3150800D1B0F3F39BB2BB612AE07B685B685A085F4B56
S3150800D1C013447A685268B3FBF2F39BB2BB611EE064
S3150800D1D0FEF746FCF860FB685A007B685B685B08EC
S3150800D1E01A447B685B68B2FBF3F39BB2BB610EE043
S3150800D1F07B685B685B0803F580327B685B68B2FB1B
S3150800D200F3F39BB2BB6102E00123FB7500BFBB6968
S3150800D2100F2B16D9BB69B3F5803F12D2BB699BB2F7
S3150800D22023F00F037B81BB695B089BB203F00703FE
S3150800D2309AB27B8913437B817B681B687A89DA609B
S3150800D24070E00123FB756DE0FB7F082B59D801A21E
S3150800D25052F823F079D2000897D20008B5D2000810
S3150800D26003D30008CDD2000803D3000803D300086F
S3150800D27003D30008EBD20008FEF7D6FCF8607B68FB
S3150800D2805B685A08FB681A447B685B68B2FBF3F371
S3150800D2909BB2BB6138E0FEF7DBFCF8607B685B6835
S3150800D2A05A08FB681A447B685B68B2FBF3F39BB2C7
S3150800D2B0BB6129E07B685B685A08214B13447A688E
S3150800D2C05268B3FBF2F39BB2BB611DE0FEF7C8FBE5
S3150800D2D0F8607B685B685A08FB681A447B685B6879
S3150800D2E0B2FBF3F39BB2BB610EE07B685B685B083D
S3150800D2F003F500427B685B68B2FBF3F39BB2BB6144
S3150800D30002E00123FB7500BFBB690F2B08D9BB6977
S3150800D310B3F5803F04D27B681B68BA69DA6001E01E
S3150800D3200123FB757B6800221A667B6800225A6611
S3150800D330FB7D18462037BD4680BD00BF0048E80182
S3150800D3400024F40080B483B000AF78607B685B6A21
S3150800D35003F00103002B0AD07B681B685B6823F483
S3150800D36000317B689A6A7B681B680A435A607B6847
S3150800D3705B6A03F00203002B0AD07B681B685B68B4
S3150800D38023F480317B68DA6A7B681B680A435A6033
S3150800D3907B685B6A03F00403002B0AD07B681B6872
S3150800D3A05B6823F480217B681A6B7B681B680A43D9
S3150800D3B05A607B685B6A03F00803002B0AD07B6817
S3150800D3C01B685B6823F400417B685A6B7B681B68A3
S3150800D3D00A435A607B685B6A03F01003002B0AD085
S3150800D3E07B681B689B6823F480517B689A6B7B6813
S3150800D3F01B680A439A607B685B6A03F02003002B6C
S3150800D4000AD07B681B689B6823F400517B68DA6B3B
S3150800D4107B681B680A439A607B685B6A03F0400373
S3150800D420002B1AD07B681B685B6823F480117B6825
S3150800D4301A6C7B681B680A435A607B681B6CB3F5D9
S3150800D440801F0AD17B681B685B6823F4C0017B6870
S3150800D4505A6C7B681B680A435A607B685B6A03F0F0
S3150800D4608003002B0AD07B681B685B6823F40021C5
S3150800D4707B689A6C7B681B680A435A6000BF0C3746
S3150800D480BD465DF8047B704780B586B002AF78600C
S3150800D4907B680022DA67FCF7FDF8F8607B681B6892
S3150800D4A01B6803F00803082B0ED16FF07E43009328
S3150800D4B0FB6800224FF40011786800F02AF803464A
S3150800D4C0002B01D0032320E07B681B681B6803F050
S3150800D4D00403042B0ED16FF07E430093FB680022F1
S3150800D4E04FF48001786800F014F80346002B01D049
S3150800D4F003230AE07B6820225A677B6820229A6702
