S01500007570646174696E675F746573742E7372656394
S3150800800000000820558F00088D8D00089B8D0008FC
S31508008010A18D0008A78D0008AD8D0008000000009E
S31508008020000000000000000000000000E1F8000861
S31508008030B38D000800000000E1FA0008C18D0008B1
S31508008040A58F0008A58F0008A58F0008A58F000832
S31508008050A58F0008A58F0008A58F0008A58F000822
S31508008060A58F0008A58F0008A58F0008A58F000812
S31508008070A58F0008A58F0008A58F0008A58F000802
S31508008080A58F0008A58F0008A58F0008A58F0008F2
S31508008090A58F0008A58F0008A58F0008A58F0008E2
S315080080A0A58F0008A58F0008A58F0008A58F0008D2
S315080080B0A58F0008A58F0008A58F0008A58F0008C2
S315080080C0A58F0008A58F0008A58F0008A58F0008B2
S315080080D0A58F0008A58F0008A58F0008A58F0008A2
S315080080E0A58F0008A58F0008A58F0008A58F000892
S315080080F0A58F0008A58F0008A58F0008A58F000882
S31508008100A58F0008A58F0008A58F0008A58F000871
S31508008110A58F0008A58F0008A58F0008A58F000861
S31508008120A58F0008A58F0008A58F0008A58F000851
S31508008130A58F0008DD8D0008A58F0008A58F00080B
S31508008140A58F0008A58F0008A58F0008A58F000831
S31508008150A58F0008A58F0008A58F0008A58F000821
S31508008160A58F0008A58F0008A58F0008A58F000811
S31508008170A58F0008A58F0008A58F0008000000003D
S31508008180A58F0008A58F0008A58F0008A58F0008F1
S31508008190A58F0008A58F0008A58F0008A58F0008E1
S315080081A0A58F0008A58F0008A58F0008A58F0008D1
S315080081B0A58F0008A58F0008A58F0008A58F0008C1
S315080081C0A58F0008A58F000800000000A58F0008ED
S315080081D0A58F0008A58F0008A58F0008A58F0008A1
S315080081E0A58F0008A58F0008A58F0008A58F000891
S311080081F0A58F0008A58F0008EE11AA55FF
S3150800820010B5054C237833B9044B13B10448AFF3C2
S3150800821000800123237010BDC0000020000000006C
S3150800822060BC010808B5034B1BB103490348AFF30B
S31508008230008008BD00000000C400002060BC0108E2
S31508008240034613F8012B002AFBD1181A0138704788
S3150800825001F0FF01102A2BDB10F0070F08D010F8E9
S31508008260013B013A8B422DD010F0070F42B3F6D1ED
S31508008270F0B441EA012141EA014122F007047FF006
S3150800828000070023F0E80256083C85EA010586EA5D
S31508008290010685FA47F5A3FA87F586FA47F6A5FA99
S315080082A087F68EB9EED1F0BC01F0FF0102F00702A5
S315080082B032B110F8013B013A83EA010313B1F8D150
S315080082C00020704701387047002D06BF3546033831
S315080082D0073815F0010F07D1013015F4807F02BF6A
S315080082E0013015F4C03F0130F0BC0138704700BFBB
S315080082F053B94AB9002908BF00281CBF4FF0FF31FF
S315080083004FF0FF3000F072B9ADF1080C6DE904CEFC
S3150800831000F006F8DDF804E0DDE9022304B0704752
S315080083202DE9F047089E04468846002B4BD18A4221
S31508008330154667D9B2FA82F24AB1C2F1200701FAA4
S3150800834002F320FA07F7954047EA030894404FEAF4
S31508008350154E230CB8FBFEF71FFA85FC0EFB178893
S3150800836043EA084307FB0CF1994209D9EB1807F1D0
S31508008370FF3080F01B81994240F21881023F2B445E
S315080083805B1AA4B2B3FBFEF00EFB103344EA0344B7
S3150800839000FB0CFCA44509D92C1900F1FF3380F029
S315080083A00781A44540F2048102382C4440EA07407C
S315080083B0A4EB0C0400271EB1D4400023C6E90043F1
S315080083C03946BDE8F0878B4209D9002E00F0EB80CC
S315080083D00027C6E9000138463946BDE8F087B3FAF2
S315080083E083F7002F47D18B4202D3824200F2FA80EC
S315080083F0841A61EB030301209846002EE0D0C6E9F3
S315080084000048DDE702B9FFDEB2FA82F2002A40F040
S315080084108F80491B4FEA154E1FFA85F80127B1FBD5
S31508008420FEFC230C0EFB1C1143EA014308FB0CF16E
S31508008430994207D9EB180CF1FF3002D2994200F2A3
S31508008440CD808446591AA3B2B1FBFEF00EFB101478
S3150800845043EA044408FB00F8A04507D92C1900F1A3
S31508008460FF3302D2A04500F2B6801846A4EB0804F2
S3150800847040EA0C409FE7C7F1200CBB4022FA0CFEED
S315080084804EEA030E01FA07F420FA0CF521FA0CF36A
S315080084904FEA1E482543B3FBF8F92C0C08FB1933A1
S315080084A01FFA8EFA44EA034309FB0AF49C4202FACD
S315080084B007F200FA07F10BD91EEB030309F1FF30A7
S315080084C080F087809C4240F28480A9F102097344B7
S315080084D01B1BADB2B3FBF8F008FB103345EA0344A7
S315080084E000FB0AFAA24508D91EEB040400F1FF3383
S315080084F06BD2A24569D90238744440EA0940A0FB08
S315080085000289A4EB0A044C45C2464B4654D351D0C3
S31508008510002E69D0B1EB0A0564EB030404FA0CFCDF
S31508008520FD40FC404CEA0505C6E90054002747E72C
S31508008530C2F1200320FA03F7954001FA02F021FA66
S3150800854003F34FEA154E3843010CB3FBFEF71FFA47
S3150800855085F80EFB173341EA034107FB08F38B4204
S3150800856004FA02F407D9691807F1FF3C2FD28B42A7
S315080085702DD9023F2944CB1A81B2B3FBFEF00EFB7C
S31508008580103341EA034100FB08F38B4207D9691807
S3150800859000F1FF3C17D28B4215D902382944C91A73
S315080085A040EA07473BE73746304609E70746E7E626
S315080085B01846FBE64145ABD2B8EB020A69EB0E0258
S315080085C001381346A4E76046E9E7184695E7674683
S315080085D0D1E781467CE702382C4447E7ACF1020C28
S315080085E02B442FE7384608E73746E9E6704700BFC9
S315080085F080B400AFBFF34F8F054BDB6803F4E0622E
S315080086000349044B1343CB60BFF34F8F00BFFDE70D
S3150800861000ED00E00400FA0580B500AFFFF7E8FFBB
S3150800862080B485B000AFF860B9607A60FB68074A25
S315080086301A60BB68064A1A607B6880221A6000BF07
S315080086401437BD465DF8047B704700BFDC00002088
S3150800865030010020B0B58AB000AF00F0E3F900F0B1
S31508008660A2FC00F049F800F03BF900F0DBF800F056
S3150800867009F91E4B3C1D1D460FCD0FC495E8070092
S3150800868084E807003B1D0021184604F031FE024627
S31508008690174B1A6004F015FE00237B620BE044F2C8
S315080086A08101144801F0C5FF4FF4FA7000F0D8FCB8
S315080086B07B6A01337B627B6A092BF0DD00233B6210
S315080086C00AE044F281010B4801F0B3FF322000F0C2
S315080086D0C7FC3B6A01333B623B6A092BF1DD01218A
S315080086E0002000F0E7F9FFF797FFD5E784BC0108FB
S315080086F0A84600200004024080B5B8B000AF07F1D4
S31508008700AC0334220021184612F082FB07F19803C5
S3150800871000221A605A609A60DA601A6107F1080343
S3150800872090220021184612F073FB02F0E5F83A4B46
S315080087301B6C394A43F080531364374B1B6C03F0A8
S3150800874080537B607B68354B1B6823F44043334A70
S3150800875043F480431360314B1B6803F440433B608A
S315080087603B680123C7F8AC304FF4A023C7F8B030F4
S315080087700223C7F8C4304FF48003C7F8C83004236F
S31508008780C7F8CC306023C7F8D0300223C7F8D430F6
S315080087900423C7F8D83007F1AC03184602F00CF9E1
S315080087A00346002B01D000F07DF902F0B5F8034628
S315080087B0002B01D000F076F90F23C7F89830022372
S315080087C0C7F89C300023C7F8A0304FF48053C7F889
S315080087D0A4300023C7F8A83007F1980303211846E8
S315080087E002F098FB0346002B01D000F05BF90C4B16
S315080087F0BB6000237B650023C7F8843007F10803B4
S31508008800184602F07FFD0346002B01D000F04AF916
S3150800881000BFE037BD4680BD00380240007000400A
S315080088200001200080B500AF144B154A1A60134B9F
S315080088304FF4E1325A60114B00229A600F4B002226
S31508008840DA600E4B00221A610C4B0C225A610B4B54
S3150800885000229A61094B0022DA61084B00221A624B
S31508008860064B00225A62054803F072F90346002BAC
S3150800887001D000F017F900BF80BD00BFAC4600204C
S315080088800048004080B500AF144B4FF0A0421A6074
S31508008890124B06225A60114B0222DA600F4B002255
S315080088A01A610E4B02229A610C4B0122DA610B4BBC
S315080088B000221A62094B00225A62084B0122DA6228
S315080088C0064B00221A63054801F0CDFE0346002B2D
S315080088D001D000F0E7F800BF80BD00BF2C4700209C
S315080088E080B58CB000AF07F11C0300221A605A60ED
S315080088F09A60DA601A61464B1B6B454A43F00403DB
S315080089001363434B1B6B03F00403BB61BB69404B0A
S315080089101B6B3F4A43F0800313633D4B1B6B03F00D
S3150800892080037B617B693A4B1B6B394A43F0010331
S315080089301363374B1B6B03F001033B613B69344BF5
S315080089401B6B334A43F002031363314B1B6B03F073
S315080089500203FB60FB682E4B1B6B2D4A43F0080392
S3150800896013632B4B1B6B03F00803BB60BB68284BD8
S315080089701B6B274A43F040031363254B1B6B03F01D
S3150800898040037B607B68002244F28101214801F0A4
S3150800899037FE00224021204801F032FE4FF40053F2
S315080089A0FB611E4B3B6200237B6207F11C031946E1
S315080089B01B4801F07BFC44F28103FB6101233B6207
S315080089C000237B620023BB6207F11C03194611488A
S315080089D001F06CFC4023FB6101233B6200237B62B0
S315080089E00023BB6207F11C0319460B4801F05EFC25
S315080089F08023FB6100233B6200237B6207F11C0393
S31508008A001946054801F052FC00BF3037BD4680BD07
S31508008A10003802400004024000180240000011100D
S31508008A200008024080B400AF034B044A9A6000BFB6
S31508008A30BD465DF8047B704700ED00E00080000845
S31508008A4080B584B000AF786003F08CFF0023FB602C
S31508008A500BE044F28101124801F0EBFD4FF4FA7085
S31508008A6000F0FEFAFB680133FB60FB68632BF0DD60
S31508008A700023BB600AE044F28101094801F0D9FDF0
S31508008A80322000F0EDFABB680133BB60BB68092BE6
S31508008A90F1DD0121002000F00DF8FFF7BDFDD5E757
S31508008AA00004024080B400AF00BFBD465DF8047BF9
S31508008AB07047000080B584B000AF78600B46FB7045
S31508008AC00023FB7300F018F80346002B0CD07B68D4
S31508008AD0372B09D8074A7B6813440433FA781A7087
S31508008AE000F024F80123FB73FB7B18461037BD46BC
S31508008AF080BD00BF0000002080B582B000AF002313
S31508008B00FB71084B1B68084A934206D100F01AF815
S31508008B100346002B01D00123FB71FB791846083761
S31508008B20BD4680BD00000020A2E742CE80B500AF5A
S31508008B3000F01EF803461A46014B9A8700BF80BD0F
S31508008B400000002080B582B000AF0023FB7100F062
S31508008B500FF803461A46054B9B8F9A4201D101230B
S31508008B60FB71FB7918460837BD4680BD000000201A
S31508008B7080B483B000AF0023FB801F4B1B68DBB2B9
S31508008B809AB2FB881344FB801B4B1B681B0ADBB29B
S31508008B909AB2FB881344FB80174B1B681B0CDBB28D
S31508008BA09AB2FB881344FB80134B1B681B0EDBB27F
S31508008BB09AB2FB881344FB8000233B600BE00E4A05
S31508008BC03B68134404331B789AB2FB881344FB8032
S31508008BD03B6801333B603B68372BF0D9FB88DB43A6
S31508008BE0FB80FB880133FB80FB8818460C37BD46A3
S31508008BF05DF8047B704700BF0000002080B582B096
S31508008C0000AF114B1B6C104A43F0805313640E4B94
S31508008C101B6C03F080537B607B680B4B5B6C0A4ACA
S31508008C2043F480435364084B5B6C03F480433B6016
S31508008C303B6800220F216FF0010000F00EFB00BF19
S31508008C400837BD4680BD00BF0038024080B58AB0EF
S31508008C5000AF786007F1140300221A605A609A6020
S31508008C60DA601A617B681B68174A934228D1174B4A
S31508008C701B6C164A43F480231364144B1B6C03F4D1
S31508008C8080233B613B69114B1B6B104A43F0080379
S31508008C9013630E4B1B6B03F00803FB60FB684FF472
S31508008CA040737B610223BB610023FB6103233B62A4
S31508008CB007237B6207F114031946054801F0F6FA03
S31508008CC000BF2837BD4680BD004800400038024036
S31508008CD0000C024080B58AB000AF786007F1140333
S31508008CE000221A605A609A60DA601A617B681B680B
S31508008CF0B3F1A04F41D1234B1B6B224A43F001032A
S31508008D001363204B1B6B03F001033B613B694FF474
S31508008D10E8537B610223BB610023FB6103233B62AB
S31508008D200A237B6207F114031946174801F0BEFAB5
S31508008D304FF400737B610023BB610023FB6107F1DD
S31508008D4014031946104801F0B1FA0E4B5B6B0D4A35
S31508008D5043F0800353630B4B5B6B03F08003FB60AC
S31508008D60FB68084B5B6C074A43F480435364054B26
S31508008D705B6C03F48043BB60BB6800BF2837BD4605
S31508008D8080BD00BF003802400000024080B400AF3A
S31508008D9000BFBD465DF8047B704780B400AFFEE7B0
S31508008DA080B400AFFEE780B400AFFEE780B400AF42
S31508008DB0FEE780B400AF00BFBD465DF8047B704790
S31508008DC080B500AF00F02CF906F0E6FA0346012B51
S31508008DD001D006F0B9FE00BF80BD000080B500AF27
S31508008DE0024800F055FE00BF80BD00BF4C6400205D
S31508008DF080B586B000AFF860B9607A6000237B6101
S31508008E000AE0AFF300800146BB685A1CBA60CAB2D2
S31508008E101A707B6901337B617A697B689A42F0DB59
S31508008E207B6818461837BD4680BD80B586B000AF4A
S31508008E30F860B9607A6000237B6109E0BB685A1C58
S31508008E40BA601B781846AFF300807B6901337B61F3
S31508008E507A697B689A42F1DB7B6818461837BD4603
S31508008E6080BD80B483B000AF78604FF0FF331846FA
S31508008E700C37BD465DF8047B704780B483B000AFFD
S31508008E80786039603B684FF400525A6000231846F0
S31508008E900C37BD465DF8047B704780B483B000AFDD
S31508008EA07860012318460C37BD465DF8047B704789
S31508008EB080B485B000AFF860B9607A6000231846C0
S31508008EC01437BD465DF8047B7047000080B485B052
S31508008ED000AF7860114B1B68002B02D10F4B104A6C
S31508008EE01A600E4B1B68FB600C4B1A687B681344B0
S31508008EF06A46934205D90B4B0C221A604FF0FF3392
S31508008F0006E0064B1A687B681344044A1360FB683C
S31508008F1018461437BD465DF8047B704730030020B9
S31508008F20E8B40020E0B4002080B400AF084BD3F8C2
S31508008F308830074A43F47003C2F88830044B4FF070
S31508008F4000629A6000BFBD465DF8047B704700BFAB
S31508008F5000ED00E0DFF834D0002103E00C4B5B584D
S31508008F60435004310B480C4B42189A42F6D30B4A2D
S31508008F7002E0002342F8043B094B9A42F9D3FFF773
S31508008F80D3FF11F007FFFFF765FB704700000820C5
S31508008F9058EA010840000020C0000020C000002058
S31508008FA0E8B40020FEE780B500AF032000F04AF9D8
S31508008FB00F2000F005F8FFF721FE0023184680BDB4
S31508008FC080B582B000AF7860124B1A68124B1B78D6
S31508008FD019464FF47A73B3FBF1F3B2FBF3F3184671
S31508008FE000F065F90346002B01D001230EE07B68EB
S31508008FF00F2B0AD8002279684FF0FF3000F02DF9C0
S31508009000064A7B681360002300E0012318460837E8
S31508009010BD4680BD400000204800002044000020D6
S3150800902080B400AF064B1B781A46064B1B681344E0
S31508009030044A136000BFBD465DF8047B704700BF55
S3150800904048000020304B002080B400AF034B1B685B
S315080090501846BD465DF8047B704700BF304B0020BC
S3150800906080B584B000AF7860FFF7EEFFB8607B6824
S31508009070FB60FB68B3F1FF3F05D0094B1B781A4626
S31508009080FB681344FB6000BFFFF7DEFF0246BB68C0
S31508009090D31AFA689A42F7D800BF1037BD4680BD82
S315080090A04800002080B485B000AF78607B6803F084
S315080090B00703FB600B4BDB68BB60BA684FF6FF0320
S315080090C01340BB60FB681A02BB681A43064B13437E
S315080090D0BB60044ABB68D36000BF1437BD465DF861
S315080090E0047B704700ED00E00000FA0580B400AF8D
S315080090F0044BDB681B0A03F007031846BD465DF8F8
S31508009100047B704700ED00E080B483B000AF0346EF
S31508009110FB7197F90730002B0BDBFB7903F01F0275
S31508009120074997F907305B09012000FA02F241F86E
S31508009130232000BF0C37BD465DF8047B704700BF8F
S3150800914000E100E080B483B000AF03463960FB71EC
S3150800915097F90730002B0ADB3B68DAB20C4997F916
S3150800916007301201D2B20B4483F800230AE03B68A9
S31508009170DAB20849FB7903F00F03043B1201D2B2B5
S315080091800B441A7600BF0C37BD465DF8047B704762
S3150800919000E100E000ED00E080B489B000AFF860BF
S315080091A0B9607A60FB6803F00703FB61FB69C3F1EA
S315080091B00703042B28BF0423BB61FB690433062B72
S315080091C002D9FB69033B00E000237B614FF0FF32C5
S315080091D0BB6902FA03F3DA43BB681A407B699A4013
S315080091E04FF0FF317B6901FA03F3D9437B680B40E3
S315080091F0134318462437BD465DF8047B70470000C4
S3150800920080B582B000AF78607B68013BB3F1807FA0
S3150800921001D301230FE00A4A7B68013B53600F2103
S315080092204FF0FF30FFF78EFF054B00229A60044B84
S3150800923007221A60002318460837BD4680BD00BFBE
S3150800924010E000E080B582B000AF78607868FFF77C
S3150800925029FF00BF0837BD4680BD80B586B000AF80
S315080092600346B9607A60FB7300237B61FFF73EFF14
S3150800927078617A68B9687869FFF78EFF024697F9C8
S315080092800F3011461846FFF75DFF00BF1837BD4679
S3150800929080BD80B582B000AF0346FB7197F90730F1
S315080092A01846FFF731FF00BF0837BD4680BD80B5B9
S315080092B082B000AF78607868FFF7A2FF03461846C9
S315080092C00837BD4680BD000080B588B000AF78601D
S315080092D00023FB610023FB60A94BBB6100237B6174
S315080092E000233B617B68002B01D1012383E17B6866
S315080092F093F84430DBB2002B06D17B68002283F852
S315080093004520786803F05CFC9E4B5B6C9D4A43F4F1
S31508009310804353649B4B5B6C03F48043BB60BB6820
S31508009320994B5B68984A23F400035360964B5A6836
S315080093307B681B6A944913434B607B681B6803F57B
S3150800934080531A687B681B6842F0010203F5805354
S315080093501A60FFF779FE786111E0FFF775FE02469D
S315080093607B69D31AB3F5FA7F09D97B68032283F898
S3150800937044207B68002283F8452003233BE17B6871
S315080093801B6803F580531B6803F00103002BE4D127
S315080093907B681B681B69FB61FB6923F01C03FB6187
S315080093A001F07CFFB861BB69784A934208D9BB696A
S315080093B0774A934204D8FB6943F00803FB6127E028
S315080093C0BB69734A934208D9BB69724A934204D867
S315080093D0FB6943F00C03FB611AE0BB696D4A9342D3
S315080093E003D9BB696C4A934211D9BB696A4A93424D
S315080093F008D9BB69694A934204D8FB6943F0040358
S31508009400FB6105E0FB6943F01003FB6100E000BF68
S315080094107B681B68FA691A614FF400420021786874
S3150800942000F019FC0346002B0BD001233B61396978
S31508009430786800F0A5FC7B68012283F844200123A4
S31508009440D9E0FF20FFF70CFE7B685B68002B00F075
S31508009450A780FFF7F9FD786107F10C031A46012189
S31508009460786800F090FBFFF7EFFD02467B69D31A98
S3150800947041F2883293420FD901233B6139697868F2
S3150800948000F07EFC7B68012283F844207B6800227A
S3150800949083F845200323AEE0FB6803F00403002BA2
S315080094A0DAD04FF480520021786800F0D4FB0346E6
S315080094B0002B0BD001233B613969786800F060FC0A
S315080094C07B68012283F84420012394E0FFF7BCFD62
S315080094D0786107F10C031A460121786800F053FBFE
S315080094E0FFF7B2FD02467B69D31A41F288329342EE
S315080094F00FD901233B613969786800F041FC7B6824
S31508009500012283F844207B68002283F84520032340
S3150800951071E0FB6803F02003002BDAD007F10C0397
S315080095201A461F21786800F02EFB0346002B0BD045
S3150800953001233B613969786800F022FC7B680122C7
S3150800954083F84420012356E0FB6803F01003002B40
S3150800955004D07B684FF40062DA6002E07B68002280
S31508009560DA60FB6803F00403002B03D07B68002253
S315080095709A6037E07B684FF480429A6032E000BF19
S31508009580008793030038024000380140FF2C310160
S31508009590BF0E1602FF869303FFE0F5057FD1F0089C
S315080095A07B68DB68DB089AB27B689B685B089BB2C2
S315080095B013439BB21A460021786800F04CFB034619
S315080095C0002B0BD001233B613969786800F0D8FB82
S315080095D07B68012283F8442001230CE040F6FF70E3
S315080095E0FFF73EFD3969786800F0CAFB7B680122FF
S315080095F083F84420002318462037BD4680BD00BFA7
S3150800960080B487B000AFF860B9607A603B60002329
S315080096107B61FB6893F84530012B01D1022352E0A8
S31508009620FB68012283F84520FB68022283F8442060
S31508009630FB68BA68DA6200237B6130E07B695B010C
S31508009640BA6813443B613B694FF480121A607B6920
S3150800965040F2F45202FB03F37A6813441A463B6954
S315080096609A60FB68DB69002B05D13B691B6843F4EC
S3150800967040023B691A603B68013B7A699A4208D204
S315080096807B6901335B01BA6813441A463B69DA60A1
S3150800969002E0BA683B69DA607B6901337B617A6903
S315080096A03B689A42CAD3FB681968BA6841F2100344
S315080096B00B441A60FB68012283F84420FB680022E9
S315080096C083F84520002318461C37BD465DF8047B01
S315080096D0704780B487B000AFF860B9607A603B60C5
S315080096E000237B61FB6893F84530012B01D10223E7
S315080096F056E0FB68012283F84520FB68022283F8BE
S315080097004420FB68BA689A6200237B6134E07B696F
S315080097105B01BA6813443B613B694FF000421A602B
S315080097203B6944F2F4525A607B6940F2F45202FBF8
S3150800973003F37A6813441A463B699A60FB689B6987
S31508009740012B05D13B695B6823F000423B695A60EF
S315080097503B68013B7A699A4208D27B6901335B010F
S31508009760BA6813441A463B69DA6002E0BA683B698C
S31508009770DA607B6901337B617A693B689A42C6D3B2
S31508009780FB681968BA6841F20C030B441A60FB6857
S31508009790012283F84420FB68002283F84520002331
S315080097A018461C37BD465DF8047B704780B487B001
S315080097B000AF7860396000237B610023FB600023DB
S315080097C03B617B6893F84530012B01D10223CDE03C
S315080097D07B68012283F845207B68022283F84420AF
S315080097E03B68002B09D17B68012283F844207B68FB
S315080097F0002283F845200123B8E07B68DB6A1B68F2
S31508009800002B09DA7B68122283F844207B68002241
S3150800981083F845200123A9E03B6840F2F4529342BD
S3150800982015D93B68544AA2FB03239B0A7B613A6815
S31508009830514BA3FB02139B0A40F2F45101FB03F3BD
S31508009840D31A002B05D07B6901337B6101E0012324
S315080098507B617B69012B1CD17B68DB6A1A687B6894
S31508009860DB6A42F040521A607B68DB6A3A68C2F3E8
S315080098700C025A607B68DB6A1A687B68DB6A42F00E
S3150800988000421A607B68DB6ADB681A467B68DA6224
S315080098904BE000233B6144E07B68DB6A1A687B681F
S315080098A0DB6A22F040521A603B69002B07D17B68BD
S315080098B0DB6A1A687B68DB6A42F080521A607B684A
S315080098C0DB6A40F2F4525A607B69013B3A699A4274
S315080098D016D17B68DB6A1A687B68DB6A42F000523D
S315080098E01A607B69254A02FB03F23B68134403F2BC
S315080098F0F453FB607B68DB6AFA68C2F30C025A60B1
S315080099007B68DB6A1A687B68DB6A42F000421A6089
S315080099107B68DB6ADB681A467B68DA623B69013377
S315080099203B613A697B699A42B6D37B681A6841F209
S31508009930140313441B6803F00403002B0DD07B6843
S315080099401A6841F21403134404221A607B681A68E1
S3150800995041F20403134400221A607B68012283F84B
S3150800996044207B68002283F84520002318461C37CC
S31508009970BD465DF8047B70470BB002AC0CFAFFFFDE
S3150800998080B485B000AF78600023FB607B6893F8ED
S315080099904530012B01D1022374E07B68012283F84C
S315080099A045207B68022283F844205AE0FB6801338D
S315080099B0FB607B689B6A1B6803F44073B3F5007F02
S315080099C00DD17B689A6A7B681A637B6801229A6361
S315080099D07B689B6ADB681A467B689A6241E07B680B
S315080099E09B6A1B6803F44073002B0BD17B689B6B47
S315080099F05A1C7B689A637B689B6ADB681A467B6895
S31508009A009A622EE07B689A6A7B685A637B689B6BCE
S31508009A105A1C7B689A637B689B6B012B03D17B6816
S31508009A209A6A7B681A637B689B6A1B681B0CC3F37C
S31508009A300D031A1F7B68DA637B681B6B9A687B6861
S31508009A401A647B689B6ADB681A467B689A627B683D
S31508009A50012283F844207B68002283F845200023EE
S31508009A6010E07B689B6A1B68002B02DBFB68032BF4
S31508009A709CD97B68012283F844207B68002283F8FE
S31508009A804520012318461437BD465DF8047B704708
S31508009A9080B582B000AF78607B681A6841F214031B
S31508009AA013441B6803F04003402B12D1786803F077
S31508009AB047F97B681A6841F21403134440221A6076
S31508009AC07B68012283F844207B68002283F84520BE
S31508009AD01BE07B681A6841F2140313441B6803F001
S31508009AE00103012B11D1786800F039F87B681A68F0
S31508009AF041F21403134401221A607B68012283F899
S31508009B0044207B68002283F845207B681A6841F266
S31508009B10140313444FF480321A607B681A6841F2C2
S31508009B20140313441B6803F40043B3F5004F12D122
S31508009B30786800F01EF87B681A6841F2140313442B
S31508009B404FF400421A607B68012283F844207B6840
S31508009B50002283F8452000BF0837BD4680BD80B483
S31508009B6083B000AF786000BF0C37BD465DF8047B54
S31508009B70704780B483B000AF786000BF0C37BD462D
S31508009B805DF8047B704780B586B000AFF8600B4679
S31508009B907A607B8100237B6100233B61FB6893F835
S31508009BA04430DBB2822B01D1022350E0FB688222CB
S31508009BB083F84420FB681B681B697B617B6903F09B
S31508009BC01C037B61FB681B8ADB029BB27A69134321
S31508009BD07B617B899B0103F4F8637A6913437B6194
S31508009BE07B6923F002037B617B6943F001037B6198
S31508009BF0FB681B687A691A61FFF726FA386115E06F
S31508009C00FFF722FA02463B69D31AB3F5803F09D318
S31508009C10FB68012283F84420FB68002283F845206C
S31508009C20032314E0FB681B681B697B617B6903F0EF
S31508009C300103002BE4D1FB681B685B699BB21A46DB
S31508009C407B681A60FB68012283F8442000231846C3
S31508009C501837BD4680BD80B586B000AFF8600B46A4
S31508009C607A607B8100237B6100233B61FB6893F864
S31508009C704430DBB2422B01D102234EE0FB6842227C
S31508009C8083F84420FB681B681B697B617B6903F0CA
S31508009C901C037B61FB681B8ADB029BB27A69134350
S31508009CA07B617B899B0103F4F8637A6913437B61C3
S31508009CB07B6943F002037B617B6943F001037B61A7
S31508009CC07B689AB2FB681B685A61FB681B687A69ED
S31508009CD01A61FFF7B9F9386115E0FFF7B5F90246D9
S31508009CE03B69D31AB3F5803F09D3FB68012283F891
S31508009CF04420FB68002283F8452003230DE0FB6817
S31508009D001B681B697B617B6903F00103002BE4D1A7
S31508009D10FB68012283F84420002318461837BD46FD
S31508009D2080BD80B582B000AF78607B6893F8453017
S31508009D30012B01D102231FE07B68012283F845200D
S31508009D407B68022283F84420786800F01BFA78685A
S31508009D5000F035FA786800F07FFA786800F04CFA77
S31508009D60786800F061FA7B68012283F844207B68F2
S31508009D70002283F84520002318460837BD4680BDD3
S31508009D8080B5B0B000AF786039600023C7F8BC3042
S31508009D903B68002B07D07B684FF40062DA607B686B
S31508009DA04FF480429A600023BB640023FB640023BF
S31508009DB03B6500237B650023BB650023FB657B6849
S31508009DC0DB69002B03D14FF480633B6601E0002377
S31508009DD03B664FF400737B660023BB660023FB6675
S31508009DE000233B6700237B670023BB674023FB6791
S31508009DF00023C7F880300023C7F884300023C7F84B
S31508009E0088300023C7F88C300023C7F89030002329
S31508009E10C7F894300023C7F898300023C7F89C3059
S31508009E208023C7F8A0300023C7F8A4300023C7F85A
S31508009E30A8300023C7F8AC300023C7F8B030002399
S31508009E40C7F8B4300023C7F8B8307B681B681B68AE
S31508009E50C7F8BC30D7F8BC20AB4B1340C7F8BC30AA
S31508009E60BA6CFB6C1A433B6D1A437B6D1A437B68CD
S31508009E709B681A43BB6D1A43FB6D1A437B68DB6804
S31508009E801A433B6E1A437B6E1A43BB6E1A43FB6E2C
S31508009E901A433B6F1343D7F8BC201343C7F8BC30AB
S31508009EA07B681B68D7F8BC201A607B681B681B6830
S31508009EB0C7F8BC300120FFF7D3F87B681B68D7F8D2
S31508009EC0BC201A607A6FBB6F1A43FB6F1A43D7F828
S31508009ED080301A43D7F884301A43D7F888301A43A3
S31508009EE0D7F88C3042EA0301D7F890207B681B68C4
S31508009EF00A435A607B681B685B68C7F8BC30012058
S31508009F00FFF7AEF87B681B68D7F8BC205A607B68F9
S31508009F101B68D7F894209A607B681B68D7F8982046
S31508009F20DA607B681B689B69C7F8BC30D7F8BC2029
S31508009F304FF641731340C7F8BC30D7F89C301A0463
S31508009F40D7F8A0301A43D7F8A4301A43D7F8A83060
S31508009F501A43D7F8AC301A43D7F8B0301343D7F8BA
S31508009F60BC201343C7F8BC307B681B68D7F8BC20F5
S31508009F709A617B681B689B69C7F8BC300120FFF7AC
S31508009F806FF87B681B68D7F8BC209A61D7F8B410BD
S31508009F90D7F8B8207B681B680A43DA617B681B68B8
S31508009FA0DB69C7F8BC300120FFF75AF87B681B68E5
S31508009FB0D7F8BC20DA610023BB604FF00073FB6062
S31508009FC000233B614FF400137B610023BB61002330
S31508009FD0FB6100233B6200237B620423BB624FF0D4
S31508009FE00073FB624FF480333B634FF480037B635B
S31508009FF04FF40053BB638023FB6300233B640023B9
S3150800A0007B647B681A6841F2180313441B68C7F817
S3150800A010BC30D7F8BC203D4B1340C7F8BC30BA68F3
S3150800A020FB681A433B691A437B691A43BB691A439F
S3150800A030FB691A433B6A1A437B6A1A43BB6A134392
S3150800A040D7F8BC201343C7F8BC307B681A6841F2BE
S3150800A05018031344D7F8BC201A607B681A6841F2C3
S3150800A060180313441B68C7F8BC300120FEF7F8FF35
S3150800A0707B681A6841F218031344D7F8BC201A60A3
S3150800A080FA6A3B6B1A437B6B1A43BB6B1A43FB6B2F
S3150800A0901A433B6C9B001A437B6C1A437B681B680C
S3150800A0A042F4000203F580531A607B681B6803F5C7
S3150800A0B080531B68C7F8BC300120FEF7D1FF7B68C8
S3150800A0C01B6803F58053D7F8BC201A607B689B6928
S3150800A0D0012B0DD17B681A6841F21C0313441B68D7
S3150800A0E07A6811680A4A1A4341F21C030B441A603B
S3150800A0F07B685B691A460021786800F00BF800BF98
S3150800A100C037BD4680BD00BF0F8120FF233FDEF864
S3150800A1104000010080B487B000AFF860B9607A608B
S3150800A1207B6805331B781B027A680432127813435E
S3150800A1307B61BA68114B13441A467B6913607B68C6
S3150800A14003331B781A067B6802331B781B041A43F1
S3150800A1507B6801331B781B0213437A681278134312
S3150800A1607B61BA68064B13441A467B69136000BFC5
S3150800A1701C37BD465DF8047B704700BF408002402F
S3150800A1804480024080B584B000AF78600023FB604D
S3150800A1907B681B681A687B681B6842F008021A60AD
S3150800A1A07B681B681B68FB600120FEF759FF7B680C
S3150800A1B01B68FA681A6000BF1037BD4680BD80B5B7
S3150800A1C084B000AF78600023FB607B681B681A6860
S3150800A1D07B681B6842F004021A607B681B681B6870
S3150800A1E0FB600120FEF73CFF7B681B68FA681A6073
S3150800A1F000BF1037BD4680BD80B483B000AF78601D
S3150800A2007B681A6841F2180313441B687A68116858
S3150800A21043F4005241F218030B441A6000BF0C378E
S3150800A220BD465DF8047B704780B483B000AF7860A4
S3150800A2307B681A6841F2180313441B687A68116828
S3150800A24043F0020241F218030B441A6000BF0C37B0
S3150800A250BD465DF8047B704780B584B000AF786072
S3150800A2600023FB607B681A6841F2180313441B68D5
S3150800A2707A68116843F4801241F218030B441A6095
S3150800A2807B681A6841F2180313441B68FB600120B7
S3150800A290FEF7E6FE7B681968FA6841F218030B4474
S3150800A2A01A6000BF1037BD4680BD000080B489B073
S3150800A2B000AF786039600023FB6100237B610023CF
S3150800A2C03B610023BB610023FB6175E10122FB6949
S3150800A2D002FA03F37B613B681B687A6913403B61AA
S3150800A2E03A697B699A4240F064813B685B68012B56
S3150800A2F00BD03B685B68022B07D03B685B68112B69
S3150800A30003D03B685B68122B30D17B689B68BB61C6
S3150800A310FB695B00032202FA03F3DB43BA691340C5
S3150800A320BB613B68DA68FB695B0002FA03F3BA694A
S3150800A3301343BB617B68BA699A607B685B68BB61DB
S3150800A3400122FB6902FA03F3DB43BA691340BB61D6
S3150800A3503B685B681B0903F00102FB6902FA03F319
S3150800A360BA691343BB617B68BA695A607B68DB6864
S3150800A370BB61FB695B00032202FA03F3DB43BA699C
S3150800A3801340BB613B689A68FB695B0002FA03F3FA
S3150800A390BA691343BB617B68BA69DA603B685B6874
S3150800A3A0022B03D03B685B68122B23D1FB69DA08C2
S3150800A3B07B68083253F82230BB61FB6903F0070358
S3150800A3C09B000F2202FA03F3DB43BA691340BB6111
S3150800A3D03B681A69FB6903F007039B0002FA03F35B
S3150800A3E0BA691343BB61FB69DA087B680832B96945
S3150800A3F043F822107B681B68BB61FB695B0003227C
S3150800A40002FA03F3DB43BA691340BB613B685B6836
S3150800A41003F00302FB695B0002FA03F3BA6913430C
S3150800A420BB617B68BA691A603B685B6803F0805356
S3150800A430002B00F0BE80654B5B6C644A43F4804396
S3150800A4405364624B5B6C03F48043FB60FB68604AB1
S3150800A450FB699B08023352F82330BB61FB6903F0A2
S3150800A46003039B000F2202FA03F3DB43BA69134086
S3150800A470BB617B68574A934237D07B68564A9342FA
S3150800A48031D07B68554A93422BD07B68544A934215
S3150800A49025D07B68534A93421FD07B68524A934221
S3150800A4A019D07B68514A934213D07B68504A93422D
S3150800A4B00DD07B684F4A934207D07B684E4A934239
S3150800A4C001D1092312E00A2310E008230EE007232E
S3150800A4D00CE006230AE0052308E0042306E003232C
S3150800A4E004E0022302E0012300E00023FA6902F0F7
S3150800A4F0030292009340BA691343BB613449FB696E
S3150800A5009B080233BA6941F823203C4B1B68BB61A0
S3150800A5103B69DB43BA691340BB613B685B6803F47C
S3150800A5208033002B03D0BA693B691343BB61334AB6
S3150800A530BB691360314B5B68BB613B69DB43BA6936
S3150800A5401340BB613B685B6803F40033002B03D000
S3150800A550BA693B691343BB61284ABB695360274BF9
S3150800A5609B68BB613B69DB43BA691340BB613B68C7
S3150800A5705B6803F48013002B03D0BA693B69134365
S3150800A580BB611E4ABB6993601C4BDB68BB613B69B8
S3150800A590DB43BA691340BB613B685B6803F400138D
S3150800A5A0002B03D0BA693B691343BB61134ABB69E5
S3150800A5B0D360FB690133FB61FB690F2B7FF686AE1F
S3150800A5C000BF2437BD465DF8047B7047003802405B
S3150800A5D00038014000000240000402400008024022
S3150800A5E0000C02400010024000140240001802400D
S3150800A5F0001C02400020024000240240003C0140AA
S3150800A60080B483B000AF78600B467B8013467B70BE
S3150800A6107B78002B03D07A887B689A6103E07B8875
S3150800A6201A047B689A6100BF0C37BD465DF8047B47
S3150800A630704780B483B000AF78600B467B807B6838
S3150800A6405A697B881340002B04D07B881A047B68E0
S3150800A6509A6102E07A887B689A6100BF0C37BD462A
S3150800A6605DF8047B7047F0B58FB00AAF78607B68F9
S3150800A670002B01D1012316E17B681B68BB607B6850
S3150800A68093F8BD33DBB2002B06D17B68002283F832
S3150800A690BC237868FEF71EFB7B68032283F8BD237C
S3150800A6A0BB68DB6B03F48073002B02D17B68002246
S3150800A6B01A617B681B68184601F0FCFE7B681B68FC
S3150800A6C03B607E686D4606F110040FCC0FC50FCCB3
S3150800A6D00FC594E8030085E80300331D0ECB3868E0
S3150800A6E001F090FE0346002B05D07B68022283F812
S3150800A6F0BD230123D7E07B681B680021184601F0BB
S3150800A700EAFE0023FB734AE0FA7B79681346DB000E
S3150800A7109B1A9B000B443D3301221A70FA7B796819
S3150800A7201346DB009B1A9B000B443C33FA7B1A70DA
S3150800A730FA7BFB7B98B279681346DB009B1A9B0071
S3150800A7400B44423302461A80FA7B79681346DB00CB
S3150800A7509B1A9B000B443F3300221A70FA7B7968D8
S3150800A7601346DB009B1A9B000B44443300221A60F5
S3150800A770FA7B79681346DB009B1A9B000B44483327
S3150800A78000221A60FA7B79681346DB009B1A9B0045
S3150800A7900B44503300221A60FB7B0133FB73FA7BB0
S3150800A7A07B685B689A42AFD30023FB7344E0FA7B6D
S3150800A7B079681346DB009B1A9B000B4403F2FD13D2
S3150800A7C000221A70FA7B79681346DB009B1A9B00F5
S3150800A7D00B4403F5FE73FA7B1A70FA7B7968134605
S3150800A7E0DB009B1A9B000B4403F2FF1300221A702E
S3150800A7F0FA7B79681346DB009B1A9B000B4403F52A
S3150800A800017300221A60FA7B79681346DB009B1AEB
S3150800A8109B000B4403F5027300221A60FA7B7968E1
S3150800A8201346DB009B1A9B000B4403F504730022B6
S3150800A8301A60FB7B0133FB73FA7B7B685B689A4281
S3150800A840B5D37B681B683B607E686D4606F11004CD
S3150800A8500FCC0FC50FCC0FC594E8030085E803009D
S3150800A860331D0ECB386801F061FE0346002B05D078
S3150800A8707B68022283F8BD23012314E07B6800224B
S3150800A88083F838207B68012283F8BD237B685B6ADE
S3150800A890012B02D1786800F00BF87B681B68184614
S3150800A8A002F013F8002318461437BD46F0BD000021
S3150800A8B080B485B000AF78607B681B68FB607B68F6
S3150800A8C00122C3F8FC237B68002283F8F423FB6883
S3150800A8D09B6943F00062FB689A61FB685A6D054BF9
S3150800A8E01343FA685365002318461437BD465DF8C6
S3150800A8F0047B70470300001080B400AF054B1B684B
S3150800A900044A43F48073136000BFBD465DF8047BB8
S3150800A910704700BF0070004080B582B000AF0023CA
S3150800A9207B60234B1B6C224A43F080531364204BF5
S3150800A9301B6C03F080533B603B681E4B1B681D4A2B
S3150800A94043F480331360FEF77FFB786009E0FEF777
S3150800A9507BFB02467B68D31AB3F57A7F01D90323BA
S3150800A96022E0144B5B6803F48033B3F5803FEED1E5
S3150800A970104B1B680F4A43F400331360FEF764FB61
S3150800A980786009E0FEF760FB02467B68D31AB3F5E8
S3150800A9907A7F01D9032307E0064B5B6803F400338B
S3150800A9A0B3F5003FEED1002318460837BD4680BDF3
S3150800A9B0003802400070004080B586B000AF78606D
S3150800A9C00023FB757B68002B01D101239BE27B6882
S3150800A9D01B6803F00103002B00F08780964B9B68E9
S3150800A9E003F00C03042B0CD0934B9B6803F00C0369
S3150800A9F0082B12D1904B5B6803F48003B3F5800FE4
S3150800AA000BD18D4B1B6803F40033002B6CD07B688D
S3150800AA105B68002B68D1012375E27B685B68B3F538
S3150800AA20803F06D1844B1B68834A43F48033136006
S3150800AA302EE07B685B68002B0CD17F4B1B687E4A37
S3150800AA4023F4803313607C4B1B687B4A23F48023F2
S3150800AA5013601DE07B685B68B3F5A02F0CD1764BBD
S3150800AA601B68754A43F480231360734B1B68724A4C
S3150800AA7043F4803313600BE06F4B1B686E4A23F474
S3150800AA80803313606C4B1B686B4A23F48023136076
S3150800AA907B685B68002B13D0FEF7D6FA386108E0AE
S3150800AAA0FEF7D2FA02463B69D31A642B01D903236F
S3150800AAB029E2614B1B6803F40033002BF0D014E045
S3150800AAC0FEF7C2FA386108E0FEF7BEFA02463B69AD
S3150800AAD0D31A642B01D9032315E2574B1B6803F4D9
S3150800AAE00033002BF0D100E000BF7B681B6803F041
S3150800AAF00203002B69D0504B9B6803F00C03002B14
S3150800AB000BD04D4B9B6803F00C03082B1CD14A4B0A
S3150800AB105B6803F48003002B16D1474B1B6803F0D0
S3150800AB200203002B05D07B68DB68012B01D00123CB
S3150800AB30E9E1414B1B6823F0F8027B681B69DB00DF
S3150800AB403D4913430B6040E07B68DB68002B23D04C
S3150800AB50394B1B68384A43F001031360FEF774FA51
S3150800AB60386108E0FEF770FA02463B69D31A022BF1
S3150800AB7001D90323C7E1304B1B6803F00203002BFE
S3150800AB80F0D02D4B1B6823F0F8027B681B69DB00AD
S3150800AB90294913430B6018E0274B1B68264A23F004
S3150800ABA001031360FEF750FA386108E0FEF74CFA25
S3150800ABB002463B69D31A022B01D90323A3E11E4B94
S3150800ABC01B6803F00203002BF0D17B681B6803F0B7
S3150800ABD00803002B38D07B685B69002B19D0164B0D
S3150800ABE05B6F154A43F001035367FEF72DFA386188
S3150800ABF008E0FEF729FA02463B69D31A022B01D967
S3150800AC00032380E10C4B5B6F03F00203002BF0D0AB
S3150800AC101AE0094B5B6F084A23F001035367FEF7F6
S3150800AC2013FA38610AE0FEF70FFA02463B69D31AAF
S3150800AC30022B03D9032366E100380240924B5B6F6F
S3150800AC4003F00203002BEED17B681B6803F00403B4
S3150800AC50002B00F0A4808C4B1B6C03F08053002B58
S3150800AC600DD1894B1B6C884A43F080531364864B7D
S3150800AC701B6C03F08053BB60BB680123FB75834BD9
S3150800AC801B6803F48073002B18D1804B1B687F4A1E
S3150800AC9043F480731360FEF7D7F9386108E0FEF7CE
S3150800ACA0D3F902463B69D31A642B01D903232AE157
S3150800ACB0764B1B6803F48073002BF0D07B689B6887
S3150800ACC0012B06D1704B1B6F6F4A43F001031367C4
S3150800ACD02DE07B689B68002B0CD16B4B1B6F6A4A77
S3150800ACE023F001031367684B1B6F674A23F00403BD
S3150800ACF013671CE07B689B68052B0CD1624B1B6FA6
S3150800AD00614A43F0040313675F4B1B6F5E4A43F0C7
S3150800AD10010313670BE05C4B1B6F5B4A23F00103CF
S3150800AD201367594B1B6F584A23F0040313677B6854
S3150800AD309B68002B15D0FEF787F938610AE0FEF705
S3150800AD4083F902463B69D31A41F28832934201D904
S3150800AD500323D8E04C4B1B6F03F00203002BEED005
S3150800AD6014E0FEF771F938610AE0FEF76DF902465C
S3150800AD703B69D31A41F28832934201D90323C2E0D0
S3150800AD80414B1B6F03F00203002BEED1FB7D012B19
S3150800AD9005D13D4B1B6C3C4A23F0805313647B68FA
S3150800ADA09B69002B00F0AE80374B9B6803F00C03C1
S3150800ADB0082B6DD07B689B69022B4BD1324B1B68E5
S3150800ADC0314A23F080731360FEF73EF9386108E0D4
S3150800ADD0FEF73AF902463B69D31A022B01D9032337
S3150800ADE091E0294B1B6803F00073002BF0D17B68B8
S3150800ADF0DA697B681B6A1A437B685B6A9B011A439C
S3150800AE007B689B6A5B08013B1B041A437B68DB6A09
S3150800AE101B061A437B681B6B1B071B4913434B60B6
S3150800AE20194B1B68184A43F080731360FEF70CF938
S3150800AE30386108E0FEF708F902463B69D31A022B87
S3150800AE4001D903235FE0104B1B6803F00073002B46
S3150800AE50F0D057E00C4B1B680B4A23F08073136045
S3150800AE60FEF7F2F8386108E0FEF7EEF802463B69AD
S3150800AE70D31A022B01D9032345E0034B1B6803F0C1
S3150800AE800073002BF0D13DE000380240007000400E
S3150800AE901F4B5B68FB607B689B69012B30D0FB68A6
S3150800AEA003F480027B68DB699A4229D1FB6803F0C8
S3150800AEB03F027B681B6A9A4222D1FA6847F6C0733A
S3150800AEC013407A68526A9201934219D1FB6803F4D7
S3150800AED040327B689B6A5B08013B1B049A420FD190
S3150800AEE0FB6803F070627B68DB6A1B069A4207D12F
S3150800AEF0FB6803F0E0427B681B6B1B079A4201D094
S3150800AF00012300E0002318461837BD4680BD00BF60
S3150800AF100038024080B584B000AF786039600023FD
S3150800AF20FB607B68002B01D10123D0E06A4B1B68CC
S3150800AF3003F00F033A689A4210D9674B1B6823F04F
S3150800AF400F0265493B6813430B60634B1B6803F0AC
S3150800AF500F033A689A4201D00123B8E07B681B6860
S3150800AF6003F00203002B20D07B681B6803F0040360
S3150800AF70002B05D0594B9B68584A43F4E05393601D
S3150800AF807B681B6803F00803002B05D0534B9B68AE
S3150800AF90524A43F460439360504B9B6823F0F00297
S3150800AFA07B689B684D4913438B607B681B6803F07D
S3150800AFB00103002B40D07B685B68012B07D1474B08
S3150800AFC01B6803F40033002B15D101237FE07B684F
S3150800AFD05B68022B07D1414B1B6803F00073002BFB
S3150800AFE009D1012373E03D4B1B6803F00203002BD4
S3150800AFF001D101236BE0394B9B6823F003027B6880
S3150800B0005B68364913438B60FEF71EF8F8600AE062
S3150800B010FEF71AF80246FB68D31A41F288329342C1
S3150800B02001D9032353E02D4B9B6803F00C027B6880
S3150800B0305B689B009A42EBD1274B1B6803F00F0312
S3150800B0403A689A4210D2244B1B6823F00F02224911
S3150800B0503B6813430B60204B1B6803F00F033A68E9
S3150800B0609A4201D0012332E07B681B6803F004038F
S3150800B070002B08D0194B9B6823F4E0527B68DB68E9
S3150800B080164913438B607B681B6803F00803002B83
S3150800B09009D0124B9B6823F460427B681B69DB006E
S3150800B0A00E4913438B6000F021F801460B4B9B6851
S3150800B0B01B0903F00F030A4AD35C21FA03F3094A72
S3150800B0C01360094B1B681846FDF77AFF00231846DC
S3150800B0D01037BD4680BD00BF003C02400038024024
S3150800B0E054E801084000002044000020F0B585B06F
S3150800B0F000AF00237B600023FB6000233B60002336
S3150800B100BB60634B9B6803F00C03042B07D0082B2A
S3150800B11008D0002B40F0B4805E4BBB60B3E05E4BBA
S3150800B120BB60B0E05A4B5B6803F03F037B60584B4B
S3150800B1305B6803F48003002B4AD0554B5B689B0978
S3150800B1404FF0000440F2FF114FF0000203EA010538
S3150800B15004EA0206294632464FF000034FF000047F
S3150800B160540144EAD1644B0119462246491B62EB55
S3150800B17006024FF000034FF00004940144EA91647C
S3150800B1808B015B1A64EB02044FF000014FF00002DA
S3150800B190E20042EA5372D9000B4614465B1944EBA7
S3150800B1A006044FF000014FF00002620242EAD35251
S3150800B1B059020B461446184621467B684FF0000490
S3150800B1C01A462346FDF794F803460C46FB6049E009
S3150800B1D02F4B5B689B094FF0000440F2FF114FF0BC
S3150800B1E0000203EA010504EA0206294632464FF040
S3150800B1F000034FF00004540144EAD1644B01194698
S3150800B2002246491B62EB06024FF000034FF000048A
S3150800B210940144EA91648B015B1A64EB02044FF0D3
S3150800B22000014FF00002E20042EA5372D9000B46D1
S3150800B23014465B1944EB06044FF000014FF0000278
S3150800B240A20242EA935299020B4614461846214630
S3150800B2507B684FF000041A462346FDF749F8034673
S3150800B2600C46FB600A4B5B681B0C03F003030133B7
S3150800B2705B003B60FA683B68B2FBF3F3BB6002E035
S3150800B280044BBB6000BFBB6818461437BD46F0BD0B
S3150800B290003802400024F40000127A0080B400AF9F
S3150800B2A0034B1B681846BD465DF8047B704700BF14
S3150800B2B04000002080B500AFFFF7F0FF0146054BC0
S3150800B2C09B689B0A03F00703034AD35C21FA03F33E
S3150800B2D0184680BD0038024064E8010880B500AF12
S3150800B2E0FFF7DCFF0146054B9B685B0B03F0070382
S3150800B2F0034AD35C21FA03F3184680BD003802409E
S3150800B30064E8010880B588B000AF786000237B61E7
S3150800B31000233B610023FB600023FB610023BB6124
S3150800B3207B681B6803F00103002B12D0694B9B68EE
S3150800B330684A23F400039360664B9A687B685B6BE4
S3150800B340644913438B607B685B6B002B01D1012337
S3150800B350FB617B681B6803F40023002B17D05D4B49
S3150800B360D3F88C3023F440127B68DB6B59491343BE
S3150800B370C1F88C307B68DB6BB3F5801F01D10123E4
S3150800B380FB617B68DB6B002B01D10123BB617B680A
S3150800B3901B6803F48013002B17D04E4BD3F88C3060
S3150800B3A023F440027B681B6C4A491343C1F88C306E
S3150800B3B07B681B6CB3F5800F01D10123FB617B68A9
S3150800B3C01B6C002B01D10123BB617B681B6803F052
S3150800B3D08073002B01D00123FB617B681B6803F097
S3150800B3E02003002B00F08B803A4B1B6C394A43F044
S3150800B3F080531364374B1B6C03F08053BB60BB68E8
S3150800B400354B1B68344A43F480731360FDF71CFE02
S3150800B410786108E0FDF718FE02467B69D31A642BAB
S3150800B42001D903238DE32C4B1B6803F48073002B8F
S3150800B430F0D0284B1B6F03F440733B613B69002B2C
S3150800B44035D07B681B6B03F440733A699A422ED059
S3150800B450204B1B6F23F440733B611E4B1B6F1D4A29
S3150800B46043F4803313671B4B1B6F1A4A23F480334C
S3150800B4701367184A3B691367164B1B6F03F00103E2
S3150800B480012B14D1FDF7E0FD78610AE0FDF7DCFD3C
S3150800B49002467B69D31A41F28832934201D90323C3
S3150800B4A04FE30C4B1B6F03F00203002BEED07B68B7
S3150800B4B01B6B03F44073B3F5407F11D1054B9B68B2
S3150800B4C023F4F8127B68196B044B0B4001491343AC
S3150800B4D08B600BE00038024000700040FFFCFF0F55
S3150800B4E0B34B9B68B24A23F4F8139360B04B1A6FB8
S3150800B4F07B681B6BC3F30B03AD4913430B677B6870
S3150800B5001B6803F01003002B10D0A94BD3F88C301E
S3150800B510A74A23F08073C2F88C30A54BD3F88C2049
S3150800B5207B689B6BA2491343C1F88C307B681B6808
S3150800B53003F48043002B0AD09D4BD3F8903023F4B4
S3150800B54040327B685B6E9A491343C1F890307B683A
S3150800B5501B6803F40043002B0AD0954BD3F89030B0
S3150800B56023F440227B689B6E91491343C1F89030BF
S3150800B5707B681B6803F48033002B0AD08C4BD3F806
S3150800B580903023F440127B68DB6E89491343C1F877
S3150800B59090307B681B6803F40033002B0AD0844B79
S3150800B5A0D3F8903023F440027B681B6F804913431D
S3150800B5B0C1F890307B681B6803F04003002B0AD063
S3150800B5C07B4BD3F8903023F003027B685B6C784999
S3150800B5D01343C1F890307B681B6803F08003002B87
S3150800B5E00AD0734BD3F8903023F00C027B689B6C1F
S3150800B5F06F491343C1F890307B681B6803F4807366
S3150800B600002B0AD06A4BD3F8903023F030027B68BF
S3150800B610DB6C67491343C1F890307B681B6803F4F9
S3150800B6200073002B0AD0624BD3F8903023F0C00287
S3150800B6307B681B6D5E491343C1F890307B681B68B5
S3150800B64003F48063002B0AD0594BD3F8903023F4C7
S3150800B65040727B685B6D56491343C1F890307B682E
S3150800B6601B6803F40063002B0AD0514BD3F89030C3
S3150800B67023F440627B689B6D4D491343C1F89030B3
S3150800B6807B681B6803F48053002B0AD0484BD3F819
S3150800B690903023F440527B68DB6D45491343C1F86B
S3150800B6A090307B681B6803F40053002B0AD0404B8C
S3150800B6B0D3F8903023F440427B681B6E3C49134311
S3150800B6C0C1F890307B681B6803F48003002B0AD00E
S3150800B6D0374BD3F8903023F080627B689B6F3449F0
S3150800B6E01343C1F890307B681B6803F40013002BE2
S3150800B6F011D02F4BD3F8903023F000627B68DB6FB4
S3150800B7002B491343C1F890307B68DB6FB3F1006FA8
S3150800B71001D10123BB617B681B6803F00803002B7A
S3150800B72001D00123BB617B681B6803F48023002BCF
S3150800B7300AD01F4BD3F8903023F040727B685B6FBA
S3150800B7401B491343C1F890307B681B6803F4000358
S3150800B750002B0BD0164BD3F8903023F080527B6821
S3150800B760D3F8803012491343C1F890307B681B68C0
S3150800B77003F08063002B0BD00D4BD3F8903023F0E9
S3150800B78000527B68D3F8843009491343C1F89030D6
S3150800B7907B681B6803F00063002B0FD0044BD3F8BB
S3150800B7A08C3023F000727B68D3F8883002E000BF43
S3150800B7B00038024085491343C1F88C307B681B6802
S3150800B7C003F08053002B0BD0804BD3F88C3023F03A
S3150800B7D080627B68D3F88C307C491343C1F88C307F
S3150800B7E0FB69012B05D07B681B68B3F1007F40F02D
S3150800B7F0D680764B1B68754A23F080631360FDF785
S3150800B80023FC786108E0FDF71FFC02467B69D31A22
S3150800B810642B01D9032394E16C4B1B6803F0006386
S3150800B820002BF0D17B681B6803F00103002B21D0A5
S3150800B8307B685B6B002B1DD1644BD3F884301B0CE3
S3150800B84003F003033B61614BD3F884301B0E03F00E
S3150800B8500F03FB607B685B689A013B691B041A430C
S3150800B860FB681B061A437B689B681B0757491343EB
S3150800B870C1F884307B681B6803F40023002B04D0CE
S3150800B8807B68DB6BB3F5801F0AD07B681B6803F403
S3150800B8908013002B2ED07B681B6CB3F5800F29D143
S3150800B8A04A4BD3F884301B0C03F003033B61474B28
S3150800B8B0D3F884301B0F03F00703FB607B685B68D3
S3150800B8C09A013B691B041A437B68DB681B061A430B
S3150800B8D0FB681B073D491343C1F884303B4BD3F83B
S3150800B8E08C3023F01F027B685B6A013B37491343A0
S3150800B8F0C1F88C307B681B6803F08073002B1DD061
S3150800B900324BD3F884301B0E03F00F033B612F4BE9
S3150800B910D3F884301B0F03F00703FB607B685B6872
S3150800B9209A017B681B691B041A433B691B061A4369
S3150800B930FB681B0725491343C1F884307B681B68DD
S3150800B94003F00073002B11D07B685B689A017B6853
S3150800B9501B691B041A437B68DB681B061A437B6852
S3150800B9609B681B0719491343C1F88430174B1B689A
S3150800B970164A43F080631360FDF766FB786108E0BA
S3150800B980FDF762FB02467B69D31A642B01D90323B0
S3150800B990D7E00E4B1B6803F00063002BF0D0BB69A1
S3150800B9A0012B40F0CD80094B1B68084A23F08053D1
S3150800B9B01360FDF749FB78610AE0FDF745FB02468F
S3150800B9C07B69D31A642B03D90323BAE000380240F3
S3150800B9D05E4B1B6803F00053B3F1005FEDD07B6844
S3150800B9E01B6803F40023002B03D07B68DB6B002B5A
S3150800B9F009D07B681B6803F48013002B2ED07B6864
S3150800BA001B6C002B2AD1514BD3F888301B0C03F042
S3150800BA1003033B614D4BD3F888301B0F03F0070334
S3150800BA20FB607B685B699A013B691B041A437B6868
S3150800BA309B691B061A43FB681B0744491343C1F855
S3150800BA408830424BD3F88C3023F4F8527B689B6AD3
S3150800BA50013B1B023D491343C1F88C307B681B68C8
S3150800BA6003F40013002B22D07B68DB6FB3F1006F61
S3150800BA701DD1364BD3F888301B0E03F00F033B61FC
S3150800BA80324BD3F888301B0F03F00703FB607B6843
S3150800BA905B699A017B681B6A1B041A433B691B0690
S3150800BAA01A43FB681B0729491343C1F888307B688A
S3150800BAB01B6803F00803002B28D0244BD3F88830E2
S3150800BAC01B0E03F00F033B61204BD3F888301B0C89
S3150800BAD003F00303FB607B685B699A01FB681B0440
S3150800BAE01A433B691B061A437B68DB691B07174920
S3150800BAF01343C1F88830154BD3F88C3023F4403201
S3150800BB007B68DB6A11491343C1F88C300F4B1B68FD
S3150800BB100E4A43F080531360FDF796FA786108E001
S3150800BB20FDF792FA02467B69D31A642B01D90323DF
S3150800BB3007E0064B1B6803F00053B3F1005FEFD133
S3150800BB40002318462037BD4680BD00BF0038024096
S3150800BB5080B582B000AF78607B68002B01D10123E5
S3150800BB6040E07B685B6F002B06D17B68002283F878
S3150800BB7070207868FDF76AF87B6824225A677B6824
S3150800BB801B681A687B681B6822F001021A607868CD
S3150800BB9000F02CF80346012B01D1012322E07B6833
S3150800BBA05B6A002B02D0786800F0CAFA7B681B68CB
S3150800BBB05A687B681B6822F490425A607B681B6847
S3150800BBC09A687B681B6822F02A029A607B681B6861
S3150800BBD01A687B681B6842F001021A60786800F0F0
S3150800BBE051FB034618460837BD4680BD80B588B068
S3150800BBF000AF78600023BB610023FB757B689A68F9
S3150800BC007B681B691A437B685B691A437B68DB6937
S3150800BC1013433B617B681B681A68B14B13407A680B
S3150800BC20126839690B4313607B681B685B6823F4E9
S3150800BC3040517B68DA687B681B680A435A607B68F0
S3150800BC409B693B617B681B6A3A6913433B617B6866
S3150800BC501B689B6823F430617B681B683A690A4352
S3150800BC609A607B681B689F4A934221D19E4BD3F802
S3150800BC70903003F00303032B16D801A252F823F0E1
S3150800BC8091BC00089DBC000897BC0008A3BC00082E
S3150800BC900123FB7751E10223FB774EE10423FB776F
S3150800BCA04BE10823FB7748E11023FB7700BF44E10B
S3150800BCB07B681B688D4A934234D18B4BD3F89030FE
S3150800BCC003F00C030C2B29D801A252F823F000BF6D
S3150800BCD005BD00081DBD00081DBD00081DBD0008E6
S3150800BCE011BD00081DBD00081DBD00081DBD0008CA
S3150800BCF00BBD00081DBD00081DBD00081DBD0008C0
S3150800BD0017BD00080023FB7717E10223FB7714E130
S3150800BD100423FB7711E10823FB770EE11023FB7759
S3150800BD2000BF0AE17B681B68714A934220D16E4BBB
S3150800BD30D3F8903003F03003102B0FD0102B02D815
S3150800BD40002B05D010E0202B05D0302B09D00BE0B6
S3150800BD500023FB77F1E00223FB77EEE00423FB7771
S3150800BD60EBE00823FB77E8E01023FB7700BFE4E06D
S3150800BD707B681B685F4A934220D15B4BD3F89030AF
S3150800BD8003F0C003402B0FD0402B02D8002B05D060
S3150800BD9010E0802B05D0C02B09D00BE00023FB77E1
S3150800BDA0CBE00223FB77C8E00423FB77C5E0082332
S3150800BDB0FB77C2E01023FB7700BFBEE07B681B68F9
S3150800BDC04D4A934224D1484BD3F8903003F440733C
S3150800BDD0B3F5807F12D0B3F5807F02D8002B07D049
S3150800BDE012E0B3F5007F06D0B3F5407F09D00BE02B
S3150800BDF00023FB77A1E00223FB779EE00423FB7771
S3150800BE009BE00823FB7798E01023FB7700BF94E0BC
S3150800BE107B681B68394A934224D1334BD3F8903058
S3150800BE2003F44063B3F5806F12D0B3F5806F02D880
S3150800BE30002B07D012E0B3F5006F06D0B3F5406FBC
S3150800BE4009D00BE00123FB7777E00223FB7774E048
S3150800BE500423FB7771E00823FB776EE01023FB775A
S3150800BE6000BF6AE07B681B68254A934224D11E4BB3
S3150800BE70D3F8903003F44053B3F5805F12D0B3F58E
S3150800BE80805F02D8002B07D012E0B3F5005F06D01A
S3150800BE90B3F5405F09D00BE00023FB774DE00223A2
S3150800BEA0FB774AE00423FB7747E00823FB7744E067
S3150800BEB01023FB7700BF40E07B681B68114A93425A
S3150800BEC039D1094BD3F8903003F44043B3F5804F8A
S3150800BED027D0B3F5804F17D8002B1CD027E000BF1A
S3150800BEE0F369FFEF001001400038024000440040AB
S3150800BEF000480040004C004000500040001401403B
S3150800BF0000780040007C0040B3F5004F06D0B3F53A
S3150800BF10404F09D00BE00023FB770EE00223FB77A6
S3150800BF200BE00423FB7708E00823FB7705E01023E2
S3150800BF30FB7700BF01E01023FB777B68DB69B3F56D
S3150800BF40004F7FD1FB7F082B5CD801A252F823F063
S3150800BF5075BF000895BF0008B5BF000805C00008F2
S3150800BF60CDBF000805C0000805C0000805C00008C8
S3150800BF70EDBF0008FFF79EF9F860FB685A007B687A
S3150800BF805B685B081A447B685B68B2FBF3F39BB299
S3150800BF90BB613AE0FFF7A2F9F860FB685A007B68D4
S3150800BFA05B685B081A447B685B68B2FBF3F39BB279
S3150800BFB0BB612AE07B685B685A085F4B13447A6862
S3150800BFC05268B3FBF2F39BB2BB611EE0FFF78EF833
S3150800BFD0F860FB685A007B685B685B081A447B68F4
S3150800BFE05B68B2FBF3F39BB2BB610EE07B685B68F0
S3150800BFF05B0803F580327B685B68B2FBF3F39BB2A0
S3150800C000BB6102E00123FB7500BFBB690F2B16D984
S3150800C010BB69B3F5803F12D2BB699BB223F00F030D
S3150800C0207B81BB695B089BB203F007039AB27B89E5
S3150800C03013437B817B681B687A89DA6070E0012389
S3150800C040FB756DE0FB7F082B59D801A252F823F047
S3150800C05075C0000893C00008B1C00008FFC00008FA
S3150800C060C9C00008FFC00008FFC00008FFC00008DC
S3150800C070E7C00008FFF71EF9F8607B685B685A0896
S3150800C080FB681A447B685B68B2FBF3F39BB2BB613F
S3150800C09038E0FFF723F9F8607B685B685A08FB68A5
S3150800C0A01A447B685B68B2FBF3F39BB2BB6129E079
S3150800C0B07B685B685A08214B13447A685268B3FB5D
S3150800C0C0F2F39BB2BB611DE0FFF710F8F8607B68DE
S3150800C0D05B685A08FB681A447B685B68B2FBF3F333
S3150800C0E09BB2BB610EE07B685B685B0803F50042A8
S3150800C0F07B685B68B2FBF3F39BB2BB6102E001238A
S3150800C100FB7500BFBB690F2B08D9BB69B3F5803F28
S3150800C11004D27B681B68BA69DA6001E00123FB7503
S3150800C1207B6800221A667B6800225A66FB7D1846E1
S3150800C1302037BD4680BD00BF0048E8010024F40052
S3150800C14080B483B000AF78607B685B6A03F0010354
S3150800C150002B0AD07B681B685B6823F400317B6878
S3150800C1609A6A7B681B680A435A607B685B6A03F0B5
S3150800C1700203002B0AD07B681B685B6823F48031B6
S3150800C1807B68DA6A7B681B680A435A607B685B6A65
S3150800C19003F00403002B0AD07B681B685B6823F452
S3150800C1A080217B681A6B7B681B680A435A607B6828
S3150800C1B05B6A03F00803002B0AD07B681B685B6880
S3150800C1C023F400417B685A6B7B681B680A435A60F4
S3150800C1D07B685B6A03F01003002B0AD07B681B6838
S3150800C1E09B6823F480517B689A6B7B681B680A43BB
S3150800C1F09A607B685B6A03F02003002B0AD07B6891
S3150800C2001B689B6823F400517B68DA6B7B681B68A4
S3150800C2100A439A607B685B6A03F04003002B1AD0D6
S3150800C2207B681B685B6823F480117B681A6C7B68E3
S3150800C2301B680A435A607B681B6CB3F5801F0AD1DA
S3150800C2407B681B685B6823F4C0017B685A6C7B6853
S3150800C2501B680A435A607B685B6A03F08003002BFD
S3150800C2600AD07B681B685B6823F400217B689A6C9C
S3150800C2707B681B680A435A6000BF0C37BD465DF8E9
S3150800C280047B704780B586B002AF78607B68002271
S3150800C290DA67FCF7D9FEF8607B681B681B6803F051
S3150800C2A00803082B0ED16FF07E430093FB6800222B
S3150800C2B04FF40011786800F02AF80346002B01D0E5
S3150800C2C0032320E07B681B681B6803F00403042B28
S3150800C2D00ED16FF07E430093FB6800224FF4800175
S3150800C2E0786800F014F80346002B01D003230AE00F
S3150800C2F07B6820225A677B6820229A677B6800221F
S3150800C30083F87020002318461037BD4680BD80B5D7
S3150800C31084B000AFF860B9603B601346FB715DE01E
S3150800C320BB69B3F1FF3F59D0FCF78EFE02463B6866
S3150800C330D31ABA699A4202D3BB69002B1BD1FB6890
S3150800C3401B681A68FB681B6822F4D0721A60FB68BF
S3150800C3501B689A68FB681B6822F001029A60FB68F2
S3150800C36020225A67FB6820229A67FB68002283F816
S3150800C3707020032342E0FB681B681B6803F0040374
S3150800C380002B2BD0FB681B68DB6903F40063B3F54D
S3150800C390006F23D1FB681B684FF400621A62FB68C2
S3150800C3A01B681A68FB681B6822F4D0721A60FB685F
S3150800C3B01B689A68FB681B6822F001029A60FB6892
S3150800C3C020225A67FB6820229A67FB682022DA67D0
S3150800C3D0FB68002283F8702003230FE0FB681B68C4
S3150800C3E0DA69BB681340BA689A420CBF0123002376
S3150800C3F0DBB21A46FB799A4292D0002318461037C8
S3150800C400BD4680BD84B080B584B000AF786007F1C2
S3150800C4101C0080E80E003B6B012B20D17B689B6BD0
S3150800C42023F480327B689A637B68DA68204B134072
S3150800C4307A68D3607B68DB6823F440127B68DA602D
S3150800C440FB6C012B05D17B68DB6843F480127B68A3
S3150800C450DA60786800F052FA0346FB7310E07B68EE
S3150800C460DB6843F040027B68DA60786800F046FAD9
S3150800C4700346FB737B689B6B43F480327B689A6345
S3150800C480BB6A012B0BD17B689B6843F006027B686D
S3150800C4909A607B689B6843F020027B689A60FB7B06
S3150800C4A018461037BD46BDE8804004B0704700BF47
S3150800C4B0BFFFBDFF80B483B000AF78607B689B6820
S3150800C4C023F001027B689A60002318460C37BD46A4
S3150800C4D05DF8047B704780B582B000AF78600B4684
S3150800C4E0FB707B68DB6823F0C0427B68DA60FB7808
S3150800C4F0012B06D17B68DB6843F000527B68DA6063
S3150800C5000BE0FB78002B06D17B68DB6843F08042A2
S3150800C5107B68DA6001E0012303E03220FCF7A0FD26
S3150800C520002318460837BD4680BD000084B080B594
S3150800C53086B000AF786007F1240080E80E0000237B
S3150800C540FB757B68FB6000233B6109E07A683B6901
S3150800C55040339B00134400225A603B6901333B6118
S3150800C5603B690E2BF2D9FB6C002B1CD1FB6803F53B
S3150800C57000635B68FA6802F5006243F002035360E1
S3150800C5807B689B6B23F400127B689A637B681B6845
S3150800C59043F040027B681A607B681B6843F08002A0
S3150800C5A07B681A6005E07B689B6B43F400127B6826
S3150800C5B09A63FB6803F560631A4600231360FB68F9
S3150800C5C003F500631946FB6803F500631A460B6812
S3150800C5D01360BB6B012B0CD1FB6A002B04D1002125
S3150800C5E0786800F059F918E00121786800F054F9E4
S3150800C5F013E0BB6B032B0CD1FB6A002B04D1002183
S3150800C600786800F049F908E00121786800F044F9F3
S3150800C61003E00321786800F03FF91021786800F0FC
S3150800C620F3F80346002B01D00123FB75786800F068
S3150800C63011F90346002B01D00123FB75FB6803F5AE
S3150800C64000631A4600231361FB6803F500631A4664
S3150800C65000235361FB6803F500631A460023D36180
S3150800C66000233B6143E03B695A01FB68134403F529
S3150800C67010631B6803F00043B3F1004F18D13B6900
S3150800C680002B0AD13B695A01FB68134403F5106372
S3150800C6901A464FF00063136013E03B695A01FB68C2
S3150800C6A0134403F510631A464FF09043136008E0ED
S3150800C6B03B695A01FB68134403F510631A460023C5
S3150800C6C013603B695A01FB68134403F510631A4665
S3150800C6D0002313613B695A01FB68134403F5106391
S3150800C6E01A464FF67F3393603B6901333B617B6A99
S3150800C6F03A699A42B7D300233B6143E03B695A0142
S3150800C700FB68134403F530631B6803F00043B3F179
S3150800C710004F18D13B69002B0AD13B695A01FB68C7
S3150800C720134403F530631A464FF00063136013E0B1
S3150800C7303B695A01FB68134403F530631A464FF008
S3150800C7409043136008E03B695A01FB68134403F5FC
S3150800C75030631A46002313603B695A01FB68134489
S3150800C76003F530631A46002313613B695A01FB68D7
S3150800C770134403F530631A464FF67F3393603B69DB
S3150800C78001333B617B6A3A699A42B7D3FB6803F582
S3150800C79000631B69FA6802F5006223F4807313616B
S3150800C7A07B6800229A617B686FF080425A613B6B16
S3150800C7B0002B05D17B689B6943F010027B689A6160
S3150800C7C07B689A690E4B13437A689361FB6B002B5F
S3150800C7D005D07B689B6943F008027B689A61FB6C0D
S3150800C7E0012B05D17B689A69064B13437A689361D6
S3150800C7F0FB7D18461837BD46BDE8804004B0704733
S3150800C80000383C800400004080B485B000AF7860F2
S3150800C81039600023FB603B689B0143F020027B687C
S3150800C8201A61FB680133FB60FB68094A934201D928
S3150800C830032306E07B681B6903F02003202BF0D056
S3150800C840002318461437BD465DF8047B704700BFC1
S3150800C850400D030080B485B000AF78600023FB600C
S3150800C8607B6810221A61FB680133FB60FB68094A82
S3150800C870934201D9032306E07B681B6903F0100382
S3150800C880102BF0D0002318461437BD465DF8047BFC
S3150800C890704700BF400D030080B485B000AF7860D4
S3150800C8A00B46FB707B68FB60FB6803F500631A6840
S3150800C8B0FB78F96801F5006113430B6000231846FD
S3150800C8C01437BD465DF8047B704780B584B000AF69
S3150800C8D078607B68FB60FB6803F500635B68FA6851
S3150800C8E002F5006243F0020353600320FCF7B8FB2D
S3150800C8F0002318461037BD4680BD000080B485B0B9
S3150800C90000AF78600023FB60FB680133FB60FB68BF
S3150800C910134A934201D903231BE07B681B69002B4A
S3150800C920F2DA0023FB607B681B6943F001027B682F
S3150800C9301A61FB680133FB60FB68094A934201D917
S3150800C940032306E07B681B6903F00103012BF0D083
S3150800C950002318461437BD465DF8047B704700BFB0
S3150800C960400D030080B584B004AF8C4BC0221A700A
S3150800C9708A4BA8225A70894B01229A70874B462205
S3150800C980DA70874BFF221A70854BFF225A70844B48
S3150800C990FF229A70824B0022DA70824B00221A70AC
S3150800C9A0804B00225A707F4B00229A707D4B0022E2
S3150800C9B0DA700021002003F08DFC784B1B781A06EC
S3150800C9C0764B5B781B041A43744B9B781B02134304
S3150800C9D0724AD27813431A06704B1B7819066F4BA6
S3150800C9E05B781B0419436D4B9B781B020B436B4901
S3150800C9F0C9780B431B0203F47F031A43674B1B7862
S3150800CA001906664B5B781B041943644B9B781B021B
S3150800CA100B436249C9780B431B0A03F47F431A4345
S3150800CA205E4B1B7819065D4B5B781B0419435B4B01
S3150800CA309B781B020B435949C9780B431B0E1343BA
S3150800CA40594A1360564B1B781A06554B5B781B04DC
S3150800CA501A43534B9B781B021343514AD27813430C
S3150800CA601A064F4B1B7819064D4B5B781B04194366
S3150800CA704B4B9B781B020B434949C9780B431B0256
S3150800CA8003F47F031A43464B1B781906444B5B781D
S3150800CA901B041943424B9B781B020B434049C97838
S3150800CAA00B431B0A03F47F431A433D4B1B781906B5
S3150800CAB03B4B5B781B041943394B9B781B020B4392
S3150800CAC03749C9780B431B0E1343384A1360354B55
S3150800CAD01B781A06334B5B781B041A43314B9B7839
S3150800CAE01B0213432F4AD27813431A062D4B1B7881
S3150800CAF019062C4B5B781B0419432A4B9B781B029F
S3150800CB000B432849C9780B431B0203F47F031A43D6
S3150800CB10244B1B781906234B5B781B041943214BBE
S3150800CB209B781B020B431F49C9780B431B0A03F466
S3150800CB307F431A431B4B1B7819061A4B5B781B0459
S3150800CB401943184B9B781B020B431649C9780B43AC
S3150800CB501B0E1343164A1360164B0293164B01938A
S3150800CB6000230093124B114A0F49144804F002FCA3
S3150800CB70124804F0AFFD114B93F829309B0803F0D7
S3150800CB800103DBB2002B03D00C4804F0B3FD02E02E
S3150800CB900A4804F01BFE00BFBD4680BD704B00204E
S3150800CBA06C4B0020344B0020684B0020744B00204F
S3150800CBB0784B00201102010805D20008384B0020E6
S3150800CBC080B58EB000AF786007F1240300221A60A2
S3150800CBD05A609A60DA601A617B681B68524A934207
S3150800CBE040F09E80514B1B6B504A43F00073136311
S3150800CBF04E4B1B6B03F000733B623B6A4B4B1B6B44
S3150800CC004A4A43F080631363484B1B6B03F0806307
S3150800CC10FB61FB69454B1B6B444A43F00063136396
S3150800CC20424B1B6B03F00063BB61BB693F4B1B6B3D
S3150800CC303E4A43F0040313633C4B1B6B03F00403A7
S3150800CC407B617B69394B1B6B384A43F001031363DD
S3150800CC50364B1B6B03F001033B613B69334B1B6B84
S3150800CC60324A43F002031363304B1B6B03F0020393
S3150800CC70FB60FB682D4B1B6B2C4A43F04003136388
S3150800CC802A4B1B6B03F04003BB60BB6832237B62F5
S3150800CC900223BB620023FB6203233B630B237B63F4
S3150800CCA007F1240319462248FDF700FB86237B6219
S3150800CCB00223BB620023FB6203233B630B237B63D4
S3150800CCC007F1240319461B48FDF7F0FA4FF4005301
S3150800CCD07B620223BB620023FB6203233B630B23B5
S3150800CCE07B6307F1240319461348FDF7DFFA4FF46F
S3150800CCF020537B620223BB620023FB6203233B6350
S3150800CD000B237B6307F1240319460C48FDF7CEFA7B
S3150800CD10002205213D20FCF7A0FA3D20FCF7B9FAD0
S3150800CD2000BF3837BD4680BD00800240003802404B
S3150800CD3000080240000002400004024000180240B9
S3150800CD4080B582B000AF7860044B1B68184600F0C7
S3150800CD5039FC00BF0837BD4680BD00BF340300203C
S3150800CD60B0B590B000AF78600023BB635C4B5D4AFA
S3150800CD701A605B4B01225A60594B00221A82002323
S3150800CD8087F83030802387F83130E12387F832304E
S3150800CD90002387F83330002387F83430002387F8D8
S3150800CDA035304F4A07F1300353614D4B01229A61E2
S3150800CDB04B4B0022DA614A4B4FF400021A6248488C
S3150800CDC0FCF782FA034687F83F3097F83F30002B86
S3150800CDD008D17B6893F8293043F00403DAB27B68FC
S3150800CDE083F829200423404A40493D48FCF708FCBB
S3150800CDF004233F4A3F493A48FCF76BFC7B68062206
S3150800CE0083F82820364B5B691A787B6883F82220DA
S3150800CE10334B5B695A787B6883F82320304B5B6910
S3150800CE209A787B6883F824202D4B5B69DA787B68CF
S3150800CE3083F825202A4B5B691A797B6883F82620B4
S3150800CE40274B5B695A797B6883F827207B6840F211
S3150800CE50DC521A847B6893F8293043F00A03DAB265
S3150800CE607B6883F829200023BB620023FB6207F155
S3150800CE7028030121184600F023FB02461E4B1A60C0
S3150800CE801E4B07F10C041D460FCD0FC495E807008D
S3150800CE9084E8070007F10C037968184600F028FAB9
S3150800CEA00F48FCF73EFF07F138031A461D210C48C8
S3150800CEB0FCF769FEBB6B43F00B03BB63BB6B1A46FF
S3150800CEC01D210748FCF7C7FE07F138031A461D213E
S3150800CED00348FCF758FE00BF4037BD46B0BD00BF4B
S3150800CEE04C64002000800240946400207C4B0020A3
S3150800CEF0FC4B0020CC63002034030020A8BC0108AA
S3150800CF0080B58AB000AF786039604B4BDB6A9B68A6
S3150800CF10FB6100237B6100233B610023FB60002348
S3150800CF20BB60454BDB6ABB6100233B613B683B62E8
S3150800CF305AE0BB691B68002B03DAF82387F8273009
S3150800CF405CE03B6A5B89FB600023BB602FE0FA6903
S3150800CF503B69D0183B6A5A68BB68D1183A6940F2EF
S3150800CF60F4539B1A1A460DF048FFBB69DB68BB6190
S3150800CF70BB691B68002B03DAF82387F827303DE0E6
S3150800CF80BB699B68FB613A69FB681344A3F2F453D7
S3150800CF90FB60BA683B69D31A03F2F453BB607A693B
S3150800CFA03B69D31A03F2F4537B6100233B61FA68A9
S3150800CFB03B69134440F2F4529342C8D8FA693B6974
S3150800CFC0D0183B6A5A68BB681344FA6819460DF0CC
S3150800CFD014FF3A69FB6813443B617A69FB6813449A
S3150800CFE07B613B6A1B683B623B6A002BA1D179696E
S3150800CFF01148FCF7DBFB002387F827300E4B1A682D
S3150800D00041F2140313441B6803F02003002B0DD0D0
S3150800D010094B1A6841F21403134420221A60064B7E
S3150800D0201A6841F20403134400221A6097F927305C
S3150800D03018462837BD4680BD4C64002080B58CB0A4
S3150800D04000AF78600023FB620023BB620023FB81EC
S3150800D0500023FB610023BB6100237B6100233B6146
S3150800D0604F48FCF78DFC0346002B01D0002392E0C5
S3150800D0704B4BDB6BFB814A4B1B6C7B62FB89002BA2
S3150800D08007D0FB894FF4C1721946002004F088FCCA
S3150800D090F862FB6A002B4BD0414B1B6B3B620023AB
S3150800D0A0FB61FB6ABB6240E0BB6A5B897B6100236C
S3150800D0B0BB6121E0BB6A5A68BB69D0187A6AFB690A
S3150800D0C0D118FA6940F2F4539B1A1A460DF095FEE8
S3150800D0D03B6ADB683B623B6A9B687B62FA697B69F1
S3150800D0E01344A3F2F4537B61BA69FB69D31A03F2BA
S3150800D0F0F453BB610023FB617A69FB69134440F270
S3150800D100F4529342D6D8BB6A5A68BB69D0187A6A71
S3150800D110FB6913447A6919460DF06FFEFA697B6953
S3150800D1201344FB61BB6A1B68BB62BB6A002BBBD19D
S3150800D1301B4B1B6B3B6200233B610BE03B6A1B6886
S3150800D14043F000423B6A1A603B6ADB683B623B6914
S3150800D15001333B61124B9B6B3A699A42EED3104BF3
S3150800D16000229A630E4B1A6841F2140313441B6893
S3150800D17003F08003002B0DD0094B1A6841F2140303
S3150800D180134480221A60064B1A6841F208031344B6
S3150800D19000221A60FB6A18463037BD4680BD00BFBC
S3150800D1A04C64002080B584B000AF78607B68FB6073
S3150800D1B0124B1B684FF0FF31184600F0B5F90346CD
S3150800D1C0002BF5D10E480DF085FDF868FFF736FF00
S3150800D1D0B860BB68002B0AD0FB681B69F968B86899
S3150800D1E098470346002B02D0B86804F0B9FE0448F5
S3150800D1F00DF07FFDBB68002BE4D1D9E7340300208E
S3150800D200647C002080B582B000AF78607B68002B14
S3150800D21006D10E4B40F235220D490E480DF000FEA0
S3150800D2207B68732283F82A207B68742283F82B2074
S3150800D2307B68094A5A617B68084A9A617868FFF7E9
S3150800D2408FFD002318460837BD4680BDC4BC0108BB
S3150800D250E0BC0108F0BC01088D8E010801CF00086A
S3150800D26080B500AFFBF7F0FE0346184680BD80B4D4
S3150800D27085B000AF0346FB800023FB60B7F9063094
S3150800D280842B05D0B7F90620FB6813440333FB60EB
S3150800D290FB6818461437BD465DF8047B704780B4B2
S3150800D2A083B000AFEFF305837B607B68002B14BF68
S3150800D2B001230023DBB218460C37BD465DF8047B14
S3150800D2C0704780B500AF01F03DFC0023184680BDCD
S3150800D2D080B500AFFFF7E3FF0346002B03D001F04C
S3150800D2E04FFD034602E001F03BFD0346184680BDAC
S3150800D2F0F0B589B004AF786039607B685B69002B4C
S3150800D30020D07B689B69002B1CD07B685C687B6897
S3150800D3101D687B681E697B68B3F908301846FFF7F5
S3150800D320A6FF01467B685B697A6892690292019357
S3150800D33000913B6832462946204601F06CFA0346BE
S3150800D340FB601CE07B685C687B681D687B681B6902
S3150800D3509EB27B68B3F908301846FFF788FF024685
S3150800D36007F10C03019300923B6832462946204692
S3150800D37001F0B1FA0346012B01D0002300E0FB6857
S3150800D38018461437BD46F0BD80B582B000AF786048
S3150800D3907B685B68002B07D07B685B6819460120B1
S3150800D3A000F051FC034603E0012000F034FC03467C
S3150800D3B018460837BD4680BD80B584B000AF786092
S3150800D3C039600023BB607B68002B01D180233AE0DB
S3150800D3D00023FB603B68B3F1FF3F03D14FF0FF33F7
S3150800D3E0FB6009E03B68002B06D03B68FB60FB68E6
S3150800D3F0002B01D10123FB60FFF751FF0346002BE9
S3150800D40017D007F108031A460021786801F058F882
S3150800D4100346012B01D0FF2315E0BB68002B11D072
S3150800D4200B4B4FF080521A60BFF34F8FBFF36F8FCD
S3150800D43008E0F968786800F033FF0346012B01D04D
S3150800D440FF2300E0002318461037BD4680BD00BF05
S3150800D45004ED00E080B584B000AF78600023FB607F
S3150800D4600023BB60FFF71BFF0346002B16D007F10E
S3150800D47008031946786800F09FFD0346012B01D082
S3150800D480FF2317E0BB68002B13D00C4B4FF08052DC
S3150800D4901A60BFF34F8FBFF36F8F0AE00023002295
S3150800D4A00021786800F0EAFB0346012B01D0FF2330
S3150800D4B0FB60FB6818461037BD4680BD04ED00E0EA
S3150800D4C080B586B002AF786039607B685B68002BF0
S3150800D4D010D03B68012B0BD17B685A680323009355
S3150800D4E0134600220021012000F09EFA034616E0AA
S3150800D4F0002314E03B68012B10D1032200210120F0
